:100000000C9479100C94D4A90C94A9A90C947EA9F1
:100010000C9453A90C9428A90C94FDA80C94D2A874
:100020000C94A7A80C94AA100C94AA100C94AA10D3
:100030000C94AA100C94AA100C94AA100C949BC6B1
:100040000C94AA100C94077C0C942F7A0C94AF5447
:100050000C94AA100C94AA100C94AA100C945DA8ED
:100060000C94AA100C94CBF50C94A1F50C94AA1046
:100070000C94AA100C94AA100C94AA100C94AA1018
:100080000C9478C40C94F2C30C946CC30C94AA1016
:100090000C94AA100C94AA100C94AA100C94AA10F8
:1000A0000C94AA100C94AA100C94DCC00C9494BF6D
:1000B0000C9438C00C94AA100C94AA100C94C8C2CA
:1000C0000C9424C20C9480C10C94AA100C94AA1015
:1000D0000C94AA100C94AA100C946BF50C9441F596
:1000E0000C94AA100C94CDCD0C94C6B00C948552EF
:1000F0000C9485740C94AB760C94EACE0C94107727
:100100000C9439CD0D94061B0C94A6280C94A9B020
:100110000C94EDCE0C9403ED0C94C6A20C94C5CEB9
:100120000C9437120C94B1970C946FCD0C94D4CEE0
:100130000C9432140C94AC520C94CCD30C941A87BB
:100140000C94B09E0C948B1D0C9425720C944F5201
:100150000C946CCE0C9411740C947A160C94D015EB
:100160000C94C1990C94CA150C94F18C0C94BF9505
:100170000C9473130C94A09E0C94BDB00C947297C5
:100180000C943FCD0C948DED0C94ADCE0C9471CEAF
:100190000C9448160C94A9ED0C940DA30C94D78BD9
:1001A0000C9403130C9490B10C9418CE0C94D5CDF0
:1001B0000C9420AA0C9474D40C946EED0C9469CD1C
:1001C0000C949E9E0C94559B0C94A0570C9420521A
:1001D0000C943CCD0C94AC9E0C94248D0C94FBD5CB
:1001E0000C940ED90C94B78E0C9483D60C9415AA4B
:1001F0000C94ECA70C94FACD0C944E8B0C945B4FA2
:100200000C9400CE0C94FDA00C9435760C9485A52E
:100210000C947E8E0C94344F0C946ECE0C9412CEB3
:100220000C9421CE0C9477870C94131F0C94B86710
:100230000C94E3CE0C948C4F0C941C8D0C94765142
:100240000C9427940C944BCE0C94AD640C94A1EDBB
:100250000C94509B0C94D08E0C9494560C94D1D149
:100260000C9443A70C94FD990C949A9E0C9446967A
:100270000C9466CE0C9446CD0C947CED0C94B36E2D
:100280000C942DD50C94F9740C940FA70C949ECE5D
:100290000C941F870C9460CE0C94F6CE0C94F34F04
:1002A0000C9451CE0C94C0870C94CECE0C9442CEBC
:1002B0000C94E58B0C942E660C9406520D94B51993
:1002C0000C94CE150C9475970C94E32D0C949BED27
:1002D0000C94E7CE0C9445CE0C9477CE0C94AE9E45
:1002E0000C94A69E0C94111F0C9405A30C9406CE9E
:1002F0000C94D8150C94C2CE0C9462CD0D941D1C98
:100300000C9483A70C9426990C947BCD0C94969E08
:100310000C94CB960C94D8500C945ACE0C94C7875E
:100320000C94113B0C94C2960C94A21E0C9436CEE5
:100330000C9407A70C9478CD0D94F71B0C94A49EF5
:100340000C9460AA0C9430CD0C9435130C9453CDBE
:100350000C943D8B0C94482C0C9430CE0C94E113EF
:100360000C9457670C9447A20C94DCCD0C9421514B
:100370000C9452EC0C945D320C942BA30C94789B4F
:100380000C94B4950C949C9E0C948BA40C947EA31A
:100390000C9498B00C94FD520C94EBA20C9492CE59
:1003A0000C941BCE0C94058D0C94AB870C944739A0
:1003B0000C9489ED0C94958B0C941F4F0C94CB23CB
:1003C0000C94348D0C94B4D00C9492520C945F51D4
:1003D0000C9409CE0C9464A50C943C8E0C94CC1512
:1003E0000C9403A70C94801E0C94E0720C9469CEBC
:1003F0000C9463CE0C9473D70C949F520C94CE94AF
:100400000C946D1E0C94B0CE0C9415CE0C945FB170
:100410000C943FCE0C94AA9E0C94F3960C944B34FF
:100420000C94AB9D0C9443520C944FA40C9476A363
:100430000C94F0960C942E650C9480CE0C947AA3B8
:100440000D94751C0C9406940C94A69A0C9433CEBF
:100450000C947ACE0C9481CD0C9480330C946DAABC
:100460000C9424CE0C9486CE0C94A8260C9456CDD5
:100470000C9410580C943CCE0C94A89E0C940EA591
:100480000C9486A20C94A0870C94A0A20C948EAA23
:100490000C9433CD0C946CCD0C943C210C94558B66
:1004A0000C9466EC0C9484770C9416EC0C94AEEDE2
:1004B0000D94A31C0C94521D0C94BF500C9458A383
:1004C0000C949E3C0C94BE8B0C94D3580C9427CE69
:1004D0000C9492650C9472CD0C94CD8D0C943817BD
:1004E0000C9472A30C9456560C94389B0C948295E1
:1004F0000C946F870C94FDCD0C94F1660C941156FE
:100500000C9441300C945C420C9468220C94F4CD11
:100510000C94FD950C94CB520C9490150D94991C51
:100520000C94D6300C94EB8C0C94C9150C944D7330
:100530000C9451DB0C94238E0C9419A50C94C815C3
:100540000C9487B10C942FA30C94E48F0C94003678
:100550000C940CCE0C94CA320C9424AA0C940F1F49
:100560000C94CD150C94E3130C9496430C94E296E2
:100570000C94CDA70C942CAA0C94C3A50C94D1CEAA
:100580000C943B4A0D94731D0C94378B0C945DCEE8
:100590000C94B24A0C945F270C9498CE0C9454CED1
:1005A0000C94AACE0C9447D10C945D940C94B9870A
:1005B0000C9439150C94AB8E0C94E9CD0C94318EBF
:1005C0000C9456B10C94B49E0C9442CD0C940B1F19
:1005D0000C9447870C94CFB00C94F7CD0C9480ED1D
:1005E0000C946FA50C9471DA0C94B2870C9475CDB1
:1005F0000C9430950C94BE180C94AE450C94CF1509
:100600000C9495A10C9482720C94DD960C94171F97
:100610000C94B9960C94B2DA0C943B9B0C948D9488
:100620000C94F26C0C9448CE0C9429870C9436529E
:100630000C94E28E0C94E6F60C94C6CD0C9422AA8F
:100640000C946B1D0C94591F0C94034B0C9408478D
:100650000C94C7A40C94B9CE0C9437760C94B68B3A
:100660000C947DCE0C94D4960C9454AA0C94AFEDBB
:100670000C9424A50C94B29E0C9493ED0C942B41F5
:100680000C94DE8B0C9487A70C94913D0C94EECDCA
:100690000C9409990C94B3730C94989E0C94D7CE37
:1006A0000C944DCD0C94CBCE0D941F1D0C9497ED56
:1006B0000C944D9B0C942AAA0C9409A30C94B3CED1
:1006C0000C94A3CD0C94DACE0C948CCE0C94F0CE7A
:1006D0000C9461750C949BCE0C94C0520C9483EDD9
:1006E0000C9429970C94CB150C94DDCE0C944CAA49
:1006F0000C94F2520C942ACE0C94D9A50C9487A594
:100700000C94F3CE0C941E570C94D6520C9449A121
:100710000C94D01D0C94BB510C9447A70C9424D876
:100720000C94811F0C9489CE0C9439CE0C9436CD48
:100730000C94A8A20C94A5ED0C94C7940C94A897C3
:100740000C94D6D20C94B3ED0C94658B0C94886BFE
:100750000C94871D0C94BB100C9411680C944ECE15
:100760000C94A96D0C944ACD0C94C2A20C94E5DBB8
:100770000C94C3150C94B6CE0C944A2B0C94B4B0C4
:100780000C94F3290D94781C0C9403CE0C94C8CED1
:100790000C9413740C94CFA60C9406D70C9474ED9F
:1007A0000C94D08B0C944DB10C94ED3B0C940FCE6B
:1007B0000C94A4CE0C9430870C9498140C94D251C1
:1007C0000D94051C0C94A29E0C94A6960C94A1CE9C
:1007D0000C94708D0C941ECE0C9426DD0C9468B194
:1007E0000C942DA20C942A940C94B69E0C94BEA248
:1007F0000C94C2D80C9483CE0C94F12E0C94E6CDBC
:100800000C946B520C94CEA50C944F960C94F9CE8C
:100810000C9474EC0C94F4950C94D8B00C94273A86
:100820000C948E950C94478B0C9499950C94C58FD1
:100830000C9411A30C94208E0C94BCCE0C94649850
:100840000C9440940C9413A40C9428A50C94749AC2
:100850000C9422160C947ECD0C945FCD0C9482AA3D
:100860000C94E2130C94C4CF0C9495CE0C9437875F
:100870000C94B1360C94E1A10C9498870C9428AA9E
:100880000D9434190C94754A0C94CF750C94A8D916
:100890000C94EB770C943A510C94E9340C940BA71C
:1008A0000C94BFCE0C944FA70C9429950D9450191D
:1008B0000C94B6EC0D94921C0C945CCD0C9487D1E6
:1008C0000C94E0CE0C9478ED0C948D8B0C947AA55E
:1008D0000C94151F0C94A7CE0D942F1D0C948D51C4
:1008E0000C942DCE0C9415A30C945F6B0C94618D1D
:1008F0000C94E2D40C94F38E0C944B6C0C9494A353
:100900000C94691E0C94D2A40C9443EC0C9450CD1E
:100910000C94A4A20C9459CD0C94744F0C9474CEE6
:100920000C9477910C94F7B00C944BA70C9498A36B
:100930000C9457CE0C948FCE0C9492440C949BAA9A
:100940000C94C98B0C9433A30A50616765206861CD
:1009500073206E6F74206265656E20696D706C65C2
:100960006D656E74656420796574000A326E64206A
:1009700049676E6974696F6E204D6170000A326E4E
:1009800064204675656C204D6170000A5061676592
:10099000203920436667000A5472696D2031205463
:1009A00061626C65000A565654204D6170000A421F
:1009B0006F6F7374204D6170000A506720362043BA
:1009C0006F6E666967000A414652204D6170000AE9
:1009D0005067203420436667000A49676E6974696E
:1009E0006F6E204D6170000A5067203220436667A9
:1009F000000A5645204D6170004572723A20556ECE
:100A00006B6E6F776E20636D64000A3D3D3D436FF2
:100A10006D6D616E642048656C703D3D3D0A0A4114
:100A20006C6C20636F6D6D616E6473206172652004
:100A300073696E676C652063686172616374657267
:100A400020616E642061726520636F6E63617465FE
:100A50006E61746564207769746820746865697272
:100A600020706172616D6574657273200A776974B4
:100A7000686F7574207370616365732E53796E743B
:100A800061783A20203C636F6D6D616E643E2B3C53
:100A9000706172616D65746572313E2B3C7061727C
:100AA000616D65746572323E2B3C706172616D657B
:100AB0007465724E3E0A0A3D3D3D4C697374206F69
:100AC0006620436F6D6D616E64733D3D3D0A0A4162
:100AD000202D20446973706C61797320333120625A
:100AE00079746573206F662063757272656E7453D6
:100AF00074617475732076616C75657320696E20FE
:100B000062696E61727920286C697665206461740F
:100B100061290A42202D204275726E20637572721F
:100B2000656E74206D617020616E6420636F6E6607
:100B30006967506167652076616C75657320746FB5
:100B400020656570726F6D0A43202D2054657374A3
:100B500020434F4D20706F72742E202055736564B2
:100B60002062792054756E657273747564696F20A4
:100B7000746F20736565207768657468657220619D
:100B80006E20454355206973206F6E206120676990
:100B900076656E2073657269616C200A20202020C2
:100BA000706F72742E2052657475726E732061209E
:100BB00062696E617279206E756D6265722E0A4E81
:100BC000202D205072696E74206E6577206C696EDE
:100BD000652E0A50202D205365742063757272654E
:100BE0006E7420706167652E202053796E74617871
:100BF0003A2020502B3C706167654E756D626572BE
:100C00003E0A52202D2053616D65206173204120E2
:100C1000636F6D6D616E640A53202D20446973709B
:100C20006C6179207369676E6174757265206E7589
:100C30006D6265720A51202D2053616D65206173CC
:100C4000205320636F6D6D616E640A56202D204421
:100C50006973706C6179206D6170206F7220636FB1
:100C60006E666967506167652076616C7565732093
:100C7000696E2062696E6172790A57202D20536572
:100C800074206F6E65206279746520696E206D61D5
:100C900070206F7220636F6E666967506167652EA2
:100CA0002020457870656374732062696E61727983
:100CB00020706172616D65746572732E200A202048
:100CC000202053796E7461783A2020572B3C6F6650
:100CD000667365743E2B3C6E6577627974653E0A77
:100CE00074202D205365742063616C696272617495
:100CF000696F6E2076616C7565732E202045787063
:100D0000656374732062696E6172792070617261CB
:100D10006D65746572732E20205461626C65206964
:100D20006E64657820697320656974686572203027
:100D30002C200A20202020312C206F7220322E20DF
:100D40002053796E7461783A2020742B3C74626C65
:100D5000655F6964783E2B3C6E657756616C75659E
:100D6000313E2B3C6E657756616C7565323E2B3C8F
:100D70006E657756616C75654E3E0A5A202D20448B
:100D80006973706C61792063616C69627261746906
:100D90006F6E2076616C7565730A54202D2044694E
:100DA00073706C6179732032353620746F6F74689C
:100DB000206C6F6720656E747269657320696E20A0
:100DC00062696E6172790A72202D20446973706CB9
:100DD0006179732032353620746F6F7468206C6FC0
:100DE0006720656E74726965730A55202D205072F4
:100DF000657061726520666F72206669726D7761D9
:100E00007265207570646174652E20546865206E6B
:100E100065787420627974652072656365697665AA
:100E2000642077696C6C20636175736520746865F4
:100E30002041726475696E6F20746F2072657365EE
:100E4000742E0A3F202D20446973706C61797320E1
:100E5000746869732068656C702070616765002C28
:100E60002000575545004F3200496E6C6574207460
:100E7000656D7000436F6F6C616E740052657365D1
:100E80007420636F6E74726F6C2069732063757267
:100E900072656E746C792064697361626C65642E2E
:100EA00000436F6D6D732068616C7465642E204E15
:100EB00065787420627974652077696C6C2072653E
:100EC000736574207468652041726475696E6F2E55
:100ED00000537065656475696E6F20323032322E52
:100EE000303200737065656475696E6F2032303220
:100EF000323032003030310020002000200020004D
:100F00002020202000526573657420636F6E747218
:100F10006F6C2069732063757272656E746C7920D2
:100F200064697361626C65642E00436F6D6D73203C
:100F300068616C7465642E204E65787420627974E3
:100F4000652077696C6C20726573657420746865C0
:100F50002041726475696E6F2E00000080002001D0
:100F60002001800020018000F0008001C000C0004E
:100F70002001C00080002001040E11191B20292B24
:100F80002D2F31333537393B3D3F414345474B4D9D
:100F90004F515557595D61666D77000000009630DE
:100FA00007772C610EEEBA51099919C46D078FF4B9
:100FB0006A7035A563E9A395649E3288DB0EA4B8F8
:100FC000DC791EE9D5E088D9D2972B4CB609BD7CD7
:100FD000B17E072DB8E7911DBF906410B71DF220B8
:100FE000B06A4871B9F3DE41BE847DD4DA1AEBE40D
:100FF000DD6D51B5D4F4C785D38356986C13C0A862
:101000006B647AF962FDECC9658A4F5C0114D96C96
:101010000663633D0FFAF50D088DC8206E3B5E1028
:10102000694CE44160D5727167A2D1E4033C47D4B6
:10103000044BFD850DD26BB50AA5FAA8B5356C98A1
:10104000B242D6C9BBDB40F9BCACE36CD832755CAC
:10105000DF45CF0DD6DC593DD1ABAC30D9263A00B7
:10106000DE518051D7C81661D0BFB5F4B42123C476
:10107000B3569995BACF0FA5BDB89EB80228088877
:10108000055FB2D90CC624E90BB1877C6F2F114CD8
:101090006858AB1D61C13D2D66B69041DC76067186
:1010A000DB01BC20D2982A10D5EF8985B1711FB51C
:1010B000B606A5E4BF9F33D4B8E8A2C9077834F9CF
:1010C000000F8EA8099618980EE1BB0D6A7F2D3D82
:1010D0006D08976C6491015C63E6F4516B6B62611F
:1010E0006C1CD83065854E0062F2ED95066C7BA5D0
:1010F000011BC1F4088257C40FF5C6D9B06550E989
:10110000B712EAB8BE8B7C88B9FCDF1DDD62492DC1
:10111000DA15F37CD38C654CD4FB5861B24DCE51BB
:10112000B53A7400BCA3E230BBD441A5DF4AD795E1
:10113000D83D6DC4D1A4FBF4D6D36AE96943FCD988
:101140006E34468867ADD0B860DA732D0444E51D6F
:1011500003335F4C0AAAC97C0DDD3C710550AA41DE
:10116000022710100BBE86200CC925B56857B38521
:101170006F2009D466B99FE461CE0EF9DE5E98C98E
:10118000D9292298D0B0B4A8D7C7173DB359810D3B
:10119000B42E3B5CBDB7AD6CBAC02083B8EDB6B31E
:1011A000BF9A0CE2B6039AD2B1743947D5EAAF7749
:1011B000D29D1526DB048316DC73120B63E3843B9C
:1011C00064943E6A6D0DA85A6A7A0BCF0EE49DFFB7
:1011D000099327AE000AB19E077D44930FF0D2A376
:1011E000088768F2011EFEC206695D5762F7CB6789
:1011F000658071366C19E7066B6E761BD4FEE02BAA
:10120000D3895A7ADA10CC4ADD676FDFB9F9F9EF82
:10121000BE8E43BEB717D58EB060E8A3D6D67E93F8
:10122000D1A1C4C2D83852F2DF4FF167BBD16757A2
:10123000BCA6DD06B53F4B36B248DA2B0DD84C1BA9
:101240000AAFF64A0336607A0441C3EF60DF55DF28
:1012500067A8EF8E6E3179BE69468CB361CB1A8375
:1012600066BCA0D26F2536E2685295770CCC034756
:101270000BBBB91602222F260555BE3BBAC5280B5B
:10128000BDB2925AB42B046AB35CA7FFD7C231CF68
:10129000D0B58B9ED92C1DAEDE5BB0C2649B26F20E
:1012A00063EC9CA36A750A936D02A906099C3F36FC
:1012B0000EEB8567077213570005824ABF95147AB3
:1012C000B8E2AE2BB17B381BB60C9B8ED2920DBE12
:1012D000D5E5B7EFDC7C21DFDB0BD4D2D38642E24D
:1012E000D4F1F8B3DD686E83DA1FCD16BE815B26BC
:1012F000B9F6E177B06F7747B718E65A0888706A91
:101300000FFFCA3B06665C0B0111FF9E658F69AE3D
:1013100062F8D3FF6B6145CF6C1678E20AA0EED27B
:101320000DD75483044EC2B30339612667A7F7165D
:1013300060D04D476949DB776E3E4A6AD1AEDC5AD0
:10134000D6D9660BDF40F03BD83753AEBCA9C59E5B
:10135000BBDE7FCFB247E9FFB5301CF2BDBD8AC20C
:10136000BACA3093B353A6A3B4240536D0BA9306B1
:10137000D7CD2957DE54BF67D9232E7A66B3B84A32
:1013800061C4021B685D942B6F2A37BE0BB4A18E1B
:101390000CC31BDF055A8DEF022D00000000413108
:1013A0001B1982623632C3532D2B04C56C6445F47D
:1013B000777D86A75A56C796414F088AD9C849BB38
:1013C000C2D18AE8EFFACBD9F4E30C4FB5AC4D7E2D
:1013D000AEB58E2D839ECF1C98875112C24A102322
:1013E000D953D370F4789241EF6155D7AE2E14E6FD
:1013F000B537D7B5981C9684830559981B8218A9D0
:10140000009BDBFA2DB09ACB36A95D5D77E61C6CAC
:101410006CFFDF3F41D49E0E5ACDA2248495E31584
:101420009F8C2046B2A76177A9BEA6E1E8F1E7D07C
:10143000F3E82483DEC365B2C5DAAAAE5D5DEB9F37
:10144000464428CC6B6F69FD7076AE6B3139EF5A2C
:101450002A202C09070B6D381C12F33646DFB20721
:101460005DC6715470ED30656BF4F7F32ABBB6C2FC
:1014700031A275911C8934A00790FBBC9F17BA8DCF
:10148000840E79DEA92538EFB23CFF79F373BE48AC
:10149000E86A7D1BC5413C2ADE58054F79F0447E41
:1014A00062E9872D4FC2C61C54DB018A159440BBEC
:1014B0000E8D83E823A6C2D938BF0DC5A0384CF4E1
:1014C000BB218FA7960ACE968D130900CC5C4831BC
:1014D000D7458B62FA6ECA53E177545DBBBA156C7F
:1014E000A0A3D63F8D88970E96915098D7DE11A96C
:1014F000CCC7D2FAE1EC93CBFAF55CD762721DE669
:10150000796BDEB554409F844F5958120E1619233B
:10151000150FDA7038249B41233DA76BFD65E65A11
:10152000E67C2509CB576438D04EA3AE9101E29FEB
:101530008A1821CCA73360FDBC2AAFE124ADEED0E0
:101540003FB42D83129F6CB20986AB2448C9EA15BB
:1015500053D029467EFB687765E2F6793F2FB7487E
:101560002436741B091D352A1204F2BC534BB38D6B
:10157000485270DE657931EF7E60FEF3E6E7BFC268
:10158000FDFE7C91D0D53DA0CBCCFA368A83BB073B
:10159000919A7854BCB13965A7A84B98833B0AA9A6
:1015A0009822C9FAB50988CBAE104F5DEF5F0E6C7B
:1015B000F446CD3FD96D8C0EC27443125AF3022308
:1015C00041EAC1706CC1804177D847D7369706E6AB
:1015D0002D8EC5B500A584841BBC1A8A41715BBBE6
:1015E0005A6898E87743D9D96C5A1E4F2D155F7EFB
:1015F000360C9C2D1B27DD1C003E120098B9533180
:1016000083A09062AE8BD153B59216C5F4DD57F42A
:10161000EFC494A7C2EFD596D9F6E9BC07AEA88D62
:101620001CB76BDE319C2AEF2A85ED796BCAAC487A
:1016300070D36F1B5DF82E2A46E1E136DE66A00707
:10164000C57F6354E8542265F34DE5F3B202A4C2AA
:10165000A91B6791843026A09F29B8AEC5E4F99FE5
:10166000DEFD3ACCF3D67BFDE8CFBC6BA980FD5AFA
:10167000B2993E099FB27F3884ABB0241C2CF1157F
:10168000073532462A1E73773107B4E17048F5D02A
:101690006B513683467A77B25D634ED7FACB0FE64D
:1016A000E1D2CCB5CCF98D84D7E04A1296AF0B23AA
:1016B0008DB6C870A09D8941BB84465D2303076C2D
:1016C000381AC43F1531850E0E2842984F6703A97A
:1016D000547EC0FA795581CB624C1FC538815EF4C7
:1016E00023989DA70EB3DC9615AA1B0054E55A312A
:1016F0004FFC996262D7D85379CE174FE149567E95
:10170000FA50952DD77BD41CCC62138A8D2D52BBF9
:10171000963491E8BB1FD0D9A006ECF37E5EADC233
:1017200065476E91486C2FA05375E836123AA907A9
:1017300009236A5424082B653F11E479A796A5482C
:10174000BC8F661B91A4272A8ABDE0BCCBF2A18D79
:10175000D0EB62DEFDC023EFE6D9BDE1BC14FCD0C6
:10176000A70D3F838A267EB2913FB924D070F81529
:10177000CB693B46E6427A77FD5BB56B65DCF45A94
:101780007EC5370953EE763848F7B1AE09B8F09FF9
:1017900012A133CC3F8A72FD249300000000376A07
:1017A000C2016ED4840359BE4602DCA80907EBC20D
:1017B000CB06B27C8D0485164F05B851130E8F3BB6
:1017C000D10FD685970DE1EF550C64F91A095393A3
:1017D000D8080A2D9E0A3D475C0B70A3261C47C9FA
:1017E000E41D1E77A21F291D601EAC0B2F1B9B61E1
:1017F000ED1AC2DFAB18F5B56919C8F23512FF98BA
:10180000F713A626B111914C7310145A3C152330CE
:10181000FE147A8EB8164DE47A17E0464D38D72C70
:101820008F398E92C93BB9F80B3A3CEE443F0B849A
:10183000863E523AC03C6550023D58175E366F7D79
:101840009C3736C3DA3501A9183484BF5731B3D574
:101850009530EA6BD332DD01113390E56B24A78F0D
:10186000A925FE31EF27C95B2D264C4D62237B272E
:10187000A0222299E62015F3242128B4782A1FDE1D
:10188000BA2B4660FC29710A3E28F41C712DC376E0
:10189000B32C9AC8F52EADA2372FC08D9A70F7E7FA
:1018A0005871AE591E739933DC721C2593772B4FF8
:1018B000517672F11774459BD57578DC897E4FB6E9
:1018C0004B7F16080D7D2162CF7CA4748079931E16
:1018D0004278CAA0047AFDCAC67BB02EBC6C87448D
:1018E0007E6DDEFA386FE990FA6E6C86B56B5BEC54
:1018F000776A025231683538F369087FAF623F1565
:101900006D6366AB2B6151C1E960D4D7A665E3BDB9
:101910006464BA0322668D69E06720CBD74817A1BB
:1019200015494E1F534B7975914AFC63DE4FCB0925
:101930001C4E92B75A4CA5DD984D989AC446AFF00C
:101940000647F64E4045C12482444432CD41735887
:101950000F402AE649421D8C8B435068F1546702C0
:1019600033553EBC755709D6B7568CC0F853BBAA41
:101970003A52E2147C50D57EBE51E839E25ADF5328
:10198000205B86ED6659B187A4583491EB5D03FB6B
:10199000295C5A456F5E6D2FAD5F801B35E1B771D5
:1019A000F7E0EECFB1E2D9A573E35CB33CE66BD9C7
:1019B000FEE73267B8E5050D7AE4384A26EF0F20D6
:1019C000E4EE569EA2EC61F460EDE4E22FE8D388E9
:1019D000EDE98A36ABEBBD5C69EAF0B813FDC7D21E
:1019E000D1FC9E6C97FEA90655FF2C101AFA1B7AA3
:1019F000D8FB42C49EF975AE5CF848E900F37F83DA
:101A0000C2F2263D84F0115746F1944109F4A32B0C
:101A1000CBF5FA958DF7CDFF4FF6605D78D9573746
:101A2000BAD80E89FCDA39E33EDBBCF571DE8B9F58
:101A3000B3DFD221F5DDE54B37DCD80C6BD7EF6691
:101A4000A9D6B6D8EFD481B22DD504A462D033CEB6
:101A5000A0D16A70E6D35D1A24D210FE5EC5279429
:101A60009CC47E2ADAC6494018C7CC5657C2FB3CF4
:101A700095C3A282D3C195E811C0A8AF4DCB9FC535
:101A80008FCAC67BC9C8F1110BC9740744CC436D1A
:101A900086CD1AD3C0CF2DB902CE4096AF9177FC38
:101AA0006D902E422B921928E9939C3EA696AB543A
:101AB0006497F2EA2295C580E094F8C7BC9FCFAD49
:101AC0007E9E9613389CA179FA9D246FB5981305D4
:101AD00077994ABB319B7DD1F39A3035898D075F69
:101AE0004B8C5EE10D8E698BCF8FEC9D808ADBF78E
:101AF000428B82490489B523C68888649A83BF0EC5
:101B00005882E6B01E80D1DADC8154CC938463A67F
:101B100051853A1817870D72D586A0D0E2A997BAD9
:101B200020A8CE0466AAF96EA4AB7C78EBAE4B126B
:101B300029AF12AC6FAD25C6ADAC1881F1A72FEB64
:101B400033A6765575A4413FB7A5C429F8A0F34341
:101B50003AA1AAFD7CA39D97BEA2D073C4B5E71994
:101B600006B4BEA740B689CD82B70CDBCDB23BB17F
:101B70000FB3620F49B155658BB06822D7BB5F4880
:101B800015BA06F653B8319C91B9B48ADEBC83E02D
:101B90001CBDDA5E5ABFED3498BE000000006567D8
:101BA000BCB88BC809AAEEAFB5125797628F32F056
:101BB000DE37DC5F6B25B938D79DEF28B4C58A4F77
:101BC000087D64E0BD6F018701D7B8BFD64ADDD874
:101BD0006AF23377DFE0561063589F571950FA3096
:101BE000A5E8149F10FA71F8AC42C8C07BDFADA71E
:101BF000C76743087275266FCECD707FAD951518F7
:101C0000112DFBB7A43F9ED0188727E8CF1A428F2B
:101C100073A2AC20C6B0C9477A083EAF32A05BC8F9
:101C20008E18B5673B0AD00087B26938502F0C5F19
:101C3000EC97E2F059858797E53DD1878665B4E05A
:101C40003ADD5A4F8FCF3F2833778610E4EAE377A7
:101C500058520DD8ED4068BF51F8A1F82BF0C49F41
:101C600097482A30225A4F579EE2F66F497F9308D1
:101C7000F5C77DA740D518C0FC6D4ED09F352BB75A
:101C8000238DC518969FA07F2A271947FDBA7C206F
:101C90004102928FF410F7E848A83D58149B583F32
:101CA000A823B6901D31D3F7A1896ACF76140FA867
:101CB000CAACE1077FBE8460C306D270A05EB717CE
:101CC0001CE659B8A9F43CDF154C85E7C2D1E08089
:101CD0007E690E2FCB7B6B4877C3A20F0DCBC768F5
:101CE000B17329C704614CA0B8D9F5986F4490FF2F
:101CF000D3FC7E5066EE1B37DA564D27B90E2840CE
:101D000005B6C6EFB0A4A3880C1C1AB0DB817FD740
:101D100067399178D22BF41F6E9303F7263B6690B8
:101D20009A83883F2F91ED589329546044B431072A
:101D3000F80CDFA84D1EBACFF1A6ECDF92FE89B8F1
:101D40002E4667179B54027027ECBB48F071DE2FBC
:101D50004CC93080F9DB55E745639CA03F6BF9C760
:101D600083D3176836C1720F8A79CB375DE4AE50E2
:101D7000E15C40FF544E2598E8F673888BAE16EF71
:101D80003716F84082049D273EBC241FE921417884
:101D90005599AFD7E08BCAB05C333BB659ED5ED1F5
:101DA000E555B07E5047D519ECFF6C213B620946E2
:101DB00087DAE7E932C8828E8E70D49EED28B1F9B9
:101DC00051905F56E4823A31583A83098FA7E66E04
:101DD000331F08C1860D6DA63AB5A4E140BDC1868A
:101DE000FC052F2949174A4EF5AFF376223296119A
:101DF0009E8A78BE2B981DD997204BC9F4782EAEB9
:101E000048C0C001FDD2A566416A1C5E96F77939CB
:101E10002A4F97969F5DF2F123E505196B4D607E81
:101E2000D7F58ED162E7EBB6DE5F528E09C237E995
:101E3000B57AD9460068BC21BCD0EA31DF888F561C
:101E4000633061F9D622049E6A9ABDA6BD07D8C147
:101E500001BF366EB4AD530908159A4E721DFF29A5
:101E6000CEA511867BB774E1C70FCDD91092A8BE5D
:101E7000AC2A461119382376A5807566C6D810019C
:101E80007A60FEAECF729BC973CA22F1A4574796FF
:101E900018EFA939ADFDCC5E114506EE4D7663898C
:101EA000F1CE8D2644DCE841F86451792FF9341ED7
:101EB0009341DAB12653BFD69AEBE9C6F9B38CA1A8
:101EC000450B620EF01907694CA1BE519B3CDB36F5
:101ED00027843599929650FE2E2E99B95426FCDE11
:101EE000E89E12715D8C7716E134CE2E36A9AB498F
:101EF0008A1145E63F03208183BB7691E0E313F628
:101F00005C5BFD59E949983E55F12106826C4461BC
:101F10003ED4AACE8BC6CFA9377E38417FD65D2668
:101F2000C36EB389767CD6EECAC46FD61D590AB18A
:101F3000A1E1E41E14F38179A84BD769CB13B20E4B
:101F400077AB5CA1C2B939C67E0180FEA99CE59938
:101F500015240B36A0366E511C8EA7166686C271EC
:101F6000DA3E2CDE6F2C49B9D394F081040995E652
:101F7000B8B17B490DA31E2EB11B483ED2432D594B
:101F80006EFBC3F6DBE9A69167511FA9B0CC7ACEF0
:101F90000C749461B966F10605DE0000210024008E
:101FA00027002A002D003000330001010000040149
:101FB00007010A0100002200250028002B002E0046
:101FC0003100340002010000050108010B0100008E
:101FD00020002300260029002C002F0032000001E1
:101FE00000000301060109010505050507050808AC
:101FF0000808020202020A0A080804040404010193
:1020000001010101010103030303030303030407A7
:1020100007070C0C0C0C0C0C0C0C0202020206063E
:102020000606060606060B0B0B0B0B0B0B0B010231
:1020300010202008081020401020408002010201DA
:102040000804020101020408102040808040201092
:1020500008040201800402018040201008040201EB
:102060000804020101020408102040800102040853
:102070001020408000000A0B02090C0D0E08070317
:10208000040100000000000000000000000000004B
:102090000000000000000000000000000000000040
:1020A00012111000000000000000000000000000FD
:1020B00000000000000000000000537065656475BA
:1020C000696E6F00537065656475696E6F2032309C
:1020D00031392E30382D7365720053706565647523
:1020E000696E6F2063737830323031392E380000DA
:1020F000E6F611241FBECFEFD1E2DEBFCDBF00E078
:102100000CBF12E0A0E0B2E0EAEEFEE402E00BBF9A
:1021100002C007900D92AE39B107D9F72FE1AEE9B1
:10212000B2E001C01D92A734B207E1F710E1C9E7A0
:10213000D0E100E006C021970109802FFE010F9435
:10214000F026C837D10780E00807A9F70E94ACF94C
:102150000D9473270C9400008091021F87709EEFEE
:10216000980F923010F0863029F480916F008860CB
:1021700080936F00089530912A1C8091271C8C71E8
:102180008C3021F48091201C232F81FD20E0E091F0
:102190001B1CF0911C1C6091FB0B7091FC0B80913F
:1021A0003B0A90913C0A8E1B9F0B0F942326615093
:1021B0007109230F3327331F161617060CF4F7C0C7
:1021C000620F731FCB0141978230910508F4F6C06E
:1021D00042978230910508F4F4C04297029708F4C0
:1021E000F3C06734710514F066E470E070938803FF
:1021F000609387036091FB0B7091FC0B8091EF095A
:102200009091F0098E1B9F0B0F942326615071094A
:10221000161617060CF4DBC0620F731FCB01419733
:102220008230910508F4DAC042978230910508F4B3
:10223000D8C04297029708F4D7C06734710514F0EC
:1022400066E470E070938603609385036091FB0BF6
:102250007091FC0B8091EB099091EC098E1B9F0B08
:102260000F94232661507109161617060CF4BFC08F
:10227000620F731FCB0141978230910508F4BEC0F5
:1022800042978230910508F4BCC04297029708F447
:10229000BBC06734710514F066E470E0709384038A
:1022A000609383036091FB0B7091FC0B8091ED09AF
:1022B0009091EE098E1B9F0B0F942326615071099C
:1022C000161617060CF4A3C0620F731FCB014197BB
:1022D0008230910508F4A2C042978230910508F43B
:1022E000A0C04297029708F49FC06734710514F0AC
:1022F00066E470E070938203609381036091FB0B4E
:102300007091FC0B80910704909108048E1B9F0B29
:102310000F94232661507109161617060CF487C016
:10232000620F731FCB0141978230910508F486C07C
:1023300042978230910508F484C04297029708F4CE
:1023400083C06734710514F066E470E07093800315
:1023500060937F036091FB0B7091FC0B8091F109FE
:102360009091F2098E1B9F0B0F94232661507109E7
:10237000161617060CF46BC0620F731FCB01419742
:102380008230910508F46AC042978230910508F4C2
:1023900068C04297029708F467C06734710514F06B
:1023A00066E470E070937E0360937D0308952617C2
:1023B00037070CF007CF621B730B04CF60E170E0AE
:1023C00015CF62E270E012CF64E370E00FCF261702
:1023D00037070CF023CF621B730B20CF60E170E056
:1023E00031CF62E270E02ECF64E370E02BCF26178E
:1023F00037070CF03FCF621B730B3CCF60E170E0FE
:102400004DCF62E270E04ACF64E370E047CF261719
:1024100037070CF05BCF621B730B58CF60E170E0A5
:1024200069CF62E270E066CF64E370E063CF2617A5
:1024300037070CF077CF621B730B74CF60E170E04D
:1024400085CF62E270E082CF64E370E07FCF261731
:1024500037070CF093CF621B730B90CF60E170E0F5
:10246000A1CF62E270E09ECF64E370E09BCFCF9398
:10247000DF938091271C8C718C3021F48091201C7B
:1024800024E281FD20E0C0911B1CD0911C1C6091B6
:10249000FB0B7091FC0B80913B0A90913C0A8C1BCA
:1024A0009D0B0F9423266150710930E0F901B49619
:1024B000E617F7070CF08CC06E1B7F0B809164054C
:1024C00090916505820F931F8617970730F46091EE
:1024D000640570916505620F731F709388036093A4
:1024E00087036091FB0B7091FC0B8091EF09909139
:1024F000F0098C1B9D0B0F94232661507109E61780
:10250000F7070CF06CC06E1B7F0B809164059091F7
:102510006505820F931F8617970730F46091640555
:1025200070916505620F731F709386036093850336
:102530006091FB0B7091FC0B8091EB099091EC0981
:102540008C1B9D0B0F94232661507109E617F7072A
:102550000CF04CC06E1B7F0B80916405909165055B
:10256000820F931F8617970730F46091640570916E
:102570006505620F731F70938403609383036091FA
:10258000FB0B7091FC0B8091ED099091EE098C1B77
:102590009D0B0F94232661507109E617F7076CF520
:1025A0006E1B7F0B8091640590916505820F931FD0
:1025B0008617970730F46091640570916505620F86
:1025C000731F7093820360938103DF91CF9108950D
:1025D000161617060CF472CF6E0F7F1F6FCF1616EC
:1025E00017060CF492CF6E0F7F1F8FCF16161706AB
:1025F0000CF4B2CF6E0F7F1FAFCF1616170694F2F2
:102600006E0F7F1FCFCF8091C61D8930CCF481E043
:1026100090E0909388038093870385E090E0909307
:1026200086038093850389E090E0909384038093F0
:1026300083038DE090E0909382038093810308955B
:1026400080E190E0909388038093870384E090E09A
:10265000909386038093850388E090E090938403B1
:10266000809383038CE090E0E6CFE0914105F09108
:102670004205808190914005892371F08091941DDD
:10268000811111C08DE090E09093D9098093D80911
:1026900081E08093941D08958091941D811115C04F
:1026A00085E090E0F1CF8091D8099091D9090D97FC
:1026B00059F080913F1E8F5F80933F1E8DE090E028
:1026C0009093D9098093D80908958091D809909161
:1026D000D9090597C9F380913F1E8F5F80933F1EF4
:1026E00085E090E0EDCF8091B20A807F803421F5C3
:1026F0008091C61D8A306CF484E290E09093880348
:102700008093870380E190E0909386038093850314
:10271000089584311CF483E290E0F0CF8E311CF4F4
:1027200082E290E0EBCF8FE190E09093880380937A
:1027300087038DE090E0E8CF803609F041C08091BA
:10274000C61D24E230E08A3024F08431ACF423E268
:1027500030E0309388032093870329E030E0309302
:102760008603209385038A3004F587E190E09093F7
:10277000840380938303089522E230E08E3134F0A5
:102780002FE130E0883214F421E230E03093880306
:102790002093870326E030E030938603209385035F
:1027A0008E3134F485E190E0E2CF86E190E0DFCF36
:1027B00088321CF484E190E0DACF83E190E0D7CF57
:1027C0000895089508959091C61D8091271C8C71DD
:1027D0008C3081F59A30CCF08CE090E090938803B7
:1027E0008093870383E090E0909386038093850332
:1027F00086E090E0909384038093830389E090E0E7
:102800009093820380938103089581E090E09093F8
:1028100088038093870384E090E0909386038093FD
:10282000850387E090E090938403809383038AE09C
:1028300090E0E6CF9A306CF086E090E090938803C9
:102840008093870383E090E09093860380938503D1
:10285000089581E090E0909388038093870384E05B
:1028600090E0F2CF80913B0A90913C0A20911B1C92
:1028700030911C1CAC0144505109241735070CF051
:102880004BC0821B930B97FD0196959587950497F6
:1028900090938803809387038091EF099091F009CA
:1028A000AC014450510924173507CCF5821B930B1A
:1028B00097FD01969595879504979093860380934D
:1028C00085038091EB099091EC09AC0144505109CA
:1028D000241735073CF5821B930B97FD01969595C0
:1028E0008795049790938403809383038091ED09E7
:1028F0009091EE09AC014450510924173507ACF40E
:10290000821B930B97FD019695958795049790935D
:10291000820380938103089580539D4FB2CF8053EB
:102920009D4FC4CF80539D4FD6CF80539D4FE8CF4E
:10293000CF92DF92EF92FF928091941D882309F449
:1029400095C08091010C9091020CA091030CB09164
:10295000040C892B8A2B8B2B09F488C08091FD0BEA
:102960009091FE0BA091FF0BB091000C892B8A2B4C
:102970008B2B09F47BC08091021E9091031EA091C5
:10298000041EB091051E0297A105B10508F04CC0C8
:10299000F8942091010C3091020C4091030C50915D
:1029A000040C8091FD0B9091FE0BA091FF0BB09158
:1029B000000C281B390B4A0B5B0BA4EBB0E00F9407
:1029C000B2266093060C7093070C8093080C9093CA
:1029D000090C7894C090060CD090070CE090080C7D
:1029E000F090090C60E077E883E993E0A701960195
:1029F0000F946A26C901803526E4920720F0809161
:102A0000951D9091961DCC0CDD1CEE1CFF1CC092F8
:102A10001E02D0921F02E0922002F0922102FF904B
:102A2000EF90DF90CF900895F8948091AA0590914F
:102A3000AB05A091AC05B091AD054091A6055091B4
:102A4000A7056091A8057091A905841B950BA60B9D
:102A5000B70BB695A795979587958093060C90939D
:102A6000070CA093080CB093090CB3CF90E080E062
:102A7000D6CF8091C61D9091271C9C719C3091F5FA
:102A80008A30CCF088E090E09093880380938703AD
:102A900082E090E0909386038093850384E090E049
:102AA000909384038093830386E090E09093820365
:102AB0008093810308951816ECF781E090E09093DD
:102AC00088038093870383E090E09093860380934C
:102AD000850385E090E0909384038093830387E0EF
:102AE00090E0E4CF8A308CF024E030E0309388032B
:102AF0002093870382E090E0909386038093850380
:102B00003093840320938303D1CF18169CF621E0E1
:102B100030E0309388032093870383E090E0ECCF8C
:102B20008091941D81110EC01092D9091092D8097C
:102B300081E08093941D83E08093270B81E0809354
:102B40006B0308958091211C87FF05C01092D9095D
:102B50001092D809F0CF8091021E9091031EA0918F
:102B6000041EB091051E84369105A105B10530F70C
:102B70008091D8099091D9098D9701F31092D909C4
:102B80001092D809DBCF1092D9091092D809089574
:102B9000089508950895089508950895089508954D
:102BA0001092D9091092D80981E080936B0308959F
:102BB0008091B20A807F803479F58091271C8C71D6
:102BC0008C30C9F488E090E0909388038093870369
:102BD00082E090E0909386038093850384E090E008
:102BE000909384038093830386E090E09093820324
:102BF00080938103089524E030E03093880320938C
:102C0000870382E090E0909386038093850330935E
:102C1000840320938303EACF803661F78091271CD9
:102C20008C718C3079F286E090E0909388038093E9
:102C3000870382E090E0909386038093850324E0ED
:102C400030E0E5CF8091C61D82319CF487E090E0B2
:102C5000909388038093870382E090E090938603AB
:102C60008093850385E090E09093840380938303B1
:102C7000089586E090E0909388038093870381E035
:102C800090E0909386038093850384E090E0ECCFFE
:102C900080913B0A90913C0A20911B1C30911C1C96
:102CA000821B930B2091190230911A02821793070D
:102CB0009CF0821B930B0197843B910590F082E07E
:102CC00090E0909388038093870381E090E0909355
:102CD000860380938503089597FFEDCF820F931F9E
:102CE000EACF81E090E0909388038093870382E0AD
:102CF00090E0EDCF20912A1C8091271C8C718C30A4
:102D000021F48091201C322F81FD30E0E0911B1CCA
:102D1000F0911C1C6091FB0B7091FC0B80913B0AA5
:102D200090913C0A8E1B9F0B0F942326230F332771
:102D3000331F261737070CF073C0621B730B709399
:102D40008803609387036091FB0B7091FC0B80916B
:102D5000EF099091F0098E1B9F0B0F9423262617E5
:102D600037070CF064C0621B730B7093860360938B
:102D700085036091FB0B7091FC0B8091EB099091A6
:102D8000EC098E1B9F0B0F942326261737070CF098
:102D900055C0621B730B709384036093830360912F
:102DA000FB0B7091FC0B8091ED099091EE098E1B4D
:102DB0009F0B0F942326261737070CF046C0621B83
:102DC000730B70938203609381036091FB0B70918E
:102DD000FC0B80910704909108048E1B9F0B0F94AD
:102DE000232626173707C4F5621B730B70938003E5
:102DF00060937F036091FB0B7091FC0B8091F10954
:102E00009091F2098E1B9F0B0F94232626173707EC
:102E10004CF5621B730B70937E0360937D030895E2
:102E2000161617060CF48BCF620F731F88CF161679
:102E300017060CF49ACF620F731F97CF161617065A
:102E40000CF4A9CF620F731FA6CF161617060CF449
:102E5000B8CF620F731FB5CF161617063CF2620F7C
:102E6000731FC4CF16161706B4F2620F731FD3CFA9
:102E70000F931F93CF93DF93C0912A1C8091271C3F
:102E80008C718C3021F48091201CEC2F81FDE0E0CE
:102E900000911B1C10911C1C6091FB0B7091FC0B92
:102EA00080913B0A90913C0A801B910B0F94232642
:102EB00061507109D0E0F0E09F012C0F3D1F2617F3
:102EC00037070CF031C1621B730B80916405909140
:102ED00065058617970738F4C617D70724F0609161
:102EE00064057091650580916405909165058E0F6C
:102EF0009F1F8617970730F46091640570916505F0
:102F00006E0F7F1F70938803609387036091FB0BA4
:102F10007091FC0B8091EF099091F009801B910B4F
:102F20000F94232661507109261737070CF003C14F
:102F3000621B730B80916405909165058617970756
:102F400038F4C617D70724F06091640570916505C1
:102F500080916405909165058E0F9F1F86179707D6
:102F600030F460916405709165056E0F7F1F70935A
:102F70008603609385036091FB0B7091FC0B80913D
:102F8000EB099091EC09801B910B0F942326615063
:102F90007109261737070CF0D5C0621B730B80919F
:102FA0006405909165058617970738F4C617D7070B
:102FB00024F060916405709165058091640590919D
:102FC00065058E0F9F1F8617970730F46091640583
:102FD000709165056E0F7F1F709384036093830368
:102FE0006091FB0B7091FC0B8091ED099091EE09C3
:102FF000801B910B0F942326615071092617370708
:103000000CF0A7C0621B730B80916405909165055D
:103010008617970738F4C617D70724F06091640520
:103020007091650580916405909165058E0F9F1FD5
:103030008617970730F460916405709165056E0FEF
:103040007F1F70938203609381036091FB0B7091EB
:10305000FC0B8091070490910804801B910B0F9446
:10306000232661507109261737070CF079C0621BBF
:10307000730B80916405909165058617970738F466
:10308000C617D70724F0609164057091650580919B
:103090006405909165058E0F9F1F8617970730F482
:1030A00060916405709165056E0F7F1F70938003BA
:1030B00060937F036091FB0B7091FC0B8091F10991
:1030C0009091F209801B910B0F9423266150710996
:1030D000261737070CF04BC0621B730B80916405F9
:1030E000909165058617970738F4C617D70724F01F
:1030F0006091640570916505809164059091650506
:103100008E0F9F1F8617970730F4609164057091AA
:1031100065056E0F7F1F70937E0360937D03DF91C3
:10312000CF911F910F910895161617060CF4CDCE6E
:10313000620F731FCACE161617060CF4FBCE620F71
:10314000731FF8CE161617060CF429CF620F731FE3
:1031500026CF161617060CF457CF620F731F54CFE5
:10316000161617060CF485CF620F731F82CF161642
:1031700017060CF4B3CF620F731FB0CFCF92DF925C
:10318000EF92FF92E091500AF091510A1995893619
:1031900021E092071CF088569140F9CF20911B1C2A
:1031A00030911C1C821B930B2091941E23702230A3
:1031B00031F42091941C3091951C821B930B40910B
:1031C000971C9C01220F331F50E0A0E0B1E0A41B2C
:1031D000B50B0F94F8266B017C01A091581EB0919D
:1031E000591E9A010F940027C60ED71EE81EF91E1D
:1031F000CD2CDE2CEF2CFF24E7FCFA94D092591E44
:10320000C092581EFF90EF90DF90CF9008952091CC
:103210004B0A30914C0A232B09F0D0C22091951D06
:103220003091961D232B09F4C9C220918703309158
:1032300088032617370709F070C020911C103091C1
:103240001D102330310561F5409124015091250175
:10325000A0913B0AB0913C0AA81BB90B80911902BE
:1032600090911A02A817B907B4F0A81BB90B2091C6
:10327000390A30913A0A0F940027B6E0969587955F
:1032800077956795BA95D1F7640F751F70932901EB
:10329000609328010895B7FFEACFA80FB91FE7CFC1
:1032A0004091021E5091031E6091041E7091051EF4
:1032B000473051056105710508F480C24091240131
:1032C00050912501A0913B0AB0913C0AA81BB90B73
:1032D0008091190290911A02A817B907CCF0A81B87
:1032E000B90B2091390A30913A0A0F940027A6E0D1
:1032F0009695879577956795AA95D1F7640F751F71
:1033000070932A106093291081E080933010089503
:10331000B7FFE7CFA80FB91FE4CF20918503309105
:1033200086032617370709F070C0209103103091EB
:1033300004102330310561F540912401509125019D
:10334000A091EF09B091F009A81BB90B8091190267
:1033500090911A02A817B907B4F0A81BB90B2091D5
:10336000390A30913A0A0F940027F6E0969587952E
:1033700077956795FA95D1F7640F751F70932B01B8
:1033800060932A010895B7FFEACFA80FB91FE7CFCE
:103390004091021E5091031E6091041E7091051E03
:1033A000473051056105710508F408C240912401B8
:1033B00050912501A091EF09B091F009A81BB90B1C
:1033C0008091190290911A02A817B907CCF0A81B96
:1033D000B90B2091390A30913A0A0F940027E6E0A0
:1033E0009695879577956795EA95D1F7640F751F40
:1033F000709311106093101081E08093171008955E
:10340000B7FFE7CFA80FB91FE4CF20918303309116
:1034100084032617370709F070C02091EA0F309116
:10342000EB0F2330310561F54091240150912501C6
:10343000A091EB09B091EC09A81BB90B809119027E
:1034400090911A02A817B907B4F0A81BB90B2091E4
:10345000390A30913A0A0F94002736E096958795FD
:10346000779567953A95D1F7640F751F70932D0185
:1034700060932C010895B7FFEACFA80FB91FE7CFDB
:103480004091021E5091031E6091041E7091051E12
:10349000473051056105710508F490C14091240140
:1034A00050912501A091EB09B091EC09A81BB90B33
:1034B0008091190290911A02A817B907CCF0A81BA5
:1034C000B90B2091390A30913A0A0F94002726E06F
:1034D00096958795779567952A95D1F7640F751F0F
:1034E0007093F80F6093F70F81E08093FE0F0895BB
:1034F000B7FFE7CFA80FB91FE4CF20918103309128
:1035000082032617370709F070C02091D10F309140
:10351000D20F2330310561F54091A4005091A500F0
:10352000A091ED09B091EE09A81BB90B8091190289
:1035300090911A02A817B907B4F0A81BB90B2091F3
:10354000390A30913A0A0F940027B6E0969587958C
:1035500077956795BA95D1F7640F751F7093A90099
:103560006093A8000895B7FFEACFA80FB91FE7CF6F
:103570004091021E5091031E6091041E7091051E21
:10358000473051056105710508F418C14091A40048
:103590005091A500A091ED09B091EE09A81BB90BBF
:1035A0008091190290911A02A817B907CCF0A81BB4
:1035B000B90B2091390A30913A0A0F940027A6E0FE
:1035C0009695879577956795AA95D1F7640F751F9E
:1035D0007093DF0F6093DE0F81E08093E50F089515
:1035E000B7FFE7CFA80FB91FE4CF20917F03309139
:1035F00080032617370709F070C02091B80F30916B
:10360000B90F2330310561F54091A4005091A50018
:10361000A0910704B0910804A81BB90B809119026E
:1036200090911A02A817B907B4F0A81BB90B209102
:10363000390A30913A0A0F940027F6E0969587955B
:1036400077956795FA95D1F7640F751F7093AD0064
:103650006093AC000895B7FFEACFA80FB91FE7CF7A
:103660004091021E5091031E6091041E7091051E30
:10367000473051056105710508F4A0C04091A400D0
:103680005091A500A0910704B0910804A81BB90BA4
:103690008091190290911A02A817B907CCF0A81BC3
:1036A000B90B2091390A30913A0A0F940027E6E0CD
:1036B0009695879577956795EA95D1F7640F751F6D
:1036C0007093C60F6093C50F81E08093CC0F08956F
:1036D000B7FFE7CFA80FB91FE4CF20917D0330914A
:1036E0007E032617370709F069C020919F0F30919C
:1036F000A00F2330310561F54091A4005091A50041
:10370000A091F109B091F209A81BB90B809119029F
:1037100090911A02A817B907B4F0A81BB90B209111
:10372000390A30913A0A0F94002736E0969587952A
:10373000779567953A95D1F7640F751F7093AB0035
:103740006093AA000895B7FFEACFA80FB91FE7CF8B
:103750004091021E5091031E6091041E7091051E3F
:10376000473051056105710548F14091A400509121
:10377000A500A091F109B091F209A81BB90B8091A5
:10378000190290911A02A817B907CCF0A81BB90B1F
:103790002091390A30913A0A0F94002726E0969535
:1037A0008795779567952A95D1F7640F751F709364
:1037B000AD0F6093AC0F81E08093B30F0895B7FF16
:1037C000E7CFA80FB91FE4CFCF92DF92EF92FF921D
:1037D000FB01C090021ED090031EE090041EF090EA
:1037E000051E4091261C50E070E060E0C416D5062E
:1037F000E606F70608F48AC09091941D992309F40F
:1038000085C04091010C5091020C6091030C7091A5
:10381000040C452B462B472B09F478C04091FD0B37
:103820005091FE0B6091FF0B7091000C452B462BC5
:10383000472B09F46BC0C090010CD090020CE090B3
:10384000030CF090040C4091FD0B5091FE0B609125
:10385000FF0B7091000C4C155D056E057F0508F09F
:1038600055C0F8942091010C3091020C4091030C4A
:103870005091040CC090FD0BD090FE0BE090FF0B1C
:10388000F090000C2C193D094E095F09A82FB0E0FB
:103890000F94B2266093060C7093070C8093080C6B
:1038A0009093090C7894E03DF240A1F48091060CCD
:1038B0009091070CA091080CB091090CB695A795B2
:1038C000979587958093060C9093070CA093080C0E
:1038D000B093090C2091060C3091070C4091080C14
:1038E0005091090C60E077E883E993E00F946A2631
:1038F000C901803526E4920720F08091951D9091B2
:10390000961DFF90EF90DF90CF90089590E080E0BB
:10391000F8CF9B01AC018091271C807649F410926E
:10392000AE051092AF051092B0051092B105089542
:10393000803281F472E056954795379527957A95B0
:10394000D1F72093AE053093AF054093B005509367
:10395000B1050895803429F45695479537952795F4
:10396000F0CF8036E1F6A3E0B0E00F94B22622E07B
:1039700096958795779567952A95D1F76093AE05CB
:103980007093AF058093B0059093B10508950F93A0
:103990001F932091941D222309F481C04091951D0D
:1039A0005091961D20912E1E30912F1E42175307C5
:1039B00068F44091021E5091031E6091041E7091A4
:1039C000051E452B462B472B09F469C04091AA05DB
:1039D0005091AB056091AC057091AD05452B462B20
:1039E000472B09F45CC04091A6055091A705609152
:1039F000A8057091A905452B462B472B09F44FC00C
:103A0000F8944091AA055091AB056091AC05709176
:103A1000AD050091A6051091A7052091A80530914C
:103A2000A905401B510B620B730B4093060C50937E
:103A3000070C6093080C7093090C7894803D9240B9
:103A4000A1F48091060C9091070CA091080CB09104
:103A5000090CB695A795979587958093060C90933A
:103A6000070CA093080CB093090C2091060C309120
:103A7000070C4091080C5091090C60E077E883E94D
:103A800093E00F946A26C901803526E4920720F05E
:103A90008091951D9091961D1F910F91089590E032
:103AA00080E0FACF8091951D9091961D20912E1E59
:103AB00030912F1E8217930748F42091050C222382
:103AC00049F068E671E084E20C94E41B88E691E03A
:103AD0000C94C71C08958091951D9091961D20917E
:103AE0002E1E30912F1E8217930760F42091D80963
:103AF0003091D9092130310549F068E671E084E25E
:103B00000C94E41B88E691E00C94C71C089580EDAA
:103B100092E00C94C71C2091951D3091961D8091C8
:103B20002E1E90912F1E28173907B0F59091B20ADA
:103B3000907F9034D9F48091D8099091D909439716
:103B400049F18091D8099091D909409719F1809154
:103B5000D8099091D9098297E9F08091050C8823C2
:103B6000C9F068E671E084E20C94E41B903691F4AD
:103B70008091D8099091D909099761F08091D8096D
:103B80009091D9090C9731F08091D8099091D90979
:103B9000819719F7C901089588E691E00C94C71C34
:103BA0008F929F92AF92BF92CF92DF92EF92FF924D
:103BB0008091941D882309F489C080912C1C24E6EF
:103BC000829FC00111242091951D3091961D2817C8
:103BD000390708F06FC08091010C9091020CA09100
:103BE000030CB091040C892B8A2B8B2B09F46EC02B
:103BF0008091FD0B9091FE0BA091FF0BB091000CFA
:103C0000892B8A2B8B2B09F461C0F8942091FB0B34
:103C10003091FC0B8091AA059091AB05A091AC0569
:103C2000B091AD054091A6055091A7056091A805FA
:103C30007091A905841B950BA60BB70B8093060CFE
:103C40009093070CA093080CB093090CC090010C42
:103C5000D090020CE090030CF090040C8091FD0BCE
:103C60009091FE0BA091FF0BB091000CC81AD90ADD
:103C7000EA0AFB0A7894D90120E83DE84BE550E0D8
:103C80000F94BD264B015C01A4E2B0E0A7019601B0
:103C90000F94B2269B01AC01C501B4010F946A26B2
:103CA000C901FF90EF90DF90CF90BF90AF909F90B1
:103CB0008F90089588E691E0FF90EF90DF90CF908D
:103CC000BF90AF909F908F900C94C71C90E080E0C5
:103CD000E8CF80ED92E00C94C71C8091021E909179
:103CE000031EA091041EB091051E892B8A2B8B2BDD
:103CF00021F080ED92E00C94C71C90E080E00895E4
:103D00008091941D8823D9F08091D8099091D90988
:103D1000892BA9F02091951D3091961D80912E1E22
:103D200090912F1E2817390730F468E671E08091D2
:103D30002A1C0C94E41B88E691E00C94C71C90E0CC
:103D400080E00895CF92DF92EF92FF928091941DD0
:103D5000882309F45DC02091951D3091961D8091B6
:103D60002E1E90912F1E2817390708F049C0F8948D
:103D7000E091FB0BF091FC0B8091010C9091020CF7
:103D8000A091030CB091040C4091FD0B5091FE0BDF
:103D90006091FF0B7091000C841B950BA60BB70B69
:103DA0008093060C9093070CA093080CB093090C19
:103DB00078942091060C3091070C4091080C50919A
:103DC000090CA4E2B0E00F94B2266B017C01C09212
:103DD000060CD092070CE092080CF092090CDF015F
:103DE00020E037E843E953E00F94BD26A701960190
:103DF0000F946A26C901FF90EF90DF90CF9008954D
:103E000088E691E0FF90EF90DF90CF900C94C71C74
:103E100090E080E0F0CF88E691E00C94C71C0C9411
:103E20000B1F0C940B1F0C940B1F0C940B1F209159
:103E3000951D3091961D80912E1E90912F1E281752
:103E4000390790F5809164059091650560ED72E009
:103E50000E94E41B4091060C5091070C6091080CE5
:103E60007091090C440F551F661F771F40931E0267
:103E700050931F02609320027093210220916405E9
:103E8000309165054B3458496540710560F44BE449
:103E900058E965E070E040931E0250931F02609362
:103EA000200270932102089580ED92E00E94C71CC9
:103EB000D1CF8091941D882309F19091201C92709C
:103EC0004091951D5091961D20912E1E30912F1ED0
:103ED0004217530750F480912A1C60ED72E0911153
:103EE00002C068E671E00C94E41B992321F080ED98
:103EF00092E00C94C71C88E691E0FBCF90E080E054
:103F000008958091951D9091961D20912E1E3091BF
:103F10002F1E8217930798F42091D8093091D90960
:103F200021303105B9F080912A1C9091201C60ED60
:103F300072E091FD02C068E671E00C94E41B809190
:103F4000201C81FF04C080ED92E00C94C71C88E621
:103F500091E0FBCF0895FC01208131812B5B3E4F26
:103F600082818051482F50E0440F551FB901641BD6
:103F7000750B89E792E00895FC0120813181295F6A
:103F80003E4F828193819927AC01440F551FB9019F
:103F9000640F751F81E792E00895FC012081318153
:103FA0002B593F4F82818854482F50E0440F551FB2
:103FB000B901641B750B85E792E00895FC0120812F
:103FC0003181295B3F4F82818054482F50E0440F5C
:103FD000551FB901640F751F81E792E00895FC0138
:103FE000208131812B593F4F82818854482F50E0E6
:103FF000440F551FB901641B750B89E792E00895C2
:10400000FC01208131812B5D3F4F82818451482FFB
:1040100050E0440F551FB901641B750B89E792E00E
:104020000895FC0120813181295E3F4F82818051BA
:10403000482F50E0440F551FB901640F751F81E7E9
:1040400092E00895FC01208131812F5B3F4F8281F6
:104050008A52482F50E0440F551FB901641B750B5D
:1040600089E792E00895FC0120813181255D3F4F71
:1040700082818452482F50E0440F551FB901640FCC
:10408000751F81E792E008958091041F23E0829FCD
:10409000C001112420918E0330918F032817390716
:1040A00070F56091E603809153050E942AF660E066
:1040B00080914C050E942AF661E0809152050E9491
:1040C0002AF60E94A8A76093E2037093E30380930B
:1040D000E4039093E50381E090E09093E103809303
:1040E000E00380918E0390918F03019690938F034C
:1040F00080938E0381E08093DA0380E0089581E06D
:1041000008954091DE035091DF032091DC0330914C
:10411000DD038091051F90E0B901681B790B6417DE
:1041200075072CF4820F931F4817590774F1421733
:10413000530764F56091E603809153050E942AF6C7
:104140008091DC039091DD0301979093DD038093D0
:10415000DC0360E080914C050E942AF661E08091CA
:1041600052050E942AF60E94A8A76093E20370936A
:10417000E3038093E4039093E50381E090E0909360
:10418000E1038093E0038093DA0308952417350751
:1041900004F76091E703809153050E942AF680910D
:1041A000DC039091DD030196D0CFCF93DF93809114
:1041B000E0039091E103019739F08091E003909141
:1041C000E103029709F054C08091E0039091E1036C
:1041D000C0919303D0919403019721F0C091910372
:1041E000D09192030E94A8A7AB01BC018091E20389
:1041F0009091E303A091E403B091E5038C0F9D1F20
:10420000A11DB11D84179507A607B70708F5809172
:10421000E0039091E103019711F560E08091520570
:104220000E942AF60E94A8A76093E2037093E3031A
:104230008093E4039093E50380919103909192031E
:10424000892B41F082E090E09093E1038093E003BA
:1042500081E00FC01092E1031092E003F9CF1092B9
:10426000E1031092E00361E080914C050E942AF680
:1042700080E0DF91CF910895CF92DF92EF92FF928D
:104280008091271C8C718C3031F08091B40A80733E
:10429000803309F0F1C00E94A8A76093790370935E
:1042A0007A0380937B0390937C03809179039091B0
:1042B0007A03A0917B03B0917C034091280B50912D
:1042C000290B60912A0B70912B0B841B950BA60B6D
:1042D000B70B8093750390937603A0937703B09305
:1042E0007803409175035091760360917703709144
:1042F000780380919E0590919F05A091A005B091B3
:10430000A10584179507A607B70708F0B5C08091E7
:10431000280B9091290BA0912A0BB0912B0B892B84
:104320008A2B8B2B09F498C08091010C9091020C80
:10433000A091030CB091040C892B8A2B8B2B09F4D0
:104340008BC08091FD0B9091FE0BA091FF0BB09163
:10435000000C892B8A2B8B2B09F47EC02091010C39
:104360003091020C4091030C5091040C8091FD0B94
:104370009091FE0BA091FF0BB091000CC0907503C3
:10438000D0907603E0907703F0907803281B390BE8
:104390004A0B5B0BA3E0B0E00F94B226C616D7061B
:1043A000E806F90608F46DC08091250B9091260B64
:1043B000892BF1F1209163052223D1F18091270B04
:1043C0009091B20A92959F70882381F0E091270B1B
:1043D0004091250B5091260BF0E0EE0FFF1FE8599E
:1043E000FA4F6081718164177507B1F01092270B45
:1043F000E6E6F5E081E09817D8F04091250B509162
:10440000260B628173816417750719F430812317B5
:1044100069F08F5F3296EFCF8091270B8F5F80938B
:10442000270B8091270B981718F481E08093270BB6
:104430008091250B9091260B8093630581E090E09D
:104440009093260B8093250B10929E0510929F054A
:104450001092A0051092A1058091790390917A03A2
:10446000A0917B03B0917C038093280B9093290B40
:10447000A0932A0BB0932B0BFF90EF90DF90CF907F
:1044800008958091250B9091260B892B29F380911B
:10449000250B9091260B01969093260B8093250B6C
:1044A0008091750390917603A0917703B091780382
:1044B00022E0B695A795979587952A95D1F7809391
:1044C0009E0590939F05A093A005B093A105C4CF2E
:1044D000CF92DF92EF92FF920F931F938091271C50
:1044E0008C718C3029F08091B40A8073803319F577
:1044F0000E94A8A76093790370937A0380937B034B
:1045000090937C03E0913E05F0913F05808190916E
:104510003D058923B9F08091790390917A03A091A8
:104520007B03B0917C0380939A0590939B05A093A5
:104530009C05B0939D051F910F91FF90EF90DF9028
:10454000CF9008958091790390917A03A0917B0395
:10455000B0917C034091280B5091290B60912A0B5C
:1045600070912B0B841B950BA60BB70B80937503D7
:1045700090937603A0937703B093780340917503EB
:1045800050917603609177037091780380919E0536
:1045900090919F05A091A005B091A1058417950762
:1045A000A607B70740F68091280B9091290BA091A0
:1045B0002A0BB0912B0B892B8A2B8B2B09F48FC0E4
:1045C0008091960590919705A0919805B0919905D5
:1045D000892B8A2B8B2B09F482C08091250B90911B
:1045E000260B892B49F08091250B9091260B019683
:1045F0009093260B8093250B2091280B3091290B4B
:1046000040912A0B50912B0B809196059091970524
:10461000A0919805B0919905C0907503D09076034C
:10462000E0907703F0907803281B390B4A0B5B0B63
:10463000A3E0B0E00F94B22696958795779567959D
:10464000C616D706E806F90608F486C040919A0512
:1046500050919B0560919C0570919D050091280BE0
:104660001091290B20912A0B30912B0B809179030B
:1046700090917A03A0917B03B0917C03C0909A053E
:10468000D0909B05E0909C05F0909D05401B510B40
:10469000620B730B8C199D09AE09BF0948175907A6
:1046A0006A077B0708F043C08091250B9091260B89
:1046B000892BB1F18091250B9091260B089781F100
:1046C0008091250B9091260B892B09F040C0109208
:1046D0009E0510929F051092A0051092A105809151
:1046E000280B9091290BA0912A0BB0912B0B809352
:1046F000960590939705A0939805B093990580919E
:10470000790390917A03A0917B03B0917C0380930D
:10471000280B9093290BA0932A0BB0932B0B0BCF54
:1047200081E090E09093260B8093250BD0CF809171
:10473000250B9091260B892B39F08091250B9091B8
:10474000260B059709F0BCCF85E090E0EBCF1092E7
:10475000260B1092250BBBCF8091250B9091260B39
:10476000892B09F4BCCF8091750390917603A091B9
:104770007703B091780322E0B695A7959795879532
:104780002A95D1F780939E0590939F05A093A0054D
:10479000B093A105A4CFCF92DF92EF92FF920F9337
:1047A0001F930E94A8A76093710370937203809374
:1047B000730390937403E0914105F0914205808169
:1047C000909140058923B9F0809171039091720313
:1047D000A0917303B09174038093A2059093A305F5
:1047E000A093A405B093A5051F910F91FF90EF90A2
:1047F000DF90CF9008958091710390917203A09102
:104800007303B09174034091010C5091020C6091BC
:10481000030C7091040C841B950BA60BB70B8093B3
:104820006D0390936E03A0936F03B0937003409158
:104830006D0350916E0360916F03709170038091CE
:10484000AE059091AF05A091B005B091B1054817A4
:1048500059076A077B0740F28091D8099091D909DE
:1048600001969093D9098093D80981E080936C03D5
:104870008091010C9091020CA091030CB091040C5A
:10488000892B8A2B8B2B09F404C28091FD0B90910C
:10489000FE0BA091FF0BB091000C892B8A2B8B2B68
:1048A00009F4F7C18091D8099091D909419771F025
:1048B0008091D8099091D909839741F08091941DF6
:1048C0008111DAC18091301E84FDD6C18091010C26
:1048D0009091020CA091030CB091040C0091FD0B7F
:1048E0001091FE0B2091FF0B3091000C40916D0355
:1048F00050916E0360916F0370917003801B910B58
:10490000A20BB30B880F991FAA1FBB1F8417950713
:10491000A607B70708F0A0C11092AE051092AF0528
:104920001092B0051092B1051092050C4091A205AD
:104930005091A3056091A4057091A505C090010C4C
:10494000D090020CE090030CF090040C8091710365
:1049500090917203A0917303B09174030091A2052A
:104960001091A3052091A4053091A5054C195D096E
:104970006E097F09801B910BA20BB30B48175907D7
:104980006A077B0708F07AC081E090E09093D9092C
:104990008093D8098091AA059091AB05A091AC05B0
:1049A000B091AD058093A6059093A705A093A805A7
:1049B000B093A9058091710390917203A091730344
:1049C000B09174038093AA059093AB05A093AC05B6
:1049D000B093AD058091941D882309F446C0809161
:1049E000021E9091031EA091041EB091051E019617
:1049F000A11DB11D8093021E9093031EA093041E5F
:104A0000B093051E8091271C8C718C3029F0809109
:104A1000B40A8073803339F58091B20A807F803484
:104A2000A1F58091D8099091D909019761F48091FD
:104A3000250B9091260B0197A1F08091250B909169
:104A4000260B029771F08091D8099091D90943976C
:104A500009F060C08091250B9091260B049709F016
:104A600059C010926B0381E070C01092021E109228
:104A7000031E1092041E1092051EC4CF83E190E025
:104A80009093D9098093D809BDCF803609F01BC116
:104A90008091D8099091D909019741F48091270B11
:104AA0008130F9F28091270B8230D9F28091D809B8
:104AB0009091D909439741F48091270B823089F274
:104AC0008091270B833069F28091D8099091D909A0
:104AD000019741F48091270B8430A1F18091270B3D
:104AE000853081F18091D8099091D909439741F49B
:104AF0008091270B853031F18091270B863011F1A1
:104B00008091941D8111A2C01092941D8091301E3D
:104B1000806120C08091D8099091D909019731F422
:104B20008091250B9091260B059761F08091D80913
:104B30009091D909439721F78091250B9091260BED
:104B40000797F1F681E080936B038093941D809129
:104B5000301E8F7E8093301E8091FD0B9091FE0B56
:104B6000A091FF0BB091000C4091010C5091020CF0
:104B70006091030C7091040C009171031091720309
:104B80002091730330917403800F911FA21FB31FF4
:104B9000841B950BA60BB70B8093FD0B9093FE0B1C
:104BA000A093FF0BB093000C80917103909172035E
:104BB000A0917303B09174038093010C9093020C45
:104BC000A093030CB093040C8091B40A86FF0CCE22
:104BD0008091E41D81FD08CE2091D8093091D9093A
:104BE0004091FB0B5091FC0B21503109249FC001D7
:104BF000259F900D349F900D112420911B1C309106
:104C00001C1C820F931F2091190230911A028217E7
:104C100093070CF447C0821B930B2091271C2C7127
:104C20002C3041F420916B03222321F02091201C91
:104C300021FF3DC06091D8097091D9091F910F9152
:104C4000FF90EF90DF90CF900C94071980913F1E5A
:104C50008F5F80933F1E58CF8091941D882329F049
:104C600080913F1E8F5F80933F1E1092941D809114
:104C7000301E8F7E8093301E60916D0370916E03A5
:104C800080916F03909170030E94891C81E0809352
:104C9000050C8091010C9091020CA091030CB09135
:104CA000040C7ACF97FFB9CF820F931FB6CF209114
:104CB000D8093091D90960912A1C620F732F711D98
:104CC00088599E4FBBCF803809F01ACF8091D80900
:104CD0009091D909019751F48091270B813009F403
:104CE000C0CE8091270B823009F4BBCE8091D809C9
:104CF0009091D909439751F48091270B833009F49F
:104D0000B0CE8091270B843009F4ABCE8091D809C6
:104D10009091D909019751F48091270B853009F4BE
:104D200011CF8091270B863009F40CCF8091D809E0
:104D30009091D909439709F0E3CE8091270B8730F2
:104D400009F400CF8091270B883009F0D9CEFACE34
:104D5000CF92DF92EF92FF92CF93DF930E94A8A7AA
:104D60006093790370937A0380937B0390937C0321
:104D70008091790390917A03A0917B03B0917C0399
:104D80004091280B5091290B60912A0B70912B0BAD
:104D9000841B950BA60BB70B80937503909376033A
:104DA000A0937703B09378034091750350917603F5
:104DB000609177037091780380919E0590919F0593
:104DC000A091A005B091A105481759076A077B0774
:104DD00008F447C08091790390917A03A0917B03F6
:104DE000B0917C038093280B9093290BA0932A0BFE
:104DF000B0932B0B8091941D81115AC00E94A8A7DB
:104E00006093010C7093020C8093030C9093040C3C
:104E10000E94A8A76B017C01C0912A1C2C2F30E0B6
:104E200050E040E060E87DE88BE590E00F943726A5
:104E3000C21AD30AE40AF50AC092FD0BD092FE0B07
:104E4000E092FF0BF092000CD0E0D093D909C09310
:104E5000D80980913F1E8F5F80933F1E81E0809331
:104E6000941D8091AA059091AB05A091AC05B091DD
:104E7000AD054091A6055091A7056091A8057091D8
:104E8000A905841B950BA60BB70BB695A79597950F
:104E9000879580939E0590939F05A093A005B0935E
:104EA000A105DF91CF91FF90EF90DF90CF90089513
:104EB00086E090E09093D9098093D809D2CFCF9221
:104EC000DF92EF92FF920E94A8A7609379037093FC
:104ED0007A0380937B0390937C0380917903909174
:104EE0007A03A0917B03B0917C034091280B5091F1
:104EF000290B60912A0B70912B0B841B950BA60B31
:104F0000B70B8093750390937603A0937703B093C8
:104F100078038091280B9091290BA0912A0BB091D6
:104F20002B0B892B8A2B8B2BC1F4109275031092BB
:104F30007603109277031092780380917903909111
:104F40007A03A0917B03B0917C038093280B90930C
:104F5000290BA0932A0BB0932B0B40917503509112
:104F60007603609177037091780380919E0590910C
:104F70009F05A091A005B091A105481759076A07A0
:104F80007B0708F4DEC02091280B3091290B40915B
:104F90002A0B50912B0B8091960590919705A0912B
:104FA0009805B0919905281B390B4A0B5B0BA3E0C0
:104FB000B0E00F94B22696958795779567956093A4
:104FC0006703709368038093690390936A038091E9
:104FD000280B9091290BA0912A0BB0912B0B809359
:104FE000960590939705A0939805B09399054091E5
:104FF00075035091760360917703709178038091E7
:10500000670390916803A0916903B0916A03481700
:1050100059076A077B0708F054C08091250B9091CF
:10502000260B059709F44DC0809175039091760386
:10503000A0917703B091780322E0B695A795979554
:1050400087952A95D1F780939E0590939F05A0930D
:10505000A005B093A1058091250B9091260B019698
:105060009093260B8093250B8091790390917A037E
:10507000A0917B03B0917C038093280B9093290B24
:10508000A0932A0BB0932B0B80918E1E85FF59C0E5
:1050900080916B03882309F454C08091250B909173
:1050A000260B019709F04DC0E091500AF091510A8A
:1050B0001995AC01493681E05807A4F04856514093
:1050C000F9CF81E090E09093260B8093250B80939D
:1050D0006B0310929E0510929F051092A0051092EE
:1050E000A105C2CF8091941E8370823051F5E0916A
:1050F000971C9A01220F331FF0E0A0E0B1E0AE1B35
:10510000BF0B0F94F8266B017C019F01DA010F940D
:105110000027C60ED71EE81EF91ECD2CDE2CEF2C64
:10512000FF24E7FCFA9488E691E08C199D09209110
:10513000561D3091571D821B930B9093451E8093F3
:10514000441EFF90EF90DF90CF9008950E94A8A793
:105150006093790370937A0380937B0390937C032D
:105160008091790390917A03A0917B03B0917C03A5
:105170004091280B5091290B60912A0B70912B0BB9
:10518000841B950BA60BB70B809375039093760346
:10519000A0937703B0937803409175035091760301
:1051A000609177037091780380919E0590919F059F
:1051B000A091A005B091A105481759076A077B0780
:1051C00008F4F0C08091790390917A03A0917B0359
:1051D000B0917C038093280B9093290BA0932A0B0A
:1051E000B0932B0B8091250B9091260B029709F021
:1051F0004DC080916305833009F048C08091941DB3
:10520000811176C00E94A8A76093010C7093020CD4
:105210008093030C9093040C0E94A8A76056734ED1
:10522000864191096093FD0B7093FE0B8093FF0BF9
:105230009093000C80912A1C8150990B9093D9096E
:105240008093D80981E08093941D81E080936B0363
:1052500080916D0390916E03A0916F03B0917003E4
:1052600042E0880F991FAA1FBB1F4A95D1F7809370
:105270009E0590939F05A093A005B093A10581E0A2
:1052800090E09093260B8093250B08958091941DB8
:10529000882309F456C080916D0390916E03A0910C
:1052A0006F03B091700340916D0350916E03609154
:1052B0006F0370917003B695A79597958795840FA6
:1052C000951FA61FB71F80939E0590939F05A093DF
:1052D000A005B093A1058091250B9091260B019616
:1052E0009093260B8093250B81E0809363050895AE
:1052F00080912A1C2091D8093091D90990E0AC0105
:10530000415051094217530791F04091021E5091AC
:10531000031E6091041E7091051E43305105610506
:10532000710528F020913F1E2F5F20933F1E209192
:10533000211C27FF8ACF01979093D9098093D80920
:1053400084CF8091D8099091D909039708F4A3CF0D
:105350008091250B9091260B892B09F09CCF0E9400
:10536000A8A76093010C7093020C8093030C909398
:10537000040C0E94A8A76056734E86419109609361
:10538000FD0B7093FE0B8093FF0B9093000C81E05C
:1053900090E09093D9098093D80980936B03809310
:1053A000941D089580916D0390916E03A0916F03F9
:1053B000B091700340916D0350916E0360916F0343
:1053C00070917003B695A79597958795840F951F53
:1053D000A61FB71F80939E0590939F05A093A005DD
:1053E000B093A10581CF0E94A8A760937103709329
:1053F000720380937303909374038091710390916F
:105400007203A0917303B09174034091010C509109
:10541000020C6091030C7091040C841B950BA60B7D
:10542000B70B80936D0390936E03A0936F03B093BB
:10543000700340916D0350916E0360916F03709102
:1054400070038091AE059091AF05A091B005B09129
:10545000B105481759076A077B0708F41AC18091FC
:10546000D8099091D90901969093D9098093D809C8
:1054700080916305882319F08F5F809363054091C5
:105480009E0550919F056091A0057091A1058091A6
:105490006D0390916E03A0916F03B0917003841718
:1054A0009507A607B70700F180916D0390916E03F1
:1054B000A0916F03B091700340916D0350916E0302
:1054C00060916F0370917003B695A7959795879536
:1054D000840F951FA61FB71F80939E0590939F056D
:1054E000A093A005B093A10581E080936C03409147
:1054F000010C5091020C6091030C7091040C4093CC
:10550000FD0B5093FE0B6093FF0B7093000C4091CA
:10551000710350917203609173037091740340930F
:10552000010C5093020C6093030C7093040C909147
:10553000941D992309F48BC08091D8099091D909C1
:10554000019751F08091D8099091D90920912A1C96
:105550002817190608F03FC081E090E09093D90920
:105560008093D80980916B0391E0892780936B0326
:105570008091AA059091AB05A091AC05B091AD05C5
:105580008093A6059093A705A093A805B093A905BD
:105590008091710390917203A0917303B091740391
:1055A0008093AA059093AB05A093AC05B093AD058D
:1055B0008091021E9091031EA091041EB091051EC1
:1055C0000196A11DB11D8093021E9093031EA0930E
:1055D000041EB093051E60916D0370916E0380915F
:1055E0006F03909170030E94891C8091B40A86FF1A
:1055F00050C08091E41D81FD4CC02091D8093091AC
:10560000D9094091FB0B5091FC0B21503109249F8B
:10561000C001259F900D349F900D112420911B1CDB
:1056200030911C1C820F931F2091271C2C712C3051
:1056300041F420916B03222321F02091201C21FFB3
:105640001CC06091D8097091D9090C940719209158
:10565000250B3091260B2130310539F690916305E9
:10566000943019F622E030E03093D9092093D8091C
:105670008093941D10926B03B8CF2091D80930917C
:10568000D90960912A1C620F732F711D88599E4F92
:10569000DCCF08950E94A8A76093710370937203F2
:1056A00080937303909374038091710390917203BC
:1056B000A0917303B09174034091010C5091020CBE
:1056C0006091030C7091040C841B950BA60BB70B17
:1056D00080936D0390936E03A0936F03B093700358
:1056E00040916D0350916E0360916F037091700350
:1056F0008091AE059091AF05A091B005B091B10534
:10570000481759076A077B0708F4C1C08091D80978
:105710009091D90901969093D9098093D80981E095
:1057200080936C038091010C9091020CA091030C6A
:10573000B091040C892B8A2B8B2B61F08091FD0B8F
:105740009091FE0BA091FF0BB091000C892B8A2B3E
:105750008B2B41F410926D0310926E0310926F0325
:10576000109270038091D8099091D9094197E8F17E
:105770008091941D8823C9F181E090E09093D9092C
:105780008093D8098091AA059091AB05A091AC05B2
:10579000B091AD058093A6059093A705A093A805A9
:1057A000B093A9058091710390917203A091730346
:1057B000B09174038093AA059093AB05A093AC05B8
:1057C000B093AD058091021E9091031EA091041E1E
:1057D000B091051E0196A11DB11D8093021E9093EC
:1057E000031EA093041EB093051E1092AE051092E6
:1057F000AF051092B0051092B1051092050C809182
:10580000010C9091020CA091030CB091040C8093B8
:10581000FD0B9093FE0BA093FF0BB093000C8091B7
:10582000710390917203A0917303B09174038093FC
:10583000010C9093020CA093030CB093040C809184
:10584000B40A86FF24C0E091D809F091D909EE0F7F
:10585000FF1FEC59FA4F8081918120911B1C3091E0
:105860001C1C820F931F2091190230911A0282177B
:10587000930744F0821B930B6091D8097091D9096A
:105880000C94071997FFF8CF820F931FF5CF089557
:105890000E94A8A7609371037093720380937303AF
:1058A000909374038091710390917203A09173039C
:1058B000B09174034091010C5091020C6091030C63
:1058C0007091040C841B950BA60BB70B80936D0392
:1058D00090936E03A0936F03B093700340916D0398
:1058E00050916E0360916F03709170038091AE05CB
:1058F0009091AF05A091B005B091B1054817590737
:105900006A077B0708F45EC18091D8099091D90994
:1059100001969093D9098093D80981E080936C0314
:105920008091270B811120C08091010C9091020C75
:10593000A091030CB091040C4091FD0B5091FE0B13
:105940006091FF0B7091000C841B950BA60BB70B9D
:10595000880F991FAA1FBB1F809363039093640352
:10596000A0936503B09366038091010C9091020CA3
:10597000A091030CB091040C892B8A2B8B2B61F026
:105980008091FD0B9091FE0BA091FF0BB091000C4C
:10599000892B8A2B8B2B41F410926D0310926E038E
:1059A00010926F031092700340916D0350916E033B
:1059B00060916F0370917003809163039091640311
:1059C000A0916503B091660384179507A607B707F2
:1059D00008F087C08091270B813009F06CC080915E
:1059E000B20A807F803409F060C083E190E0909338
:1059F000D9098093D8091092270B81E08093941DD8
:105A00001092050C1092AE051092AF051092B005E1
:105A10001092B1058091010C9091020CA091030CA1
:105A2000B091040C8093FD0B9093FE0BA093FF0BA1
:105A3000B093000C8091710390917203A091730355
:105A4000B09174038093010C9093020CA093030C0B
:105A5000B093040C8091B40A86FFB4C02091D80999
:105A60003091D9094091FB0B5091FC0B2150310929
:105A7000249FC001259F900D349F900D11242091EB
:105A80001B1C30911C1C820F931F20911902309116
:105A90001A02821793070CF490C0821B930B60913B
:105AA000D8097091D9090C940719803609F0A3CF51
:105AB0008CE090E09CCF81E08093270B8091D80907
:105AC0009091D90901969093D9098093D809809132
:105AD000D8099091D90901969093D9098093D80952
