:100000000C945D100C947DC80C9452C80C9427C8B5
:100010000C94FCC70C94D1C70C94A6C70C947BC756
:100020000C9450C70C948E100C948E100C948E105F
:100030000C948E100C948E100C948E100C94BFE4C3
:100040000C948E100C9465950C948D930C949B5F7E
:100050000C948E100C948E100C948E100C9406C779
:100060000C948E100C94C3F60C9499F60C948E108C
:100070000C948E100C948E100C948E100C948E1088
:100080000C9498E30C9478DE0C941CDF0C948E1086
:100090000C948E100C948E100C948E100C948E1068
:1000A0000C948E100C948E100C9408E10C94C0DF0C
:1000B0000C9464E00C948E100C948E100C94F4E26A
:1000C0000C9450E20C94ACE10C948E100C948E10B5
:1000D0000C948E100C948E100C9463F60C9439F6DC
:1000E0000C948E100C94E1B20C946EEC0C94C1EC58
:1000F0000C94FCC20C94EBEC0C94F6EB0C94AAC59B
:100100000C94C5ED0C94CEEB0C94AA220C940BEC41
:100110000C9491770C9450A90C94CE1E0C945279A7
:100120000C942CEC0C94A6540C9432EC0C94C3C09C
:100130000C9430590C94335C0C94AF580C94A1B3CC
:100140000C94F8A90C94FEEC0C945FC50C94D01C94
:100150000C9410B80C941CB70C94DF360C941ED47D
:100160000C9410B40C947AEB0C943CC30C94D1A96D
:100170000C947CC00C942DA50C9483AB0C94FDC8FE
:100180000D94CC1C0C945A240C9423EC0D94C2199D
:100190000C9431200C94F5AC0C9491EC0C94D21787
:1001A0000C94DC2B0C94A9EC0C9481C50C94B9B480
:1001B0000C94D9EC0C940D5A0C9419B20C94F724AD
:1001C0000C9458240C9420D40C94A0C50C9479EC75
:1001D0000C9467EB0C94FC620C94FA7E0C943F2612
:1001E0000C940A130C9439D00C94A5570C9443A585
:1001F0000C9461EB0C942BC90C9438EC0C949BC3BD
:100200000C94D8AD0C94CAAC0D94E61C0C945624F6
:100210000C943E570C94CBC80C9452C30C948AA5F2
:100220000C9447400C9466CF0C946CC10C94A0A91C
:100230000D94731D0C9444EC0C945FC30C94F7ADB7
:100240000C9430D40C944E240C94425E0C94357073
:100250000C94C2100C94DEB40C943EA40C944AEBA3
:100260000C94ACB30C9444C90C9419720C94C23520
:100270000C9412A40C9434D40C94E8EC0C940A6200
:100280000C9474EB0C943BEB0C944AA50C944EB973
:100290000C94B9250C9476720C9405C00C9462EC05
:1002A0000C9414120C9475ED0C94ABEB0C94171E7B
:1002B0000C94D3C80C9414290C94BBB50C94555BC6
:1002C0000C9427C20D94231A0C944AC10C9418ABB9
:1002D0000C940B170C9487B80C9406B50C948038CA
:1002E0000C94F1C20C9462B40C948E390C943D338E
:1002F0000C94CCB40C9408EC0C9430C10C9482A5F2
:100300000C945EEB0C94C45D0C9432D40C94A8A9AC
:100310000C94E6C20C943EEC0C94A7A00C94BEACDA
:100320000C9447C30C945B230C943DB20C94F5ECF5
:100330000C948BB90C946DBF0D94831D0C94C9144F
:100340000C94BCC50C944AA90C9491AC0C9493C524
:100350000C94EFEC0C94FB240C94D5EB0C9414EC63
:100360000C94E2EC0C94EBC10C9462EE0C9474C10E
:100370000C9482EC0C94D4B70D94ED1C0C94FF708B
:100380000C9488EC0C94DA2B0C94DFEC0C9463B98D
:100390000C94FFA00C9494A20C9491530C94CAEC6E
:1003A0000C94AE550C94BEBB0C9470C10C94E5C07B
:1003B0000C9483EB0C94E9A20C94B9BF0C94E9570C
:1003C0000C94DAB20C94FFEB0C945DCF0C94532A8E
:1003D0000C94A6C30C9480610C9496C50C94ACEC60
:1003E0000C9486290C94E7B40C9430D00C94C9A9D1
:1003F0000C94B1ED0C9448120C942FEC0C944261C7
:100400000C94A2ED0C94B7710C94ADA20C9474EC06
:100410000C94D6EC0C94D3A50C9460B90C94E081A8
:100420000C944EEB0C9477EB0C9400A30C949AEC88
:100430000C9474F70C94FBEC0C94F1EB0C94277671
:100440000C943BEC0C9476C60C94D3ED0C9452EBCC
:100450000C945AA50C9471EB0C947D260C9497EC9B
:100460000C944DEC0D94541C0C941FA40C94C4ECEF
:100470000C9478A90C94AFC10C948C620C94061265
:100480000C9456270C94B1C30C94187E0C945B26E4
:100490000C94AAC20C94F2EC0C94B8EC0D94D81AFB
:1004A0000C9476EC0C9443B30C94D66F0C9459ECEA
:1004B0000C946B3C0C94E4EB0C94A0CF0C9465EC86
:1004C0000C94B12A0C94EAA90C94C2A30C9485B59F
:1004D0000C94A15B0C948FC50C94A6EC0C944FACBF
:1004E0000C943CB30C942AD40C94FEAA0C9471EC9A
:1004F0000C9479A30D94611C0C948AAF0C945E2427
:100500000C94A9A30C94F5B40C94A7590C941A7CE0
:100510000C94A0B20C946BEC0C948EEC0C9495B3F0
:100520000C945EC00C9423410C94FE750C9402EC68
:100530000C94A2120C9406AD0C949D560C9449A4F4
:100540000C94B8C50C940EEC0C9427C50C94E226C0
:100550000C9426260C948BEC0C944EC10C9478CF02
:100560000C94FD600C941FC00C94C5A50C9432A291
:100570000C94C7EC0C9456C10C944AEC0C94C6C570
:100580000C94E4900D943B1C0C94181B0C9477B6BF
:100590000C94B75A0C9480EB0C9433AC0C94DCECB8
:1005A0000C9459130C94D3EC0C943B1C0C9436D43F
:1005B0000C94C23D0C94B3A50C94A0EC0C945B136A
:1005C0000C9448780C94BF630C9447EB0C94FFCFC9
:1005D0000C9463190C9445A30C947DEB0C9441EBA3
:1005E0000C9468EC0C9495C60C9489EB0C943E8D9D
:1005F0000C9449120C94CCA50C945DC30C94C43497
:100600000C9435EC0C9417EC0C94BBEC0C94F47239
:100610000C940D2D0C9447EC0C9459B40C944B1283
:100620000C94E4290C9404AB0C9439B70C94A3EC0F
:100630000C945FEC0C94E0AB0C94E9C00C9458EB78
:100640000C945AA90C94D5BE0C9490100C945A1387
:100650000C942CD40C94C9C80C940E120C9421BF89
:100660000C9444EB0C944BB90C94DEA30C94EA76F6
:100670000C94B5EC0C94A6C50C94C2C50C94CEA0F9
:100680000C94742B0C9428D40C94DAA50C94F55C7F
:100690000C947FEC0C94B4C50C94795F0C9470A40A
:1006A0000C948EBC0C94BC110C94AC170C94245478
:1006B0000C9422D40C945A540C94F0B40C9463C24D
:1006C0000C949D520C94FD130C94A4120C945D3F59
:1006D0000C94D5B40C94F8A30C9407B40C94151294
:1006E0000C9408D00C94DCA90C941AEC0C949CC5C6
:1006F0000C94C7B30C9461A90C947A1A0C9400C39F
:100700000C94D5C80C9409C90C94E3AC0C94E12565
:100710000C9455EB0C943CA50C94F6CF0C94E7A0EC
:100720000C94E6290C9432A50C94ABA50C945BC5F3
:100730000C94A7300C94228C0C9438280C94E1C0B3
:100740000C94B2180C9426D40D94C91C0C94B9B80E
:100750000C94E5EC0C94DDC00C9441CF0C9452C188
:100760000C9464EB0C943CB50C9481CF0C9447AB87
:100770000C9424D40C949FC20C944A120C9456EC02
:100780000C9429EC0C9426EC0C9468A90C9468B990
:100790000C94E3A90C940A170C94C4B50C94A028EB
:1007A0000C9478C00C94D0EC0C949DEC0C94B2ECAE
:1007B0000C946C900C94CDEC0C94C1C50C9405EC8D
:1007C0000C94CDC80C942FAB0C9493A30C9485EC93
:1007D0000C9441EC0C94B6A30C9487C50C9403B50F
:1007E0000C948BC50C947CEC0C94F8EC0C94CC160B
:1007F0000C9492A00C940E2B0C9415EE0C9401ED1D
:100800000C9437C90C945CEC0C9433A40C94D2B3C4
:100810000C94DDEB0C945D210C94CA270C942ED41F
:100820000C943EEB0C943AB20C9494EC0C94F1A919
:100830000C941A820C94CE1B0C9470B20C943AD483
:100840000D949C1D0C946FCF0C9465A40C9438D41B
:100850000C9430370C9466A10C94F5C80C94BEA58A
:100860000C94EEEB0C9474AB0D946D1B0C94AEC514
:100870000C9437AB0C945BEB0C9416C90C943CD4E1
:100880000C9411EC0C94D2A20C9452CF0C942D5DCC
:100890000C9477250C944BA20C94D1C80C94F67F41
:1008A0000C9405A40C941DEC0C940E250C9452246D
:1008B0000C94FCEB0D94F71C0C942EA30C9411D00B
:1008C0000C9453B20C9486EB0C94A3120C94AFECE2
:1008D0000C940F120C9436AC0C9454240C94A16F0D
:1008E0000C94BEEC0C948D360C9438EB0C94FB13EA
:1008F0000C9444AC0C94BEC80C9488B50C9450EC89
:100900000C9420EC0C9453EC0C946AEB0C94C913EB
:100910000A5061676520686173206E6F742062659C
:10092000656E20696D706C656D656E7465642079A7
:100930006574000A326E642049676E6974696F6E6F
:10094000204D6170000A326E64204675656C204D42
:100950006170000A50616765203920436667000AAC
:100960005472696D2031205461626C65000A5656DC
:1009700054204D6170000A426F6F7374204D617096
:10098000000A5067203620436F6E666967000A418F
:100990004652204D6170000A50672034204366673C
:1009A000000A49676E6974696F6E204D6170000AB4
:1009B0005067203220436667000A5645204D61701B
:1009C000004572723A20556E6B6E6F776E20636DC4
:1009D00064000A3D3D3D436F6D6D616E6420486566
:1009E0006C703D3D3D0A0A416C6C20636F6D6D611A
:1009F0006E6473206172652073696E676C65206335
:100A0000686172616374657220616E6420617265F1
:100A100020636F6E636174656E61746564207769CD
:100A2000746820746865697220706172616D6574A4
:100A3000657273200A776974686F757420737061CA
:100A40006365732E53796E7461783A20203C636F2E
:100A50006D6D616E643E2B3C706172616D65746595
:100A600072313E2B3C706172616D65746572323E0D
:100A70002B3C706172616D657465724E3E0A0A3D71
:100A80003D3D4C697374206F6620436F6D6D616EE0
:100A900064733D3D3D0A0A41202D20446973706C0A
:100AA000617973203331206279746573206F662019
:100AB00063757272656E74537461747573207661B8
:100AC0006C75657320696E2062696E617279202889
:100AD0006C6976652064617461290A42202D204288
:100AE00075726E2063757272656E74206D61702010
:100AF000616E6420636F6E6669675061676520761A
:100B0000616C75657320746F20656570726F6D0A16
:100B100043202D205465737420434F4D20706F7215
:100B2000742E2020557365642062792054756E659B
:100B30007273747564696F20746F207365652077B4
:100B400068657468657220616E204543552069733D
:100B5000206F6E206120676976656E20736572690B
:100B6000616C200A20202020706F72742E20526544
:100B70007475726E7320612062696E617279206E85
:100B8000756D6265722E0A4E202D205072696E744A
:100B9000206E6577206C696E652E0A50202D2053DB
:100BA00065742063757272656E7420706167652E5E
:100BB000202053796E7461783A2020502B3C70616C
:100BC00067654E756D6265723E0A52202D20536135
:100BD0006D65206173204120636F6D6D616E640AE5
:100BE00053202D20446973706C6179207369676E9E
:100BF0006174757265206E756D6265720A51202D83
:100C00002053616D65206173205320636F6D6D61AA
:100C10006E640A56202D20446973706C6179206DD2
:100C20006170206F7220636F6E66696750616765DF
:100C30002076616C75657320696E2062696E6172E1
:100C4000790A57202D20536574206F6E65206279D4
:100C5000746520696E206D6170206F7220636F6E05
:100C6000666967506167652E2020457870656374FA
:100C7000732062696E61727920706172616D657452
:100C80006572732E200A2020202053796E746178BB
:100C90003A2020572B3C6F66667365743E2B3C6E82
:100CA0006577627974653E0A74202D20536574203F
:100CB00063616C6962726174696F6E2076616C75D4
:100CC00065732E2020457870656374732062696EA9
:100CD00061727920706172616D65746572732E2026
:100CE000205461626C6520696E64657820697320A8
:100CF00065697468657220302C200A20202020311C
:100D00002C206F7220322E202053796E7461783A35
:100D10002020742B3C74626C655F6964783E2B3CC8
:100D20006E657756616C7565313E2B3C6E65775606
:100D3000616C7565323E2B3C6E657756616C7565EE
:100D40004E3E0A5A202D20446973706C61792063ED
:100D5000616C6962726174696F6E2076616C756531
:100D6000730A54202D20446973706C6179732032AA
:100D7000353620746F6F7468206C6F6720656E74F1
:100D80007269657320696E2062696E6172790A7298
:100D9000202D20446973706C6179732032353620C0
:100DA000746F6F7468206C6F6720656E747269650C
:100DB000730A55202D205072657061726520666F30
:100DC00072206669726D77617265207570646174F6
:100DD000652E20546865206E65787420627974658C
:100DE0002072656365697665642077696C6C206341
:100DF00061757365207468652041726475696E6FF2
:100E000020746F2072657365742E0A3F202D204474
:100E10006973706C61797320746869732068656C9C
:100E2000702070616765002C2000575545004F32D7
:100E300000496E6C65742074656D7000436F6F6C53
:100E4000616E7400526573657420636F6E74726FA7
:100E50006C2069732063757272656E746C7920649E
:100E6000697361626C65642E00436F6D6D732068F9
:100E7000616C7465642E204E6578742062797465A7
:100E80002077696C6C2072657365742074686520C6
:100E900041726475696E6F2E005370656564756983
:100EA0006E6F20323032322E3032007370656564DE
:100EB00075696E6F2032303232303200303031009E
:100EC00020002000200020002020202000526573F8
:100ED000657420636F6E74726F6C20697320637524
:100EE0007272656E746C792064697361626C65649A
:100EF0002E00436F6D6D732068616C7465642E20E5
:100F00004E65787420627974652077696C6C207204
:100F100065736574207468652041726475696E6FCD
:100F20002E000000800020012001800020018000B0
:100F3000F0008001C000C0002001C000800020013E
:100F4000040E11191B20292B2D2F31333537393B36
:100F50003D3F414345474B4D4F515557595D6166A4
:100F60006D7700000000963007772C610EEEBA51C5
:100F7000099919C46D078FF46A7035A563E9A395C3
:100F8000649E3288DB0EA4B8DC791EE9D5E088D9EE
:100F9000D2972B4CB609BD7CB17E072DB8E7911DC9
:100FA000BF906410B71DF220B06A4871B9F3DE41FA
:100FB000BE847DD4DA1AEBE4DD6D51B5D4F4C78577
:100FC000D38356986C13C0A86B647AF962FDECC9A0
:100FD000658A4F5C0114D96C0663633D0FFAF50D09
:100FE000088DC8206E3B5E10694CE44160D572717B
:100FF00067A2D1E4033C47D4044BFD850DD26BB509
:101000000AA5FAA8B5356C98B242D6C9BBDB40F93F
:10101000BCACE36CD832755CDF45CF0DD6DC593DF6
:10102000D1ABAC30D9263A00DE518051D7C8166119
:10103000D0BFB5F4B42123C4B3569995BACF0FA548
:10104000BDB89EB802280888055FB2D90CC624E94D
:101050000BB1877C6F2F114C6858AB1D61C13D2DC2
:1010600066B69041DC760671DB01BC20D2982A106E
:10107000D5EF8985B1711FB5B606A5E4BF9F33D4FE
:10108000B8E8A2C9077834F9000F8EA80996189815
:101090000EE1BB0D6A7F2D3D6D08976C6491015C7C
:1010A00063E6F4516B6B62616C1CD83065854E0051
:1010B00062F2ED95066C7BA5011BC1F4088257C452
:1010C0000FF5C6D9B06550E9B712EAB8BE8B7C8877
:1010D000B9FCDF1DDD62492DDA15F37CD38C654C3C
:1010E000D4FB5861B24DCE51B53A7400BCA3E23086
:1010F000BBD441A5DF4AD795D83D6DC4D1A4FBF43C
:10110000D6D36AE96943FCD96E34468867ADD0B856
:1011100060DA732D0444E51D03335F4C0AAAC97CD1
:101120000DDD3C710550AA41022710100BBE862030
:101130000CC925B56857B3856F2009D466B99FE4FB
:1011400061CE0EF9DE5E98C9D9292298D0B0B4A834
:10115000D7C7173DB359810DB42E3B5CBDB7AD6CFD
:10116000BAC02083B8EDB6B3BF9A0CE2B6039AD2E8
:10117000B1743947D5EAAF77D29D1526DB048316C3
:10118000DC73120B63E3843B64943E6A6D0DA85AD2
:101190006A7A0BCF0EE49DFF099327AE000AB19E39
:1011A000077D44930FF0D2A3088768F2011EFEC2A8
:1011B00006695D5762F7CB67658071366C19E70683
:1011C0006B6E761BD4FEE02BD3895A7ADA10CC4AA8
:1011D000DD676FDFB9F9F9EFBE8E43BEB717D58E65
:1011E000B060E8A3D6D67E93D1A1C4C2D83852F25B
:1011F000DF4FF167BBD16757BCA6DD06B53F4B3665
:10120000B248DA2B0DD84C1B0AAFF64A0336607A87
:101210000441C3EF60DF55DF67A8EF8E6E3179BE02
:1012200069468CB361CB1A8366BCA0D26F2536E2C7
:10123000685295770CCC03470BBBB91602222F26B8
:101240000555BE3BBAC5280BBDB2925AB42B046AF1
:10125000B35CA7FFD7C231CFD0B58B9ED92C1DAEC2
:10126000DE5BB0C2649B26F263EC9CA36A750A93B2
:101270006D02A906099C3F360EEB8567077213576E
:101280000005824ABF95147AB8E2AE2BB17B381BB9
:10129000B60C9B8ED2920DBED5E5B7EFDC7C21DF7C
:1012A000DB0BD4D2D38642E2D4F1F8B3DD686E838F
:1012B000DA1FCD16BE815B26B9F6E177B06F7747AE
:1012C000B718E65A0888706A0FFFCA3B06665C0BBF
:1012D0000111FF9E658F69AE62F8D3FF6B6145CF48
:1012E0006C1678E20AA0EED20DD75483044EC2B336
:1012F0000339612667A7F71660D04D476949DB7748
:101300006E3E4A6AD1AEDC5AD6D9660BDF40F03B5E
:10131000D83753AEBCA9C59EBBDE7FCFB247E9FF2D
:10132000B5301CF2BDBD8AC2BACA3093B353A6A36E
:10133000B4240536D0BA9306D7CD2957DE54BF67FB
:10134000D9232E7A66B3B84A61C4021B685D942B18
:101350006F2A37BE0BB4A18E0CC31BDF055A8DEF6D
:10136000022D0000000041311B1982623632C35346
:101370002D2B04C56C6445F4777D86A75A56C79615
:10138000414F088AD9C849BBC2D18AE8EFFACBD904
:10139000F4E30C4FB5AC4D7EAEB58E2D839ECF1CC5
:1013A00098875112C24A1023D953D370F4789241CE
:1013B000EF6155D7AE2E14E6B537D7B5981C968495
:1013C000830559981B8218A9009BDBFA2DB09ACB94
:1013D00036A95D5D77E61C6C6CFFDF3F41D49E0E45
:1013E0005ACDA2248495E3159F8C2046B2A761773D
:1013F000A9BEA6E1E8F1E7D0F3E82483DEC365B235
:10140000C5DAAAAE5D5DEB9F464428CC6B6F69FDE3
:101410007076AE6B3139EF5A2A202C09070B6D38E4
:101420001C12F33646DFB2075DC6715470ED3065AD
:101430006BF4F7F32ABBB6C231A275911C8934A0B4
:101440000790FBBC9F17BA8D840E79DEA92538EF73
:10145000B23CFF79F373BE48E86A7D1BC5413C2A64
:10146000DE58054F79F0447E62E9872D4FC2C61CD5
:1014700054DB018A159440BB0E8D83E823A6C2D9A4
:1014800038BF0DC5A0384CF4BB218FA7960ACE9665
:101490008D130900CC5C4831D7458B62FA6ECA5374
:1014A000E177545DBBBA156CA0A3D63F8D88970E2B
:1014B00096915098D7DE11A9CCC7D2FAE1EC93CB24
:1014C000FAF55CD762721DE6796BDEB554409F84F5
:1014D0004F5958120E161923150FDA7038249B41F4
:1014E000233DA76BFD65E65AE67C2509CB5764389A
:1014F000D04EA3AE9101E29F8A1821CCA73360FDA4
:10150000BC2AAFE124ADEED03FB42D83129F6CB264
:101510000986AB2448C9EA1553D029467EFB687773
:1015200065E2F6793F2FB7482436741B091D352A2A
:101530001204F2BC534BB38D485270DE657931EF23
:101540007E60FEF3E6E7BFC2FDFE7C91D0D53DA0F4
:10155000CBCCFA368A83BB07919A7854BCB13965F3
:10156000A7A84B98833B0AA99822C9FAB50988CB4A
:10157000AE104F5DEF5F0E6CF446CD3FD96D8C0E13
:10158000C27443125AF3022341EAC1706CC1804114
:1015900077D847D7369706E62D8EC5B500A5848443
:1015A0001BBC1A8A41715BBB5A6898E87743D9D94A
:1015B0006C5A1E4F2D155F7E360C9C2D1B27DD1C93
:1015C000003E120098B9533183A09062AE8BD15384
:1015D000B59216C5F4DD57F4EFC494A7C2EFD596C3
:1015E000D9F6E9BC07AEA88D1CB76BDE319C2AEF9B
:1015F0002A85ED796BCAAC4870D36F1B5DF82E2A33
:1016000046E1E136DE66A007C57F6354E8542265F3
:10161000F34DE5F3B202A4C2A91B6791843026A062
:101620009F29B8AEC5E4F99FDEFD3ACCF3D67BFD29
:10163000E8CFBC6BA980FD5AB2993E099FB27F38B2
:1016400084ABB0241C2CF115073532462A1E737763
:101650003107B4E17048F5D06B513683467A77B2E2
:101660005D634ED7FACB0FE6E1D2CCB5CCF98D84D1
:10167000D7E04A1296AF0B238DB6C870A09D894162
:10168000BB84465D2303076C381AC43F1531850EB1
:101690000E2842984F6703A9547EC0FA795581CB32
:1016A000624C1FC538815EF423989DA70EB3DC966B
:1016B00015AA1B0054E55A314FFC996262D7D853E2
:1016C00079CE174FE149567EFA50952DD77BD41C21
:1016D000CC62138A8D2D52BB963491E8BB1FD0D9B2
:1016E000A006ECF37E5EADC265476E91486C2FA0FC
:1016F0005375E836123AA90709236A5424082B6562
:101700003F11E479A796A548BC8F661B91A4272AB0
:101710008ABDE0BCCBF2A18DD0EB62DEFDC023EF31
:10172000E6D9BDE1BC14FCD0A70D3F838A267EB26A
:10173000913FB924D070F815CB693B46E6427A77E1
:10174000FD5BB56B65DCF45A7EC5370953EE763820
:1017500048F7B1AE09B8F09F12A133CC3F8A72FDB1
:10176000249300000000376AC2016ED4840359BE7E
:101770004602DCA80907EBC2CB06B27C8D048516B5
:101780004F05B851130E8F3BD10FD685970DE1EF62
:10179000550C64F91A095393D8080A2D9E0A3D473F
:1017A0005C0B70A3261C47C9E41D1E77A21F291DD0
:1017B000601EAC0B2F1B9B61ED1AC2DFAB18F5B599
:1017C0006919C8F23512FF98F713A626B111914C8A
:1017D0007310145A3C152330FE147A8EB8164DE45B
:1017E0007A17E0464D38D72C8F398E92C93BB9F81D
:1017F0000B3A3CEE443F0B84863E523AC03C655067
:10180000023D58175E366F7D9C3736C3DA3501A925
:10181000183484BF5731B3D59530EA6BD332DD012C
:10182000113390E56B24A78FA925FE31EF27C95B03
:101830002D264C4D62237B27A0222299E62015F30A
:10184000242128B4782A1FDEBA2B4660FC29710AAD
:101850003E28F41C712DC376B32C9AC8F52EADA288
:10186000372FC08D9A70F7E75871AE591E739933B0
:10187000DC721C2593772B4F517672F11774459BC0
:10188000D57578DC897E4FB64B7F16080D7D2162B9
:10189000CF7CA4748079931E4278CAA0047AFDCAD2
:1018A000C67BB02EBC6C87447E6DDEFA386FE99043
:1018B000FA6E6C86B56B5BEC776A0252316835382C
:1018C000F369087FAF623F156D6366AB2B6151C151
:1018D000E960D4D7A665E3BD6464BA0322668D6966
:1018E000E06720CBD74817A115494E1F534B797598
:1018F000914AFC63DE4FCB091C4E92B75A4CA5DDD2
:10190000984D989AC446AFF00647F64E4045C1241C
:1019100082444432CD4173580F402AE649421D8C1F
:101920008B435068F154670233553EBC755709D656
:10193000B7568CC0F853BBAA3A52E2147C50D57EFD
:10194000BE51E839E25ADF53205B86ED6659B18714
:10195000A4583491EB5D03FB295C5A456F5E6D2FF3
:10196000AD5F801B35E1B771F7E0EECFB1E2D9A5ED
:1019700073E35CB33CE66BD9FEE73267B8E5050D6F
:101980007AE4384A26EF0F20E4EE569EA2EC61F48A
:1019900060EDE4E22FE8D388EDE98A36ABEBBD5C7D
:1019A00069EAF0B813FDC7D2D1FC9E6C97FEA90678
:1019B00055FF2C101AFA1B7AD8FB42C49EF975AE5B
:1019C0005CF848E900F37F83C2F2263D84F01157AA
:1019D00046F1944109F4A32BCBF5FA958DF7CDFF91
:1019E0004FF6605D78D95737BAD80E89FCDA39E3FB
:1019F0003EDBBCF571DE8B9FB3DFD221F5DDE54B1D
:101A000037DCD80C6BD7EF66A9D6B6D8EFD481B245
:101A10002DD504A462D033CEA0D16A70E6D35D1A6E
:101A200024D210FE5EC527949CC47E2ADAC64940A3
:101A300018C7CC5657C2FB3C95C3A282D3C195E8C8
:101A400011C0A8AF4DCB9FC58FCAC67BC9C8F111C5
:101A50000BC9740744CC436D86CD1AD3C0CF2DB9C2
:101A600002CE4096AF9177FC6D902E422B921928B2
:101A7000E9939C3EA696AB546497F2EA2295C58002
:101A8000E094F8C7BC9FCFAD7E9E9613389CA17999
:101A9000FA9D246FB598130577994ABB319B7DD188
:101AA000F39A3035898D075F4B8C5EE10D8E698B23
:101AB000CF8FEC9D808ADBF7428B82490489B52366
:101AC000C68888649A83BF0E5882E6B01E80D1DA39
:101AD000DC8154CC938463A651853A1817870D7224
:101AE000D586A0D0E2A997BA20A8CE0466AAF96E3E
:101AF000A4AB7C78EBAE4B1229AF12AC6FAD25C610
:101B0000ADAC1881F1A72FEB33A6765575A4413FF4
:101B1000B7A5C429F8A0F3433AA1AAFD7CA39D97D9
:101B2000BEA2D073C4B5E71906B4BEA740B689CD2E
:101B300082B70CDBCDB23BB10FB3620F49B1556533
:101B40008BB06822D7BB5F4815BA06F653B8319CF4
:101B500091B9B48ADEBC83E01CBDDA5E5ABFED34B5
:101B600098BE000000006567BCB88BC809AAEEAF3C
:101B7000B5125797628F32F0DE37DC5F6B25B938CC
:101B8000D79DEF28B4C58A4F087D64E0BD6F0187FB
:101B900001D7B8BFD64ADDD86AF23377DFE05610F6
:101BA00063589F571950FA30A5E8149F10FA71F83E
:101BB000AC42C8C07BDFADA7C76743087275266F0C
:101BC000CECD707FAD951518112DFBB7A43F9ED0DB
:101BD000188727E8CF1A428F73A2AC20C6B0C94736
:101BE0007A083EAF32A05BC88E18B5673B0AD000BA
:101BF00087B26938502F0C5FEC97E2F059858797D0
:101C0000E53DD1878665B4E03ADD5A4F8FCF3F2856
:101C100033778610E4EAE37758520DD8ED4068BF79
:101C200051F8A1F82BF0C49F97482A30225A4F57F9
:101C30009EE2F66F497F9308F5C77DA740D518C08F
:101C4000FC6D4ED09F352BB7238DC518969FA07F76
:101C50002A271947FDBA7C204102928FF410F7E839
:101C600048A83D58149B583FA823B6901D31D3F780
:101C7000A1896ACF76140FA8CAACE1077FBE846041
:101C8000C306D270A05EB7171CE659B8A9F43CDFB2
:101C9000154C85E7C2D1E0807E690E2FCB7B6B4867
:101CA00077C3A20F0DCBC768B17329C704614CA0DD
:101CB000B8D9F5986F4490FFD3FC7E5066EE1B3781
:101CC000DA564D27B90E284005B6C6EFB0A4A38852
:101CD0000C1C1AB0DB817FD767399178D22BF41FA7
:101CE0006E9303F7263B66909A83883F2F91ED58B9
:101CF0009329546044B43107F80CDFA84D1EBACFC5
:101D0000F1A6ECDF92FE89B82E4667179B5402704D
:101D100027ECBB48F071DE2F4CC93080F9DB55E76A
:101D200045639CA03F6BF9C783D3176836C1720F18
:101D30008A79CB375DE4AE50E15C40FF544E259884
:101D4000E8F673888BAE16EF3716F84082049D27AD
:101D50003EBC241FE92141785599AFD7E08BCAB02A
:101D60005C333BB659ED5ED1E555B07E5047D51991
:101D7000ECFF6C213B62094687DAE7E932C8828EC4
:101D80008E70D49EED28B1F951905F56E4823A31BD
:101D9000583A83098FA7E66E331F08C1860D6DA6DA
:101DA0003AB5A4E140BDC186FC052F2949174A4E2A
:101DB000F5AFF376223296119E8A78BE2B981DD904
:101DC00097204BC9F4782EAE48C0C001FDD2A5665D
:101DD000416A1C5E96F779392A4F97969F5DF2F11A
:101DE00023E505196B4D607ED7F58ED162E7EBB622
:101DF000DE5F528E09C237E9B57AD9460068BC2148
:101E0000BCD0EA31DF888F56633061F9D622049E58
:101E10006A9ABDA6BD07D8C101BF366EB4AD5309DD
:101E200008159A4E721DFF29CEA511867BB774E165
:101E3000C70FCDD91092A8BEAC2A46111938237607
:101E4000A5807566C6D810017A60FEAECF729BC9B8
:101E500073CA22F1A457479618EFA939ADFDCC5E9D
:101E6000114506EE4D766389F1CE8D2644DCE841BE
:101E7000F86451792FF9341E9341DAB12653BFD655
:101E80009AEBE9C6F9B38CA1450B620EF01907690C
:101E90004CA1BE519B3CDB3627843599929650FE6F
:101EA0002E2E99B95426FCDEE89E12715D8C7716B1
:101EB000E134CE2E36A9AB498A1145E63F03208195
:101EC00083BB7691E0E313F65C5BFD59E949983EEC
:101ED00055F12106826C44613ED4AACE8BC6CFA9AF
:101EE000377E38417FD65D26C36EB389767CD6EEC9
:101EF000CAC46FD61D590AB1A1E1E41E14F3817959
:101F0000A84BD769CB13B20E77AB5CA1C2B939C667
:101F10007E0180FEA99CE59915240B36A0366E51F2
:101F20001C8EA7166686C271DA3E2CDE6F2C49B96C
:101F3000D394F081040995E6B8B17B490DA31E2E18
:101F4000B11B483ED2432D596EFBC3F6DBE9A69187
:101F500067511FA9B0CC7ACE0C749461B966F106B2
:101F600005DE00002100240027002A002D0030009B
:101F7000330001010000040107010A0100002200F2
:101F8000250028002B002E00310034000201000043
:101F9000050108010B010000200023002600290094
:101FA0002C002F003200000100000301060109018E
:101FB00005050505070508080808020202020A0AC5
:101FC00008080404040401010101010101010303E3
:101FD000030303030303040707070C0C0C0C0C0C8E
:101FE0000C0C0202020206060606060606060B0B8B
:101FF0000B0B0B0B0B0B01021020200808102040CC
:1020000010204080020102010804020101020408BC
:10201000102040808040201008040201800402014A
:102020008040201008040201080402010102040893
:1020300010204080010204081020408000000A0B9C
:1020400002090C0D0E080703040100000000000047
:102050000000000000000000000000000000000080
:10206000000000000000000012111000000000003D
:102070000000000000000000000000000000000060
:102080000000537065656475696E6F005370656517
:102090006475696E6F20323031392E30382D73659A
:1020A0007200537065656475696E6F206373783074
:1020B000323031392E38000074F711241FBECFEFB3
:1020C000D1E2DEBFCDBF00E00CBF12E0A0E0B2E085
:1020D000E6E7F2E502E00BBF02C007900D92AE39D1
:1020E000B107D9F72FE1AEE9B2E001C01D92AD34DE
:1020F000B207E1F710E1CDE5D0E100E006C021979D
:102100000109802FFE010F94B628CC35D10780E05D
:102110000807A9F70E943AFA0D9439290C94000097
:102120008091430A9091440A2091231C3091241CF1
:10213000821B930B2091190230911A028217930788
:102140009CF0821B930B0197843B910590F082E0F9
:1021500090E09093D1028093D00281E090E0909340
:10216000CF028093CE02089597FFEDCF820F931F89
:10217000EACF81E090E09093D1028093D00282E098
:1021800090E0EDCF2091321C80912F1C8C718C300F
:1021900021F48091281C322F81FD30E0E091231C36
:1021A000F091241C6091030C7091040C8091430AFF
:1021B0009091440A8E1B9F0B0F94E927230F33271E
:1021C000331F261737070CF0A0C0621B730B7093E8
:1021D000D1026093D0026091030C7091040C809145
:1021E000E9099091EA098E1B9F0B0F94E9272617A6
:1021F00037070CF091C0621B730B7093CF02609392
:10220000CE026091030C7091040C8091E5099091CD
:10221000E6098E1B9F0B0F94E927261737070CF052
:1022200082C0621B730B7093CD026093CC026091ED
:10223000030C7091040C8091E7099091E8098E1BC2
:102240009F0B0F94E927261737070CF073C0621B0A
:10225000730B7093CB026093CA026091030C709170
:10226000040C8091D4029091D5028E1B9F0B0F9489
:10227000E927261737070CF064C0621B730B7093B5
:10228000C9026093C8026091030C7091040C8091A4
:10229000D2029091D3028E1B9F0B0F94E927261731
:1022A00037070CF055C0621B730B7093C702609325
:1022B000C6026091030C7091040C8091EB0990911F
:1022C000EC098E1B9F0B0F94E927261737070CF09C
:1022D00046C0621B730B7093C5026093C402609189
:1022E000030C7091040C8091ED099091EE098E1B06
:1022F0009F0B0F94E92726173707C4F5621B730B52
:102300007093C3026093C2020895161617060CF468
:102310005ECF620F731F5BCF161617060CF46DCFDE
:10232000620F731F6ACF161617060CF47CCF620F6C
:10233000731F79CF161617060CF48BCF620F731F1D
:1023400088CF161617060CF49ACF620F731F97CF1B
:10235000161617060CF4A9CF620F731FA6CF161618
:1023600017060CF4B8CF620F731FB5CF16161706F9
:102370003CF2620F731FC4CF8091BA0A807F803411
:1023800079F580912F1C8C718C30C9F488E090E035
:102390009093D1028093D00282E090E09093CF029C
:1023A0008093CE0284E090E09093CD028093CC02A3
:1023B00086E090E09093CB028093CA02089524E0D7
:1023C00030E03093D1022093D00282E090E09093ED
:1023D000CF028093CE023093CD022093CC02EACF7D
:1023E000803661F780912F1C8C718C3079F286E0F9
:1023F00090E09093D1028093D00282E090E090939D
:10240000CF028093CE0224E030E0E5CF1092D309D2
:102410001092D20981E08093AE020895089510923F
:10242000D3091092D2090895089580919C1D8111BD
:102430000EC01092D3091092D20981E080939C1DA6
:1024400083E080932F0B81E08093AE02089580910A
:10245000291C87FF05C01092D3091092D209F0CF32
:1024600080910A1E90910B1EA0910C1EB0910D1E22
:1024700084369105A105B10530F78091D20990917C
:10248000D3098D9701F31092D3091092D209DBCFB3
:102490000895089508958091CE1D90912F1C9C71F0
:1024A0009C3091F58A30CCF088E090E09093D10296
:1024B0008093D00282E090E09093CF028093CE028E
:1024C00084E090E09093CD028093CC0286E090E08F
:1024D0009093CB028093CA0208951816ECF781E01E
:1024E00090E09093D1028093D00283E090E09093AB
:1024F000CF028093CE0285E090E09093CD0280934E
:10250000CC0287E090E0E4CF8A308CF024E030E029
:102510003093D1022093D00282E090E09093CF02DA
:102520008093CE023093CD022093CC02D1CF1816E7
:102530009CF621E030E03093D1022093D00283E07A
:1025400090E0ECCF089508958091430A9091440A59
:102550002091231C3091241CAC01445051092417B4
:1025600035070CF04BC0821B930B97FD0196959598
:10257000879504979093D1028093D0028091E909C6
:102580009091EA09AC014450510924173507CCF564
:10259000821B930B97FD01969595879504979093D1
:1025A000CF028093CE028091E5099091E609AC01BB
:1025B00044505109241735073CF5821B930B97FDB6
:1025C00001969595879504979093CD028093CC02C0
:1025D0008091E7099091E809AC0144505109241712
:1025E0003507ACF4821B930B97FD01969595879563
:1025F00004979093CB028093CA02089580539D4F15
:10260000B2CF80539D4FC4CF80539D4FD6CF8053C0
:102610009D4FE8CF9091CE1D80912F1C8C718C30F6
:1026200081F59A30CCF08CE090E09093D1028093C9
:10263000D00283E090E09093CF028093CE0286E0B8
:1026400090E09093CD028093CC0289E090E090934B
:10265000CB028093CA02089581E090E09093D1026A
:102660008093D00284E090E09093CF028093CE02DA
:1026700087E090E09093CD028093CC028AE090E0D6
:10268000E6CF9A306CF086E090E09093D102809390
:10269000D00283E090E09093CF028093CE02089521
:1026A00081E090E09093D1028093D00284E090E0AA
:1026B000F2CF089508958091BA0A807F803421F581
:1026C0008091CE1D8A306CF484E290E09093D10228
:1026D0008093D00280E190E09093CF028093CE026D
:1026E000089584311CF483E290E0F0CF8E311CF425
:1026F00082E290E0EBCF8FE190E09093D102809363
:10270000D0028DE090E0E8CF803609F041C08091A2
:10271000CE1D24E230E08A3024F08431ACF423E290
:1027200030E03093D1022093D00229E030E03093A2
:10273000CF022093CE028A3004F587E190E0909397
:10274000CD028093CC02089522E230E08E3134F045
:102750002FE130E0883214F421E230E03093D102EE
:102760002093D00226E030E03093CF022093CE02B7
:102770008E3134F485E190E0E2CF86E190E0DFCF66
:1027800088321CF484E190E0DACF83E190E0D7CF87
:1027900008958091CE1D8930CCF481E090E0909333
:1027A000D1028093D00285E090E09093CF02809395
:1027B000CE0289E090E09093CD028093CC028DE030
:1027C00090E09093CB028093CA02089580E190E05C
:1027D0009093D1028093D00284E090E09093CF0256
:1027E0008093CE0288E090E09093CD028093CC025B
:1027F0008CE090E0E6CF0C94E490CF93DF9380914F
:102800002F1C8C718C3021F48091281C24E281FDD6
:1028100020E0C091231CD091241C6091030C709186
:10282000040C8091430A9091440A8C1B9D0B0F94D9
:10283000E9276150710930E0F901B496E617F7070E
:102840000CF08CC06E1B7F0B80910C0490910D04DA
:10285000820F931F8617970730F460910C047091D4
:102860000D04620F731F7093D1026093D0026091C8
:10287000030C7091040C8091E9099091EA098C1B7A
:102880009D0B0F94E92761507109E617F7070CF0CB
:102890006CC06E1B7F0B80910C0490910D04820F15
:1028A000931F8617970730F460910C0470910D0404
:1028B000620F731F7093CF026093CE026091030C7E
:1028C0007091040C8091E5099091E6098C1B9D0B99
:1028D0000F94E92761507109E617F7070CF04CC017
:1028E0006E1B7F0B80910C0490910D04820F931F3F
:1028F0008617970730F460910C0470910D04620FF5
:10290000731F7093CD026093CC026091030C7091A1
:10291000040C8091E7099091E8098C1B9D0B0F94A2
:10292000E92761507109E617F7076CF56E1B7F0BFD
:1029300080910C0490910D04820F931F86179707C6
:1029400030F460910C0470910D04620F731F70934A
:10295000CB026093CA02DF91CF9108951616170635
:102960000CF472CF6E0F7F1F6FCF161617060CF484
:1029700092CF6E0F7F1F8FCF161617060CF4B2CFB3
:102980006E0F7F1FAFCF1616170694F26E0F7F1FC4
:10299000CFCF3091321C80912F1C8C718C3021F460
:1029A0008091281C232F81FD20E0E091231CF091D1
:1029B000241C6091030C7091040C8091430A909147
:1029C000440A8E1B9F0B0F94E92761507109230F56
:1029D0003327331F161617060CF44FC1620F731FEF
:1029E000CB0141978230910508F44EC14297823065
:1029F000910508F44CC14297029708F44BC1673423
:102A0000710514F066E470E07093D1026093D00217
:102A10006091030C7091040C8091E9099091EA098E
:102A20008E1B9F0B0F94E92761507109161617062C
:102A30000CF433C1620F731FCB01419782309105B3
:102A400008F432C142978230910508F430C14297B0
:102A5000029708F42FC16734710514F066E470E042
:102A60007093CF026093CE026091030C7091040CBE
:102A70008091E5099091E6098E1B9F0B0F94E92741
:102A800061507109161617060CF417C1620F731FF7
:102A9000CB0141978230910508F416C142978230EC
:102AA000910508F414C14297029708F413C16734E2
:102AB000710514F066E470E07093CD026093CC026F
:102AC0006091030C7091040C8091E7099091E809E2
:102AD0008E1B9F0B0F94E92761507109161617067C
:102AE0000CF4FBC0620F731FCB014197823091053C
:102AF00008F4FAC042978230910508F4F8C0429772
:102B0000029708F4F7C06734710514F066E470E0CA
:102B10007093CB026093CA026091030C7091040C15
:102B20008091D4029091D5028E1B9F0B0F94E927C0
:102B300061507109161617060CF4DFC0620F731F7F
:102B4000CB0141978230910508F4DEC04297823074
:102B5000910508F4DCC04297029708F4DBC06734A3
:102B6000710514F066E470E07093C9026093C802C6
:102B70006091030C7091040C8091D2029091D30269
:102B80008E1B9F0B0F94E9276150710916161706CB
:102B90000CF4C3C0620F731FCB01419782309105C3
:102BA00008F4C2C042978230910508F4C0C0429731
:102BB000029708F4BFC06734710514F066E470E052
:102BC0007093C7026093C6026091030C7091040C6D
:102BD0008091EB099091EC098E1B9F0B0F94E927D4
:102BE00061507109161617060CF4A7C0620F731F07
:102BF000CB0141978230910508F4A6C042978230FC
:102C0000910508F4A4C04297029708F4A3C0673462
:102C1000710514F066E470E07093C5026093C4021D
:102C20006091030C7091040C8091ED099091EE0974
:102C30008E1B9F0B0F94E92761507109161617061A
:102C40000CF48BC0620F731FCB014197823091054A
:102C500008F48AC042978230910508F488C04297F0
:102C6000029708F487C06734710514F066E470E0D9
:102C70007093C3026093C2020895261737070CF0C1
:102C8000AFCE621B730BACCE60E170E0BDCE62E2F2
:102C900070E0BACE64E370E0B7CE261737070CF0C9
:102CA000CBCE621B730BC8CE60E170E0D9CE62E27E
:102CB00070E0D6CE64E370E0D3CE261737070CF071
:102CC000E7CE621B730BE4CE60E170E0F5CE62E20A
:102CD00070E0F2CE64E370E0EFCE261737070CF019
:102CE00003CF621B730B00CF60E170E011CF62E293
:102CF00070E00ECF64E370E00BCF261737070CF0BF
:102D00001FCF621B730B1CCF60E170E02DCF62E21E
:102D100070E02ACF64E370E027CF261737070CF066
:102D20003BCF621B730B38CF60E170E049CF62E2AA
:102D300070E046CF64E370E043CF261737070CF00E
:102D400057CF621B730B54CF60E170E065CF62E236
:102D500070E062CF64E370E05FCF261737070CF0B6
:102D600073CF621B730B70CF60E170E081CF62E2C2
:102D700070E07ECF64E370E07BCF80910A1F8770A4
:102D80009EEF980F923010F0863029F480916F00FA
:102D9000886080936F000895E0910A04F0910B041D
:102DA000808190910904892371F080919C1D81118B
:102DB00011C08DE090E09093D3098093D20981E017
:102DC00080939C1D089580919C1D811115C085E004
:102DD00090E0F1CF8091D2099091D3090D9759F0ED
:102DE0008091471E8F5F8093471E8DE090E0909307
:102DF000D3098093D20908958091D2099091D30983
:102E00000597C9F38091471E8F5F8093471E85E029
:102E100090E0EDCF0895CF92DF92EF92FF928091F4
:102E20009C1D882309F495C08091090C90910A0C8F
:102E3000A0910B0CB0910C0C892B8A2B8B2B09F4D5
:102E400088C08091050C9091060CA091070CB09160
:102E5000080C892B8A2B8B2B09F47BC080910A1ECE
:102E600090910B1EA0910C1EB0910D1E0297A10512
:102E7000B10508F04CC0F8942091090C30910A0C6F
:102E800040910B0C50910C0C8091050C9091060C0C
:102E9000A091070CB091080C281B390B4A0B5B0B57
:102EA000A4EBB0E00F94782860930E0C70930F0C95
:102EB0008093100C9093110C7894C0900E0CD090CD
:102EC0000F0CE090100CF090110C60E077E883E9B3
:102ED00093E0A70196010F943028C901803526E4BC
:102EE000920720F080919D1D90919E1DCC0CDD1CC1
:102EF000EE1CFF1CC0921E02D0921F02E092200224
:102F0000F0922102FF90EF90DF90CF900895F89417
:102F100080911A0490911B04A0911C04B0911D048F
:102F2000409116045091170460911804709119048F
:102F3000841B950BA60BB70BB695A7959795879510
:102F400080930E0C90930F0CA093100CB093110C67
:102F5000B3CF90E080E0D6CF8091CE1D82319CF43B
:102F600087E090E09093D1028093D00282E090E0DD
:102F70009093CF028093CE0285E090E09093CD02B3
:102F80008093CC02089586E090E09093D1028093E4
:102F9000D00281E090E09093CF028093CE0284E053
:102FA00090E0ECCF8091B0029091B102A091B2027A
:102FB000B091B3028093330490933404A09335040A
:102FC000B09336040E9451C66093B4027093B50268
:102FD0008093B6029093B7028091B4029091B502AB
:102FE000A091B602B091B7024091090C50910A0C21
:102FF00060910B0C70910C0C841B950BA60BB70BFE
:103000008093B0029093B102A093B202B093B30246
:103010008091D2099091D30901969093D30980931E
:10302000D20981E08093AF028091D2099091D309B7
:103030000D9749F480919C1D882329F01092D309A3
:103040001092D20908958091D2099091D3090197E5
:1030500021F480919C1D811131C0809133049091A5
:103060003404A0913504B0913604B695A795979590
:1030700087958093A6029093A702A093A802B0938D
:10308000A9024091B0025091B1026091B2027091D8
:10309000B3028091A6029091A702A091A802B091DC
:1030A000A902481759076A077B07D8F51092D30978
:1030B0001092D20981E080939C1D089580911A049A
:1030C00090911B04A0911C04B0911D0480931604E0
:1030D00090931704A0931804B09319048091B4023C
:1030E0009091B502A091B602B091B70280931A04F4
:1030F00090931B04A0931C04B0931D0480910A1E9E
:1031000090910B1EA0910C1EB0910D1E0196A11D59
:10311000B11D80930A1E90930B1EA0930C1EB093BA
:103120000D1E8091090C90910A0CA0910B0CB0918E
:103130000C0C8093050C9093060CA093070CB09395
:10314000080C8091B4029091B502A091B602B091A2
:10315000B7028093090C90930A0CA0930B0CB093C8
:103160000C0C08950E9451C66093BC027093BD027E
:103170008093BE029093BF028091BC029091BD02E9
:10318000A091BE02B091BF024091300B5091310B23
:103190006091320B7091330B841B950BA60BB70B10
:1031A0008093B8029093B902A093BA02B093BB0285
:1031B0008091EC1D81FD04C080919C1D81110CC08B
:1031C0008CED95E0A0E0B0E080931E0490931F0486
:1031D000A0932004B09321044091B8025091B90209
:1031E0006091BA027091BB02809112049091130415
:1031F000A0911404B0911504481759076A077B077A
:1032000008F460C08091BC029091BD02A091BE0202
:10321000B091BF028093300B9093310BA093320B8F
:10322000B093330B8091B8029091B902A091BA0289
:10323000B091BB028093330490933404A09335047F
:10324000B093360480912D0B90912E0B01969093A4
:103250002E0B80932D0B8091D2099091D309019769
:1032600089F54091BC025091BD026091BE027091FF
:10327000BF028091090C90910A0CA0910B0CB091A7
:103280000C0C84179507A607B707E0F48091BC02E1
:103290009091BD02A091BE02B091BF024091090C75
:1032A00050910A0C60910B0C70910C0C841B950BC7
:1032B000A60BB70B8093530690935406A093550624
:1032C000B093560608950E9451C66093B40270935D
:1032D000B5028093B6029093B7028091B4029091A8
:1032E000B502A091B602B091B7024091090C50917D
:1032F0000A0C60910B0C70910C0C841B950BA60BA7
:10330000B70B8093B0029093B102A093B202B09336
:10331000B3024091B0025091B1026091B20270913B
:10332000B30280911E0490911F04A0912004B091DB
:103330002104481759076A077B0708F4B9C081E0E0
:103340008093AF028091D2099091D3090196909316
:10335000D3098093D2098091D2099091D309019722
:1033600031F08091D2099091D3090597E1F581E080
:1033700090E09093D3098093D20980911A049091A0
:103380001B04A0911C04B0911D048093160490931B
:103390001704A0931804B09319048091B40290917B
:1033A000B502A091B602B091B70280931A0490932F
:1033B0001B04A0931C04B0931D0481E080939C1D0A
:1033C00080910A1E90910B1EA0910C1EB0910D1EB3
:1033D0000196A11DB11D80930A1E90930B1EA09310
:1033E0000C1EB0930D1E80919C1D882309F460C0B3
:1033F0008091EC1D81FF0DC080912F1C87FF09C0BB
:103400008091D2099091D309019709F052C00E948E
:1034100030C18091D2099091D309019709F453C02A
:103420008091D2099091D309039709F44CC08CE69E
:1034300090E09093040C8093030C2091B0023091A3
:10344000B1024091B2025091B302A3E0B0E00F94F8
:10345000782823E096958795779567952A95D1F7F3
:1034600060931E0470931F048093200490932104A2
:103470008091090C90910A0CA0910B0CB0910C0C4E
:103480008093050C9093060CA093070CB093080C46
:103490008091B4029091B502A091B602B091B702AA
:1034A0008093090C90930A0CA0930B0CB0930C0C16
:1034B00008958091D2099091D309039709F0A9CF7B
:1034C0000E94C3C0A6CF88E490E09093040C809340
:1034D000030C8091B0029091B102A091B202B09120
:1034E000B30280931E0490931F04A0932004B09312
:1034F0002104BECF0E9451C66093BC027093BD02EE
:103500008093BE029093BF028091B8029091B9025D
:10351000A091BA02B091BB0280933304909334041B
:10352000A0933504B09336048091BC029091BD0203
:10353000A091BE02B091BF024091300B5091310B6F
:103540006091320B7091330B841B950BA60BB70B5C
:103550008093B8029093B902A093BA02B093BB02D1
:103560008091BC029091BD02A091BE02B091BF02B9
:103570008093300B9093310BA093320BB093330BAD
:1035800080919C1D811117C080912D0B90912E0B65
:10359000029791F481E090E09093D3098093D2094F
:1035A00080939C1D80912D0B90912E0B01969093F2
:1035B0002E0B80932D0B08958CED95E0A0E0B0E0EC
:1035C00080931E0490931F04A0932004B0932104C1
:1035D0008091330490913404A0913504B091360465
:1035E000B695A795979587958093A6029093A70285
:1035F000A093A802B093A9024091B8025091B902D9
:103600006091BA027091BB028091A6029091A702CC
:10361000A091A802B091A902481759076A077B0731
:1036200008F682E090E090932E0B80932D0BBACF9A
:103630000E9451C66093BC027093BD028093BE028B
:103640009093BF028091BC029091BD02A091BE02F6
:10365000B091BF024091300B5091310B6091320B11
:103660007091330B841B950BA60BB70B8093B8029C
:103670009093B902A093BA02B093BB028091BC02AE
:103680009091BD02A091BE02B091BF028093300B19
:103690009093310BA093320BB093330B2091291CE4
:1036A000322F317080912D0B90912E0B892B69F167
:1036B000E0910704F0910804808190910604892329
:1036C00091E009F490E0931701F18091D209909173
:1036D000D30940912D0B50912E0B841B90919C1D72
:1036E00091114BC09091BA0A907F903499F591EF67
:1036F000980F933098F480E190E09093D3098093F1
:10370000D20981E080939C1D08958091D209909107
:10371000D30990932E0B80932D0B089595EF980F5E
:10372000933018F486E690E0E8CF99EF980F933045
:1037300018F48CEB90E0E1CF8350833018F482E1F1
:1037400091E0DBCF10929C1D8091471E8F5F80938C
:10375000471E0895903631F483508330F0F48CE79F
:1037600090E0CBCF903831F486508330B0F488E3CA
:1037700090E0C3CF10929C1D089527FF0EC090913A
:10378000BA0A907F903449F48F50833030F480E14E
:1037900090E09093D3098093D20908958F929F92DD
:1037A000AF92BF92CF92DF92EF92FF92CF93DF93CF
:1037B000F894C090090CD0900A0CE0900B0CF0909B
:1037C0000C0C8090050C9090060CA090070CB0900B
:1037D000080CC091D209D091D3090E9451C66093C0
:1037E000A2027093A3028093A4029093A5027894FE
:1037F000CE010197880F991F2091231C3091241C22
:10380000820F931FA6014819590957FF02C04F5F45
:103810005F4F55954795052E000C660B770BC090B2
:103820009E02D0909F02E090A002F090A1024C1561
:103830005D056E057F0508F40196803D22E0920744
:1038400014F0805D9240209102023091030228170B
:10385000390714F4821B930B97FF02C088599E4FBF
:10386000DF91CF91FF90EF90DF90CF90BF90AF901E
:103870009F908F90089580912F0B882351F0809115
:103880002F0B833031F080912F0B843008F07FC0F4
:1038900008950E9451C66093BC027093BD0280934C
:1038A000BE029093BF028091BC029091BD02A09194
:1038B000BE02B091BF024091300B5091310B60912C
:1038C000320B7091330B841B950BA60BB70B8093B7
:1038D000B8029093B902A093BA02B093BB02409190
:1038E000B8025091B9026091BA027091BB02809106
:1038F000120490911304A0911404B091150484173C
:103900009507A607B70708F04AC08091BC029091BE
:10391000BD02A091BE02B091BF028093300B909384
:10392000310BA093320BB093330B80912D0B909100
:103930002E0B019690932E0B80932D0B10922F0B34
:1039400080912D0B90912E0B0297C0F08091B802C0
:103950009091B902A091BA02B091BB0222E0B69553
:10396000A795979587952A95D1F780931204909300
:103970001304A0931404B093150408951092120434
:1039800010921304109214041092150408951092CA
:103990002F0B81E090E090932E0B80932D0B0895D8
:1039A000CF92DF92EF92FF920E9451C66093BC02C9
:1039B0007093BD028093BE029093BF028091BC02BF
:1039C0009091BD02A091BE02B091BF024091300B18
:1039D0005091310B6091320B7091330B841B950B1E
:1039E000A60BB70B8093B8029093B902A093BA02CA
:1039F000B093BB028091300B9091310BA091320BB0
:103A0000B091330B892B8A2B8B2BC1F41092B80207
:103A10001092B9021092BA021092BB028091BC02BD
:103A20009091BD02A091BE02B091BF028093300B75
:103A30009093310BA093320BB093330B4091B802AB
:103A40005091B9026091BA027091BB028091120448
:103A500090911304A0911404B091150448175907CC
:103A60006A077B0708F4DEC02091300B3091310BE0
:103A70004091320B5091330B80910E0490910F04C2
:103A8000A0911004B0911104281B390B4A0B5B0B59
:103A9000A3E0B0E00F947828969587957795679581
:103AA0006093AA027093AB028093AC029093AD0234
:103AB0008091300B9091310BA091320BB091330B70
:103AC00080930E0490930F04A0931004B0931104FC
:103AD0004091B8025091B9026091BA027091BB0254
:103AE0008091AA029091AB02A091AC02B091AD027C
:103AF000481759076A077B0708F054C080912D0BBF
:103B000090912E0B059709F44DC08091B8029091C9
:103B1000B902A091BA02B091BB0222E0B695A79576
:103B2000979587952A95D1F7809312049093130463
:103B3000A0931404B093150480912D0B90912E0B3B
:103B4000019690932E0B80932D0B8091BC02909147
:103B5000BD02A091BE02B091BF028093300B909342
:103B6000310BA093320BB093330B8091961E85FFDF
:103B700059C08091AE02882309F454C080912D0B66
:103B800090912E0B019709F04DC0E091580AF091E9
:103B9000590A1995AC01493681E05807A4F04856F6
:103BA0005140F9CF81E090E090932E0B80932D0B44
:103BB0008093AE0210921204109213041092140417
:103BC00010921504C2CF80919C1E8370823051F5F3
:103BD000E0919F1C9A01220F331FF0E0A0E0B1E0BA
:103BE000AE1BBF0B0F94BE286B017C019F01DA0155
:103BF0000F94C628C60ED71EE81EF91ECD2CDE2C4B
:103C0000EF2CFF24E7FCFA9488E691E08C199D09DB
:103C100020915E1D30915F1D821B930B90934D1E72
:103C200080934C1EFF90EF90DF90CF900895CF923D
:103C3000DF92EF92FF92CF93DF930E9451C6609381
:103C4000BC027093BD028093BE029093BF0280912C
:103C5000BC029091BD02A091BE02B091BF02409102
:103C6000300B5091310B6091320B7091330B841BF0
:103C7000950BA60BB70B8093B8029093B902A09353
:103C8000BA02B093BB024091B8025091B902609160
:103C9000BA027091BB028091120490911304A0911A
:103CA0001404B0911504481759076A077B0708F4F4
:103CB00047C08091BC029091BD02A091BE02B0911C
:103CC000BF028093300B9093310BA093320BB093D3
:103CD000330B80919C1D81115AC00E9451C6609384
:103CE000090C70930A0C80930B0C90930C0C0E949F
:103CF00051C66B017C01C091321C2C2F30E050E08A
:103D000040E060E87DE88BE590E00F94FD27C21A63
:103D1000D30AE40AF50AC092050CD092060CE09290
:103D2000070CF092080CD0E0D093D309C093D209CD
:103D30008091471E8F5F8093471E81E080939C1D7A
:103D400080911A0490911B04A0911C04B0911D0451
:103D50004091160450911704609118047091190451
:103D6000841B950BA60BB70BB695A79597958795D2
:103D70008093120490931304A0931404B093150439
:103D8000DF91CF91FF90EF90DF90CF90089586E084
:103D900090E09093D3098093D209D2CFCF92DF9253
:103DA000EF92FF920F931F9380912F1C8C718C3098
:103DB00029F08091BC0A8073803319F50E9451C6A6
:103DC0006093BC027093BD028093BE029093BF02C9
:103DD000E0910704F0910804808190910604892302
:103DE000B9F08091BC029091BD02A091BE02B09149
:103DF000BF0280930D0590930E05A0930F05B0931D
:103E000010051F910F91FF90EF90DF90CF900895D4
:103E10008091BC029091BD02A091BE02B091BF0200
:103E20004091300B5091310B6091320B7091330BFC
:103E3000841B950BA60BB70B8093B8029093B90225
:103E4000A093BA02B093BB024091B8025091B9025C
:103E50006091BA027091BB02809112049091130498
:103E6000A0911404B091150484179507A607B7070D
:103E700040F68091300B9091310BA091320BB091B4
:103E8000330B892B8A2B8B2B09F48FC080910E0466
:103E900090910F04A0911004B0911104892B8A2BEA
:103EA0008B2B09F482C080912D0B90912E0B892BC6
:103EB00049F080912D0B90912E0B019690932E0B33
:103EC00080932D0B2091300B3091310B4091320BB0
:103ED0005091330B80910E0490910F04A091100427
:103EE000B0911104C090B802D090B902E090BA022B
:103EF000F090BB02281B390B4A0B5B0BA3E0B0E030
:103F00000F9478289695879577956795C616D70666
:103F1000E806F90608F486C040910D0550910E059B
:103F200060910F05709110050091300B1091310BCD
:103F30002091320B3091330B8091BC029091BD02E5
:103F4000A091BE02B091BF02C0900D05D0900E05A9
:103F5000E0900F05F0901005401B510B620B730BA6
:103F60008C199D09AE09BF09481759076A077B07D5
:103F700008F043C080912D0B90912E0B892BB1F14D
:103F800080912D0B90912E0B089781F180912D0B34
:103F900090912E0B892B09F040C0109212041092C0
:103FA000130410921404109215048091300B909118
:103FB000310BA091320BB091330B80930E04909390
:103FC0000F04A0931004B09311048091BC0290914F
:103FD000BD02A091BE02B091BF028093300B9093BE
:103FE000310BA093320BB093330B0BCF81E090E0F9
:103FF00090932E0B80932D0BD0CF80912D0B909111
:104000002E0B892B39F080912D0B90912E0B05975B
:1040100009F0BCCF85E090E0EBCF10922E0B109210
:104020002D0BBBCF80912D0B90912E0B892B09F47A
:10403000BCCF8091B8029091B902A091BA02B09120
:10404000BB0222E0B695A795979587952A95D1F75B
:104050008093120490931304A0931404B093150456
:10406000A4CFCF92DF92EF92FF9280912F1C8C71A0
:104070008C3031F08091BC0A8073803309F0F1C03C
:104080000E9451C66093BC027093BD028093BE0231
:104090009093BF028091BC029091BD02A091BE029C
:1040A000B091BF024091300B5091310B6091320BB7
:1040B0007091330B841B950BA60BB70B8093B80242
:1040C0009093B902A093BA02B093BB024091B80298
:1040D0005091B9026091BA027091BB0280911204B2
:1040E00090911304A0911404B091150484179507BE
:1040F000A607B70708F0B5C08091300B9091310B3F
:10410000A091320BB091330B892B8A2B8B2B09F4A6
:1041100098C08091090C90910A0CA0910B0CB09161
:104120000C0C892B8A2B8B2B09F48BC08091050CEE
:104130009091060CA091070CB091080C892B8A2B4A
:104140008B2B09F47EC02091090C30910A0C409110
:104150000B0C50910C0C8091050C9091060CA091C9
:10416000070CB091080CC090B802D090B902E09052
:10417000BA02F090BB02281B390B4A0B5B0BA3E081
:10418000B0E00F947828C616D706E806F90608F4BA
:104190006DC080912D0B90912E0B892BF1F1209108
:1041A000DC042223D1F180912F0B9091BA0A9295D1
:1041B0009F70882381F0E0912F0B40912D0B50913F
:1041C0002E0BF0E0EE0FFF1FE152FB4F608171817B
:1041D00064177507B1F010922F0BEDEDF4E081E05C
:1041E0009817D8F040912D0B50912E0B628173815E
:1041F0006417750719F43081231769F08F5F3296C1
:10420000EFCF80912F0B8F5F80932F0B80912F0B1F
:10421000981718F481E080932F0B80912D0B9091CB
:104220002E0B8093DC0481E090E090932E0B809322
:104230002D0B109212041092130410921404109279
:1042400015048091BC029091BD02A091BE02B09174
:10425000BF028093300B9093310BA093320BB0933D
:10426000330BFF90EF90DF90CF90089580912D0B4E
:1042700090912E0B892B29F380912D0B90912E0B71
:10428000019690932E0B80932D0B8091B802909104
:10429000B902A091BA02B091BB0222E0B695A795EF
:1042A000979587952A95D1F78093120490931304DC
:1042B000A0931404B0931504C4CF0E9451C6609318
:1042C000BC027093BD028093BE029093BF028091A6
:1042D000BC029091BD02A091BE02B091BF0240917C
:1042E000300B5091310B6091320B7091330B841B6A
:1042F000950BA60BB70B8093B8029093B902A093CD
:10430000BA02B093BB024091B8025091B9026091D9
:10431000BA027091BB028091120490911304A09193
:104320001404B0911504481759076A077B0708F46D
:10433000F0C08091BC029091BD02A091BE02B091EC
:10434000BF028093300B9093310BA093320BB0934C
:10435000330B80912D0B90912E0B029709F04DC0DD
:104360008091DC04833009F048C080919C1D81114C
:1043700076C00E9451C66093090C70930A0C80931A
:104380000B0C90930C0C0E9451C66056734E8641E4
:1043900091096093050C7093060C8093070C909321
:1043A000080C8091321C8150990B9093D309809313
:1043B000D20981E080939C1D81E08093AE028091C0
:1043C000B0029091B102A091B202B091B30242E06A
:1043D000880F991FAA1FBB1F4A95D1F7809312041B
:1043E00090931304A0931404B093150481E090E01B
:1043F00090932E0B80932D0B089580919C1D882304
:1044000009F456C08091B0029091B102A091B2021D
:10441000B091B3024091B0025091B1026091B202EA
:104420007091B302B695A79597958795840F951FC0
:10443000A61FB71F8093120490931304A093140433
:10444000B093150480912D0B90912E0B01969093B3
:104450002E0B80932D0B81E08093DC0408958091D6
:10446000321C2091D2093091D30990E0AC01415027
:1044700051094217530791F040910A1E50910B1EAB
:1044800060910C1E70910D1E433051056105710540
:1044900028F02091471E2F5F2093471E2091291C52
:1044A00027FF8ACF01979093D3098093D20984CFB5
:1044B0008091D2099091D309039708F4A3CF8091FA
:1044C0002D0B90912E0B892B09F09CCF0E9451C689
:1044D0006093090C70930A0C80930B0C90930C0C56
:1044E0000E9451C66056734E864191096093050C37
:1044F0007093060C8093070C9093080C81E090E079
:104500009093D3098093D2098093AE0280939C1D2F
:1045100008958091B0029091B102A091B202B09141
:10452000B3024091B0025091B1026091B202709119
:10453000B302B695A79597958795840F951FA61FEB
:10454000B71F8093120490931304A0931404B093A4
:10455000150481CF8091D2099091D309499719F41C
:1045600010929C1D08950E9451C66093B4027093EE
:10457000B5028093B6029093B7028091B4029091F5
:10458000B502A091B602B091B7024091090C5091CA
:104590000A0C60910B0C70910C0C841B950BA60BF4
:1045A000B70B8093B0029093B102A093B202B09384
:1045B000B3028091D2099091D309892B09F05BC095
:1045C00081E090E09093D3098093D20980911A04FE
:1045D00090911B04A0911C04B0911D0480931604BB
:1045E00090931704A0931804B09319048091B40217
:1045F0009091B502A091B602B091B70280931A04CF
:1046000090931B04A0931C04B0931D048091AE02F0
:1046100091E089278093AE0290939C1D80910A1EA1
:1046200090910B1EA0910C1EB0910D1E0196A11D24
:10463000B11D80930A1E90930B1EA0930C1EB09385
:104640000D1E8FE090E09093040C8093030C81E0AA
:104650008093AF028091B4029091B502A091B6020E
:10466000B091B7028093090C90930A0CA0930B0CA5
:10467000B0930C0C08958091D2099091D3090196C2
:104680009093D3098093D209A091D209B091D30914
:10469000E091D209F091D309AA0FBB1FA552BB4FDD
:1046A000EE0FFF1FE752FB4F8D919C9120813181CE
:1046B000821B930BC8CF80919C1D0E9451C66093B2
:1046C000BC027093BD028093BE029093BF028091A2
:1046D000BC029091BD02A091BE02B091BF02409178
:1046E000300B5091310B6091320B7091330B841B66
:1046F000950BA60BB70B8093B8029093B902A093C9
:10470000BA02B093BB024091B8025091B9026091D5
:10471000BA027091BB028091120490911304A0918F
:104720001404B0911504481759076A077B0708F469
:10473000B4C08091BC029091BD02A091BE02B09124
:10474000BF028093300B9093310BA093320BB09348
:10475000330B91E09093AF024091B8025091B902AF
:104760006091BA027091BB0276956795579547950F
:10477000409312045093130460931404709315042F
:1047800080919C1D81114BC04CED55E060E070E0C4
:1047900040931E0450931F046093200470932104DF
:1047A0004091120450911304609114047091150407
:1047B0007695679557954795409312045093130447
:1047C0006093140470931504E0910A04F0910B04B3
:1047D0002081309109048091BA0A807F232361F0FF
:1047E0008034A1F42091D2093091D30928303105C9
:1047F000B1F490939C1D13C0803489F42091D209A8
:104800003091D3092530310551F4F3CF803639F496
:104810002091D2093091D3092730310551F32091ED
:104820009D1D30919E1D8091361E9091371E281738
:10483000390720F08091291C87FF2FC080919C1D93
:10484000882359F18091BA0A807F803431F50E9423
:1048500051C680912B0490912C04A0912D04B0910D
:104860002E04E0910A04F0910B04808190910904D8
:10487000892399F08091D2099091D30988309105CC
:1048800041F010929C1D8091471E8F5F8093471EC0
:1048900008959093D3098093D209089588E691E012
:1048A0000C94E18F0C944E240C944E240C944E24C2
:1048B0000C944E2480ED92E00C94E18F8F929F92A5
:1048C000AF92BF92CF92DF92EF92FF9280919C1DA8
:1048D000882309F489C08091341C24E6829FC0019A
:1048E000112420919D1D30919E1D2817390708F035
:1048F0006FC08091090C90910A0CA0910B0CB091A3
:104900000C0C892B8A2B8B2B09F46EC08091050C23
:104910009091060CA091070CB091080C892B8A2B62
:104920008B2B09F461C0F8942091030C3091040C96
:1049300080911A0490911B04A0911C04B0911D0455
:104940004091160450911704609118047091190455
:10495000841B950BA60BB70B80930E0C90930F0C3A
:10496000A093100CB093110CC090090CD0900A0CBD
:10497000E0900B0CF0900C0C8091050C9091060CC3
:10498000A091070CB091080CC81AD90AEA0AFB0AD0
:104990007894D90120E83DE84BE550E00F94832856
:1049A0004B015C01A4E2B0E0A70196010F947828C6
:1049B0009B01AC01C501B4010F943028C901FF90DF
:1049C000EF90DF90CF90BF90AF909F908F90089521
:1049D00088E691E0FF90EF90DF90CF90BF90AF908E
:1049E0009F908F900C94E18F90E080E0E8CF80ED75
:1049F00092E00C94E18F80910A1E90910B1EA09181
:104A00000C1EB0910D1E892B8A2B8B2B21F080ED73
:104A100092E00C94E18F90E080E00895CF92DF92D5
:104A2000EF92FF9280919C1D882309F45DC0209134
:104A30009D1D30919E1D8091361E9091371E281726
:104A4000390708F049C0F894E091030CF091040C88
:104A50008091090C90910A0CA0910B0CB0910C0C58
:104A60004091050C5091060C6091070C7091080C58
:104A7000841B950BA60BB70B80930E0C90930F0C19
:104A8000A093100CB093110C789420910E0C3091DF
:104A90000F0C4091100C5091110CA4E2B0E00F9457
:104AA00078286B017C01C0920E0CD0920F0CE09222
:104AB000100CF092110CDF0120E037E843E953E0DD
:104AC0000F948328A70196010F943028C901FF9005
:104AD000EF90DF90CF90089588E691E0FF90EF90FF
:104AE000DF90CF900C94E18F90E080E0F0CF2091A8
:104AF0009D1D30919E1D8091361E9091371E281766
:104B0000390790F580910C0490910D0460ED72E0EE
:104B10000E943F8B40910E0C50910F0C6091100C35
:104B20007091110C440F551F661F771F40931E0292
:104B300050931F02609320027093210220910C0475
:104B400030910D044B3458496540710560F44BE4D5
:104B500058E965E070E040931E0250931F02609395
:104B6000200270932102089580ED92E00E94E18F6F
:104B7000D1CF80919C1D882309F19091281C9270BF
:104B800040919D1D50919E1D2091361E3091371EE3
:104B90004217530750F48091321C60ED72E091117E
:104BA00002C068E671E00C943F8B992321F080ED00
:104BB00092E00C94E18F88E691E0FBCF90E080E0FA
:104BC000089520919D1D30919E1D8091361E9091DB
:104BD000371E28173907B0F59091BA0A907F9034A4
:104BE000D9F48091D2099091D309439749F18091EA
:104BF000D2099091D309409719F18091D2099091EF
:104C0000D3098297E9F080910D0C8823C9F068E6FA
:104C100071E084E20C943F8B903691F48091D2093C
:104C20009091D309099761F08091D2099091D309AD
:104C30000C9731F08091D2099091D309819719F79F
:104C4000C901089588E691E00C94E18F80919D1D43
:104C500090919E1D2091361E3091371E821793072A
:104C600048F420910D0C222349F068E671E084E2BB
:104C70000C943F8B88E691E00C94E18F089580912D
:104C80009D1D90919E1D2091361E3091371E8217DA
:104C9000930760F42091D2093091D3092130310576
:104CA00049F068E671E084E20C943F8B88E691E07D
:104CB0000C94E18F089580919C1D8823D9F08091F8
:104CC000D2099091D309892BA9F020919D1D309193
:104CD0009E1D8091361E9091371E2817390730F49B
:104CE00068E671E08091321C0C943F8B88E691E07D
:104CF0000C94E18F90E080E00895CF92DF92EF92E4
:104D0000FF92CF93DF93F894C091D209D091D30949
:104D1000C090090CD0900A0CE0900B0CF0900C0C99
:104D20000E9451C66093A2027093A3028093A402D2
:104D30009093A50278948091030C9091040C9E01AD
:104D400021503109289FE001299FD00D389FD00DB7
:104D500011248091231C9091241CC80FD91F6091AD
:104D6000A2027091A3028091A4029091A5026C19F5
:104D70007D098E099F0960939E0270939F02809324
:104D8000A0029093A10242E00E9496908C0F9D1F7A
:104D9000803D22E0920714F0805D92402091020253
:104DA000309103022817390714F4821B930B97FFE5
:104DB00002C0820F931FDF91CF91FF90EF90DF90A1
:104DC000CF9008958F929F92AF92BF92FF920F93D0
:104DD0001F93CF93DF93F894C091D209D091D30958
:104DE0008090090C90900A0CA0900B0CB0900C0CC9
:104DF000F090AE020E9451C66093A2027093A3028B
:104E00008093A4029093A5027894209719F4C091FE
:104E1000321CD0E08091030C9091040C2197C89F24
:104E20008001C99F100DD89F100D1124C091231C23
:104E3000D091241C6091A2027091A3028091A402DF
:104E40009091A502681979098A099B0960939E02CD
:104E500070939F028093A0029093A10241E00E9470
:104E600096908C0F9D1F800F911FFF2011F0885985
:104E70009E4F803D22E0920714F0805D9240209189
:104E80000202309103022817390714F4821B930B96
:104E900097FF02C0820F931FDF91CF911F910F9157
:104EA000FF90BF90AF909F908F900895CF92DF9228
:104EB000EF92FF92CF93DF93F894C091D209D091F3
:104EC000D309C090090CD0900A0CE0900B0CF09024
:104ED0000C0C0E9451C66093A2027093A3028093AF
:104EE000A4029093A5027894C330D1050CF046C07B
:104EF0002091030C3091040C2197C29FC001C39FE5
:104F0000900DD29F900D1124C091231CD091241C90
:104F1000AA96C80FD91F6091A2027091A302809136
:104F2000A4029091A5026C197D098E099F096093D6
:104F30009E0270939F028093A0029093A10241E091
:104F40000E9496908C0F9D1F803D22E0920714F0E6
:104F5000805D9240209102023091030228173907A8
:104F600014F4821B930B97FF02C088599E4FDF9168
:104F7000CF91FF90EF90DF90CF900895C330D1058F
:104F800031F02091030C3091040C2297B6CFC0E78A
:104F9000D0E0C1CF8F929F92AF92BF92FF920F93BA
:104FA0001F93CF93DF93F8940091D2091091D30906
:104FB0008090090C90900A0CA0900B0CB0900C0CF7
:104FC000F090AE020E9451C66093A2027093A302B9
:104FD0008093A4029093A50278948091231C9091D1
:104FE000241CEC010115110549F0000F111FF801F7
:104FF000E552FB4FC081D181C80FD91F6091A20239
:105000007091A3028091A4029091A5026819790978
:105010008A099B0960939E0270939F028093A0026D
:105020009093A10241E00E9496908C0F9D1FFF205B
:1050300011F088599E4F803D22E0920714F0805D68
:10504000924020910202309103022817390714F48C
:10505000821B930B97FF02C088599E4FDF91CF911F
:105060001F910F91FF90BF90AF909F908F900895E8
:10507000CF92DF92EF92FF92CF93DF93F894C0919B
:10508000D209D091D309C090090CD0900A0CE090BD
:105090000B0CF0900C0C0E9451C66093A20270930E
:1050A000A3028093A4029093A50278942091D20940
:1050B0003091D3098091231C9091241C232BB1F5AE
:1050C000EC01CE56DF4F6091A2027091A302809155
:1050D000A4029091A5026C197D098E099F09609325
:1050E0009E0270939F028093A0029093A10241E0E0
:1050F0000E9496908C0F9D1F803D22E0920714F035
:10510000805D9240209102023091030228173907F6
:1051100014F4821B930B97FF02C088599E4FDF91B6
:10512000CF91FF90EF90DF90CF900895CC0FDD1FCF
:10513000C552DB4F0990D881C02DC80FD91FC3CFEE
:105140008F929F92AF92BF92FF920F931F93CF9334
:10515000DF93F894C091D209D091D3098090090CC3
:1051600090900A0CA0900B0CB0900C0CF090AE023A
:105170000E9451C66093A2027093A3028093A4027E
:105180009093A5027894209711F4CDE2D0E080911D
:10519000030C9091040C2197C89F8001C99F100DAA
:1051A000D89F100D1124C091231CD091241C609114
:1051B000A2027091A3028091A4029091A5026819A5
:1051C00079098A099B0960939E0270939F028093DC
:1051D000A0029093A10241E00E9496908C0F9D1F27
:1051E000800F911FFF2011F088599E4F803D22E0D3
:1051F000920764F0805D9240DF91CF911F910F91F3
:10520000FF90BF90AF909F908F90089520910202E1
:10521000309103022817390714F4821B930B97FF70
:10522000EBCF820F931FE8CFCF92DF92EF92FF92E6
:10523000CF93DF93F894C091D209D091D309C09055
:10524000090CD0900A0CE0900B0CF0900C0C0E9412
:1052500051C66093A2027093A3028093A40290931C
:10526000A50278948091231C9091241C209709F02A
:105270003FC02091030C3091040C4BE0429FE001B1
:10528000439FD00D1124C80FD91F6091A2027091C5
:10529000A3028091A4029091A5026C197D098E0948
:1052A0009F0960939E0270939F028093A002909347
:1052B000A10241E00E9496908C0F9D1F803D22E04C
:1052C000920714F0805D9240209102023091030217
:1052D0002817390714F4821B930B97FF02C08859D3
:1052E0009E4FDF91CF91FF90EF90DF90CF90089588
:1052F0004091030C5091040C2197C49F9001C59FCD
:10530000300DD49F300D1124E901BDCFCF92DF9233
:10531000EF92FF92CF93DF93F894C091D209D0918E
:10532000D309C090090CD0900A0CE0900B0CF090BF
:105330000C0C0E9451C66093A2027093A30280934A
:10534000A4029093A5027894CC0FDD1FC552DB4FC9
:105350000990D881C02D8091231C9091241CC80FE6
:10536000D91F6091A2027091A3028091A402909132
:10537000A5026C197D098E099F0960939E027093A6
:105380009F028093A0029093A10241E00E94969018
:105390008C0F9D1F803D22E0920714F0805D9240AB
:1053A00020910202309103022817390714F4821B5E
:1053B000930B97FF02C088599E4FDF91CF91FF90CA
:1053C000EF90DF90CF9008950C948629CF92DF92D2
:1053D000EF92FF92CF93DF93F894C091D209D091CE
:1053E000D309C090090CD0900A0CE0900B0CF090FF
:1053F0000C0C0E9451C66093A2027093A30280938A
:10540000A4029093A5027894209719F4C091321CBD
:10541000D0E02091030C3091040C2197C29FC00171
:10542000C39F900DD29F900D11246091271C70E0B6
:105430000F94E927C091231CD091241CC60FD71FBD
:105440006091A2027091A3028091A4029091A502A2
:105450006C197D098E099F0960939E0270939F02CB
:105460008093A0029093A10241E00E9496908C0F3D
:105470009D1F803D22E0920714F0805D92402091B4
:105480000202309103022817390714F4821B930B90
:1054900097FF02C088599E4FDF91CF91FF90EF9008
:1054A000DF90CF900895CF92DF92EF92FF92CF934B
:1054B000DF93F894C091D209D091D309C090090C20
:1054C000D0900A0CE0900B0CF0900C0C0E9451C68E
:1054D0006093A2027093A3028093A4029093A5020A
:1054E0007894CC0FDD1FC552DB4F0990D881C02DB9
:1054F0008091231C9091241CC80FD91F6091A20297
:105500007091A3028091A4029091A5026C197D096B
:105510008E099F0960939E0270939F028093A00260
:105520009093A10241E00E9496908C0F9D1F803DB8
:1055300022E0920714F0805D9240209102023091A7
:1055400003022817390714F4821B930B97FF02C03C
:10555000820F931FDF91CF91FF90EF90DF90CF905C
:105560000895CF92DF92EF92FF92CF93DF93F8945A
:10557000C091D209D091D309C090090CD0900A0CE7
:10558000E0900B0CF0900C0C0E9451C66093A202AC
:105590007093A3028093A4029093A5027894CD7F88
:1055A0008091231C9091241C2197A1F5EC0160911E
:1055B000A2027091A3028091A4029091A5026C199D
:1055C0007D098E099F0960939E0270939F028093CC
:1055D000A0029093A10241E00E9496908C0F9D1F23
:1055E000803D22E0920714F0805D924020910202FB
:1055F000309103022817390714F4821B930B97FF8D
:1056000002C088599E4FDF91CF91FF90EF90DF90BD
:10561000CF900895EC01C356DF4FC9CFCF92DF92F0
:10562000EF92FF92CF93DF9380919C1D882309F422
:1056300058C0F894C091D209D091D309C090090CF8
:10564000D0900A0CE0900B0CF0900C0C0E9451C60C
:105650006093A2027093A3028093A4029093A50288
:105660007894CC0FDD1FC552DB4F0990D881C02D37
:105670008091231C9091241CC80FD91F6091A20215
:105680007091A3028091A4029091A5026C197D09EA
:105690008E099F0960939E0270939F028093A002DF
:1056A0009093A10241E00E9496908C0F9D1F803D37
:1056B00022E0920714F0805D924020910202309126
:1056C00003022817390714F4821B930B97FF02C0BB
:1056D00088599E4FDF91CF91FF90EF90DF90CF9050
:1056E000089590E080E0F6CFCF92DF92EF92FF92A4
:1056F000CF93DF9380919C1D882309F458C0F894C0
:10570000C091D209D091D309C090090CD0900A0C55
:10571000E0900B0CF0900C0C0E9451C66093A2021A
:105720007093A3028093A4029093A5027894CC0F67
:10573000DD1FC552DB4F0990D881C02D8091231CFD
:105740009091241CC80FD91F6091A2027091A302EE
:105750008091A4029091A5026C197D098E099F0980
:1057600060939E0270939F028093A0029093A10287
:1057700042E00E9496908C0F9D1F803D22E0920790
:1057800014F0805D924020910202309103022817AC
:10579000390714F4821B930B97FF02C088599E4F60
:1057A000DF91CF91FF90EF90DF90CF90089590E040
:1057B00080E0F6CF0C94742B0F931F938091B0026E
:1057C0009091B102A091B202B091B30280933304E0
:1057D00090933404A0933504B09336040E9451C6CC
:1057E0006093B4027093B5028093B6029093B702AF
:1057F0008091B4029091B502A091B602B091B70227
:105800004091090C50910A0C60910B0C70910C0C9A
:10581000841B950BA60BB70B8093B0029093B1023B
:10582000A093B202B093B3028091D2099091D309B0
:1058300001969093D3098093D20981E08093AF02BF
:105840004091090C50910A0C60910B0C70910C0C5A
:10585000452B462B472B09F483C04091050C5091F2
:10586000060C6091070C7091080C452B462B472BBA
:1058700009F476C02091D2093091D309283031053E
:1058800048F121E030E03093D3092093D2094091D0
:105890001A0450911B0460911C0470911D044093E4
:1058A00016045093170460931804709319044091E0
:1058B000B4025091B5026091B6027091B702409364
:1058C0001A0450931B0460931C0470931D0480936E
:1058D0000D0C46C04091330450913404609135045E
:1058E0007091360476956795579547954093A60233
:1058F0005093A7026093A8027093A9020091B0028E
:105900001091B1022091B2023091B3024091A602EF
:105910005091A7026091A8027091A902041715077F
:1059200026073707A0F623E030E03093D309209311
:10593000D20980939C1D10920D0C80910A1E9091AB
:105940000B1EA0910C1EB0910D1E0196A11DB11D44
:1059500080930A1E90930B1EA0930C1EB0930D1EF5
:105960008091BC0A86FF2BC08091D2099091D30907
:10597000039729F12091D2093091D3098091231CFA
:105980009091241C8A9623303105E0F52091D209AC
:105990003091D3096091030C7091040C21503109AE
:1059A000269FA001279F500D369F500D1124840F74
:1059B000951F6091D2097091D3090E9472878091DE
:1059C000090C90910A0CA0910B0CB0910C0C8093D7
:1059D000050C9093060CA093070CB093080C8091D3
:1059E000B4029091B502A091B602B091B702809333
:1059F000090C90930A0CA0930B0CB0930C0C1F9104
:105A00000F9108952091D2093091D3096091030C30
:105A10007091040C22503109C3CFCF930E9451C61C
:105A20006093B4027093B5028093B6029093B7026C
:105A30008091B4029091B502A091B602B091B702E4
:105A40004091090C50910A0C60910B0C70910C0C58
:105A5000841B950BA60BB70B8093B0029093B102F9
:105A6000A093B202B093B3024091B0025091B10240
:105A70006091B2027091B30280911E0490911F0454
:105A8000A0912004B0912104481759076A077B07A9
:105A900068F480910A1E90910B1EA0910C1EB0918B
:105AA0000D1E892B8A2B8B2B09F02FC381E080934D
:105AB000AF028091B0029091B102A091B202B09178
:105AC000B30262E0B695A795979587956A95D1F749
:105AD00080931E0490931F04A0932004B09321048C
