:100000000C9481100C94E1EF0C94B6EF0C948BEFF0
:100010000C9460EF0C9435EF0C940AEF0C94DFEE27
:100020000C94B4EE0C94B2100C94B2100C94B21068
:100030000C94B2100C94B2100C94B2100C9420BC1E
:100040000C94B2100C942D7A0C9455780C94975211
:100050000C94B2100C94B2100C94B2100C946AEE82
:100060000C94B2100C94F2EB0C94C8EB0C94B210FC
:100070000C94B2100C94B2100C94B2100C94B210F8
:100080000C9401B90C947BB80C94F5B70C94B21095
:100090000C94B2100C94B2100C94B2100C94B210D8
:1000A0000C94B2100C94B2100C9459B40C946FB719
:1000B0000C94E9B60C94B2100C94B2100C9445B6A2
:1000C0000C94A1B50C94FDB40C94B2100C94B21025
:1000D0000C94B2100C94B2100C9492EB0C9468EB4C
:1000E0000C94B2100C9473990C94E0A00C94FB1C2B
:1000F0000C94551B0C947DCD0C94A8700C9499E332
:100100000C941BCE0C94754F0C94011D0C946799A4
:100110000C940DC40C94DEC20C94E3650C946DF049
:100120000C9493120C94BC8D0C9463C90C94261FF0
:100130000C94FC9C0C94FF1C0C948B9D0C94479984
:100140000C9424A60C947CC40C94A8F00C94117606
:100150000C9417C30C942F990C94B5210C941E9DEC
:100160000C94DD270C946DCC0C94C0C30C9441A16D
:100170000C94A8C30C9485C30D94F31A0C946D9938
:100180000C94D2C20C9434C40C94C1A10C94883A3F
:100190000C9420150C942FF00C9473710C94E7C3FD
:1001A0000D94101B0C94224F0C942B8B0C941C4D13
:1001B0000C94AB930C9479930C946B1D0C9431F0CC
:1001C0000C94FD910C94F9A10C947BC30C945E15D6
:1001D0000C94019F0C9431370C9475990C945C4DE0
:1001E0000C94F49D0C9498430C94BBCF0C949224E3
:1001F0000C9461C40C94A5650C94719C0C943264AD
:100200000C941BA60C94F3CF0C94E7940C94A2C30B
:100210000C945BC40C94A99D0C94C0890C94ED487B
:100220000C949F950D94F61A0C9471130C9443C47E
:100230000C9425C40C9489C40C9479A10C943AC4F0
:100240000C9496C30C946A310C9449250C94C02EDE
:100250000C94C7E40C9479990C9414C30C94489FA3
:100260000C94DA500D9490180C9447300C94BFE421
:100270000C942B500C94D5C20C94F3C30C94EDC386
:100280000D94D81B0C9421920C947C420C9428144D
:100290000C94D3CC0D94971A0C949A9F0C946815D7
:1002A0000C948AD00C947FC40C94619D0C944CA641
:1002B0000C94D7390C94A39C0C9467CE0C94B9A1E0
:1002C0000C94ECE40C94B7850C94B5890C94AE694D
:1002D0000C9482C40C9493620C948C1C0C94397210
:1002E0000C9494500C947B3B0C946AC40C94CF6B8C
:1002F0000C94A74E0C949D940C94DC890C9411855D
:100300000C9453150C9457C60C946BCA0C94739BA5
:100310000C94751B0C94D8C30C9487500C947AF0F1
:100320000C9455C40C94FEC20C946B980C94F6C3B8
:100330000C942E850C943E540C9422C40C94877318
:100340000C94A59D0C94BA1B0C947A500C94178CA9
:100350000C948FC40C94288C0C941D970C94B89713
:100360000C9473130C946A1C0C949D980C94C9C340
:100370000C942E890C94EAC60C94D4E40C94CFC34C
:100380000C94879D0C944AE40C94C9140C948599A0
:100390000C94EFC20C94EE4F0C94FC8A0C94A5C301
:1003A0000C947F9D0C9406550C9411C30C94DB8D1A
:1003B0000C94F9640C945C890C9445890C94DA9F34
:1003C0000C9449C40C94BDA10C9432990C94F09DEA
:1003D0000C9482A50C94DBC20C940A9E0C94C71159
:1003E0000C948AE30C9444990C94579C0C943C1BF9
:1003F0000C9402C40C9444A00C94F0E40C942EC40D
:100400000C941A8C0C9420C30D946B1A0C945815F0
:100410000C9408C30C942DF00C9410C40C94D3329B
:100420000C94FBC20C94FB9F0C9493C30C94434D0F
:100430000C94D0E40C944FA00C941CC40C94909396
:100440000C945D740C94531C0C9434890C94AE8CF5
:100450000C94AB720C94B6930C9406710C9467C414
:100460000C9419C40C943E890C94D8150C9465C353
:100470000C9470C40C94ADE30C9481A10C948C1674
:100480000C94AFCA0C9459F00C9473C40C9428C407
:100490000C94FDE30C9437F00C9497850C94074D65
:1004A0000C94BBE30C9460150C946EA50C946B99A2
:1004B0000C94E8E40C94DEE40C94C48B0C94591571
:1004C0000C940EC30C946C950C94C7890C941E92DA
:1004D0000C94C3E40C94F8C20C94B0850C94D8C26C
:1004E0000C94F5C20C94F4930C9498170C9431C4AA
:1004F0000C94EA940C947D990C948BA50C9446C4AE
:100500000C94BE920C9413C40C94C3C30C94BA4FB5
:100510000C94A28C0C940BC40C9458C40C94B5E4A9
:100520000C943E850C9442C30C941E500C94779905
:100530000C9452200C94FD1C0C9484920C944966EB
:100540000C94C04E0C94711B0C945B150C947C5451
:100550000C943DC40C94D4940C94B4C30C94367590
:100560000C94169D0C949BF00C94EA8C0C94678B65
:100570000C94A2850C94DEC30C9485A10C94D5C375
:100580000C945DE30C94E9C20C94F0C30C94E89DC8
:100590000C944B700C941F730C94F5730C94BF9BCC
:1005A0000C9404CA0C94431D0C94EC9D0C94F5E43B
:1005B0000C94B0940C9437500C94DB2C0C94A19DAB
:1005C0000C9411380C94C2940C94E5C20D946B17E2
:1005D0000C94EBF40C941A9D0C941DC30C9405C45C
:1005E0000C940E9E0C941AC30C94F91C0C9486C4A3
:1005F0000C94EA330C94D98C0C9469950C94902645
:100600000C94FDA10C94FD9F0C9474C30C948CC4A9
:100610000C9416C40C945A150C9495C40C9408D1DF
:100620000C945B960C942BC40C9420C70C946CC354
:100630000C94C6C30C9479A50C94A9850C94AEC3F4
:100640000C9453500C9466850C94F6CB0C94C5A175
:100650000C9439F00C940BC30C9485930C9401C347
:100660000C9416E10C949DA50C94CE890C94BE8537
:100670000C94F9C30C9479C40C94C19C0C94E88A32
:100680000C9437C40C945B740C948F850C945DA50A
:100690000C9452C40C947B990C94B9940D947D1ACB
:1006A0000C94338C0C9416850C946E850C94FFC3BB
:1006B0000C94CB940C94D2C30C94C78C0C94C2139E
:1006C0000C943FD20C94C5920C947DA10C940850CC
:1006D0000C94744D0C94F09F0C9455A60C9461F0FE
:1006E0000C94ABC30C94758C0C94CAE40C948041AC
:1006F0000C94B3500C94B4300C949C480C9494A576
:100700000C942DA60C940B9C0C945C150C94CFC2ED
:100710000C94849F0C946CC70C9430630D949519C1
:100720000C9474C80C94BD9C0C94DBC30C94BB5605
:100730000C945EC40C94F51C0C9445A10C94F6A387
:100740000C948DC30C94E2E40C9454920C94A85035
:100750000C9412A60C9471990C9446940C94D5891F
:100760000D948B170C94C3100C94DAE40C94E1C232
:100770000C940A160C94F8550C9492C40C94DB4D0E
:100780000C94389D0C94BDC30C94D79C0C94322AC5
:100790000C9481990C94E1C30C94F2440C94D7A36B
:1007A0000C94CD2B0C946E8F0C942B2E0C94EB93FD
:1007B0000C94F9530C9420950C9435320C94E5501C
:1007C0000C94EAC30C9472130C94AD890C94716A66
:1007D0000C94E28A0C9408C40C9425480C94856906
:1007E0000C9475CB0C9427850C9464C40C94839959
:1007F0000C947B9D0D94CE1B0C94D96C0C9499C3D6
:100800000C94094F0C94CCC30C946F990C94031363
:100810000C94153F0C94839D0C948C890C9488C384
:100820000C94D1740C9488550C944CC40C94F9CE4F
:100830000C941B8B0C94588B0C946DC40C942085D9
:100840000C94F2C20C94A8950C9440C40C94CE9DC8
:100850000C94E4C30C94BCA50D94F5170C948F9FD5
:100860000C94FAE40C94ECC20C9427930C941FC4DF
:100870000C9437920C94D9710C9400970C946D5091
:100880000C94BAC30C9463C50C9484890C94186BB3
:100890000C9498C40C94C5120C9487990C942093D2
:1008A0000C945F480C9422F00C94B7C30C949B34C6
:1008B0000C94FB380C9435F00C945E4F0C94F6E4D9
:1008C0000C949E9F0C9476C40D94931B0C94B215BB
:1008D0000C94BBE40C944C890C9469990C949CC3C3
:1008E0000C9439A00C943C9D0C9496630C94474F47
:1008F0000C9446400C94E59F0C944FC40C94B1C3E7
:100900000C94A34F0C94AA750C94FEE40C94FFE491
:100910000C94F4970C9437720C94571C0C940DA102
:100920000C945D150C943D940C948FF00C94342928
:100930000C94138B0C943D9F0C94349D0C94D9947F
:100940000C94FCC30C949FC30C945F150C94BE5084
:100950000C947F990D94171B0A506167652068619C
:1009600073206E6F74206265656E20696D706C65B2
:100970006D656E74656420796574000A326E64205A
:1009800049676E6974696F6E204D6170000A326E3E
:1009900064204675656C204D6170000A5061676582
:1009A000203920436667000A5472696D2031205453
:1009B00061626C65000A565654204D6170000A420F
:1009C0006F6F7374204D6170000A506720362043AA
:1009D0006F6E666967000A414652204D6170000AD9
:1009E0005067203420436667000A49676E6974695E
:1009F0006F6E204D6170000A506720322043666799
:100A0000000A5645204D6170004572723A20556EBD
:100A10006B6E6F776E20636D64000A3D3D3D436FE2
:100A20006D6D616E642048656C703D3D3D0A0A4104
:100A30006C6C20636F6D6D616E64732061726520F4
:100A400073696E676C652063686172616374657257
:100A500020616E642061726520636F6E63617465EE
:100A60006E61746564207769746820746865697262
:100A700020706172616D6574657273200A776974A4
:100A8000686F7574207370616365732E53796E742B
:100A900061783A20203C636F6D6D616E643E2B3C43
:100AA000706172616D65746572313E2B3C7061726C
:100AB000616D65746572323E2B3C706172616D656B
:100AC0007465724E3E0A0A3D3D3D4C697374206F59
:100AD0006620436F6D6D616E64733D3D3D0A0A4152
:100AE000202D20446973706C61797320333120624A
:100AF00079746573206F662063757272656E7453C6
:100B000074617475732076616C75657320696E20ED
:100B100062696E61727920286C69766520646174FF
:100B200061290A42202D204275726E20637572720F
:100B3000656E74206D617020616E6420636F6E66F7
:100B40006967506167652076616C75657320746FA5
:100B500020656570726F6D0A43202D205465737493
:100B600020434F4D20706F72742E202055736564A2
:100B70002062792054756E657273747564696F2094
:100B8000746F20736565207768657468657220618D
:100B90006E20454355206973206F6E206120676980
:100BA00076656E2073657269616C200A20202020B2
:100BB000706F72742E2052657475726E732061208E
:100BC00062696E617279206E756D6265722E0A4E71
:100BD000202D205072696E74206E6577206C696ECE
:100BE000652E0A50202D205365742063757272653E
:100BF0006E7420706167652E202053796E74617861
:100C00003A2020502B3C706167654E756D626572AD
:100C10003E0A52202D2053616D65206173204120D2
:100C2000636F6D6D616E640A53202D20446973708B
:100C30006C6179207369676E6174757265206E7579
:100C40006D6265720A51202D2053616D65206173BC
:100C5000205320636F6D6D616E640A56202D204411
:100C60006973706C6179206D6170206F7220636FA1
:100C70006E666967506167652076616C7565732083
:100C8000696E2062696E6172790A57202D20536562
:100C900074206F6E65206279746520696E206D61C5
:100CA00070206F7220636F6E666967506167652E92
:100CB0002020457870656374732062696E61727973
:100CC00020706172616D65746572732E200A202038
:100CD000202053796E7461783A2020572B3C6F6640
:100CE000667365743E2B3C6E6577627974653E0A67
:100CF00074202D205365742063616C696272617485
:100D0000696F6E2076616C7565732E202045787052
:100D1000656374732062696E6172792070617261BB
:100D20006D65746572732E20205461626C65206954
:100D30006E64657820697320656974686572203017
:100D40002C200A20202020312C206F7220322E20CF
:100D50002053796E7461783A2020742B3C74626C55
:100D6000655F6964783E2B3C6E657756616C75658E
:100D7000313E2B3C6E657756616C7565323E2B3C7F
:100D80006E657756616C75654E3E0A5A202D20447B
:100D90006973706C61792063616C696272617469F6
:100DA0006F6E2076616C7565730A54202D2044693E
:100DB00073706C6179732032353620746F6F74688C
:100DC000206C6F6720656E747269657320696E2090
:100DD00062696E6172790A72202D20446973706CA9
:100DE0006179732032353620746F6F7468206C6FB0
:100DF0006720656E74726965730A55202D205072E4
:100E0000657061726520666F72206669726D7761C8
:100E10007265207570646174652E20546865206E5B
:100E2000657874206279746520726563656976659A
:100E3000642077696C6C20636175736520746865E4
:100E40002041726475696E6F20746F2072657365DE
:100E5000742E0A3F202D20446973706C61797320D1
:100E6000746869732068656C702070616765002C18
:100E70002000575545004F3200496E6C6574207450
:100E8000656D7000436F6F6C616E740052657365C1
:100E90007420636F6E74726F6C2069732063757257
:100EA00072656E746C792064697361626C65642E1E
:100EB00000436F6D6D732068616C7465642E204E05
:100EC00065787420627974652077696C6C2072652E
:100ED000736574207468652041726475696E6F2E45
:100EE00000537065656475696E6F20323032322E42
:100EF000303200737065656475696E6F2032303210
:100F0000323032003030310020002000200020003C
:100F10002020202000526573657420636F6E747208
:100F20006F6C2069732063757272656E746C7920C2
:100F300064697361626C65642E00436F6D6D73202C
:100F400068616C7465642E204E65787420627974D3
:100F5000652077696C6C20726573657420746865B0
:100F60002041726475696E6F2E00000080002001C0
:100F70002001800020018000F0008001C000C0003E
:100F80002001C00080002001040E11191B20292B14
:100F90002D2F31333537393B3D3F414345474B4D8D
:100FA0004F515557595D61666D77000000009630CE
:100FB00007772C610EEEBA51099919C46D078FF4A9
:100FC0006A7035A563E9A395649E3288DB0EA4B8E8
:100FD000DC791EE9D5E088D9D2972B4CB609BD7CC7
:100FE000B17E072DB8E7911DBF906410B71DF220A8
:100FF000B06A4871B9F3DE41BE847DD4DA1AEBE4FD
:10100000DD6D51B5D4F4C785D38356986C13C0A851
:101010006B647AF962FDECC9658A4F5C0114D96C86
:101020000663633D0FFAF50D088DC8206E3B5E1018
:10103000694CE44160D5727167A2D1E4033C47D4A6
:10104000044BFD850DD26BB50AA5FAA8B5356C9891
:10105000B242D6C9BBDB40F9BCACE36CD832755C9C
:10106000DF45CF0DD6DC593DD1ABAC30D9263A00A7
:10107000DE518051D7C81661D0BFB5F4B42123C466
:10108000B3569995BACF0FA5BDB89EB80228088867
:10109000055FB2D90CC624E90BB1877C6F2F114CC8
:1010A0006858AB1D61C13D2D66B69041DC76067176
:1010B000DB01BC20D2982A10D5EF8985B1711FB50C
:1010C000B606A5E4BF9F33D4B8E8A2C9077834F9BF
:1010D000000F8EA8099618980EE1BB0D6A7F2D3D72
:1010E0006D08976C6491015C63E6F4516B6B62610F
:1010F0006C1CD83065854E0062F2ED95066C7BA5C0
:10110000011BC1F4088257C40FF5C6D9B06550E978
:10111000B712EAB8BE8B7C88B9FCDF1DDD62492DB1
:10112000DA15F37CD38C654CD4FB5861B24DCE51AB
:10113000B53A7400BCA3E230BBD441A5DF4AD795D1
:10114000D83D6DC4D1A4FBF4D6D36AE96943FCD978
:101150006E34468867ADD0B860DA732D0444E51D5F
:1011600003335F4C0AAAC97C0DDD3C710550AA41CE
:10117000022710100BBE86200CC925B56857B38511
:101180006F2009D466B99FE461CE0EF9DE5E98C97E
:10119000D9292298D0B0B4A8D7C7173DB359810D2B
:1011A000B42E3B5CBDB7AD6CBAC02083B8EDB6B30E
:1011B000BF9A0CE2B6039AD2B1743947D5EAAF7739
:1011C000D29D1526DB048316DC73120B63E3843B8C
:1011D00064943E6A6D0DA85A6A7A0BCF0EE49DFFA7
:1011E000099327AE000AB19E077D44930FF0D2A366
:1011F000088768F2011EFEC206695D5762F7CB6779
:10120000658071366C19E7066B6E761BD4FEE02B99
:10121000D3895A7ADA10CC4ADD676FDFB9F9F9EF72
:10122000BE8E43BEB717D58EB060E8A3D6D67E93E8
:10123000D1A1C4C2D83852F2DF4FF167BBD1675792
:10124000BCA6DD06B53F4B36B248DA2B0DD84C1B99
:101250000AAFF64A0336607A0441C3EF60DF55DF18
:1012600067A8EF8E6E3179BE69468CB361CB1A8365
:1012700066BCA0D26F2536E2685295770CCC034746
:101280000BBBB91602222F260555BE3BBAC5280B4B
:10129000BDB2925AB42B046AB35CA7FFD7C231CF58
:1012A000D0B58B9ED92C1DAEDE5BB0C2649B26F2FE
:1012B00063EC9CA36A750A936D02A906099C3F36EC
:1012C0000EEB8567077213570005824ABF95147AA3
:1012D000B8E2AE2BB17B381BB60C9B8ED2920DBE02
:1012E000D5E5B7EFDC7C21DFDB0BD4D2D38642E23D
:1012F000D4F1F8B3DD686E83DA1FCD16BE815B26AC
:10130000B9F6E177B06F7747B718E65A0888706A80
:101310000FFFCA3B06665C0B0111FF9E658F69AE2D
:1013200062F8D3FF6B6145CF6C1678E20AA0EED26B
:101330000DD75483044EC2B30339612667A7F7164D
:1013400060D04D476949DB776E3E4A6AD1AEDC5AC0
:10135000D6D9660BDF40F03BD83753AEBCA9C59E4B
:10136000BBDE7FCFB247E9FFB5301CF2BDBD8AC2FC
:10137000BACA3093B353A6A3B4240536D0BA9306A1
:10138000D7CD2957DE54BF67D9232E7A66B3B84A22
:1013900061C4021B685D942B6F2A37BE0BB4A18E0B
:1013A0000CC31BDF055A8DEF022D000000004131F8
:1013B0001B1982623632C3532D2B04C56C6445F46D
:1013C000777D86A75A56C796414F088AD9C849BB28
:1013D000C2D18AE8EFFACBD9F4E30C4FB5AC4D7E1D
:1013E000AEB58E2D839ECF1C98875112C24A102312
:1013F000D953D370F4789241EF6155D7AE2E14E6ED
:10140000B537D7B5981C9684830559981B8218A9BF
:10141000009BDBFA2DB09ACB36A95D5D77E61C6C9C
:101420006CFFDF3F41D49E0E5ACDA2248495E31574
:101430009F8C2046B2A76177A9BEA6E1E8F1E7D06C
:10144000F3E82483DEC365B2C5DAAAAE5D5DEB9F27
:10145000464428CC6B6F69FD7076AE6B3139EF5A1C
:101460002A202C09070B6D381C12F33646DFB20711
:101470005DC6715470ED30656BF4F7F32ABBB6C2EC
:1014800031A275911C8934A00790FBBC9F17BA8DBF
:10149000840E79DEA92538EFB23CFF79F373BE489C
:1014A000E86A7D1BC5413C2ADE58054F79F0447E31
:1014B00062E9872D4FC2C61C54DB018A159440BBDC
:1014C0000E8D83E823A6C2D938BF0DC5A0384CF4D1
:1014D000BB218FA7960ACE968D130900CC5C4831AC
:1014E000D7458B62FA6ECA53E177545DBBBA156C6F
:1014F000A0A3D63F8D88970E96915098D7DE11A95C
:10150000CCC7D2FAE1EC93CBFAF55CD762721DE658
:10151000796BDEB554409F844F5958120E1619232B
:10152000150FDA7038249B41233DA76BFD65E65A01
:10153000E67C2509CB576438D04EA3AE9101E29FDB
:101540008A1821CCA73360FDBC2AAFE124ADEED0D0
:101550003FB42D83129F6CB20986AB2448C9EA15AB
:1015600053D029467EFB687765E2F6793F2FB7486E
:101570002436741B091D352A1204F2BC534BB38D5B
:10158000485270DE657931EF7E60FEF3E6E7BFC258
:10159000FDFE7C91D0D53DA0CBCCFA368A83BB072B
:1015A000919A7854BCB13965A7A84B98833B0AA996
:1015B0009822C9FAB50988CBAE104F5DEF5F0E6C6B
:1015C000F446CD3FD96D8C0EC27443125AF30223F8
:1015D00041EAC1706CC1804177D847D7369706E69B
:1015E0002D8EC5B500A584841BBC1A8A41715BBBD6
:1015F0005A6898E87743D9D96C5A1E4F2D155F7EEB
:10160000360C9C2D1B27DD1C003E120098B953316F
:1016100083A09062AE8BD153B59216C5F4DD57F41A
:10162000EFC494A7C2EFD596D9F6E9BC07AEA88D52
:101630001CB76BDE319C2AEF2A85ED796BCAAC486A
:1016400070D36F1B5DF82E2A46E1E136DE66A007F7
:10165000C57F6354E8542265F34DE5F3B202A4C29A
:10166000A91B6791843026A09F29B8AEC5E4F99FD5
:10167000DEFD3ACCF3D67BFDE8CFBC6BA980FD5AEA
:10168000B2993E099FB27F3884ABB0241C2CF1156F
:10169000073532462A1E73773107B4E17048F5D01A
:1016A0006B513683467A77B25D634ED7FACB0FE63D
:1016B000E1D2CCB5CCF98D84D7E04A1296AF0B239A
:1016C0008DB6C870A09D8941BB84465D2303076C1D
:1016D000381AC43F1531850E0E2842984F6703A96A
:1016E000547EC0FA795581CB624C1FC538815EF4B7
:1016F00023989DA70EB3DC9615AA1B0054E55A311A
:101700004FFC996262D7D85379CE174FE149567E84
:10171000FA50952DD77BD41CCC62138A8D2D52BBE9
:10172000963491E8BB1FD0D9A006ECF37E5EADC223
:1017300065476E91486C2FA05375E836123AA90799
:1017400009236A5424082B653F11E479A796A5481C
:10175000BC8F661B91A4272A8ABDE0BCCBF2A18D69
:10176000D0EB62DEFDC023EFE6D9BDE1BC14FCD0B6
:10177000A70D3F838A267EB2913FB924D070F81519
:10178000CB693B46E6427A77FD5BB56B65DCF45A84
:101790007EC5370953EE763848F7B1AE09B8F09FE9
:1017A00012A133CC3F8A72FD249300000000376AF7
:1017B000C2016ED4840359BE4602DCA80907EBC2FD
:1017C000CB06B27C8D0485164F05B851130E8F3BA6
:1017D000D10FD685970DE1EF550C64F91A09539393
:1017E000D8080A2D9E0A3D475C0B70A3261C47C9EA
:1017F000E41D1E77A21F291D601EAC0B2F1B9B61D1
:10180000ED1AC2DFAB18F5B56919C8F23512FF98A9
:10181000F713A626B111914C7310145A3C152330BE
:10182000FE147A8EB8164DE47A17E0464D38D72C60
:101830008F398E92C93BB9F80B3A3CEE443F0B848A
:10184000863E523AC03C6550023D58175E366F7D69
:101850009C3736C3DA3501A9183484BF5731B3D564
:101860009530EA6BD332DD01113390E56B24A78FFD
:10187000A925FE31EF27C95B2D264C4D62237B271E
:10188000A0222299E62015F3242128B4782A1FDE0D
:10189000BA2B4660FC29710A3E28F41C712DC376D0
:1018A000B32C9AC8F52EADA2372FC08D9A70F7E7EA
:1018B0005871AE591E739933DC721C2593772B4FE8
:1018C000517672F11774459BD57578DC897E4FB6D9
:1018D0004B7F16080D7D2162CF7CA4748079931E06
:1018E0004278CAA0047AFDCAC67BB02EBC6C87447D
:1018F0007E6DDEFA386FE990FA6E6C86B56B5BEC44
:10190000776A025231683538F369087FAF623F1554
:101910006D6366AB2B6151C1E960D4D7A665E3BDA9
:101920006464BA0322668D69E06720CBD74817A1AB
:1019300015494E1F534B7975914AFC63DE4FCB0915
:101940001C4E92B75A4CA5DD984D989AC446AFF0FC
:101950000647F64E4045C12482444432CD41735877
:101960000F402AE649421D8C8B435068F1546702B0
:1019700033553EBC755709D6B7568CC0F853BBAA31
:101980003A52E2147C50D57EBE51E839E25ADF5318
:10199000205B86ED6659B187A4583491EB5D03FB5B
:1019A000295C5A456F5E6D2FAD5F801B35E1B771C5
:1019B000F7E0EECFB1E2D9A573E35CB33CE66BD9B7
:1019C000FEE73267B8E5050D7AE4384A26EF0F20C6
:1019D000E4EE569EA2EC61F460EDE4E22FE8D388D9
:1019E000EDE98A36ABEBBD5C69EAF0B813FDC7D20E
:1019F000D1FC9E6C97FEA90655FF2C101AFA1B7A93
:101A0000D8FB42C49EF975AE5CF848E900F37F83C9
:101A1000C2F2263D84F0115746F1944109F4A32BFC
:101A2000CBF5FA958DF7CDFF4FF6605D78D9573736
:101A3000BAD80E89FCDA39E33EDBBCF571DE8B9F48
:101A4000B3DFD221F5DDE54B37DCD80C6BD7EF6681
:101A5000A9D6B6D8EFD481B22DD504A462D033CEA6
:101A6000A0D16A70E6D35D1A24D210FE5EC5279419
:101A70009CC47E2ADAC6494018C7CC5657C2FB3CE4
:101A800095C3A282D3C195E811C0A8AF4DCB9FC525
:101A90008FCAC67BC9C8F1110BC9740744CC436D0A
:101AA00086CD1AD3C0CF2DB902CE4096AF9177FC28
:101AB0006D902E422B921928E9939C3EA696AB542A
:101AC0006497F2EA2295C580E094F8C7BC9FCFAD39
:101AD0007E9E9613389CA179FA9D246FB5981305C4
:101AE00077994ABB319B7DD1F39A3035898D075F59
:101AF0004B8C5EE10D8E698BCF8FEC9D808ADBF77E
:101B0000428B82490489B523C68888649A83BF0EB4
:101B10005882E6B01E80D1DADC8154CC938463A66F
:101B200051853A1817870D72D586A0D0E2A997BAC9
:101B300020A8CE0466AAF96EA4AB7C78EBAE4B125B
:101B400029AF12AC6FAD25C6ADAC1881F1A72FEB54
:101B500033A6765575A4413FB7A5C429F8A0F34331
:101B60003AA1AAFD7CA39D97BEA2D073C4B5E71984
:101B700006B4BEA740B689CD82B70CDBCDB23BB16F
:101B80000FB3620F49B155658BB06822D7BB5F4870
:101B900015BA06F653B8319C91B9B48ADEBC83E01D
:101BA0001CBDDA5E5ABFED3498BE000000006567C8
:101BB000BCB88BC809AAEEAFB5125797628F32F046
:101BC000DE37DC5F6B25B938D79DEF28B4C58A4F67
:101BD000087D64E0BD6F018701D7B8BFD64ADDD864
:101BE0006AF23377DFE0561063589F571950FA3086
:101BF000A5E8149F10FA71F8AC42C8C07BDFADA70E
:101C0000C76743087275266FCECD707FAD951518E6
:101C1000112DFBB7A43F9ED0188727E8CF1A428F1B
:101C200073A2AC20C6B0C9477A083EAF32A05BC8E9
:101C30008E18B5673B0AD00087B26938502F0C5F09
:101C4000EC97E2F059858797E53DD1878665B4E04A
:101C50003ADD5A4F8FCF3F2833778610E4EAE37797
:101C600058520DD8ED4068BF51F8A1F82BF0C49F31
:101C700097482A30225A4F579EE2F66F497F9308C1
:101C8000F5C77DA740D518C0FC6D4ED09F352BB74A
:101C9000238DC518969FA07F2A271947FDBA7C205F
:101CA0004102928FF410F7E848A83D58149B583F22
:101CB000A823B6901D31D3F7A1896ACF76140FA857
:101CC000CAACE1077FBE8460C306D270A05EB717BE
:101CD0001CE659B8A9F43CDF154C85E7C2D1E08079
:101CE0007E690E2FCB7B6B4877C3A20F0DCBC768E5
:101CF000B17329C704614CA0B8D9F5986F4490FF1F
:101D0000D3FC7E5066EE1B37DA564D27B90E2840BD
:101D100005B6C6EFB0A4A3880C1C1AB0DB817FD730
:101D200067399178D22BF41F6E9303F7263B6690A8
:101D30009A83883F2F91ED589329546044B431071A
:101D4000F80CDFA84D1EBACFF1A6ECDF92FE89B8E1
:101D50002E4667179B54027027ECBB48F071DE2FAC
:101D60004CC93080F9DB55E745639CA03F6BF9C750
:101D700083D3176836C1720F8A79CB375DE4AE50D2
:101D8000E15C40FF544E2598E8F673888BAE16EF61
:101D90003716F84082049D273EBC241FE921417874
:101DA0005599AFD7E08BCAB05C333BB659ED5ED1E5
:101DB000E555B07E5047D519ECFF6C213B620946D2
:101DC00087DAE7E932C8828E8E70D49EED28B1F9A9
:101DD00051905F56E4823A31583A83098FA7E66EF4
:101DE000331F08C1860D6DA63AB5A4E140BDC1867A
:101DF000FC052F2949174A4EF5AFF376223296118A
:101E00009E8A78BE2B981DD997204BC9F4782EAEA8
:101E100048C0C001FDD2A566416A1C5E96F77939BB
:101E20002A4F97969F5DF2F123E505196B4D607E71
:101E3000D7F58ED162E7EBB6DE5F528E09C237E985
:101E4000B57AD9460068BC21BCD0EA31DF888F560C
:101E5000633061F9D622049E6A9ABDA6BD07D8C137
:101E600001BF366EB4AD530908159A4E721DFF2995
:101E7000CEA511867BB774E1C70FCDD91092A8BE4D
:101E8000AC2A461119382376A5807566C6D810018C
:101E90007A60FEAECF729BC973CA22F1A4574796EF
:101EA00018EFA939ADFDCC5E114506EE4D7663897C
:101EB000F1CE8D2644DCE841F86451792FF9341EC7
:101EC0009341DAB12653BFD69AEBE9C6F9B38CA198
:101ED000450B620EF01907694CA1BE519B3CDB36E5
:101EE00027843599929650FE2E2E99B95426FCDE01
:101EF000E89E12715D8C7716E134CE2E36A9AB497F
:101F00008A1145E63F03208183BB7691E0E313F617
:101F10005C5BFD59E949983E55F12106826C4461AC
:101F20003ED4AACE8BC6CFA9377E38417FD65D2658
:101F3000C36EB389767CD6EECAC46FD61D590AB17A
:101F4000A1E1E41E14F38179A84BD769CB13B20E3B
:101F500077AB5CA1C2B939C67E0180FEA99CE59928
:101F600015240B36A0366E511C8EA7166686C271DC
:101F7000DA3E2CDE6F2C49B9D394F081040995E642
:101F8000B8B17B490DA31E2EB11B483ED2432D593B
:101F90006EFBC3F6DBE9A69167511FA9B0CC7ACEE0
:101FA0000C749461B966F10605DE0000210024007E
:101FB00027002A002D003000330001010000040139
:101FC00007010A0100002200250028002B002E0036
:101FD0003100340002010000050108010B0100007E
:101FE00020002300260029002C002F0032000001D1
:101FF000000003010601090105050505070508089C
:102000000808020202020A0A080804040404010182
:102010000101010101010303030303030303040797
:1020200007070C0C0C0C0C0C0C0C0202020206062E
:102030000606060606060B0B0B0B0B0B0B0B010221
:1020400010202008081020401020408002010201CA
:102050000804020101020408102040808040201082
:1020600008040201800402018040201008040201DB
:102070000804020101020408102040800102040843
:102080001020408000000A0B02090C0D0E08070307
:10209000040100000000000000000000000000003B
:1020A0000000000000000000000000000000000030
:1020B00012111000000000000000000000000000ED
:1020C00000000000000000000000537065656475AA
:1020D000696E6F00537065656475696E6F2032308C
:1020E00031392E30382D7365720053706565647513
:1020F000696E6F2063737830323031392E380000CA
:10210000EBF411241FBECFEFD1E2DEBFCDBF00E064
:102110000CBF12E0A0E0B2E0EAE2F9E402E00BBF9B
:1021200002C007900D92AE39B107D9F72FE1AEE9A1
:10213000B2E001C01D92A734B207E1F710E1C1E897
:10214000D0E100E006C021970109802FFE010F9425
:102150001024C038D10780E00807A9F70E94F2F7E1
:102160000D9493240C9400008091F71E87709EEFCD
:10217000980F923010F0863029F480916F008860BB
:1021800080936F00089520911F1C80911C1C8C71FE
:102190008C3021F48091151C322F81FD30E0E091CC
:1021A000101CF091111C6091F00B7091F10B80915B
:1021B0002E0A90912F0A8E1B9F0B0F944323615080
:1021C0007109230F3327331F161617060CF49FC00F
:1021D000620F731FCB0141978230910508F49EC0B6
:1021E00042978230910508F49CC04297029708F408
:1021F0009BC06734710514F066E470E0709384034B
:10220000609383036091F00B7091F10B8091EC0966
:102210009091ED098E1B9F0B0F9443236150710920
:10222000161617060CF483C0620F731FCB0141977B
:102230008230910508F482C042978230910508F4FB
:1022400080C04297029708F47FC06734710514F08C
:1022500066E470E070938203609381036091F00BF9
:102260007091F10B8091E8099091E9098E1B9F0B09
:102270000F94432361507109161617060CF467C0BA
:10228000620F731FCB0141978230910508F466C03D
:1022900042978230910508F464C04297029708F48F
:1022A00063C06734710514F066E470E070938003D6
:1022B00060937F036091F00B7091F10B8091EA09BC
:1022C0009091EB098E1B9F0B0F9443236150710972
:1022D000161617060CF44BC0620F731FCB01419703
:1022E0008230910508F44AC042978230910508F483
:1022F00048C04297029708F447C06734710514F04C
:1023000066E470E070937E0360937D030895261762
:1023100037070CF05FCF621B730B5CCF60E170E09E
:102320006DCF62E270E06ACF64E370E067CF26179A
:1023300037070CF07BCF621B730B78CF60E170E046
:1023400089CF62E270E086CF64E370E083CF261726
:1023500037070CF097CF621B730B94CF60E170E0EE
:10236000A5CF62E270E0A2CF64E370E09FCF2617B2
:1023700037070CF0B3CF621B730BB0CF60E170E096
:10238000C1CF62E270E0BECF64E370E0BBCFCF9319
:10239000DF9380911C1C8C718C3021F48091151C72
:1023A00024E281FD20E0C091101CD091111C6091AD
:1023B000F00B7091F10B80912E0A90912F0A8C1BDB
:1023C0009D0B0F9443236150710930E0F901B496DD
:1023D000E617F7070CF08CC06E1B7F0B80915E0533
:1023E00090915F05820F931F8617970730F46091D5
:1023F0005E0570915F05620F731F70938403609395
:1024000083036091F00B7091F10B8091EC09909136
:10241000ED098C1B9D0B0F94432361507109E61746
:10242000F7070CF06CC06E1B7F0B80915E059091DE
:102430005F05820F931F8617970730F460915E0542
:1024400070915F05620F731F709382036093810325
:102450006091F00B7091F10B8091E8099091E9097E
:102460008C1B9D0B0F94432361507109E617F707EE
:102470000CF04CC06E1B7F0B80915E0590915F0548
:10248000820F931F8617970730F460915E05709155
:102490005F05620F731F7093800360937F036091E9
:1024A000F00B7091F10B8091EA099091EB098C1B74
:1024B0009D0B0F94432361507109E617F7076CF5E4
:1024C0006E1B7F0B80915E0590915F05820F931FBD
:1024D0008617970730F460915E0570915F05620F73
:1024E000731F70937E0360937D03DF91CF910895F6
:1024F000161617060CF472CF6E0F7F1F6FCF1616CD
:1025000017060CF492CF6E0F7F1F8FCF161617068B
:102510000CF4B2CF6E0F7F1FAFCF1616170694F2D2
:102520006E0F7F1FCFCF8091BB1D8930CCF481E02F
:1025300090E0909384038093830385E090E09093F0
:1025400082038093810389E090E0909380038093DD
:102550007F038DE090E090937E0380937D03089548
:1025600080E190E0909384038093830384E090E083
:10257000909382038093810388E090E0909380039E
:1025800080937F038CE090E0E6CFE0913B05F091F3
:102590003C05808190913A05892371F08091891DD5
:1025A000811111C08DE090E09093D6098093D509F8
:1025B00081E08093891D08958091891D811115C046
:1025C00085E090E0F1CF8091D5099091D6090D97E3
:1025D00059F08091341E8F5F8093341E8DE090E01F
:1025E0009093D6098093D50908958091D50990914B
:1025F000D6090597C9F38091341E8F5F8093341EEE
:1026000085E090E0EDCF8091A70A807F803421F5AE
:102610008091BB1D8A306CF484E290E09093840337
:102620008093830380E190E0909382038093810301
:10263000089584311CF483E290E0F0CF8E311CF4D5
:1026400082E290E0EBCF8FE190E09093840380935F
:1026500083038DE090E0E8CF803609F041C080919F
:10266000BB1D24E230E08A3024F08431ACF423E254
:1026700030E0309384032093830329E030E03093EB
:102680008203209381038A3004F587E190E09093E0
:10269000800380937F03089522E230E08E3134F08E
:1026A0002FE130E0883214F421E230E030938403EB
:1026B0002093830326E030E030938203209381034C
:1026C0008E3134F485E190E0E2CF86E190E0DFCF17
:1026D00088321CF484E190E0DACF83E190E0D7CF38
:1026E0000895089508959091BB1D80911C1C8C71D4
:1026F0008C3081F59A30CCF08CE090E0909384039C
:102700008093830383E090E090938203809381031E
:1027100086E090E09093800380937F0389E090E0CF
:1027200090937E0380937D03089581E090E09093E1
:1027300084038093830384E090E0909382038093EA
:10274000810387E090E09093800380937F038AE089
:1027500090E0E6CF9A306CF086E090E090938403AE
:102760008093830383E090E09093820380938103BE
:10277000089581E090E0909384038093830384E044
:1027800090E0F2CF80912E0A90912F0A2091101C98
:102790003091111CAC0144505109241735070CF03D
:1027A0004BC0821B930B97FD0196959587950497D7
:1027B00090938403809383038091EC099091ED09B9
:1027C000AC014450510924173507CCF5821B930BFB
:1027D00097FD019695958795049790938203809332
:1027E00081038091E8099091E909AC0144505109B5
:1027F000241735073CF5821B930B97FD01969595A1
:10280000879504979093800380937F038091EA09D2
:102810009091EB09AC014450510924173507ACF4F1
:10282000821B930B97FD019695958795049790933E
:102830007E0380937D03089580539D4FB2CF8053D4
:102840009D4FC4CF80539D4FD6CF80539D4FE8CF2F
:10285000CF92DF92EF92FF928091891D882309F435
:1028600095C08091F60B9091F70BA091F80BB09169
:10287000F90B892B8A2B8B2B09F488C08091F20BE2
:102880009091F30BA091F40BB091F50B892B8A2B4F
:102890008B2B09F47BC08091F71D9091F81DA091BE
:1028A000F91DB091FA1D0297A105B10508F04CC0C1
:1028B000F8942091F60B3091F70B4091F80B509162
:1028C000F90B8091F20B9091F30BA091F40BB09166
:1028D000F50B281B390B4A0B5B0BA4EBB0E00F94F4
:1028E000D2236093FB0B7093FC0B8093FD0B9093B2
:1028F000FE0B7894C090FB0BD090FC0BE090FD0B8E
:10290000F090FE0B60E077E883E993E0A701960181
:102910000F948A23C901803526E4920720F0809124
:102920008A1D90918B1DCC0CDD1CEE1CFF1CC092EF
:102930001E02D0921F02E0922002F0922102FF902C
:10294000EF90DF90CF900895F8948091A405909136
:10295000A505A091A605B091A7054091A0055091AD
:10296000A1056091A2057091A305841B950BA60B90
:10297000B70BB695A795979587958093FB0B90938A
:10298000FC0BA093FD0BB093FE0BB3CF90E080E067
:10299000D6CF8091BB1D90911C1C9C719C3091F5F1
:1029A0008A30CCF088E090E0909384038093830396
:1029B00082E090E0909382038093810384E090E032
:1029C0009093800380937F0386E090E090937E0352
:1029D00080937D0308951816ECF781E090E09093C2
:1029E00084038093830383E090E090938203809339
:1029F000810385E090E09093800380937F0387E0DC
:102A000090E0E4CF8A308CF024E030E0309384030F
:102A10002093830382E090E090938203809381036C
:102A20003093800320937F03D1CF18169CF621E0CA
:102A300030E0309384032093830383E090E0ECCF75
:102A40008091891D81110EC01092D6091092D5096E
:102A500081E08093891D83E080931C0B81E080934B
:102A60006B0308958091161C87FF05C01092D6094C
:102A70001092D509F0CF8091F71D9091F81DA0918B
:102A8000F91DB091FA1D84369105A105B10530F705
:102A90008091D5099091D6098D9701F31092D609AE
:102AA0001092D509DBCF1092D6091092D50908955E
:102AB000089508950895089508950895089508952E
:102AC0001092D6091092D50981E080936B03089586
:102AD0008091A70A807F803479F580911C1C8C71CD
:102AE0008C30C9F488E090E0909384038093830352
:102AF00082E090E0909382038093810384E090E0F1
:102B00009093800380937F0386E090E090937E0310
:102B100080937D03089524E030E030938403209374
:102B2000830382E090E0909382038093810330934B
:102B3000800320937F03EACF803661F780911C1CCD
:102B40008C718C3079F286E090E0909384038093CE
:102B5000830382E090E0909382038093810324E0DA
:102B600030E0E5CF8091BB1D82319CF487E090E09E
:102B7000909384038093830382E090E09093820398
:102B80008093810385E090E09093800380937F039E
:102B9000089586E090E0909384038093830381E01E
:102BA00090E0909382038093810384E090E0ECCFE7
:102BB00080912E0A90912F0A2091101C3091111CA7
:102BC000821B930B2091190230911A0282179307EE
:102BD0009CF0821B930B0197843B910590F082E05F
:102BE00090E0909384038093830381E090E090933E
:102BF000820380938103089597FFEDCF820F931F87
:102C0000EACF81E090E0909384038093830382E095
:102C100090E0EDCF20911F1C80911C1C8C718C309A
:102C200021F48091151C322F81FD30E0E091101CC1
:102C3000F091111C6091F00B7091F10B80912E0AB4
:102C400090912F0A8E1B9F0B0F944323230F332742
:102C5000331F261737070CF046C0621B730B7093A7
:102C60008403609383036091F00B7091F10B80916A
:102C7000EC099091ED098E1B9F0B0F9443232617AF
:102C80003707C4F5621B730B709382036093810353
:102C90006091F00B7091F10B8091E8099091E90936
:102CA0008E1B9F0B0F944323261737074CF5621B8F
:102CB000730B7093800360937F036091F00B7091AE
:102CC000F10B8091EA099091EB098E1B9F0B0F94F9
:102CD000432326173707D4F4621B730B70937E03CC
:102CE00060937D030895161617060CF4B8CF620F93
:102CF000731FB5CF161617063CF2620F731FC4CFB1
:102D000016161706B4F2620F731FD3CF16161706E6
:102D10002CF3620F731FE2CF0F931F93CF93DF93B8
:102D2000C0911F1C80911C1C8C718C3021F48091EF
:102D3000151C2C2F81FD20E00091101C1091111CFE
:102D40006091F00B7091F10B80912E0A90912F0AF7
:102D5000801B910B0F94432361507109D0E030E048
:102D6000F901EC0FFD1FE617F7070CF0C6C06E1B4C
:102D70007F0B80915E0590915F058617970738F469
:102D8000C617D70724F060915E0570915F058091AA
:102D90005E0590915F05820F931F8617970730F4A9
:102DA00060915E0570915F05620F731F70938403DD
:102DB000609383036091F00B7091F10B8091EC09AB
:102DC0009091ED09801B910B0F9443236150710981
:102DD000E617F7070CF098C06E1B7F0B80915E051D
:102DE00090915F058617970738F4C617D70724F028
:102DF00060915E0570915F0580915E0590915F0521
:102E0000820F931F8617970730F460915E057091CB
:102E10005F05620F731F709382036093810360915B
:102E2000F00B7091F10B8091E8099091E909801BFA
:102E3000910B0F94432361507109E617F7070CF0CB
:102E40006AC06E1B7F0B80915E0590915F058617AF
:102E5000970738F4C617D70724F060915E05709184
:102E60005F0580915E0590915F05820F931F861725
:102E7000970730F460915E0570915F05620F731FD4
:102E80007093800360937F036091F00B7091F10B5E
:102E90008091EA099091EB09801B910B0F944323D9
:102EA00061507109E617F707ECF56E1B7F0B8091F7
:102EB0005E0590915F058617970738F4C617D70708
:102EC00024F060915E0570915F0580915E059091A0
:102ED0005F05820F931F8617970730F460915E0598
:102EE00070915F05620F731F70937E0360937D0383
:102EF000DF91CF911F910F910895161617060CF4CC
:102F000038CF6E0F7F1F35CF161617060CF466CF1D
:102F10006E0F7F1F63CF161617060CF494CF6E0F3B
:102F20007F1F91CF1616170614F26E0F7F1FBFCFAB
:102F3000CF92DF92EF92FF92E091430AF091440A20
:102F40001995893621E092071CF088569140F9CFF7
:102F50002091101C3091111C821B930B2091891E13
:102F60002370223031F42091891C30918A1C821BFD
:102F7000930B40918C1C9C01220F331F50E0A0E06A
:102F8000B1E0A41BB50B0F9418246B017C01A09138
:102F90004D1EB0914E1E9A010F942024C60ED71ECE
:102FA000E81EF91ECD2CDE2CEF2CFF24E7FCFA9452
:102FB000D0924E1EC0924D1EFF90EF90DF90CF90AA
:102FC000089520913C0A30913D0A232B09F0E0C17D
:102FD00020918A1D30918B1D232B09F4D9C120919A
:102FE0008303309184032617370709F070C02091BE
:102FF0001110309112102330310561F540912401F8
:1030000050912501A0912E0AB0912F0AA81BB90B4F
:103010008091190290911A02A817B907B4F0A81B61
:10302000B90B20912C0A30912D0A0F94202436E000
:1030300096958795779567953A95D1F7640F751FA3
:1030400070932901609328010895B7FFEACFA80F74
:10305000B91FE7CF4091F71D5091F81D6091F91D00
:103060007091FA1D473051056105710508F490C152
:103070004091240150912501A0912E0AB0912F0A70
:10308000A81BB90B8091190290911A02A817B907D1
:10309000CCF0A81BB90B20912C0A30912D0A0F946B
:1030A000202426E096958795779567952A95D1F700
:1030B000640F751F70931F1060931E1081E0809342
:1030C00025100895B7FFE7CFA80FB91FE4CF2091CF
:1030D0008103309182032617370709F070C02091D1
:1030E000F80F3091F90F2330310561F5409124013B
:1030F00050912501A091EC09B091ED09A81BB90BE5
:103100008091190290911A02A817B907B4F0A81B70
:10311000B90B20912C0A30912D0A0F942024B6E08F
:103120009695879577956795BA95D1F7640F751F32
:1031300070932B0160932A010895B7FFEACFA80F7F
:10314000B91FE7CF4091F71D5091F81D6091F91D0F
:103150007091FA1D473051056105710508F418C1D9
:103160004091240150912501A091EC09B091ED0905
:10317000A81BB90B8091190290911A02A817B907E0
:10318000CCF0A81BB90B20912C0A30912D0A0F947A
:103190002024A6E09695879577956795AA95D1F70F
:1031A000640F751F709306106093051081E0809383
:1031B0000C100895B7FFE7CFA80FB91FE4CF2091F7
:1031C0007F03309180032617370709F070C02091E4
:1031D000DF0F3091E00F2330310561F5409124017C
:1031E00050912501A091E809B091E909A81BB90BFC
:1031F0008091190290911A02A817B907B4F0A81B80
:10320000B90B20912C0A30912D0A0F942024F6E05E
:103210009695879577956795FA95D1F7640F751F01
:1032200070932D0160932C010895B7FFEACFA80F8A
:10323000B91FE7CF4091F71D5091F81D6091F91D1E
:103240007091FA1D473051056105710508F4A0C061
:103250004091240150912501A091E809B091E9091C
:10326000A81BB90B8091190290911A02A817B907EF
:10327000CCF0A81BB90B20912C0A30912D0A0F9489
:103280002024E6E09695879577956795EA95D1F79E
:10329000640F751F7093ED0F6093EC0F81E08093C6
:1032A000F30F0895B7FFE7CFA80FB91FE4CF209120
:1032B0007D0330917E032617370709F069C02091FE
:1032C000C60F3091C70F2330310561F54091A4003E
:1032D0005091A500A091EA09B091EB09A81BB90B88
:1032E0008091190290911A02A817B907B4F0A81B8F
:1032F000B90B20912C0A30912D0A0F94202436E02E
:1033000096958795779567953A95D1F7640F751FD0
:103310007093A9006093A8000895B7FFEACFA80FA3
:10332000B91FE7CF4091F71D5091F81D6091F91D2D
:103330007091FA1D473051056105710548F14091C2
:10334000A4005091A500A091EA09B091EB09A81B37
:10335000B90B8091190290911A02A817B907CCF005
:10336000A81BB90B20912C0A30912D0A0F94202410
:1033700026E096958795779567952A95D1F7640FFE
:10338000751F7093D40F6093D30F81E08093DA0F91
:103390000895B7FFE7CFA80FB91FE4CFCF92DF9210
:1033A000EF92FF92FB01C090F71DD090F81DE090C6
:1033B000F91DF090FA1D40911B1C50E070E060E098
:1033C000C416D506E606F70608F48AC09091891D52
:1033D000992309F485C04091F60B5091F70B609149
:1033E000F80B7091F90B452B462B472B09F478C04D
:1033F0004091F20B5091F30B6091F40B7091F50B2F
:10340000452B462B472B09F46BC0C090F60BD09090
:10341000F70BE090F80BF090F90B4091F20B509104
:10342000F30B6091F40B7091F50B4C155D056E0577
:103430007F0508F055C0F8942091F60B3091F70BFA
:103440004091F80B5091F90BC090F20BD090F30B18
:10345000E090F40BF090F50B2C193D094E095F0933
:10346000A82FB0E00F94D2236093FB0B7093FC0B5A
:103470008093FD0B9093FE0B7894E03DF240A1F415
:103480008091FB0B9091FC0BA091FD0BB091FE0B7A
:10349000B695A795979587958093FB0B9093FC0B1A
:1034A000A093FD0BB093FE0B2091FB0B3091FC0B16
:1034B0004091FD0B5091FE0B60E077E883E993E0CB
:1034C0000F948A23C901803526E4920720F0809169
:1034D0008A1D90918B1DFF90EF90DF90CF90089503
:1034E00090E080E0F8CF9B01AC0180911C1C8076BD
:1034F00049F41092A8051092A9051092AA051092FD
:10350000AB050895803281F472E056954795379562
:1035100027957A95D1F72093A8053093A905409374
:10352000AA055093AB050895803429F45695479524
:1035300037952795F0CF8036E1F6A3E0B0E00F9401
:10354000D22322E096958795779567952A95D1F7AE
:103550006093A8057093A9058093AA059093AB0585
:1035600008950F931F932091891D222309F481C090
:1035700040918A1D50918B1D2091231E3091241E55
:103580004217530768F44091F71D5091F81D609160
:10359000F91D7091FA1D452B462B472B09F469C084
:1035A0004091A4055091A5056091A6057091A705CD
:1035B000452B462B472B09F45CC04091A005509148
:1035C000A1056091A2057091A305452B462B472BC1
:1035D00009F44FC0F8944091A4055091A50560915D
:1035E000A6057091A7050091A0051091A105209155
:1035F000A2053091A305401B510B620B730B409346
:10360000FB0B5093FC0B6093FD0B7093FE0B7894B7
:10361000803D9240A1F48091FB0B9091FC0BA09116
:10362000FD0BB091FE0BB695A79597958795809366
:10363000FB0B9093FC0BA093FD0BB093FE0B209122
:10364000FB0B3091FC0B4091FD0B5091FE0B60E0A9
:1036500077E883E993E00F948A23C901803526E453
:10366000920720F080918A1D90918B1D1F910F91E0
:10367000089590E080E0FACF80918A1D90918B1D93
:103680002091231E3091241E8217930748F4209125
:10369000FA0B222349F068E671E084E20C94CE191B
:1036A00088E691E00C94B11A089580918A1D90915A
:1036B0008B1D2091231E3091241E8217930760F4E6
:1036C0002091D5093091D6092130310549F068E6BD
:1036D00071E084E20C94CE1988E691E00C94B11A62
:1036E000089580ED92E00C94B11A20918A1D3091DA
:1036F0008B1D8091231E9091241E28173907B0F549
:103700009091A70A907F9034D9F48091D509909137
:10371000D609439749F18091D5099091D6094097F0
:1037200019F18091D5099091D6098297E9F080919D
:10373000FA0B8823C9F068E671E084E20C94CE1994
:10374000903691F48091D5099091D609099761F04E
:103750008091D5099091D6090C9731F08091D509C7
:103760009091D609819719F7C901089588E691E0EB
:103770000C94B11A8F929F92AF92BF92CF92DF9228
:10378000EF92FF928091891D882309F489C080916E
:10379000211C24E6829FC001112420918A1D3091B2
:1037A0008B1D2817390708F06FC08091F60B909198
:1037B000F70BA091F80BB091F90B892B8A2B8B2B6F
:1037C00009F46EC08091F20B9091F30BA091F40B71
:1037D000B091F50B892B8A2B8B2B09F461C0F894DF
:1037E0002091F00B3091F10B8091A4059091A505EB
:1037F000A091A605B091A7054091A0055091A10503
:103800006091A2057091A305841B950BA60BB70BC5
:103810008093FB0B9093FC0BA093FD0BB093FE0BDE
:10382000C090F60BD090F70BE090F80BF090F90BEE
:103830008091F20B9091F30BA091F40BB091F50BEA
:10384000C81AD90AEA0AFB0A7894D90120E83DE8A7
:103850004BE550E00F94DD234B015C01A4E2B0E0A6
:10386000A70196010F94D2239B01AC01C501B401BD
:103870000F948A23C901FF90EF90DF90CF90BF9003
:10388000AF909F908F90089588E691E0FF90EF9021
:10389000DF90CF90BF90AF909F908F900C94B11A13
:1038A00090E080E0E8CF80ED92E00C94B11A809136
:1038B000F71D9091F81DA091F91DB091FA1D892B6B
:1038C0008A2B8B2B21F080ED92E00C94B11A90E0C2
:1038D00080E008958091891D8823D9F08091D509D1
:1038E0009091D609892BA9F020918A1D30918B1DCA
:1038F0008091231E9091241E2817390730F468E622
:1039000071E080911F1C0C94CE1988E691E00C9414
:10391000B11A90E080E00895CF92DF92EF92FF928B
:103920008091891D882309F45DC020918A1D309102
:103930008B1D8091231E9091241E2817390708F0B3
:1039400049C0F894E091F00BF091F10B8091F60BE7
:103950009091F70BA091F80BB091F90B4091F20BFD
:103960005091F30B6091F40B7091F50B841B950B48
:10397000A60BB70B8093FB0B9093FC0BA093FD0B56
:10398000B093FE0B78942091FB0B3091FC0B40918F
:10399000FD0B5091FE0BA4E2B0E00F94D2236B011B
:1039A0007C01C092FB0BD092FC0BE092FD0BF092DD
:1039B000FE0BDF0120E037E843E953E00F94DD23FD
:1039C000A70196010F948A23C901FF90EF90DF9021
:1039D000CF90089588E691E0FF90EF90DF90CF9030
:1039E0000C94B11A90E080E0F0CF88E691E00C945E
:1039F000B11A0C94F51C0C94F51C0C94F51C0C9449
:103A0000F51C20918A1D30918B1D8091231E909171
:103A1000241E2817390790F580915E0590915F0567
:103A200060ED72E00E94CE194091FB0B5091FC0BAF
:103A30006091FD0B7091FE0B440F551F661F771FA1
:103A400040931E0250931F02609320027093210244
:103A500020915E0530915F054B34584965407105F2
:103A600060F44BE458E965E070E040931E02509327
:103A70001F026093200270932102089580ED92E06E
:103A80000E94B11AD1CF8091891D882309F19091AC
:103A9000151C927040918A1D50918B1D2091231E00
:103AA0003091241E4217530750F480911F1C60ED83
:103AB00072E0911102C068E671E00C94CE1999236E
:103AC00021F080ED92E00C94B11A88E691E0FBCFF2
:103AD00090E080E0089580918A1D90918B1D209147
:103AE000231E3091241E8217930798F42091D50944
:103AF0003091D60921303105B9F080911F1C909189
:103B0000151C60ED72E091FD02C068E671E00C9456
:103B1000CE198091151C81FF04C080ED92E00C94B9
:103B2000B11A88E691E0FBCF0895FC012081318134
:103B30002B5B3E4F82818051482F50E0440F551F30
:103B4000B901641B750B89E792E00895FC0120819F
:103B50003181295F3E4F828193819927AC01440FC7
:103B6000551FB901640F751F81E792E00895FC01AC
:103B7000208131812B593F4F82818854482F50E05A
:103B8000440F551FB901641B750B85E792E008953A
:103B9000FC0120813181295B3F4F82818054482F75
:103BA00050E0440F551FB901640F751F81E792E083
:103BB0000895FC01208131812B593F4F8281885427
:103BC000482F50E0440F551FB901641B750B89E75E
:103BD00092E00895FC01208131812B5D3F4F82816D
:103BE0008451482F50E0440F551FB901641B750BD9
:103BF00089E792E00895FC0120813181295E3F4FE1
:103C000082818051482F50E0440F551FB901640F45
:103C1000751F81E792E00895FC01208131812F5BBF
:103C20003F4F82818A52482F50E0440F551FB901FF
:103C3000641B750B89E792E00895FC0120813181B6
:103C4000255D3F4F82818452482F50E0440F551F1D
:103C5000B901640F751F81E792E008958091F91E04
:103C600023E0829FC001112420918A0330918B03AD
:103C70002817390770F56091E20380914D050E9485
:103C800051EC60E0809146050E9451EC61E080912A
:103C90004C050E9451EC0E94D8EC6093DE037093B7
:103CA000DF038093E0039093E10381E090E0909341
:103CB000DD038093DC0380918A0390918B0301964E
:103CC00090938B0380938A0381E08093D60380E0F6
:103CD000089581E008954091DA035091DB0320912B
:103CE000D8033091D9038091FA1E90E0B901681B86
:103CF000790B641775072CF4820F931F4817590727
:103D000074F14217530764F56091E20380914D0509
:103D10000E9451EC8091D8039091D9030197909320
:103D2000D9038093D80360E0809146050E9451EC4E
:103D300061E080914C050E9451EC0E94D8EC6093A8
:103D4000DE037093DF038093E0039093E10381E04F
:103D500090E09093DD038093DC038093D603089575
:103D60002417350704F76091E30380914D050E9405
:103D700051EC8091D8039091D9030196D0CFCF9385
:103D8000DF938091DC039091DD03019739F08091FE
:103D9000DC039091DD03029709F054C08091DC03AD
:103DA0009091DD03C0918F03D0919003019721F092
:103DB000C0918D03D0918E030E94D8ECAB01BC0161
:103DC0008091DE039091DF03A091E003B091E103C5
:103DD0008C0F9D1FA11DB11D84179507A607B7075E
:103DE00008F58091DC039091DD03019711F560E007
:103DF00080914C050E9451EC0E94D8EC6093DE0348
:103E00007093DF038093E0039093E10380918D032F
:103E100090918E03892B41F082E090E09093DD0336
:103E20008093DC0381E00FC01092DD031092DC036D
:103E3000F9CF1092DD031092DC0361E0809146051A
:103E40000E9451EC80E0DF91CF910895CF92DF92F4
:103E5000EF92FF9280911C1C8C718C3031F080911C
:103E6000A90A8073803309F0F1C00E94D8EC6093F6
:103E7000790370937A0380937B0390937C03809102
:103E8000790390917A03A0917B03B0917C034091D8
:103E90001D0B50911E0B60911F0B7091200B841B0A
:103EA000950BA60BB70B8093750390937603A093A5
:103EB0007703B09378034091750350917603609136
:103EC0007703709178038091980590919905A0915E
:103ED0009A05B0919B0584179507A607B70708F0C8
:103EE000B5C080911D0B90911E0BA0911F0BB0913E
:103EF000200B892B8A2B8B2B09F498C08091F60B11
:103F00009091F70BA091F80BB091F90B892B8A2BAC
:103F10008B2B09F48BC08091F20B9091F30BA09145
:103F2000F40BB091F50B892B8A2B8B2B09F47EC0F7
:103F30002091F60B3091F70B4091F80B5091F90B53
:103F40008091F20B9091F30BA091F40BB091F50BD3
:103F5000C0907503D0907603E0907703F0907803DB
:103F6000281B390B4A0B5B0BA3E0B0E00F94D22364
:103F7000C616D706E806F90608F46DC080911A0B3C
:103F800090911B0B892BF1F120915D052223D1F13A
:103F900080911C0B9091A70A92959F70882381F0C5
:103FA000E0911C0B40911A0B50911B0BF0E0EE0FAF
:103FB000FF1FEE59FA4F6081718164177507B1F0E8
:103FC00010921C0BE0E6F5E081E09817D8F04091E4
:103FD0001A0B50911B0B628173816417750719F4DA
:103FE0003081231769F08F5F3296EFCF80911C0BE1
:103FF0008F5F80931C0B80911C0B981718F481E045
:1040000080931C0B80911A0B90911B0B80935D0584
:1040100081E090E090931B0B80931A0B109298050F
:104020001092990510929A0510929B058091790340
:1040300090917A03A0917B03B0917C0380931D0B38
:1040400090931E0BA0931F0BB093200BFF90EF904B
:10405000DF90CF90089580911A0B90911B0B892BC4
:1040600029F380911A0B90911B0B019690931B0BD7
:1040700080931A0B8091750390917603A09177033A
:10408000B091780322E0B695A795979587952A95E4
:10409000D1F78093980590939905A0939A05B093D2
:1040A0009B05C4CFCF92DF92EF92FF920F931F93A5
:1040B00080911C1C8C718C3029F08091A90A80732E
:1040C000803319F50E94D8EC6093790370937A03DA
:1040D00080937B0390937C03E0913805F091390540
:1040E0008081909137058923B9F08091790390916F
:1040F0007A03A0917B03B0917C0380939405909305
:104100009505A0939605B09397051F910F91FF9089
:10411000EF90DF90CF9008958091790390917A038A
:10412000A0917B03B0917C0340911D0B50911E0B1D
:1041300060911F0B7091200B841B950BA60BB70B86
:104140008093750390937603A0937703B0937803DD
:1041500040917503509176036091770370917803D5
:104160008091980590919905A0919A05B0919B0531
:1041700084179507A607B70740F680911D0B90910D
:104180001E0BA0911F0BB091200B892B8A2B8B2B20
:1041900009F48FC08091900590919105A0919205AE
:1041A000B0919305892B8A2B8B2B09F482C08091C7
:1041B0001A0B90911B0B892B49F080911A0B90914F
:1041C0001B0B019690931B0B80931A0B20911D0BD8
:1041D00030911E0B40911F0B5091200B8091900548
:1041E00090919105A0919205B0919305C0907503AF
:1041F000D0907603E0907703F0907803281B390B7A
:104200004A0B5B0BA3E0B0E00F94D2239695879501
:1042100077956795C616D706E806F90608F486C0AE
:104220004091940550919505609196057091970580
:1042300000911D0B10911E0B20911F0B3091200B34
:104240008091790390917A03A0917B03B0917C03D4
:10425000C0909405D0909505E0909605F090970554
:10426000401B510B620B730B8C199D09AE09BF09E2
:10427000481759076A077B0708F043C080911A0B5B
:1042800090911B0B892BB1F180911A0B90911B0B14
:10429000089781F180911A0B90911B0B892B09F0E3
:1042A00040C0109298051092990510929A051092AC
:1042B0009B0580911D0B90911E0BA0911F0BB0913F
:1042C000200B8093900590939105A0939205B09355
:1042D00093058091790390917A03A0917B03B0912B
:1042E0007C0380931D0B90931E0BA0931F0BB09328
:1042F000200B0BCF81E090E090931B0B80931A0B67
:10430000D0CF80911A0B90911B0B892B39F08091A3
:104310001A0B90911B0B059709F0BCCF85E090E03C
:10432000EBCF10921B0B10921A0BBBCF80911A0B84
:1043300090911B0B892B09F4BCCF80917503909150
:104340007603A0917703B091780322E0B695A79504
:10435000979587952A95D1F780939805909399051D
:10436000A0939A05B0939B05A4CFCF92DF92EF92D2
:10437000FF920F931F930E94D8EC60937103709388
:1043800072038093730390937403E0913B05F09163
:104390003C05808190913A058923B9F080917103A1
:1043A00090917203A0917303B091740380939C0564
:1043B00090939D05A0939E05B0939F051F910F912B
:1043C000FF90EF90DF90CF900895809171039091CE
:1043D0007203A0917303B09174034091F60B509156
:1043E000F70B6091F80B7091F90B841B950BA60BE2
:1043F000B70B80936D0390936E03A0936F03B093FC
:10440000700340916D0350916E0360916F03709142
:1044100070038091A8059091A905A091AA05B0917B
:10442000AB05481759076A077B0740F28091D50909
:104430009091D60901969093D6098093D50981E091
:1044400080936C038091F60B9091F70BA091F80B81
:10445000B091F90B892B8A2B8B2B09F404C2809124
:10446000F20B9091F30BA091F40BB091F50B892B0B
:104470008A2B8B2B09F4F7C18091D5099091D6092D
:10448000419771F08091D5099091D609839741F0B9
:104490008091891D8111DAC18091251E84FDD6C1CC
:1044A0008091F60B9091F70BA091F80BB091F90B5E
:1044B0000091F20B1091F30B2091F40B3091F50B5E
:1044C00040916D0350916E0360916F037091700382
:1044D000801B910BA20BB30B880F991FAA1FBB1F48
:1044E00084179507A607B70708F0A0C11092A80582
:1044F0001092A9051092AA051092AB051092FA0B22
:1045000040919C0550919D0560919E0570919F057D
:10451000C090F60BD090F70BE090F80BF090F90BF1
:104520008091710390917203A0917303B091740311
:1045300000919C0510919D0520919E0530919F054D
:104540004C195D096E097F09801B910BA20BB30BFF
:10455000481759076A077B0708F07AC081E090E0A6
:104560009093D6098093D5098091A4059091A505D3
:10457000A091A605B091A7058093A0059093A105F1
:10458000A093A205B093A30580917103909172034B
:10459000A0917303B09174038093A4059093A50533
:1045A000A093A605B093A7058091891D882309F4DF
:1045B00046C08091F71D9091F81DA091F91DB09112
:1045C000FA1D0196A11DB11D8093F71D9093F81D52
:1045D000A093F91DB093FA1D80911C1C8C718C3036
:1045E00029F08091A90A8073803339F58091A70A58
:1045F000807F8034A1F58091D5099091D6090197EB
:1046000061F480911A0B90911B0B0197A1F080919E
:104610001A0B90911B0B029771F08091D509909124
:10462000D609439709F060C080911A0B90911B0B3B
:10463000049709F059C010926B0381E070C010928A
:10464000F71D1092F81D1092F91D1092FA1DC4CF9B
:1046500083E190E09093D6098093D509BDCF803651
:1046600009F01BC18091D5099091D609019741F4B9
:1046700080911C0B8130F9F280911C0B8230D9F2B1
:104680008091D5099091D609439741F480911C0BF4
:10469000823089F280911C0B833069F28091D509B8
:1046A0009091D609019741F480911C0B8430A1F1BF
:1046B00080911C0B853081F18091D5099091D609AC
:1046C000439741F480911C0B853031F180911C0B94
:1046D000863011F18091891D8111A2C01092891D2F
:1046E0008091251E806120C08091D5099091D609C6
:1046F000019731F480911A0B90911B0B059761F093
:104700008091D5099091D609439721F780911A0B92
:1047100090911B0B0797F1F681E080936B038093D8
:10472000891D8091251E8F7E8093251E8091F20B1E
:104730009091F30BA091F40BB091F50B4091F60B17
:104740005091F70B6091F80B7091F90B0091710388
:10475000109172032091730330917403800F911FA5
:10476000A21FB31F841B950BA60BB70B8093F20BF4
:104770009093F30BA093F40BB093F50B809171031E
:1047800090917203A0917303B09174038093F60B20
:104790009093F70BA093F80BB093F90B8091A90AB3
:1047A00086FF0CCE8091D91D81FD08CE2091D509C0
:1047B0003091D6094091F00B5091F10B2150310905
:1047C000249FC001259F900D349F900D11242091AE
:1047D000101C3091111C820F931F209119023091EF
:1047E0001A02821793070CF447C0821B930B209187
:1047F0001C1C2C712C3041F420916B03222321F0DE
:104800002091151C21FF3DC06091D5097091D609FA
:104810001F910F91FF90EF90DF90CF900C94E117D4
:104820008091341E8F5F8093341E58CF8091891DF4
:10483000882329F08091341E8F5F8093341E10925C
:10484000891D8091251E8F7E8093251E60916D03AA
:1048500070916E0380916F03909170030E94731AA0
:1048600081E08093FA0B8091F60B9091F70BA09169
:10487000F80BB091F90B7ACF97FFB9CF820F931F46
:10488000B6CF2091D5093091D60960911F1C620FD7
:10489000732F711D88599E4FBBCF803809F01ACFF6
:1048A0008091D5099091D609019751F480911C0B04
:1048B000813009F4C0CE80911C0B823009F4BBCE4C
:1048C0008091D5099091D609439751F480911C0BA2
:1048D000833009F4B0CE80911C0B843009F4ABCE48
:1048E0008091D5099091D609019751F480911C0BC4
:1048F000853009F411CF80911C0B863009F40CCF60
:104900008091D5099091D609439709F0E3CE809123
:104910001C0B873009F400CF80911C0B883009F004
:10492000D9CEFACECF92DF92EF92FF92CF93DF9360
:104930000E94D8EC6093790370937A0380937B0391
:1049400090937C038091790390917A03A0917B03EB
:10495000B0917C0340911D0B50911E0B60911F0B79
:104960007091200B841B950BA60BB70B80937503DE
:1049700090937603A0937703B093780340917503E7
:104980005091760360917703709178038091980538
:1049900090919905A0919A05B0919B0548175907E8
:1049A0006A077B0708F447C08091790390917A03E6
:1049B000A0917B03B0917C0380931D0B90931E0B01
:1049C000A0931F0BB093200B8091891D81115AC0B9
:1049D0000E94D8EC6093F60B7093F70B8093F80B62
:1049E0009093F90B0E94D8EC6B017C01C0911F1CC5
:1049F0002C2F30E050E040E060E87DE88BE590E06F
:104A00000F945723C21AD30AE40AF50AC092F20B94
:104A1000D092F30BE092F40BF092F50BD0E0D09330
:104A2000D609C093D5098091341E8F5F8093341EC0
:104A300081E08093891D8091A4059091A505A091A6
:104A4000A605B091A7054091A0055091A1056091E0
:104A5000A2057091A305841B950BA60BB70BB69509
:104A6000A795979587958093980590939905A0931E
:104A70009A05B0939B05DF91CF91FF90EF90DF9067
:104A8000CF90089586E090E09093D6098093D50961
:104A9000D2CFCF92DF92EF92FF920E94D8EC609338
:104AA000790370937A0380937B0390937C038091C6
:104AB000790390917A03A0917B03B0917C0340919C
:104AC0001D0B50911E0B60911F0B7091200B841BCE
:104AD000950BA60BB70B8093750390937603A09369
:104AE0007703B093780380911D0B90911E0BA091DA
:104AF0001F0BB091200B892B8A2B8B2BC1F41092AA
:104B000075031092760310927703109278038091C8
:104B1000790390917A03A0917B03B0917C038093F9
:104B20001D0B90931E0BA0931F0BB093200B409175
:104B300075035091760360917703709178038091AB
:104B4000980590919905A0919A05B0919B054817F9
:104B500059076A077B0708F4DEC020911D0B3091CE
:104B60001E0B40911F0B5091200B8091900590914E
:104B70009105A0919205B0919305281B390B4A0B22
:104B80005B0BA3E0B0E00F94D223969587957795C1
:104B900067956093670370936803809369039093AC
:104BA0006A0380911D0B90911E0BA0911F0BB09179
:104BB000200B8093900590939105A0939205B0935C
:104BC000930540917503509176036091770370913E
:104BD00078038091670390916803A0916903B09175
:104BE0006A03481759076A077B0708F054C0809189
:104BF0001A0B90911B0B059709F44DC0809175031A
:104C000090917603A0917703B091780322E0B69556
:104C1000A795979587952A95D1F7809398059093B6
:104C20009905A0939A05B0939B0580911A0B9091DA
:104C30001B0B019690931B0B80931A0B80917903A9
:104C400090917A03A0917B03B0917C0380931D0B1C
:104C500090931E0BA0931F0BB093200B8091831E8B
:104C600085FF59C080916B03882309F454C080915B
:104C70001A0B90911B0B019709F04DC0E091430A6C
:104C8000F091440A1995AC01493681E05807A4F027
:104C900048565140F9CF81E090E090931B0B8093F0
:104CA0001A0B80936B03109298051092990510923D
:104CB0009A0510929B05C2CF8091891E8370823025
:104CC00051F5E0918C1C9A01220F331FF0E0A0E017
:104CD000B1E0AE1BBF0B0F9418246B017C019F0148
:104CE000DA010F942024C60ED71EE81EF91ECD2C23
:104CF000DE2CEF2CFF24E7FCFA9488E691E08C1977
:104D00009D0920914B1D30914C1D821B930B90935C
:104D10003A1E8093391EFF90EF90DF90CF90089558
:104D20000E94D8EC6093790370937A0380937B039D
:104D300090937C038091790390917A03A0917B03F7
:104D4000B0917C0340911D0B50911E0B60911F0B85
:104D50007091200B841B950BA60BB70B80937503EA
:104D600090937603A0937703B093780340917503F3
:104D70005091760360917703709178038091980544
:104D800090919905A0919A05B0919B0548175907F4
:104D90006A077B0708F4F0C08091790390917A0349
:104DA000A0917B03B0917C0380931D0B90931E0B0D
:104DB000A0931F0BB093200B80911A0B90911B0BAB
:104DC000029709F04DC080915D05833009F048C01D
:104DD0008091891D811176C00E94D8EC6093F60BFA
:104DE0007093F70B8093F80B9093F90B0E94D8EC1B
:104DF0006056734E864191096093F20B7093F30BEA
:104E00008093F40B9093F50B80911F1C8150990BAC
:104E10009093D6098093D50981E08093891D81E024
:104E200080936B0380916D0390916E03A0916F034B
:104E3000B091700342E0880F991FAA1FBB1F4A95CB
:104E4000D1F78093980590939905A0939A05B09314
:104E50009B0581E090E090931B0B80931A0B0895C3
:104E60008091891D882309F456C080916D0390912B
:104E70006E03A0916F03B091700340916D03509148
:104E80006E0360916F0370917003B695A795979527
:104E90008795840F951FA61FB71F80939805909341
:104EA0009905A0939A05B0939B0580911A0B909158
:104EB0001B0B019690931B0B80931A0B81E0809340
:104EC0005D05089580911F1C2091D5093091D60968
:104ED00090E0AC01415051094217530791F04091C5
:104EE000F71D5091F81D6091F91D7091FA1D433026
:104EF00051056105710528F02091341E2F5F209324
:104F0000341E2091161C27FF8ACF01979093D60953
:104F10008093D50984CF8091D5099091D6090397C4
:104F200008F4A3CF80911A0B90911B0B892B09F0E9
:104F30009CCF0E94D8EC6093F60B7093F70B809394
:104F4000F80B9093F90B0E94D8EC6056734E864193
:104F500091096093F20B7093F30B8093F40B909391
:104F6000F50B81E090E09093D6098093D50980936A
:104F70006B038093891D089580916D0390916E035A
:104F8000A0916F03B091700340916D0350916E0337
:104F900060916F0370917003B695A795979587956B
:104FA000840F951FA61FB71F8093980590939905AE
:104FB000A0939A05B0939B0581CF0E94D8EC609393
:104FC00071037093720380937303909374038091C1
:104FD000710390917203A0917303B0917403409197
:104FE000F60B5091F70B6091F80B7091F90B841B45
:104FF000950BA60BB70B80936D0390936E03A09354
:105000006F03B093700340916D0350916E036091F4
:105010006F03709170038091A8059091A905A091EC
:10502000AA05B091AB05481759076A077B0708F432
:105030001AC18091D5099091D60901969093D6090D
:105040008093D50980915D05882319F08F5F809347
:105050005D05409198055091990560919A05709170
:105060009B0580916D0390916E03A0916F03B091A9
:10507000700384179507A607B70700F180916D03A9
:1050800090916E03A0916F03B091700340916D03F6
:1050900050916E0360916F0370917003B695A79560
:1050A00097958795840F951FA61FB71F8093980526
:1050B00090939905A0939A05B0939B0581E0809306
:1050C0006C034091F60B5091F70B6091F80B7091C7
:1050D000F90B4093F20B5093F30B6093F40B709326
:1050E000F50B4091710350917203609173037091BD
:1050F00074034093F60B5093F70B6093F80B709387
:10510000F90B9091891D992309F48BC08091D509E1
:105110009091D609019751F08091D5099091D609C7
:1051200020911F1C2817190608F03FC081E090E06D
:105130009093D6098093D50980916B0391E08927DC
:1051400080936B038091A4059091A505A091A6057D
:10515000B091A7058093A0059093A105A093A20507
:10516000B093A3058091710390917203A091730392
:10517000B09174038093A4059093A505A093A60510
:10518000B093A7058091F71D9091F81DA091F91D8E
:10519000B091FA1D0196A11DB11D8093F71D90934A
:1051A000F81DA093F91DB093FA1D60916D037091E5
:1051B0006E0380916F03909170030E94731A809127
:1051C000A90A86FF50C08091D91D81FD4CC0209155
:1051D000D5093091D6094091F00B5091F10B215037
:1051E0003109249FC001259F900D349F900D1124FB
:1051F0002091101C3091111C820F931F20911C1CB8
:105200002C712C3041F420916B03222321F020914A
:10521000151C21FF1CC06091D5097091D6090C9412
:10522000E11720911A0B30911B0B2130310539F613
:1052300090915D05943019F622E030E03093D60964
:105240002093D5098093891D10926B03B8CF2091CC
:10525000D5093091D60960911F1C620F732F711D03
:1052600088599E4FDCCF08950E94D8EC609371035B
:10527000709372038093730390937403809171030E
:1052800090917203A0917303B09174034091F60B57
:105290005091F70B6091F80B7091F90B841B950BF3
:1052A000A60BB70B80936D0390936E03A0936F03CF
:1052B000B093700340916D0350916E0360916F0342
:1052C000709170038091A8059091A905A091AA05FD
:1052D000B091AB05481759076A077B0708F4C1C0AE
:1052E0008091D5099091D60901969093D609809323
:1052F000D50981E080936C038091F60B9091F70BB8
:10530000A091F80BB091F90B892B8A2B8B2B61F0B4
:105310008091F20B9091F30BA091F40BB091F50BEF
:10532000892B8A2B8B2B41F410926D0310926E0304
:1053300010926F03109270038091D5099091D60955
:105340004197E8F18091891D8823C9F181E090E0BF
:105350009093D6098093D5098091A4059091A505D5
:10536000A091A605B091A7058093A0059093A105F3
:10537000A093A205B093A30580917103909172034D
:10538000A0917303B09174038093A4059093A50535
:10539000A093A605B093A7058091F71D9091F81DE5
:1053A000A091F91DB091FA1D0196A11DB11D809328
:1053B000F71D9093F81DA093F91DB093FA1D10925C
:1053C000A8051092A9051092AA051092AB0510929B
:1053D000FA0B8091F60B9091F70BA091F80BB0911E
:1053E000F90B8093F20B9093F30BA093F40BB09313
:1053F000F50B8091710390917203A0917303B091AA
:1054000074038093F60B9093F70BA093F80BB09373
:10541000F90B8091A90A86FF24C0E091D509F0918B
:10542000D609EE0FFF1FE25AFA4F80819181209139
:10543000101C3091111C820F931F20911902309182
:105440001A028217930744F0821B930B6091D509CF
:105450007091D6090C94E11797FFF8CF820F931F34
:10546000F5CF08950E94D8EC609371037093720396
:1054700080937303909374038091710390917203EE
:10548000A0917303B09174034091F60B5091F70B08
:105490006091F80B7091F90B841B950BA60BB70B61
:1054A00080936D0390936E03A0936F03B09370038A
:1054B00040916D0350916E0360916F037091700382
:1054C0008091A8059091A905A091AA05B091AB057E
:1054D000481759076A077B0708F45EC18091D50910
:1054E0009091D60901969093D6098093D50981E0D1
:1054F00080936C0380911C0B811120C08091F60B6E
:105500009091F70BA091F80BB091F90B4091F20B31
:105510005091F30B6091F40B7091F50B841B950B7C
:10552000A60BB70B880F991FAA1FBB1F809363039D
:1055300090936403A0936503B09366038091F60B88
:105540009091F70BA091F80BB091F90B892B8A2B56
:105550008B2B61F08091F20B9091F30BA091F40BE7
:10556000B091F50B892B8A2B8B2B41F410926D0394
:1055700010926E0310926F031092700340916D03AE
:1055800050916E0360916F0370917003809163037B
:1055900090916403A0916503B09166038417950709
:1055A000A607B70708F087C080911C0B813009F06F
:1055B0006CC08091A70A807F803409F060C083E1CD
:1055C00090E09093D6098093D50910921C0B81E04E
:1055D0008093891D1092FA0B1092A8051092A905CC
:1055E0001092AA051092AB058091F60B9091F70BE3
:1055F000A091F80BB091F90B8093F20B9093F30B01
:10560000A093F40BB093F50B80917103909172030A
:10561000A0917303B09174038093F60B9093F70BF2
:10562000A093F80BB093F90B8091A90A86FFB4C040
:105630002091D5093091D6094091F00B5091F10B92
:1056400021503109249FC001259F900D349F900D5A
:1056500011242091101C3091111C820F931F209156
:10566000190230911A02821793070CF490C0821B22
:10567000930B6091D5097091D6090C94E11780368F
:1056800009F0A3CF8CE090E09CCF81E080931C0BCD
:105690008091D5099091D60901969093D60980936F
:1056A000D5098091D5099091D60901969093D60994
:1056B0008093D5098FCF8091D5099091D609859790
:1056C00008F44FC081E090E09093D6098093D5090B
:1056D00080916B0391E0892780936B038091A405EF
:1056E0009091A505A091A605B091A7058093A0056E
:1056F0009093A105A093A205B093A3058091710397
:1057000090917203A0917303B09174038093A405E8
:105710009093A505A093A605B093A7058091F71DCA
:105720009091F81DA091F91DB091FA1D0196A11D4F
:10573000B11D8093F71D9093F81DA093F91DB093B0
:10574000FA1D60916D0370916E0380916F039091CB
:1057500070030E94731A81E08093FA0B10921C0B65
:1057600043CF90911C0B913061F78091A70A807F05
:1057700023E230E0803421F0803619F722E230E075
:105780003093D6092093D5099093891DDACF97FFDE
:1057900070CF820F931F6DCF089580916D0390910C
:1057A0006E03A0916F03B0917003809357039093A1
:1057B0005803A0935903B0935A030E94D8EC609306
:1057C00071037093720380937303909374038091B9
:1057D000710390917203A0917303B091740340918F
:1057E000F60B5091F70B6091F80B7091F90B841B3D
:1057F000950BA60BB70B80936D0390936E03A0934C
:105800006F03B093700360916D0370916E0380918C
:105810006F03909170030E94731A40916D03509131
:105820006E0360916F03709170038091A805909151
:10583000A905A091AA05B091AB0584179507A60705
:10584000B70708F051C0E0913B05F0913C0580811D
:1058500090913A058923F1F121E020936C03809126
:10586000570390915803A0915903B0915A03809324
:10587000630390936403A0936503B09366038091E0
:10588000D5099091D60901969093D6098093D509B0
:1058900040916D0350916E0360916F03709170039E
:1058A0008091630390916403A0916503B0916603B6
:1058B00084179507A607B707C0F082E090E09093A1
:1058C000D6098093D5098DE990E09093F10B8093F0
:1058D000F00B37C08091891D811167C01092891D1E
:1058E0001092D6091092D509089581E090E0909326
:1058F000D6098093D5091092F10B1092F00B80918C
:10590000A4059091A505A091A605B091A705809347
:10591000A0059093A105A093A205B093A305809143
:10592000710390917203A0917303B09174038093FB
:10593000A4059093A505A093A605B093A705209371
:10594000891D8091F60B9091F70BA091F80BB09107
:10595000F90B8093F20B9093F30BA093F40BB0939D
:10596000F50B8091710390917203A0917303B09134
:1059700074038093F60B9093F70BA093F80BB093FE
:10598000F90B8091F71D9091F81DA091F91DB09130
:10599000FA1D0196A11DB11D8093F71D9093F81D6E
:1059A000A093F91DB093FA1D08958091341E8F5F66
:1059B0008093341E93CF0F931F930E94D8EC609373
:1059C00071037093720380937303909374038091B7
:1059D000710390917203A0917303B091740340918D
:1059E000F60B5091F70B6091F80B7091F90B841B3B
:1059F000950BA60BB70B80936D0390936E03A0934A
:105A00006F03B093700380911C0B8F5F80931C0B0E
:105A100081E080936C039091891D992309F4B6C0AD
:105A20004091D5095091D60920915E0530915F05CE
:105A30004217530709F07AC021E030E03093D609CD
:105A40002093D5094091A4055091A5056091A60524
:105A50007091A7054093A0055093A1056093A205FE
:105A60007093A30540917103509172036091730389
:105A7000709174034093A4055093A5056093A60507
:105A80007093A7058093891D8091F71D9091F81D53
:105A9000A091F91DB091FA1D0196A11DB11D809331
:105AA000F71D9093F81DA093F91DB093FA1D84E1A2
:105AB00090E0A0E0B0E08093A8059093A905A093A2
:105AC000AA05B093AB0580911C1C87FF0CC0809188
:105AD000D91D81FF08C08091D5099091D609019701
