:100000000C947D100C94FBC40C94D0C40C94A5C427
:100010000C947AC40C944FC40C9424C40C94F9C36B
:100020000C94CEC30C94AE100C94AE100C94AE1085
:100030000C94AE100C94AE100C94AE100C94C0E066
:100040000C94AE100C941C920C9444900C944F5F42
:100050000C94AE100C94AE100C94AE100C9484C39F
:100060000C94AE100C94F4F20C94CAF20C94AE10F2
:100070000C94AE100C94AE100C94AE100C94AE1008
:100080000C9427DC0C94A1DB0C941BDB0C94AE10BD
:100090000C94AE100C94AE100C94AE100C94AE10E8
:1000A0000C94AE100C94AE100C9489D90C9495DA83
:1000B0000C940FDA0C94AE100C94AE100C94D9D7AB
:1000C0000C947DD80C9403D90C94AE100C94AE1003
:1000D0000C94AE100C94AE100C9494F20C946AF242
:1000E0000C94AE100C941BA00C94E75B0C94D3E81A
:1000F0000C94F0BD0C940A240C9440CC0C9420B0C9
:100100000C94CF1C0C94D0B20C9460B00C94C2E848
:100110000C945B590C942AE90C94F5C10C9418E8E2
:100120000C945FEA0C94589D0C9471140C94C224A6
:100130000C94AC760C9450E90C9465E90C944062F4
:100140000C949DCD0C949E9F0C94B7110C940313AA
:100150000C9418E90C9454E80C94F0110C94B1CC64
:100160000C947EB60C9476B60C947DE90C9489BB05
:100170000C948DCD0C946F770C946CB60C940A276C
:100180000C9439E90C94F9C10C9440C00C94B5E876
:100190000C948FE90C94DCA70C94279D0C94D3BC91
:1001A0000C94BFE80C948FA80C9406BE0C9438BD38
:1001B0000C9402A00C944B120C94F2110C9447E98D
:1001C0000C94238D0C9470B60C948BA10C94AE11EE
:1001D0000D9427190C9430BD0C9480E90C941B18D5
:1001E0000C94B9E90C94A3130C94113F0C949DBD8D
:1001F0000C945FB10C9425B10C940C240C94F589EB
:100200000C9484B60C94AAE90C94A2A00C94D29FEE
:100210000C9498290C94F8BC0D94A1200C946BE9D3
:100220000C9457A70C9472AE0C94B9B50C94C12CD5
:100230000C9402240C9483E90C9449B10C9431AAD7
:100240000C94E91E0C9414B20C9449C50C94C22A67
:100250000C94ECBD0C9435C00C9434610C94A7E95B
:100260000C94A1E90C945EA00C94F9AE0C9457B6D2
:100270000C9451520C941F3C0C948CE90D949720D3
:100280000C94D0E80C94C1B50C942B250C9426E862
:100290000C94C1A50C940F260C9417A20C9469B46D
:1002A0000C94EC9F0C940FE80C94BD110C9433AF9C
:1002B0000C944EA90C94EBE80C94EB9C0C943A290A
:1002C0000C9464160C9414700C9433A20C94E8E80B
:1002D0000C941BE90C94B2120C9495A10C9429E88F
:1002E0000C94E4BD0C9488B60C9475B30C94C1C105
:1002F0000C94F9A50C9406230C9486E90C9468E9F7
:100300000C940FA00C94D1A50C9492B30C9453C5EB
:100310000C945CB10C94D7790D94D61F0C945FE9C2
:100320000C94AFC00C940CE90C9441C10C94CDE832
:100330000C94B1800C942EB10C94A1BD0C9412E9D4
:100340000C9473C50C9415200C94AEE80C9432E810
:100350000C940FE90C946FBB0C9477E90C94EAA809
:100360000C941EE90C94A5BD0C9401130C94CD784B
:100370000C94B2B00C94D9E80C945FA90C94CDA75E
:100380000C949EE90C940E540C94009D0C94C7E8B8
:100390000C9415E80C94D0190C9456E90C9487BD74
:1003A0000C941BE80C9425A20C9496260C9471A72F
:1003B0000C9416780C94CABD0C94B1600C945BB686
:1003C0000C9442E90C942D5F0C94C0E90C9483CDFD
:1003D0000C94F2560C94861A0C94F1E80D94552066
:1003E0000C9400E90C9453E90C94555B0C94D2E9FD
:1003F0000C942B9F0C9473EA0C948A160C9485CD64
:100400000C949FE80C940ABE0C94CCE90C9451A671
:100410000C947CE80C9469B00C9406CC0C94D988AC
:100420000C94C0EA0C94F7E80C94A0A70C9416BDA9
:100430000C9490A70C9481C10C94DCC00C94AB2458
:100440000C943CC50C94CEB80C9482C00C9422A69B
:100450000D943B200C94DCE80C9439A80C945AE8D9
:100460000C944EE80C9487CD0C9441360C9475C1D5
:100470000D947D1C0C94B9C10C944AE90C94C6E906
:100480000C9424E90C94F65D0D94DF1D0C944FC57B
:100490000C949F7C0C949BB60C9493CD0C946D257E
:1004A0000C943DC10C94095B0C947DC10C949FCCC1
:1004B0000C9432190C94A9C50C94BDC10C94456FD1
:1004C0000C9451C50C945A540C94B3A50C9409E89F
:1004D0000C94A8A80C94FAE80C9454280C948B9EC5
:1004E0000C946A170C943FE90C942DE90C94DFE806
:1004F0000C94C2C50C94069F0C949CA10C9421BC36
:100500000D94F6190C9477800C94C2150C9436E96E
:100510000C9459570C94599F0C94FB3F0C94E4B5E0
:100520000C94D5BB0C94652A0C9495B10C9432EACA
:100530000C948CA80C9493AE0C94C3E90C9478346E
:100540000C94A7B50C9495E90C9409C10C94E15C4A
:100550000C9409E90C94ADE90C9434380C940624FD
:100560000C947FBD0C9481CD0C944EB10C94429FA1
:100570000C949B8D0C9488A70C94B3E90C946B5A43
:100580000C942AA60C94F9BF0C9474E90C9459E9C4
:100590000C94F2CB0C9479C10C94E8BD0C9489CDE9
:1005A0000C94ED9E0C9492B60C94A3A50C94B5C13A
:1005B0000C9462E90C9484150C948CB60C942CA2C7
:1005C0000C9413220C94FDE80C9406E90C94B3A14E
:1005D0000C9405B00C94F6600C946DBC0C9496B61B
:1005E0000C94AF240C9451E80C94C1590C94B0E9CC
:1005F0000C9491CD0C94A49E0C94072A0C94409DCD
:100600000C9412B50C94C9E90C9496AE0C94F32595
:100610000C94E5E80C943CE90C94E3A10C9451A0F3
:100620000C94F2B50C94D7400C9473630C9421CCC9
:100630000C94BDBC0C94BEA00C94A5130C947BBD73
:100640000D9438200C945CE90C947AB60C94F31A4F
:100650000C94AB7D0C9451B60C94BBB00C9450AA86
:100660000C9421E90C94785D0C946EE90C9427E9C4
:100670000C942BB00C9471130C944AA60C94A3A167
:100680000C94879F0C948CA00C94F4C20C944DE9AC
:100690000C949FBC0C94D8530C943BE80C949A296E
:1006A0000C9418CC0C94F3110C94E2100C94BAA591
:1006B0000C9495AF0C94C9AE0C9413C30C9492E9AE
:1006C0000C942FE80C940E240C9457E80C94A4E995
:1006D0000C9402130C944BC50C9494C50C94BBBBA6
:1006E0000C945DA70C9412B10C9438E80C94DBA127
:1006F0000C94C8280C947E270C941ABD0C9423A942
:100700000C940CE80D945C200C9412240C9496CC60
:100710000C9486A10C945DBD0C94881B0C9471E91B
:100720000C9487C50C94E0B40C9435E80C9453BC3D
:100730000C94FEB50C94BCE90C947FCD0C94082469
:100740000C9443A60C94763D0C944A120C94CFE979
:100750000D94981A0C9478A00D949E1B0C94FAAFEB
:100760000C9477BD0C94F1320C941FE80C94037335
:100770000C942CE80C9401A60C94BCB50C94FDCB05
:100780000C94BF9D0C9417A90C94F4E80C94EC27DE
:100790000C944BE80C9462550C943CA90C9442E8E0
:1007A0000C94B6110C9463580C94D0CC0C9437B1C3
:1007B0000D944E190C9466B60C94A8CC0C94B9BC4C
:1007C0000C94E2E80C948E2B0C944C120C94EEAF2B
:1007D0000C949BCD0C94B0100C9463B60C947635AD
:1007E0000C9415E90C948FCD0C9442390C9489E942
:1007F0000C94C3150C9483760C9456C00C949336C9
:100800000C9404A20C9497A00C94861D0C948D7EDD
:100810000C94A4B50C949CAF0C9445E90C94641111
:100820000C94A6E80C9499CD0C9437A00C94E1B1EB
:100830000C947BC50C949DA80C94C9A00C94282BF7
:100840000C945FB60C9431260C94E4360C94BC11D5
:100850000C94ACAE0C94BE610C94B6E90C94902B45
:100860000C94DA250C9445E80C943AAF0C94D0B56E
:100870000C9489720C9448E80C940FCC0C949D57FE
:100880000C949AB60C947CF30C94DEB10C94DD714C
:100890000C9435A60C940CA20C9430E90C949BE9B2
:1008A0000C942DB40C9498E90C9495250C945B3021
:1008B0000C9416710C94D6E80C94F1110C9497CD0D
:1008C0000C941DB20C944BC00C9483BD0C9440B19D
:1008D0000C94E3AB0C9445530C943CA60C948BCD38
:1008E0000C94B5C50C9412E80C9407BC0C949EB9FA
:1008F0000C947AE90C9469EA0C94B0620C94D9CC0B
:100900000C946BA00C9434BD0C9403E90C9495CD1D
:100910000C94A9A50C94A95C0C9462210C94EEE8AB
:100920000C9423E80C94E1CB0C941EA20C94515629
:100930000C9412BD0C9496BF0C94E4580C94A673BE
:100940000C9433E90C947A700C9491B60C9447C5CE
:100950000A5061676520686173206E6F742062655C
:10096000656E20696D706C656D656E746564207967
:100970006574000A326E642049676E6974696F6E2F
:10098000204D6170000A326E64204675656C204D02
:100990006170000A50616765203920436667000A6C
:1009A0005472696D2031205461626C65000A56569C
:1009B00054204D6170000A426F6F7374204D617056
:1009C000000A5067203620436F6E666967000A414F
:1009D0004652204D6170000A5067203420436667FC
:1009E000000A49676E6974696F6E204D6170000A74
:1009F0005067203220436667000A5645204D6170DB
:100A0000004572723A20556E6B6E6F776E20636D83
:100A100064000A3D3D3D436F6D6D616E6420486525
:100A20006C703D3D3D0A0A416C6C20636F6D6D61D9
:100A30006E6473206172652073696E676C652063F4
:100A4000686172616374657220616E6420617265B1
:100A500020636F6E636174656E617465642077698D
:100A6000746820746865697220706172616D657464
:100A7000657273200A776974686F7574207370618A
:100A80006365732E53796E7461783A20203C636FEE
:100A90006D6D616E643E2B3C706172616D65746555
:100AA00072313E2B3C706172616D65746572323ECD
:100AB0002B3C706172616D657465724E3E0A0A3D31
:100AC0003D3D4C697374206F6620436F6D6D616EA0
:100AD00064733D3D3D0A0A41202D20446973706CCA
:100AE000617973203331206279746573206F6620D9
:100AF00063757272656E7453746174757320766178
:100B00006C75657320696E2062696E617279202848
:100B10006C6976652064617461290A42202D204247
:100B200075726E2063757272656E74206D617020CF
:100B3000616E6420636F6E666967506167652076D9
:100B4000616C75657320746F20656570726F6D0AD6
:100B500043202D205465737420434F4D20706F72D5
:100B6000742E2020557365642062792054756E655B
:100B70007273747564696F20746F20736565207774
:100B800068657468657220616E20454355206973FD
:100B9000206F6E206120676976656E2073657269CB
:100BA000616C200A20202020706F72742E20526504
:100BB0007475726E7320612062696E617279206E45
:100BC000756D6265722E0A4E202D205072696E740A
:100BD000206E6577206C696E652E0A50202D20539B
:100BE00065742063757272656E7420706167652E1E
:100BF000202053796E7461783A2020502B3C70612C
:100C000067654E756D6265723E0A52202D205361F4
:100C10006D65206173204120636F6D6D616E640AA4
:100C200053202D20446973706C6179207369676E5D
:100C30006174757265206E756D6265720A51202D42
:100C40002053616D65206173205320636F6D6D616A
:100C50006E640A56202D20446973706C6179206D92
:100C60006170206F7220636F6E666967506167659F
:100C70002076616C75657320696E2062696E6172A1
:100C8000790A57202D20536574206F6E6520627994
:100C9000746520696E206D6170206F7220636F6EC5
:100CA000666967506167652E2020457870656374BA
:100CB000732062696E61727920706172616D657412
:100CC0006572732E200A2020202053796E7461787B
:100CD0003A2020572B3C6F66667365743E2B3C6E42
:100CE0006577627974653E0A74202D2053657420FF
:100CF00063616C6962726174696F6E2076616C7594
:100D000065732E2020457870656374732062696E68
:100D100061727920706172616D65746572732E20E5
:100D2000205461626C6520696E6465782069732067
:100D300065697468657220302C200A2020202031DB
:100D40002C206F7220322E202053796E7461783AF5
:100D50002020742B3C74626C655F6964783E2B3C88
:100D60006E657756616C7565313E2B3C6E657756C6
:100D7000616C7565323E2B3C6E657756616C7565AE
:100D80004E3E0A5A202D20446973706C61792063AD
:100D9000616C6962726174696F6E2076616C7565F1
:100DA000730A54202D20446973706C61797320326A
:100DB000353620746F6F7468206C6F6720656E74B1
:100DC0007269657320696E2062696E6172790A7258
:100DD000202D20446973706C617973203235362080
:100DE000746F6F7468206C6F6720656E74726965CC
:100DF000730A55202D205072657061726520666FF0
:100E000072206669726D77617265207570646174B5
:100E1000652E20546865206E65787420627974654B
:100E20002072656365697665642077696C6C206300
:100E300061757365207468652041726475696E6FB1
:100E400020746F2072657365742E0A3F202D204434
:100E50006973706C61797320746869732068656C5C
:100E6000702070616765002C2000575545004F3297
:100E700000496E6C65742074656D7000436F6F6C13
:100E8000616E7400526573657420636F6E74726F67
:100E90006C2069732063757272656E746C7920645E
:100EA000697361626C65642E00436F6D6D732068B9
:100EB000616C7465642E204E657874206279746567
:100EC0002077696C6C207265736574207468652086
:100ED00041726475696E6F2E005370656564756943
:100EE0006E6F20323032322E30320073706565649E
:100EF00075696E6F2032303232303200303031005E
:100F000020002000200020002020202000526573B7
:100F1000657420636F6E74726F6C206973206375E3
:100F20007272656E746C792064697361626C656459
:100F30002E00436F6D6D732068616C7465642E20A4
:100F40004E65787420627974652077696C6C2072C4
:100F500065736574207468652041726475696E6F8D
:100F60002E00000080002001200180002001800070
:100F7000F0008001C000C0002001C00080002001FE
:100F8000040E11191B20292B2D2F31333537393BF6
:100F90003D3F414345474B4D4F515557595D616664
:100FA0006D7700000000963007772C610EEEBA5185
:100FB000099919C46D078FF46A7035A563E9A39583
:100FC000649E3288DB0EA4B8DC791EE9D5E088D9AE
:100FD000D2972B4CB609BD7CB17E072DB8E7911D89
:100FE000BF906410B71DF220B06A4871B9F3DE41BA
:100FF000BE847DD4DA1AEBE4DD6D51B5D4F4C78537
:10100000D38356986C13C0A86B647AF962FDECC95F
:10101000658A4F5C0114D96C0663633D0FFAF50DC8
:10102000088DC8206E3B5E10694CE44160D572713A
:1010300067A2D1E4033C47D4044BFD850DD26BB5C8
:101040000AA5FAA8B5356C98B242D6C9BBDB40F9FF
:10105000BCACE36CD832755CDF45CF0DD6DC593DB6
:10106000D1ABAC30D9263A00DE518051D7C81661D9
:10107000D0BFB5F4B42123C4B3569995BACF0FA508
:10108000BDB89EB802280888055FB2D90CC624E90D
:101090000BB1877C6F2F114C6858AB1D61C13D2D82
:1010A00066B69041DC760671DB01BC20D2982A102E
:1010B000D5EF8985B1711FB5B606A5E4BF9F33D4BE
:1010C000B8E8A2C9077834F9000F8EA809961898D5
:1010D0000EE1BB0D6A7F2D3D6D08976C6491015C3C
:1010E00063E6F4516B6B62616C1CD83065854E0011
:1010F00062F2ED95066C7BA5011BC1F4088257C412
:101100000FF5C6D9B06550E9B712EAB8BE8B7C8836
:10111000B9FCDF1DDD62492DDA15F37CD38C654CFB
:10112000D4FB5861B24DCE51B53A7400BCA3E23045
:10113000BBD441A5DF4AD795D83D6DC4D1A4FBF4FB
:10114000D6D36AE96943FCD96E34468867ADD0B816
:1011500060DA732D0444E51D03335F4C0AAAC97C91
:101160000DDD3C710550AA41022710100BBE8620F0
:101170000CC925B56857B3856F2009D466B99FE4BB
:1011800061CE0EF9DE5E98C9D9292298D0B0B4A8F4
:10119000D7C7173DB359810DB42E3B5CBDB7AD6CBD
:1011A000BAC02083B8EDB6B3BF9A0CE2B6039AD2A8
:1011B000B1743947D5EAAF77D29D1526DB04831683
:1011C000DC73120B63E3843B64943E6A6D0DA85A92
:1011D0006A7A0BCF0EE49DFF099327AE000AB19EF9
:1011E000077D44930FF0D2A3088768F2011EFEC268
:1011F00006695D5762F7CB67658071366C19E70643
:101200006B6E761BD4FEE02BD3895A7ADA10CC4A67
:10121000DD676FDFB9F9F9EFBE8E43BEB717D58E24
:10122000B060E8A3D6D67E93D1A1C4C2D83852F21A
:10123000DF4FF167BBD16757BCA6DD06B53F4B3624
:10124000B248DA2B0DD84C1B0AAFF64A0336607A47
:101250000441C3EF60DF55DF67A8EF8E6E3179BEC2
:1012600069468CB361CB1A8366BCA0D26F2536E287
:10127000685295770CCC03470BBBB91602222F2678
:101280000555BE3BBAC5280BBDB2925AB42B046AB1
:10129000B35CA7FFD7C231CFD0B58B9ED92C1DAE82
:1012A000DE5BB0C2649B26F263EC9CA36A750A9372
:1012B0006D02A906099C3F360EEB8567077213572E
:1012C0000005824ABF95147AB8E2AE2BB17B381B79
:1012D000B60C9B8ED2920DBED5E5B7EFDC7C21DF3C
:1012E000DB0BD4D2D38642E2D4F1F8B3DD686E834F
:1012F000DA1FCD16BE815B26B9F6E177B06F77476E
:10130000B718E65A0888706A0FFFCA3B06665C0B7E
:101310000111FF9E658F69AE62F8D3FF6B6145CF07
:101320006C1678E20AA0EED20DD75483044EC2B3F5
:101330000339612667A7F71660D04D476949DB7707
:101340006E3E4A6AD1AEDC5AD6D9660BDF40F03B1E
:10135000D83753AEBCA9C59EBBDE7FCFB247E9FFED
:10136000B5301CF2BDBD8AC2BACA3093B353A6A32E
:10137000B4240536D0BA9306D7CD2957DE54BF67BB
:10138000D9232E7A66B3B84A61C4021B685D942BD8
:101390006F2A37BE0BB4A18E0CC31BDF055A8DEF2D
:1013A000022D0000000041311B1982623632C35306
:1013B0002D2B04C56C6445F4777D86A75A56C796D5
:1013C000414F088AD9C849BBC2D18AE8EFFACBD9C4
:1013D000F4E30C4FB5AC4D7EAEB58E2D839ECF1C85
:1013E00098875112C24A1023D953D370F47892418E
:1013F000EF6155D7AE2E14E6B537D7B5981C968455
:10140000830559981B8218A9009BDBFA2DB09ACB53
:1014100036A95D5D77E61C6C6CFFDF3F41D49E0E04
:101420005ACDA2248495E3159F8C2046B2A76177FC
:10143000A9BEA6E1E8F1E7D0F3E82483DEC365B2F4
:10144000C5DAAAAE5D5DEB9F464428CC6B6F69FDA3
:101450007076AE6B3139EF5A2A202C09070B6D38A4
:101460001C12F33646DFB2075DC6715470ED30656D
:101470006BF4F7F32ABBB6C231A275911C8934A074
:101480000790FBBC9F17BA8D840E79DEA92538EF33
:10149000B23CFF79F373BE48E86A7D1BC5413C2A24
:1014A000DE58054F79F0447E62E9872D4FC2C61C95
:1014B00054DB018A159440BB0E8D83E823A6C2D964
:1014C00038BF0DC5A0384CF4BB218FA7960ACE9625
:1014D0008D130900CC5C4831D7458B62FA6ECA5334
:1014E000E177545DBBBA156CA0A3D63F8D88970EEB
:1014F00096915098D7DE11A9CCC7D2FAE1EC93CBE4
:10150000FAF55CD762721DE6796BDEB554409F84B4
:101510004F5958120E161923150FDA7038249B41B3
:10152000233DA76BFD65E65AE67C2509CB57643859
:10153000D04EA3AE9101E29F8A1821CCA73360FD63
:10154000BC2AAFE124ADEED03FB42D83129F6CB224
:101550000986AB2448C9EA1553D029467EFB687733
:1015600065E2F6793F2FB7482436741B091D352AEA
:101570001204F2BC534BB38D485270DE657931EFE3
:101580007E60FEF3E6E7BFC2FDFE7C91D0D53DA0B4
:10159000CBCCFA368A83BB07919A7854BCB13965B3
:1015A000A7A84B98833B0AA99822C9FAB50988CB0A
:1015B000AE104F5DEF5F0E6CF446CD3FD96D8C0ED3
:1015C000C27443125AF3022341EAC1706CC18041D4
:1015D00077D847D7369706E62D8EC5B500A5848403
:1015E0001BBC1A8A41715BBB5A6898E87743D9D90A
:1015F0006C5A1E4F2D155F7E360C9C2D1B27DD1C53
:10160000003E120098B9533183A09062AE8BD15343
:10161000B59216C5F4DD57F4EFC494A7C2EFD59682
:10162000D9F6E9BC07AEA88D1CB76BDE319C2AEF5A
:101630002A85ED796BCAAC4870D36F1B5DF82E2AF2
:1016400046E1E136DE66A007C57F6354E8542265B3
:10165000F34DE5F3B202A4C2A91B6791843026A022
:101660009F29B8AEC5E4F99FDEFD3ACCF3D67BFDE9
:10167000E8CFBC6BA980FD5AB2993E099FB27F3872
:1016800084ABB0241C2CF115073532462A1E737723
:101690003107B4E17048F5D06B513683467A77B2A2
:1016A0005D634ED7FACB0FE6E1D2CCB5CCF98D8491
:1016B000D7E04A1296AF0B238DB6C870A09D894122
:1016C000BB84465D2303076C381AC43F1531850E71
:1016D0000E2842984F6703A9547EC0FA795581CBF2
:1016E000624C1FC538815EF423989DA70EB3DC962B
:1016F00015AA1B0054E55A314FFC996262D7D853A2
:1017000079CE174FE149567EFA50952DD77BD41CE0
:10171000CC62138A8D2D52BB963491E8BB1FD0D971
:10172000A006ECF37E5EADC265476E91486C2FA0BB
:101730005375E836123AA90709236A5424082B6521
:101740003F11E479A796A548BC8F661B91A4272A70
:101750008ABDE0BCCBF2A18DD0EB62DEFDC023EFF1
:10176000E6D9BDE1BC14FCD0A70D3F838A267EB22A
:10177000913FB924D070F815CB693B46E6427A77A1
:10178000FD5BB56B65DCF45A7EC5370953EE7638E0
:1017900048F7B1AE09B8F09F12A133CC3F8A72FD71
:1017A000249300000000376AC2016ED4840359BE3E
:1017B0004602DCA80907EBC2CB06B27C8D04851675
:1017C0004F05B851130E8F3BD10FD685970DE1EF22
:1017D000550C64F91A095393D8080A2D9E0A3D47FF
:1017E0005C0B70A3261C47C9E41D1E77A21F291D90
:1017F000601EAC0B2F1B9B61ED1AC2DFAB18F5B559
:101800006919C8F23512FF98F713A626B111914C49
:101810007310145A3C152330FE147A8EB8164DE41A
:101820007A17E0464D38D72C8F398E92C93BB9F8DC
:101830000B3A3CEE443F0B84863E523AC03C655026
:10184000023D58175E366F7D9C3736C3DA3501A9E5
:10185000183484BF5731B3D59530EA6BD332DD01EC
:10186000113390E56B24A78FA925FE31EF27C95BC3
:101870002D264C4D62237B27A0222299E62015F3CA
:10188000242128B4782A1FDEBA2B4660FC29710A6D
:101890003E28F41C712DC376B32C9AC8F52EADA248
:1018A000372FC08D9A70F7E75871AE591E73993370
:1018B000DC721C2593772B4F517672F11774459B80
:1018C000D57578DC897E4FB64B7F16080D7D216279
:1018D000CF7CA4748079931E4278CAA0047AFDCA92
:1018E000C67BB02EBC6C87447E6DDEFA386FE99003
:1018F000FA6E6C86B56B5BEC776A025231683538EC
:10190000F369087FAF623F156D6366AB2B6151C110
:10191000E960D4D7A665E3BD6464BA0322668D6925
:10192000E06720CBD74817A115494E1F534B797557
:10193000914AFC63DE4FCB091C4E92B75A4CA5DD91
:10194000984D989AC446AFF00647F64E4045C124DC
:1019500082444432CD4173580F402AE649421D8CDF
:101960008B435068F154670233553EBC755709D616
:10197000B7568CC0F853BBAA3A52E2147C50D57EBD
:10198000BE51E839E25ADF53205B86ED6659B187D4
:10199000A4583491EB5D03FB295C5A456F5E6D2FB3
:1019A000AD5F801B35E1B771F7E0EECFB1E2D9A5AD
:1019B00073E35CB33CE66BD9FEE73267B8E5050D2F
:1019C0007AE4384A26EF0F20E4EE569EA2EC61F44A
:1019D00060EDE4E22FE8D388EDE98A36ABEBBD5C3D
:1019E00069EAF0B813FDC7D2D1FC9E6C97FEA90638
:1019F00055FF2C101AFA1B7AD8FB42C49EF975AE1B
:101A00005CF848E900F37F83C2F2263D84F0115769
:101A100046F1944109F4A32BCBF5FA958DF7CDFF50
:101A20004FF6605D78D95737BAD80E89FCDA39E3BA
:101A30003EDBBCF571DE8B9FB3DFD221F5DDE54BDC
:101A400037DCD80C6BD7EF66A9D6B6D8EFD481B205
:101A50002DD504A462D033CEA0D16A70E6D35D1A2E
:101A600024D210FE5EC527949CC47E2ADAC6494063
:101A700018C7CC5657C2FB3C95C3A282D3C195E888
:101A800011C0A8AF4DCB9FC58FCAC67BC9C8F11185
:101A90000BC9740744CC436D86CD1AD3C0CF2DB982
:101AA00002CE4096AF9177FC6D902E422B92192872
:101AB000E9939C3EA696AB546497F2EA2295C580C2
:101AC000E094F8C7BC9FCFAD7E9E9613389CA17959
:101AD000FA9D246FB598130577994ABB319B7DD148
:101AE000F39A3035898D075F4B8C5EE10D8E698BE3
:101AF000CF8FEC9D808ADBF7428B82490489B52326
:101B0000C68888649A83BF0E5882E6B01E80D1DAF8
:101B1000DC8154CC938463A651853A1817870D72E3
:101B2000D586A0D0E2A997BA20A8CE0466AAF96EFD
:101B3000A4AB7C78EBAE4B1229AF12AC6FAD25C6CF
:101B4000ADAC1881F1A72FEB33A6765575A4413FB4
:101B5000B7A5C429F8A0F3433AA1AAFD7CA39D9799
:101B6000BEA2D073C4B5E71906B4BEA740B689CDEE
:101B700082B70CDBCDB23BB10FB3620F49B15565F3
:101B80008BB06822D7BB5F4815BA06F653B8319CB4
:101B900091B9B48ADEBC83E01CBDDA5E5ABFED3475
:101BA00098BE000000006567BCB88BC809AAEEAFFC
:101BB000B5125797628F32F0DE37DC5F6B25B9388C
:101BC000D79DEF28B4C58A4F087D64E0BD6F0187BB
:101BD00001D7B8BFD64ADDD86AF23377DFE05610B6
:101BE00063589F571950FA30A5E8149F10FA71F8FE
:101BF000AC42C8C07BDFADA7C76743087275266FCC
:101C0000CECD707FAD951518112DFBB7A43F9ED09A
:101C1000188727E8CF1A428F73A2AC20C6B0C947F5
:101C20007A083EAF32A05BC88E18B5673B0AD00079
:101C300087B26938502F0C5FEC97E2F0598587978F
:101C4000E53DD1878665B4E03ADD5A4F8FCF3F2816
:101C500033778610E4EAE37758520DD8ED4068BF39
:101C600051F8A1F82BF0C49F97482A30225A4F57B9
:101C70009EE2F66F497F9308F5C77DA740D518C04F
:101C8000FC6D4ED09F352BB7238DC518969FA07F36
:101C90002A271947FDBA7C204102928FF410F7E8F9
:101CA00048A83D58149B583FA823B6901D31D3F740
:101CB000A1896ACF76140FA8CAACE1077FBE846001
:101CC000C306D270A05EB7171CE659B8A9F43CDF72
:101CD000154C85E7C2D1E0807E690E2FCB7B6B4827
:101CE00077C3A20F0DCBC768B17329C704614CA09D
:101CF000B8D9F5986F4490FFD3FC7E5066EE1B3741
:101D0000DA564D27B90E284005B6C6EFB0A4A38811
:101D10000C1C1AB0DB817FD767399178D22BF41F66
:101D20006E9303F7263B66909A83883F2F91ED5878
:101D30009329546044B43107F80CDFA84D1EBACF84
:101D4000F1A6ECDF92FE89B82E4667179B5402700D
:101D500027ECBB48F071DE2F4CC93080F9DB55E72A
:101D600045639CA03F6BF9C783D3176836C1720FD8
:101D70008A79CB375DE4AE50E15C40FF544E259844
:101D8000E8F673888BAE16EF3716F84082049D276D
:101D90003EBC241FE92141785599AFD7E08BCAB0EA
:101DA0005C333BB659ED5ED1E555B07E5047D51951
:101DB000ECFF6C213B62094687DAE7E932C8828E84
:101DC0008E70D49EED28B1F951905F56E4823A317D
:101DD000583A83098FA7E66E331F08C1860D6DA69A
:101DE0003AB5A4E140BDC186FC052F2949174A4EEA
:101DF000F5AFF376223296119E8A78BE2B981DD9C4
:101E000097204BC9F4782EAE48C0C001FDD2A5661C
:101E1000416A1C5E96F779392A4F97969F5DF2F1D9
:101E200023E505196B4D607ED7F58ED162E7EBB6E1
:101E3000DE5F528E09C237E9B57AD9460068BC2107
:101E4000BCD0EA31DF888F56633061F9D622049E18
:101E50006A9ABDA6BD07D8C101BF366EB4AD53099D
:101E600008159A4E721DFF29CEA511867BB774E125
:101E7000C70FCDD91092A8BEAC2A461119382376C7
:101E8000A5807566C6D810017A60FEAECF729BC978
:101E900073CA22F1A457479618EFA939ADFDCC5E5D
:101EA000114506EE4D766389F1CE8D2644DCE8417E
:101EB000F86451792FF9341E9341DAB12653BFD615
:101EC0009AEBE9C6F9B38CA1450B620EF0190769CC
:101ED0004CA1BE519B3CDB3627843599929650FE2F
:101EE0002E2E99B95426FCDEE89E12715D8C771671
:101EF000E134CE2E36A9AB498A1145E63F03208155
:101F000083BB7691E0E313F65C5BFD59E949983EAB
:101F100055F12106826C44613ED4AACE8BC6CFA96E
:101F2000377E38417FD65D26C36EB389767CD6EE88
:101F3000CAC46FD61D590AB1A1E1E41E14F3817918
:101F4000A84BD769CB13B20E77AB5CA1C2B939C627
:101F50007E0180FEA99CE59915240B36A0366E51B2
:101F60001C8EA7166686C271DA3E2CDE6F2C49B92C
:101F7000D394F081040995E6B8B17B490DA31E2ED8
:101F8000B11B483ED2432D596EFBC3F6DBE9A69147
:101F900067511FA9B0CC7ACE0C749461B966F10672
:101FA00005DE00002100240027002A002D0030005B
:101FB000330001010000040107010A0100002200B2
:101FC000250028002B002E00310034000201000003
:101FD000050108010B010000200023002600290054
:101FE0002C002F003200000100000301060109014E
:101FF00005050505070508080808020202020A0A85
:1020000008080404040401010101010101010303A2
:10201000030303030303040707070C0C0C0C0C0C4D
:102020000C0C0202020206060606060606060B0B4A
:102030000B0B0B0B0B0B010210202008081020408B
:10204000102040800201020108040201010204087C
:10205000102040808040201008040201800402010A
:102060008040201008040201080402010102040853
:1020700010204080010204081020408000000A0B5C
:1020800002090C0D0E080703040100000000000007
:102090000000000000000000000000000000000040
:1020A00000000000000000001211100000000000FD
:1020B0000000000000000000000000000000000020
:1020C0000000537065656475696E6F0053706565D7
:1020D0006475696E6F20323031392E30382D73655A
:1020E0007200537065656475696E6F206373783034
:1020F000323031392E3800007CF311241FBECFEF6F
:10210000D1E2DEBFCDBF00E00CBF12E0A0E0B2E044
:10211000E6E2FFE402E00BBF02C007900D92AE3989
:10212000B107D9F72FE1AEE9B2E001C01D92A634A4
:10213000B207E1F710E1CDE7D0E100E006C021975A
:102140000109802FFE010F940E27CC37D10780E0C4
:102150000807A9F70E9442F60D9491270C940000FD
:102160008091300A9091310A20910C1C30910D1C05
:10217000821B930B2091190230911A028217930748
:102180009CF0821B930B0197843B910590F082E0B9
:1021900090E09093C9028093C80281E090E0909310
:1021A000C7028093C602089597FFEDCF820F931F59
:1021B000EACF81E090E09093C9028093C80282E068
:1021C00090E0EDCF20911B1C8091181C8C718C30FD
:1021D00021F48091111C322F81FD30E0E0910C1C24
:1021E000F0910D1C6091250A7091260A8091300AA9
:1021F0009091310A8E1B9F0B0F944126230F33279A
:10220000331F261737070CF046C0621B730B709301
:10221000C9026093C8026091250A7091260A8091D4
:10222000D4029091D5028E1B9F0B0F944126261746
:102230003707C4F5621B730B7093C7026093C60225
:102240006091250A7091260A8091D2029091D30262
:102250008E1B9F0B0F944126261737074CF5621BE8
:10226000730B7093C5026093C4026091250A70914C
:10227000260A8091D0029091D1028E1B9F0B0F9461
:10228000412626173707D4F4621B730B7093C302E1
:102290006093C2020895161617060CF4B8CF620FA9
:1022A000731FB5CF161617063CF2620F731FC4CF0B
:1022B00016161706B4F2620F731FD3CF1616170641
:1022C0002CF3620F731FE2CF8091B60A807F8034B7
:1022D00079F58091181C8C718C30C9F488E090E0FD
:1022E0009093C9028093C80282E090E09093C70265
:1022F0008093C60284E090E09093C5028093C4026C
:1023000086E090E09093C3028093C202089524E097
:1023100030E03093C9022093C80282E090E09093AD
:10232000C7028093C6023093C5022093C402EACF4D
:10233000803661F78091181C8C718C3079F286E0C0
:1023400090E09093C9028093C80282E090E090935D
:10235000C7028093C60224E030E0E5CF1092F9096D
:102360001092F80981E08093AE02089508951092CA
:10237000F9091092F8090895089580917D1D811141
:102380000EC01092F9091092F80981E080937D1D2A
:1023900083E080932B0B81E08093AE0208958091BF
:1023A000121C87FF05C01092F9091092F809F0CFAE
:1023B0008091EB1D9091EC1DA091ED1DB091EE1D53
:1023C00084369105A105B10530F78091F809909107
:1023D000F9098D9701F31092F9091092F809DBCFF2
:1023E0000895089508958091AF1D9091181C9C71D7
:1023F0009C3091F58A30CCF088E090E09093C9024F
:102400008093C80282E090E09093C7028093C60256
:1024100084E090E09093C5028093C40286E090E04F
:102420009093C3028093C20208951816ECF781E0DE
:1024300090E09093C9028093C80283E090E090936B
:10244000C7028093C60285E090E09093C502809316
:10245000C40287E090E0E4CF8A308CF024E030E0E2
:102460003093C9022093C80282E090E09093C702A3
:102470008093C6023093C5022093C402D1CF1816B0
:102480009CF621E030E03093C9022093C80283E03B
:1024900090E0ECCF089508958091300A9091310A30
:1024A00020910C1C30910D1CAC0144505109241793
:1024B00035070CF04BC0821B930B97FD0196959549
:1024C000879504979093C9028093C8028091D402A3
:1024D0009091D502AC014450510924173507CCF531
:1024E000821B930B97FD0196959587950497909382
:1024F000C7028093C6028091D2029091D302AC01B0
:1025000044505109241735073CF5821B930B97FD66
:1025100001969595879504979093C5028093C40280
:102520008091D0029091D102AC01445051092417FE
:102530003507ACF4821B930B97FD01969595879513
:1025400004979093C3028093C202089580539D4FD5
:10255000B2CF80539D4FC4CF80539D4FD6CF805371
:102560009D4FE8CF9091AF1D8091181C8C718C30DD
:1025700081F59A30CCF08CE090E09093C902809382
:10258000C80283E090E09093C7028093C60286E081
:1025900090E09093C5028093C40289E090E090930C
:1025A000C3028093C202089581E090E09093C90233
:1025B0008093C80284E090E09093C7028093C602A3
:1025C00087E090E09093C5028093C4028AE090E097
:1025D000E6CF9A306CF086E090E09093C902809349
:1025E000C80283E090E09093C7028093C6020895EA
:1025F00081E090E09093C9028093C80284E090E06B
:10260000F2CF089508958091B60A807F803421F535
:102610008091AF1D8A306CF484E290E09093C902FF
:102620008093C80280E190E09093C7028093C60235
:10263000089584311CF483E290E0F0CF8E311CF4D5
:1026400082E290E0EBCF8FE190E09093C90280931B
:10265000C8028DE090E0E8CF803609F041C080915B
:10266000AF1D24E230E08A3024F08431ACF423E260
:1026700030E03093C9022093C80229E030E0309363
:10268000C7022093C6028A3004F587E190E0909358
:10269000C5028093C402089522E230E08E3134F006
:1026A0002FE130E0883214F421E230E03093C902A7
:1026B0002093C80226E030E03093C7022093C60280
:1026C0008E3134F485E190E0E2CF86E190E0DFCF17
:1026D00088321CF484E190E0DACF83E190E0D7CF38
:1026E00008958091AF1D8930CCF481E090E0909303
:1026F000C9028093C80285E090E09093C70280935E
:10270000C60289E090E09093C5028093C4028DE0F8
:1027100090E09093C3028093C202089580E190E01C
:102720009093C9028093C80284E090E09093C7021E
:102730008093C60288E090E09093C5028093C40223
:102740008CE090E0E6CF0C949B8DCF93DF9380914B
:10275000181C8C718C3021F48091111C24E281FDB5
:1027600020E0C0910C1CD0910D1C6091250A709145
:10277000260A8091300A9091310A8C1B9D0B0F9490
:1027800041266150710930E0F901B496E617F70768
:102790000CF08CC06E1B7F0B80910C0490910D048B
:1027A000820F931F8617970730F460910C04709185
:1027B0000D04620F731F7093C9026093C802609189
:1027C000250A7091260A8091D4029091D5028C1B23
:1027D0009D0B0F94412661507109E617F7070CF025
:1027E0006CC06E1B7F0B80910C0490910D04820FC6
:1027F000931F8617970730F460910C0470910D04B5
:10280000620F731F7093C7026093C6026091250A1E
:102810007091260A8091D2029091D3028C1B9D0B5D
:102820000F94412661507109E617F7070CF04CC070
:102830006E1B7F0B80910C0490910D04820F931FEF
:102840008617970730F460910C0470910D04620FA5
:10285000731F7093C5026093C4026091250A709142
:10286000260A8091D0029091D1028C1B9D0B0F946F
:10287000412661507109E617F7076CF56E1B7F0B57
:1028800080910C0490910D04820F931F8617970777
:1028900030F460910C0470910D04620F731F7093FB
:1028A000C3026093C202DF91CF91089516161706F6
:1028B0000CF472CF6E0F7F1F6FCF161617060CF435
:1028C00092CF6E0F7F1F8FCF161617060CF4B2CF64
:1028D0006E0F7F1FAFCF1616170694F26E0F7F1F75
:1028E000CFCF20911B1C8091181C8C718C3021F44F
:1028F0008091111C322F81FD30E0E0910C1CF09191
:102900000D1C6091250A7091260A8091300A9091E1
:10291000310A8E1B9F0B0F94412661507109230FC2
:102920003327331F161617060CF49FC0620F731F50
:10293000CB0141978230910508F49EC042978230C6
:10294000910508F49CC04297029708F49BC0673435
:10295000710514F066E470E07093C9026093C802D8
:102960006091250A7091260A8091D4029091D50237
:102970008E1B9F0B0F944126615071091616170686
:102980000CF483C0620F731FCB0141978230910515
:1029900008F482C042978230910508F480C04297C3
:1029A000029708F47FC06734710514F066E470E0A4
:1029B0007093C7026093C6026091250A7091260A3F
:1029C0008091D2029091D3028E1B9F0B0F944126CF
:1029D00061507109161617060CF467C0620F731F59
:1029E000CB0141978230910508F466C0429782304E
:1029F000910508F464C04297029708F463C06734F5
:102A0000710514F066E470E07093C5026093C4022F
:102A10006091250A7091260A8091D0029091D1028E
:102A20008E1B9F0B0F9441266150710916161706D5
:102A30000CF44BC0620F731FCB014197823091059C
:102A400008F44AC042978230910508F448C0429782
:102A5000029708F447C06734710514F066E470E02B
:102A60007093C3026093C2020895261737070CF0D3
:102A70005FCF621B730B5CCF60E170E06DCF62E2F1
:102A800070E06ACF64E370E067CF261737070CF079
:102A90007BCF621B730B78CF60E170E089CF62E27D
:102AA00070E086CF64E370E083CF261737070CF021
:102AB00097CF621B730B94CF60E170E0A5CF62E209
:102AC00070E0A2CF64E370E09FCF261737070CF0C9
:102AD000B3CF621B730BB0CF60E170E0C1CF62E295
:102AE00070E0BECF64E370E0BBCF8091EB1E8770D7
:102AF0009EEF980F923010F0863029F480916F008D
:102B0000886080936F000895E0910A04F0910B04AF
:102B1000808190910904892371F080917D1D81113C
:102B200011C08DE090E09093F9098093F80981E05D
:102B300080937D1D089580917D1D811115C085E0D4
:102B400090E0F1CF8091F8099091F9090D9759F033
:102B50008091281E8F5F8093281E8DE090E09093D7
:102B6000F9098093F80908958091F8099091F9097D
:102B70000597C9F38091281E8F5F8093281E85E0FA
:102B800090E0EDCF0895CF92DF92EF92FF92809187
:102B90007D1D882309F495C08091300B9091310BF5
:102BA000A091320BB091330B892B8A2B8B2B09F41C
:102BB00088C08091270A9091280AA091290AB09193
:102BC0002A0A892B8A2B8B2B09F47BC08091EB1D61
:102BD0009091EC1DA091ED1DB091EE1D0297A10505
:102BE000B10508F04CC0F8942091300B3091310BB6
:102BF0004091320B5091330B8091270A9091280A13
:102C0000A091290AB0912A0A281B390B4A0B5B0BA9
:102C1000A4EBB0E00F94D0266093720A7093730A0D
:102C20008093740A9093750A7894C090720AD09039
:102C3000730AE090740AF090750A60E077E883E91F
:102C400093E0A70196010F948826C901803526E4F8
:102C5000920720F080917E1D90917F1DCC0CDD1C91
:102C6000EE1CFF1CC0921E02D0921F02E0922002B6
:102C7000F0922102FF90EF90DF90CF900895F894AA
:102C800080911A0490911B04A0911C04B0911D0422
:102C90004091160450911704609118047091190422
:102CA000841B950BA60BB70BB695A79597958795A3
:102CB0008093720A9093730AA093740AB093750A72
:102CC000B3CF90E080E0D6CF8091AF1D82319CF4ED
:102CD00087E090E09093C9028093C80282E090E080
:102CE0009093C7028093C60285E090E09093C5025E
:102CF0008093C402089586E090E09093C902809387
:102D0000C80281E090E09093C7028093C60284E0FD
:102D100090E0ECCF8091B0029091B102A091B2020C
:102D2000B091B3028093330490933404A09335049C
:102D3000B09336040E94CFC26093B4027093B50280
:102D40008093B6029093B7028091B4029091B5023D
:102D5000A091B602B091B7024091300B5091310B67
:102D60006091320B7091330B841B950BA60BB70B44
:102D70008093B0029093B102A093B202B093B302D9
:102D80008091F8099091F90901969093F90980933F
:102D9000F80981E08093AF028091F8099091F909D8
:102DA0000D9749F480917D1D882329F01092F9092F
:102DB0001092F80908958091F8099091F909019706
:102DC00021F480917D1D811131C080913304909157
:102DD0003404A0913504B0913604B695A795979523
:102DE00087958093A6029093A702A093A802B09320
:102DF000A9024091B0025091B1026091B20270916B
:102E0000B3028091A6029091A702A091A802B0916E
:102E1000A902481759076A077B07D8F51092F909E4
:102E20001092F80981E080937D1D089580911A0425
:102E300090911B04A0911C04B0911D048093160472
:102E400090931704A0931804B09319048091B402CE
:102E50009091B502A091B602B091B70280931A0486
:102E600090931B04A0931C04B0931D048091EB1D50
:102E70009091EC1DA091ED1DB091EE1D0196A11D4C
:102E8000B11D8093EB1D9093EC1DA093ED1DB093AD
:102E9000EE1D8091300B9091310BA091320BB091CF
:102EA000330B8093270A9093280AA093290AB093A2
:102EB0002A0A8091B4029091B502A091B602B09115
:102EC000B7028093300B9093310BA093320BB093E9
:102ED000330B08950E94CFC26093BC027093BD0271
:102EE0008093BE029093BF028091BC029091BD027C
:102EF000A091BE02B091BF0240912C0B50912D0BBE
:102F000060912E0B70912F0B841B950BA60BB70BAA
:102F10008093B8029093B902A093BA02B093BB0217
:102F20008091CD1D81FD04C080917D1D81110CC05B
:102F30008CED95E0A0E0B0E080931E0490931F0418
:102F4000A0932004B09321044091B8025091B9029B
:102F50006091BA027091BB028091120490911304A7
:102F6000A0911404B0911504481759076A077B070C
:102F700008F460C08091BC029091BD02A091BE0295
:102F8000B091BF0280932C0B90932D0BA0932E0B2E
:102F9000B0932F0B8091B8029091B902A091BA0220
:102FA000B091BB028093330490933404A093350412
:102FB000B09336048091290B90912A0B019690933F
:102FC0002A0B8093290B8091F8099091F9090197B8
:102FD00089F54091BC025091BD026091BE02709192
:102FE000BF028091300B9091310BA091320BB091C8
:102FF000330B84179507A607B707E0F48091BC024E
:103000009091BD02A091BE02B091BF024091300BE1
:103010005091310B6091320B7091330B841B950BE7
:10302000A60BB70B8093AA099093AB09A093AC09A8
:10303000B093AD0908950E94CFC26093B40270931B
:10304000B5028093B6029093B7028091B40290913A
:10305000B502A091B602B091B7024091300B5091E9
:10306000310B6091320B7091330B841B950BA60BC7
:10307000B70B8093B0029093B102A093B202B093C9
:10308000B3024091B0025091B1026091B2027091CE
:10309000B30280911E0490911F04A0912004B0916E
:1030A0002104481759076A077B0708F4B9C081E073
:1030B0008093AF028091F8099091F909019690935D
:1030C000F9098093F8098091F8099091F90901971D
:1030D00031F08091F8099091F9090597E1F581E0C7
:1030E00090E09093F9098093F80980911A049091E7
:1030F0001B04A0911C04B0911D04809316049093AE
:103100001704A0931804B09319048091B40290910D
:10311000B502A091B602B091B70280931A049093C1
:103120001B04A0931C04B0931D0481E080937D1DBB
:103130008091EB1D9091EC1DA091ED1DB091EE1DC5
:103140000196A11DB11D8093EB1D9093EC1DA093E2
:10315000ED1DB093EE1D80917D1D882309F460C0A4
:103160008091CD1D81FF0DC08091181C87FF09C083
:103170008091F8099091F909019709F052C00E94D5
:10318000CABD8091F8099091F909019709F453C0DB
:103190008091F8099091F909039709F44CC08CE6E5
:1031A00090E09093260A8093250A2091B0023091F6
:1031B000B1024091B2025091B302A3E0B0E00F948B
:1031C000D02623E096958795779567952A95D1F730
:1031D00060931E0470931F04809320049093210435
:1031E0008091300B9091310BA091320BB091330B49
:1031F0008093270A9093280AA093290AB0932A0A59
:103200008091B4029091B502A091B602B091B7023C
:103210008093300B9093310BA093320BB093330B10
:1032200008958091F8099091F909039709F0A9CFC1
:103230000E945DBDA6CF88E490E09093260A80931B
:10324000250A8091B0029091B102A091B202B09192
:10325000B30280931E0490931F04A0932004B093A4
:103260002104BECF0E94CFC26093BC027093BD0206
:103270008093BE029093BF028091B8029091B902F0
:10328000A091BA02B091BB028093330490933404AE
:10329000A0933504B09336048091BC029091BD0296
:1032A000A091BE02B091BF0240912C0B50912D0B0A
:1032B00060912E0B70912F0B841B950BA60BB70BF7
:1032C0008093B8029093B902A093BA02B093BB0264
:1032D0008091BC029091BD02A091BE02B091BF024C
:1032E00080932C0B90932D0BA0932E0BB0932F0B50
:1032F00080917D1D811117C08091290B90912A0B1F
:10330000029791F481E090E09093F9098093F80995
:1033100080937D1D8091290B90912A0B01969093AB
:103320002A0B8093290B08958CED95E0A0E0B0E086
:1033300080931E0490931F04A0932004B093210453
:103340008091330490913404A0913504B0913604F7
:10335000B695A795979587958093A6029093A70217
:10336000A093A802B093A9024091B8025091B9026B
:103370006091BA027091BB028091A6029091A7025F
:10338000A091A802B091A902481759076A077B07C4
:1033900008F682E090E090932A0B8093290BBACF35
:1033A0000E94CFC26093BC027093BD028093BE02A4
:1033B0009093BF028091BC029091BD02A091BE0289
:1033C000B091BF0240912C0B50912D0B60912E0BB0
:1033D00070912F0B841B950BA60BB70B8093B80233
:1033E0009093B902A093BA02B093BB028091BC0241
:1033F0009091BD02A091BE02B091BF0280932C0BB0
:1034000090932D0BA0932E0BB0932F0B2091121C99
:10341000322F31708091290B90912A0B892B69F101
:10342000E0910704F09108048081909106048923BB
:1034300091E009F490E0931701F18091F8099091DF
:10344000F9094091290B50912A0B841B90917D1D05
:1034500091114BC09091B60A907F903499F591EFFD
:10346000980F933098F480E190E09093F90980935D
:10347000F80981E080937D1D08958091F80990916D
:10348000F90990932A0B8093290B089595EF980FD3
:10349000933018F486E690E0E8CF99EF980F9330D8
:1034A00018F48CEB90E0E1CF8350833018F482E184
:1034B00091E0DBCF10927D1D8091281E8F5F80935D
:1034C000281E0895903631F483508330F0F48CE751
:1034D00090E0CBCF903831F486508330B0F488E35D
:1034E00090E0C3CF10927D1D089527FF0EC09091EC
:1034F000B60A907F903449F48F50833030F480E1E5
:1035000090E09093F9098093F80908958F929F9223
:10351000AF92BF92CF92DF92EF92FF92CF93DF9361
:10352000F894C090300BD090310BE090320BF090BB
:10353000330B8090270A9090280AA090290AB09017
:103540002A0AC091F809D091F9090E94CFC260936C
:10355000A2027093A3028093A4029093A502789490
:10356000CE010197880F991F20910C1C30910D1CE2
:10357000820F931FA6014819590957FF02C04F5FD8
:103580005F4F55954795052E000C660B770BC09045
:103590009E02D0909F02E090A002F090A1024C15F4
:1035A0005D056E057F0508F40196803D22E09207D7
:1035B00014F0805D9240209102023091030228179E
:1035C000390714F4821B930B97FF02C088599E4F52
:1035D000DF91CF91FF90EF90DF90CF90BF90AF90B1
:1035E0009F908F90089580912B0B882351F08091AC
:1035F0002B0B833031F080912B0B843008F07FC08F
:1036000008950E94CFC26093BC027093BD02809364
:10361000BE029093BF028091BC029091BD02A09126
:10362000BE02B091BF0240912C0B50912D0B6091C6
:103630002E0B70912F0B841B950BA60BB70B809351
:10364000B8029093B902A093BA02B093BB02409122
:10365000B8025091B9026091BA027091BB02809198
:10366000120490911304A0911404B09115048417CE
:103670009507A607B70708F04AC08091BC02909151
:10368000BD02A091BE02B091BF0280932C0B90931B
:103690002D0BA0932E0BB0932F0B8091290B9091A3
:1036A0002A0B019690932A0B8093290B10922B0BD7
:1036B0008091290B90912A0B0297C0F08091B8025B
:1036C0009091B902A091BA02B091BB0222E0B695E6
:1036D000A795979587952A95D1F780931204909393
:1036E0001304A0931404B0931504089510921204C7
:1036F000109213041092140410921504089510925D
:103700002B0B81E090E090932A0B8093290B089576
:10371000CF92DF92EF92FF920E94CFC26093BC02E1
:103720007093BD028093BE029093BF028091BC0251
:103730009091BD02A091BE02B091BF0240912C0BAE
:1037400050912D0B60912E0B70912F0B841B950BBC
:10375000A60BB70B8093B8029093B902A093BA025C
:10376000B093BB0280912C0B90912D0BA0912E0B4E
:10377000B0912F0B892B8A2B8B2BC1F41092B8029E
:103780001092B9021092BA021092BB028091BC0250
:103790009091BD02A091BE02B091BF0280932C0B0C
:1037A00090932D0BA0932E0BB0932F0B4091B8024A
:1037B0005091B9026091BA027091BB0280911204DB
:1037C00090911304A0911404B0911504481759075F
:1037D0006A077B0708F4DEC020912C0B30912D0B7B
:1037E00040912E0B50912F0B80910E0490910F045D
:1037F000A0911004B0911104281B390B4A0B5B0BEC
:10380000A3E0B0E00F94D0269695879577956795BD
:103810006093AA027093AB028093AC029093AD02C6
:1038200080912C0B90912D0BA0912E0BB0912F0B12
:1038300080930E0490930F04A0931004B09311048E
:103840004091B8025091B9026091BA027091BB02E6
:103850008091AA029091AB02A091AC02B091AD020E
:10386000481759076A077B0708F054C08091290B55
:1038700090912A0B059709F44DC08091B802909160
:10388000B902A091BA02B091BB0222E0B695A79509
:10389000979587952A95D1F78093120490931304F6
:1038A000A0931404B09315048091290B90912A0BD6
:1038B000019690932A0B8093290B8091BC029091E2
:1038C000BD02A091BE02B091BF0280932C0B9093D9
:1038D0002D0BA0932E0BB0932F0B8091771E85FF9D
:1038E00059C08091AE02882309F454C08091290BFD
:1038F00090912A0B019709F04DC0E091480AF09190
:10390000490A1995AC01493681E05807A4F0485698
:103910005140F9CF81E090E090932A0B8093290BDE
:103920008093AE02109212041092130410921404A9
:1039300010921504C2CF80917D1E8370823051F5A4
:10394000E091881C9A01220F331FF0E0A0E0B1E063
:10395000AE1BBF0B0F9416276B017C019F01DA0190
:103960000F941E27C60ED71EE81EF91ECD2CDE2C86
:10397000EF2CFF24E7FCFA9488E691E08C199D096E
:1039800020913F1D3091401D821B930B90932E1E62
:1039900080932D1EFF90EF90DF90CF900895CF92EF
:1039A000DF92EF92FF92CF93DF930E94CFC260939A
:1039B000BC027093BD028093BE029093BF028091BF
:1039C000BC029091BD02A091BE02B091BF02409195
:1039D0002C0B50912D0B60912E0B70912F0B841B93
:1039E000950BA60BB70B8093B8029093B902A093E6
:1039F000BA02B093BB024091B8025091B9026091F3
:103A0000BA027091BB028091120490911304A091AC
:103A10001404B0911504481759076A077B0708F486
:103A200047C08091BC029091BD02A091BE02B091AE
:103A3000BF0280932C0B90932D0BA0932E0BB09371
:103A40002F0B80917D1D81115AC00E94CFC26093BF
:103A5000300B7093310B8093320B9093330B0E9499
:103A6000CFC26B017C01C0911B1C2C2F30E050E0B9
:103A700040E060E87DE88BE590E00F945526C21A9F
:103A8000D30AE40AF50AC092270AD092280AE092E3
:103A9000290AF0922A0AD0E0D093F909C093F809D4
:103AA0008091281E8F5F8093281E81E080937D1D6A
:103AB00080911A0490911B04A0911C04B0911D04E4
:103AC00040911604509117046091180470911904E4
:103AD000841B950BA60BB70BB695A7959795879565
:103AE0008093120490931304A0931404B0931504CC
:103AF000DF91CF91FF90EF90DF90CF90089586E017
:103B000090E09093F9098093F809D2CFCF92DF9299
:103B1000EF92FF920F931F938091181C8C718C3041
:103B200029F08091B80A8073803319F50E94CFC2C2
:103B30006093BC027093BD028093BE029093BF025B
:103B4000E0910704F0910804808190910604892394
:103B5000B9F08091BC029091BD02A091BE02B091DB
:103B6000BF0280930D0590930E05A0930F05B093AF
:103B700010051F910F91FF90EF90DF90CF90089567
:103B80008091BC029091BD02A091BE02B091BF0293
:103B900040912C0B50912D0B60912E0B70912F0B9F
:103BA000841B950BA60BB70B8093B8029093B902B8
:103BB000A093BA02B093BB024091B8025091B902EF
:103BC0006091BA027091BB0280911204909113042B
:103BD000A0911404B091150484179507A607B707A0
:103BE00040F680912C0B90912D0BA0912E0BB09153
:103BF0002F0B892B8A2B8B2B09F48FC080910E04FD
:103C000090910F04A0911004B0911104892B8A2B7C
:103C10008B2B09F482C08091290B90912A0B892B60
:103C200049F08091290B90912A0B019690932A0BD1
:103C30008093290B20912C0B30912D0B40912E0B52
:103C400050912F0B80910E0490910F04A0911004BD
:103C5000B0911104C090B802D090B902E090BA02BD
:103C6000F090BB02281B390B4A0B5B0BA3E0B0E0C2
:103C70000F94D0269695879577956795C616D706A3
:103C8000E806F90608F486C040910D0550910E052E
:103C900060910F057091100500912C0B10912D0B68
:103CA00020912E0B30912F0B8091BC029091BD0280
:103CB000A091BE02B091BF02C0900D05D0900E053C
:103CC000E0900F05F0901005401B510B620B730B39
:103CD0008C199D09AE09BF09481759076A077B0768
:103CE00008F043C08091290B90912A0B892BB1F1E8
:103CF0008091290B90912A0B089781F18091290BD3
:103D000090912A0B892B09F040C010921204109256
:103D10001304109214041092150480912C0B9091AE
:103D20002D0BA0912E0BB0912F0B80930E0490932E
:103D30000F04A0931004B09311048091BC029091E1
:103D4000BD02A091BE02B091BF0280932C0B909354
:103D50002D0BA0932E0BB0932F0B0BCF81E090E097
:103D600090932A0B8093290BD0CF8091290B9091AF
:103D70002A0B892B39F08091290B90912A0B0597FA
:103D800009F0BCCF85E090E0EBCF10922A0B1092A7
:103D9000290BBBCF8091290B90912A0B892B09F419
:103DA000BCCF8091B8029091B902A091BA02B091B3
:103DB000BB0222E0B695A795979587952A95D1F7EE
:103DC0008093120490931304A0931404B0931504E9
:103DD000A4CFCF92DF92EF92FF928091181C8C714A
:103DE0008C3031F08091B80A8073803309F0F1C0D3
:103DF0000E94CFC26093BC027093BD028093BE024A
:103E00009093BF028091BC029091BD02A091BE022E
:103E1000B091BF0240912C0B50912D0B60912E0B55
:103E200070912F0B841B950BA60BB70B8093B802D8
:103E30009093B902A093BA02B093BB024091B8022A
:103E40005091B9026091BA027091BB028091120444
:103E500090911304A0911404B09115048417950750
:103E6000A607B70708F0B5C080912C0B90912D0BD9
:103E7000A0912E0BB0912F0B892B8A2B8B2B09F441
:103E800098C08091300B9091310BA091320BB09182
:103E9000330B892B8A2B8B2B09F48BC08091270A3B
:103EA0009091280AA091290AB0912A0A892B8A2B7D
:103EB0008B2B09F47EC02091300B3091310B409157
:103EC000320B5091330B8091270A9091280AA091D0
:103ED000290AB0912A0AC090B802D090B902E090A5
:103EE000BA02F090BB02281B390B4A0B5B0BA3E014
:103EF000B0E00F94D026C616D706E806F90608F4F7
:103F00006DC08091290B90912A0B892BF1F12091A2
:103F1000DC042223D1F180912B0B9091B60A92956B
:103F20009F70882381F0E0912B0B4091290B5091D9
:103F30002A0BF0E0EE0FFF1FE152FB4F6081718111
:103F400064177507B1F010922B0BEDEDF4E081E0F2
:103F50009817D8F04091290B50912A0B62817381F8
:103F60006417750719F43081231769F08F5F329653
:103F7000EFCF80912B0B8F5F80932B0B80912B0BBE
:103F8000981718F481E080932B0B8091290B909166
:103F90002A0B8093DC0481E090E090932A0B8093BD
:103FA000290B109212041092130410921404109210
:103FB00015048091BC029091BD02A091BE02B09107
:103FC000BF0280932C0B90932D0BA0932E0BB093DC
:103FD0002F0BFF90EF90DF90CF9008958091290BE9
:103FE00090912A0B892B29F38091290B90912A0B10
:103FF000019690932A0B8093290B8091B80290919F
:10400000B902A091BA02B091BB0222E0B695A79581
:10401000979587952A95D1F780931204909313046E
:10402000A0931404B0931504C4CF0E94CFC2609330
:10403000BC027093BD028093BE029093BF02809138
:10404000BC029091BD02A091BE02B091BF0240910E
:104050002C0B50912D0B60912E0B70912F0B841B0C
:10406000950BA60BB70B8093B8029093B902A0935F
:10407000BA02B093BB024091B8025091B90260916C
:10408000BA027091BB028091120490911304A09126
:104090001404B0911504481759076A077B0708F400
:1040A000F0C08091BC029091BD02A091BE02B0917F
:1040B000BF0280932C0B90932D0BA0932E0BB093EB
:1040C0002F0B8091290B90912A0B029709F04DC07C
:1040D0008091DC04833009F048C080917D1D8111FE
:1040E00076C00E94CFC26093300B7093310B8093E7
:1040F000320B9093330B0E94CFC26056734E8641B1
:1041000091096093270A7093280A8093290A909353
:104110002A0A80911B1C8150990B9093F909809376
:10412000F80981E080937D1D81E08093AE0280914B
:10413000B0029091B102A091B202B091B30242E0FC
:10414000880F991FAA1FBB1F4A95D1F780931204AD
:1041500090931304A0931404B093150481E090E0AD
:1041600090932A0B8093290B089580917D1D8823BD
:1041700009F456C08091B0029091B102A091B202B0
:10418000B091B3024091B0025091B1026091B2027D
:104190007091B302B695A79597958795840F951F53
:1041A000A61FB71F8093120490931304A0931404C6
:1041B000B09315048091290B90912A0B019690934E
:1041C0002A0B8093290B81E08093DC040895809171
:1041D0001B1C2091F8093091F90990E0AC01415085
:1041E00051094217530791F04091EB1D5091EC1D7E
:1041F0006091ED1D7091EE1D433051056105710513
:1042000028F02091281E2F5F2093281E2091121C39
:1042100027FF8ACF01979093F9098093F80984CFFB
:104220008091F8099091F909039708F4A3CF809140
:10423000290B90912A0B892B09F09CCF0E94CFC2A9
:104240006093300B7093310B8093320B9093330B50
:104250000E94CFC26056734E864191096093270A2F
:104260007093280A8093290A90932A0A81E090E0AB
:104270009093F9098093F8098093AE0280937D1D95
:1042800008958091B0029091B102A091B202B091D4
:10429000B3024091B0025091B1026091B2027091AC
:1042A000B302B695A79597958795840F951FA61F7E
:1042B000B71F8093120490931304A0931404B09337
:1042C000150481CF8091F8099091F909499719F463
:1042D00010927D1D08950E94CFC26093B402709326
:1042E000B5028093B6029093B7028091B402909188
:1042F000B502A091B602B091B7024091300B509137
:10430000310B6091320B7091330B841B950BA60B14
:10431000B70B8093B0029093B102A093B202B09316
:10432000B3028091F8099091F909892B09F05BC0DB
:1043300081E090E09093F9098093F80980911A0444
:1043400090911B04A0911C04B0911D04809316044D
:1043500090931704A0931804B09319048091B402A9
:104360009091B502A091B602B091B70280931A0461
:1043700090931B04A0931C04B0931D048091AE0283
:1043800091E089278093AE0290937D1D8091EB1D73
:104390009091EC1DA091ED1DB091EE1D0196A11D17
:1043A000B11D8093EB1D9093EC1DA093ED1DB09378
:1043B000EE1D8FE090E09093260A8093250A81E01D
:1043C0008093AF028091B4029091B502A091B602A1
:1043D000B091B7028093300B9093310BA093320BC6
:1043E000B093330B08958091F8099091F9090196E3
:1043F0009093F9098093F809A091F809B091F9090F
:10440000E091F809F091F909AA0FBB1FA552BB4F23
:10441000EE0FFF1FE752FB4F8D919C912081318160
:10442000821B930BC8CF80917D1D0E94CFC26093E9
:10443000BC027093BD028093BE029093BF02809134
:10444000BC029091BD02A091BE02B091BF0240910A
:104450002C0B50912D0B60912E0B70912F0B841B08
:10446000950BA60BB70B8093B8029093B902A0935B
:10447000BA02B093BB024091B8025091B902609168
:10448000BA027091BB028091120490911304A09122
:104490001404B0911504481759076A077B0708F4FC
:1044A000B4C08091BC029091BD02A091BE02B091B7
:1044B000BF0280932C0B90932D0BA0932E0BB093E7
:1044C0002F0B91E09093AF024091B8025091B90246
:1044D0006091BA027091BB027695679557954795A2
:1044E00040931204509313046093140470931504C2
:1044F00080917D1D81114BC04CED55E060E070E076
:1045000040931E0450931F04609320047093210471
:104510004091120450911304609114047091150499
:1045200076956795579547954093120450931304D9
:104530006093140470931504E0910A04F0910B0445
:104540002081309109048091B60A807F232361F095
:104550008034A1F42091F8093091F909283031050F
:10456000B1F490937D1D13C0803489F42091F80933
:104570003091F9092530310551F4F3CF803639F403
:104580002091F8093091F9092730310551F3209134
:104590007E1D30917F1D8091171E9091181E281747
:1045A000390720F08091121C87FF2FC080917D1D5C
:1045B000882359F18091B60A807F803431F50E94BA
:1045C000CFC280912B0490912C04A0912D04B09126
:1045D0002E04E0910A04F0910B048081909109046B
:1045E000892399F08091F8099091F9098830910513
:1045F00041F010927D1D8091281E8F5F8093281EB0
:1046000008959093F9098093F8090895CF92DF9265
:10461000EF92FF92CF93DF930E94CFC26093BC02D0
:104620007093BD028093BE029093BF028091BC0242
:104630009091BD02A091BE02B091BF0240912C0B9F
:1046400050912D0B60912E0B70912F0B841B950BAD
:10465000A60BB70B8093B8029093B902A093BA024D
:10466000B093BB024091B8025091B9026091BA0276
:104670007091BB028091120490911304A0911404D4
:10468000B0911504481759076A077B0708F4A5C0BD
:104690008091BC029091BD02A091BE02B091BF0278
:1046A00080932C0B90932D0BA0932E0BB0932F0B7C
:1046B0008091B8029091B902A091BA02B091BB0268
:1046C00032E0B695A795979587953A95D1F780935F
:1046D000120490931304A0931404B09315048091D2
:1046E0007D1D882331F14091EB1D5091EC1D6091AF
:1046F000ED1D7091EE1D8091171C90E0B0E0A0E0E0
:1047000084179507A607B707A0F480911B1C90E0BB
:104710002091F8093091F9098217930709F049C0EF
:104720002091121C27FF3BC09093F9098093F80950
:1047300036C00E94CFC26093300B7093310B8093D0
:10474000320B9093330B0E94CFC26B017C01C0915E
:104750001B1C2C2F30E050E040E060E87DE88BE54A
:1047600090E00F945526C21AD30AE40AF50AC092C3
:10477000270AD092280AE092290AF0922A0AD0E069
:10478000D093F909C093F80910921E0410921F04E7
:10479000109220041092210481E080937D1D81E01D
:1047A0008093AE02DF91CF91FF90EF90DF90CF909A
:1047B00008954091EB1D5091EC1D6091ED1D70919D
:1047C000EE1D433051056105710508F4A9CF209114
:1047D000281E2F5F2093281EA3CF8091720A9091EC
:1047E000730AA091740AB091750AB695A79597952A
:1047F00087958093120490931304A0931404B093AC
:104800001504D0CF88E691E00C94988C0C94022487
:104810000C9402240C9402240C94022480ED92E067
:104820000C94988C8F929F92AF92BF92CF92DF920E
:10483000EF92FF9280917D1D882309F489C08091B9
:104840001D1C24E6829FC001112420917E1D309101
:104850007F1D2817390708F06FC08091300B9091A9
:10486000310BA091320BB091330B892B8A2B8B2B00
:1048700009F46EC08091270A9091280AA091290A14
:10488000B0912A0A892B8A2B8B2B09F461C0F894EA
:104890002091250A3091260A80911A0490911B04D8
:1048A000A0911C04B0911D0440911604509117046E
:1048B0006091180470911904841B950BA60BB70B1B
:1048C0008093720A9093730AA093740AB093750A46
:1048D000C090300BD090310BE090320BF090330B46
:1048E0008091270A9091280AA091290AB0912A0A5A
:1048F000C81AD90AEA0AFB0A7894D90120E83DE8E7
:104900004BE550E00F94DB264B015C01A4E2B0E0E4
:10491000A70196010F94D0269B01AC01C501B401FB
:104920000F948826C901FF90EF90DF90CF90BF9041
:10493000AF909F908F90089588E691E0FF90EF9060
:10494000DF90CF90BF90AF909F908F900C94988CF9
:1049500090E080E0E8CF80ED92E00C94988C80911C
:10496000EB1D9091EC1DA091ED1DB091EE1D892BDA
:104970008A2B8B2B21F080ED92E00C94988C90E0A8
:1049800080E00895CF92DF92EF92FF9280917D1D9B
:10499000882309F45DC020917E1D30917F1D809198
:1049A000171E9091181E2817390708F049C0F8946F
:1049B000E091250AF091260A8091300B9091310BFD
:1049C000A091320BB091330B4091270A5091280AE5
:1049D0006091290A70912A0A841B950BA60BB70BCC
:1049E0008093720A9093730AA093740AB093750A25
:1049F00078942091720A3091730A4091740A509110
:104A0000750AA4E2B0E00F94D0266B017C01C0923D
:104A1000720AD092730AE092740AF092750ADF016A
:104A200020E037E843E953E00F94DB26A701960125
:104A30000F948826C901FF90EF90DF90CF900895E2
:104A400088E691E0FF90EF90DF90CF900C94988CE7
:104A500090E080E0F0CF20917E1D30917F1D80910D
:104A6000171E9091181E2817390790F580910C0495
:104A700090910D0460ED72E00E94F6874091720AF9
:104A80005091730A6091740A7091750A440F551F12
:104A9000661F771F40931E0250931F0260932002EF
:104AA0007093210220910C0430910D044B3458492D
:104AB0006540710560F44BE458E965E070E04093AF
:104AC0001E0250931F0260932002709321020895EA
:104AD00080ED92E00E94988CD1CF80917D1D88233B
:104AE00009F19091111C927040917E1D50917F1D93
:104AF0002091171E3091181E4217530750F48091D1
:104B00001B1C60ED72E0911102C068E671E00C942C
:104B1000F687992321F080ED92E00C94988C88E63A
:104B200091E0FBCF90E080E0089520917E1D3091D0
:104B30007F1D8091171E9091181E28173907B0F518
:104B40009091B60A907F9034D9F48091F8099091B1
:104B5000F909439749F18091F8099091F909409733
:104B600019F18091F8099091F9098297E9F0809103
:104B70002B0A8823C9F068E671E084E20C94F6877A
:104B8000903691F48091F8099091F909099761F0B4
:104B90008091F8099091F9090C9731F08091F8090A
:104BA0009091F909819719F7C901089588E691E074
:104BB0000C94988C80917E1D90917F1D2091171EE2
:104BC0003091181E8217930748F420912B0A222354
:104BD00049F068E671E084E20C94F68788E691E09B
:104BE0000C94988C089580917E1D90917F1D20914A
:104BF000171E3091181E8217930760F42091F80950
:104C00003091F9092130310549F068E671E084E21C
:104C10000C94F68788E691E00C94988C0895809126
:104C20007D1D8823D9F08091F8099091F909892B8D
:104C3000A9F020917E1D30917F1D8091171E9091CB
:104C4000181E2817390730F468E671E080911B1CA4
:104C50000C94F68788E691E00C94988C90E080E0C4
:104C60000895CF92DF92EF92FF92CF93DF93F89463
:104C7000C091F809D091F909C090300BD090310B58
:104C8000E090320BF090330B0E94CFC26093A202EF
:104C90007093A3028093A4029093A50278948091CC
:104CA000250A9091260A9E0121503109289FE00192
:104CB000299FD00D389FD00D112480910C1C90910C
:104CC0000D1CC80FD91F6091A2027091A3028091A0
:104CD000A4029091A5026C197D098E099F09609329
:104CE0009E0270939F028093A0029093A10242E0E3
:104CF0000E944D8D8C0F9D1F803D22E0920714F085
:104D0000805D9240209102023091030228173907FA
:104D100014F4821B930B97FF02C0820F931FDF9145
:104D2000CF91FF90EF90DF90CF9008958F929F9258
:104D3000AF92BF92FF920F931F93CF93DF93F8949C
:104D4000C091F809D091F9098090300B9090310B07
:104D5000A090320BB090330BF090AE020E94CFC205
:104D60006093A2027093A3028093A4029093A50281
:104D70007894209719F4C0911B1CD0E08091250AEB
:104D80009091260A2197C89F8001C99F100DD89F36
:104D9000100D1124C0910C1CD0910D1C6091A20229
:104DA0007091A3028091A4029091A50268197909DB
:104DB0008A099B0960939E0270939F028093A002D0
:104DC0009093A10241E00E944D8D8C0F9D1F800F9A
:104DD000911FFF2011F088599E4F803D22E09207DD
:104DE00014F0805D92402091020230910302281756
:104DF000390714F4821B930B97FF02C0820F931F95
:104E0000DF91CF911F910F91FF90BF90AF909F9036
:104E10008F900895CF92DF92EF92FF92CF93DF931E
:104E2000F894C091F809D091F909C090300BD09056
:104E3000310BE090320BF090330B0E94CFC26093A5
:104E4000A2027093A3028093A4029093A502789487
:104E5000C330D1050CF046C02091250A3091260AB6
:104E60002197C29FC001C39F900DD29F900D112426
:104E7000C0910C1CD0910D1CAA96C80FD91F60912F
:104E8000A2027091A3028091A4029091A5026C19D4
:104E90007D098E099F0960939E0270939F02809303
:104EA000A0029093A10241E00E944D8D8C0F9D1FA6
:104EB000803D22E0920714F0805D92402091020232
:104EC000309103022817390714F4821B930B97FFC4
:104ED00002C088599E4FDF91CF91FF90EF90DF90F5
:104EE000CF900895C330D10531F02091250A30913B
:104EF000260A2297B6CFC0E7D0E0C1CF8F929F920B
:104F0000AF92BF92FF920F931F93CF93DF93F894CA
:104F10000091F8091091F9098090300B9090310BB5
:104F2000A090320BB090330BF090AE020E94CFC233
:104F30006093A2027093A3028093A4029093A502AF
:104F4000789480910C1C90910D1CEC0101151105B9
:104F500049F0000F111FF801E552FB4FC081D181CC
:104F6000C80FD91F6091A2027091A3028091A40280
:104F70009091A502681979098A099B0960939E029C
:104F800070939F028093A0029093A10241E00E943F
:104F90004D8D8C0F9D1FFF2011F088599E4F803D35
:104FA00022E0920714F0805D92402091020230913D
:104FB00003022817390714F4821B930B97FF02C0D2
:104FC00088599E4FDF91CF911F910F91FF90BF9015
:104FD000AF909F908F900895CF92DF92EF92FF92C3
:104FE000CF93DF93F894C091F809D091F909C0905C
:104FF000300BD090310BE090320BF090330B0E94CD
:10500000CFC26093A2027093A3028093A4029093F4
:10501000A50278942091F8093091F90980910C1C2F
:1050200090910D1C232BB1F5EC01CE56DF4F609112
:10503000A2027091A3028091A4029091A5026C1922
:105040007D098E099F0960939E0270939F02809351
:10505000A0029093A10241E00E944D8D8C0F9D1FF4
:10506000803D22E0920714F0805D92402091020280
:10507000309103022817390714F4821B930B97FF12
:1050800002C088599E4FDF91CF91FF90EF90DF9043
:10509000CF900895CC0FDD1FC552DB4F0990D8810A
:1050A000C02DC80FD91FC3CF8F929F92AF92BF92CE
:1050B000FF920F931F93CF93DF93F894C091F80959
:1050C000D091F9098090300B9090310BA090320B69
:1050D000B090330BF090AE020E94CFC26093A20258
:1050E0007093A3028093A4029093A50278942097D2
:1050F00011F4CDE2D0E08091250A9091260A219703
:10510000C89F8001C99F100DD89F100D1124C09118
:105110000C1CD0910D1C6091A2027091A302809191
:10512000A4029091A502681979098A099B096093E4
:105130009E0270939F028093A0029093A10241E08F
:105140000E944D8D8C0F9D1F800F911FFF2011F02D
:1051500088599E4F803D22E0920764F0805D924026
:10516000DF91CF911F910F91FF90BF90AF909F90D3
:105170008F90089520910202309103022817390779
:1051800014F4821B930B97FFEBCF820F931FE8CF92
:10519000CF92DF92EF92FF92CF93DF93F894C0917A
:1051A000F809D091F909C090300BD090310BE09004
:1051B000320BF090330B0E94CFC26093A202709327
:1051C000A3028093A4029093A502789480910C1C72
:1051D00090910D1C209709F03FC02091250A309135
:1051E000260A4BE0429FE001439FD00D1124C80FD7
:1051F000D91F6091A2027091A3028091A4029091A4
:10520000A5026C197D098E099F0960939E02709317
:105210009F028093A0029093A10241E00E944D8DD5
:105220008C0F9D1F803D22E0920714F0805D92401C
:1052300020910202309103022817390714F4821BCF
:10524000930B97FF02C088599E4FDF91CF91FF903B
:10525000EF90DF90CF9008954091250A5091260A53
:105260002197C49F9001C59F300DD49F300D11240C
:10527000E901BDCFCF92DF92EF92FF92CF93DF9300
:10528000F894C091F809D091F909C090300BD090F2
:10529000310BE090320BF090330B0E94CFC2609341
:1052A000A2027093A3028093A4029093A502789423
:1052B000CC0FDD1FC552DB4F0990D881C02D8091E6
:1052C0000C1C90910D1CC80FD91F6091A202709107
:1052D000A3028091A4029091A5026C197D098E0908
:1052E0009F0960939E0270939F028093A002909307
:1052F000A10241E00E944D8D8C0F9D1F803D22E058
:10530000920714F0805D92402091020230910302D6
:105310002817390714F4821B930B97FF02C0885992
:105320009E4FDF91CF91FF90EF90DF90CF90089547
:105330000C943A29CF92DF92EF92FF92CF93DF93B2
:10534000F894C091F809D091F909C090300BD09031
:10535000310BE090320BF090330B0E94CFC2609380
:10536000A2027093A3028093A4029093A502789462
:10537000209719F4C0911B1CD0E02091250A309190
:10538000260A2197C29FC001C39F900DD29F900D06
:1053900011246091101C70E00F944126C0910C1CE8
:1053A000D0910D1CC60FD71F6091A2027091A3026D
:1053B0008091A4029091A5026C197D098E099F0924
:1053C00060939E0270939F028093A0029093A1022B
:1053D00041E00E944D8D8C0F9D1F803D22E0920781
:1053E00014F0805D92402091020230910302281750
:1053F000390714F4821B930B97FF02C088599E4F04
:10540000DF91CF91FF90EF90DF90CF900895CF92F2
:10541000DF92EF92FF92CF93DF93F894C091F80957
:10542000D091F909C090300BD090310BE090320B45
:10543000F090330B0E94CFC26093A2027093A3023C
:105440008093A4029093A5027894CC0FDD1FC552DF
:10545000DB4F0990D881C02D80910C1C90910D1CC0
:10546000C80FD91F6091A2027091A3028091A4027B
:105470009091A5026C197D098E099F0960939E0287
:1054800070939F028093A0029093A10241E00E943A
:105490004D8D8C0F9D1F803D22E0920714F0805DA2
:1054A000924020910202309103022817390714F428
:1054B000821B930B97FF02C0820F931FDF91CF9146
:1054C000FF90EF90DF90CF900895CF92DF92EF9210
:1054D000FF92CF93DF93F894C091F809D091F90926
:1054E000C090300BD090310BE090320BF090330B2A
:1054F0000E94CFC26093A2027093A3028093A40281
:105500009093A5027894CD7F80910C1C90910D1CF6
:105510002197A1F5EC016091A2027091A302809104
:10552000A4029091A5026C197D098E099F096093D0
:105530009E0270939F028093A0029093A10241E08B
:105540000E944D8D8C0F9D1F803D22E0920714F02C
:10555000805D9240209102023091030228173907A2
:1055600014F4821B930B97FF02C088599E4FDF9162
:10557000CF91FF90EF90DF90CF900895EC01C3564C
:10558000DF4FC9CFCF92DF92EF92FF92CF93DF939D
:1055900080917D1D882309F458C0F894C091F809C2
:1055A000D091F909C090300BD090310BE090320BC4
:1055B000F090330B0E94CFC26093A2027093A302BB
:1055C0008093A4029093A5027894CC0FDD1FC5525E
:1055D000DB4F0990D881C02D80910C1C90910D1C3F
:1055E000C80FD91F6091A2027091A3028091A402FA
:1055F0009091A5026C197D098E099F0960939E0206
:1056000070939F028093A0029093A10241E00E94B8
:105610004D8D8C0F9D1F803D22E0920714F0805D20
:10562000924020910202309103022817390714F4A6
:10563000821B930B97FF02C088599E4FDF91CF9139
:10564000FF90EF90DF90CF90089590E080E0F6CF4C
:10565000CF92DF92EF92FF92CF93DF9380917D1DE7
:10566000882309F458C0F894C091F809D091F90939
:10567000C090300BD090310BE090320BF090330B98
:105680000E94CFC26093A2027093A3028093A402EF
:105690009093A5027894CC0FDD1FC552DB4F099083
:1056A000D881C02D80910C1C90910D1CC80FD91F62
:1056B0006091A2027091A3028091A4029091A50230
:1056C0006C197D098E099F0960939E0270939F0259
:1056D0008093A0029093A10242E00E944D8D8C0F16
:1056E0009D1F803D22E0920714F0805D9240209142
:1056F0000202309103022817390714F4821B930B1E
:1057000097FF02C088599E4FDF91CF91FF90EF9095
:10571000DF90CF90089590E080E0F6CF0C94282B96
:105720000F931F938091B0029091B102A091B202A9
:10573000B091B3028093330490933404A093350462
:10574000B09336040E94CFC26093B4027093B50246
:105750008093B6029093B7028091B4029091B50203
:10576000A091B602B091B7024091300B5091310B2D
:105770006091320B7091330B841B950BA60BB70B0A
:105780008093B0029093B102A093B202B093B3029F
:105790008091F8099091F90901969093F909809305
:1057A000F80981E08093AF024091300B5091310BAA
:1057B0006091320B7091330B452B462B472B09F42C
:1057C00083C04091270A5091280A6091290A70915C
:1057D0002A0A452B462B472B09F476C02091F8095D
:1057E0003091F9092830310548F121E030E030935B
:1057F000F9092093F80940911A0450911B04609113
:105800001C0470911D044093160450931704609378
:105810001804709319044091B4025091B50260913C
:10582000B6027091B70240931A0450931B04609320
:105830001C0470931D0480932B0A46C040913304CE
:1058400050913404609135047091360476956795D3
:10585000579547954093A6025093A7026093A802DC
:105860007093A9020091B0021091B1022091B2028E
:105870003091B3024091A6025091A7026091A80214
:105880007091A9020417150726073707A0F623E031
:1058900030E03093F9092093F80980937D1D109230
:1058A0002B0A8091EB1D9091EC1DA091ED1DB09104
:1058B000EE1D0196A11DB11D8093EB1D9093EC1D73
:1058C000A093ED1DB093EE1D8091B80A86FF2BC00A
:1058D0008091F8099091F909039729F12091F8092D
:1058E0003091F90980910C1C90910D1C8A962330FF
:1058F0003105E0F52091F8093091F9096091250A08
:105900007091260A21503109269FA001279F500D32
:10591000369F500D1124840F951F6091F8097091E6
:10592000F9090E9409868091300B9091310BA0916A
:10593000320BB091330B8093270A9093280AA093DF
:10594000290AB0932A0A8091B4029091B502A091DD
:10595000B602B091B7028093300B9093310BA093B5
:10596000320BB093330B1F910F9108952091F809DA
:105970003091F9096091250A7091260A2250310967
:10598000C3CFCF930E94CFC26093B4027093B5028D
:105990008093B6029093B7028091B4029091B502C1
:1059A000A091B602B091B7024091300B5091310BEB
:1059B0006091320B7091330B841B950BA60BB70BC8
:1059C0008093B0029093B102A093B202B093B3025D
:1059D0004091B0025091B1026091B2027091B30255
:1059E00080911E0490911F04A0912004B091210485
:1059F000481759076A077B0768F48091EB1D90915F
:105A0000EC1DA091ED1DB091EE1D892B8A2B8B2BE7
:105A100009F02FC381E08093AF028091B002909192
:105A2000B102A091B202B091B30262E0B695A7951F
:105A3000979587956A95D1F780931E0490931F04DC
:105A4000A0932004B09321048091300B9091310BEE
:105A5000A091320BB091330B8093270A9093280AC0
:105A6000A093290AB0932A0A8091B4029091B502BA
:105A7000A091B602B091B7028093300B9093310B96
:105A8000A093320BB093330B8091F8099091F909F0
:105A900001969093F9098093F8098091F809909103
:105AA000F909019759F02091F8093091F90980918D
:105AB0000C0490910D0482179307C8F581E090E0E3
:105AC0009093F9098093F80980911A0490911B042E
:105AD000A0911C04B0911D048093160490931704A8
