:100000000C9485100C94FAC40C94CFC40C94A4C422
:100010000C9479C40C944EC40C9423C40C94F8C36F
:100020000C94CDC30C94B6100C94B6100C94B6106E
:100030000C94B6100C94B6100C94B6100C94FFDF10
:100040000C94B6100C941B920C9443900C944D5F3E
:100050000C94B6100C94B6100C94B6100C9483C388
:100060000C94B6100C942FF20C9405F20C94B6106C
:100070000C94B6100C94B6100C94B6100C94B610E8
:100080000C9462DC0C94DCDB0C9456DB0C94B61004
:100090000C94B6100C94B6100C94B6100C94B610C8
:1000A0000C94B6100C94B6100C94C4D90C94D0DAFD
:1000B0000C944ADA0C94B6100C94B6100C9420D917
:1000C0000C947CD80C94D8D70C94B6100C94B61021
:1000D0000C94B6100C94B6100C94CFF10C94A5F1BE
:1000E0000C94B6100C940C540D944E1D0C94CFB27D
:1000F0000C94765D0C9456A70C94E2580C944F56D1
:100100000C9498E80D94721B0C9445E80C9459E7F4
:100110000C948A9E0C94ABAE0C94F8A50C942B5FB7
:100120000C9474C10C9472170C9434A60C948E1A0F
:100130000C94C2E80C9474B30C940CE80C94E0CBCF
:100140000C943FB10C9450A00C9486BD0C94D02814
:100150000C94E2250C9417CC0C944DB10C943926D8
:100160000C94CA240C9403A20C94C9BD0C9462B6DE
:100170000C9446C50C9450C50C94AF760C94EBBF10
:100180000C9453120C94273C0C94BCE80C948EA84D
:100190000C9460E80C94C5E80C943BC50C9404B036
:1001A0000C94DA790C94BABB0C94BE9D0C945BB1A0
:1001B0000C94B4C10C94EEE70C94C0C10C94A6B599
:1001C0000D94F1180C9403E80C94869F0C94D1E8DC
:1001D0000C94C6E70C9405CC0C94F3C20C94CB158C
:1001E0000C947ECD0C945EB60C94EB9F0C9475E74A
:1001F0000C9480340C946CE70C94AAE80C94CEE830
:100200000C9433E70C9411B50C948B720C94DAE8CF
:100210000C94E7BD0C9487B60C94F4E70C9478C169
:100220000C940BA20C94EA100C944DA90C94F1B50B
:100230000D9462180C9479140C9491B60C949E262B
:100240000C9450A60C94A4E90C9439AF0C946A2138
:100250000C94BBB50C940FE80C94DF400C9490CD3B
:100260000C94228D0C9463300C94A7A80C9409BEB6
:100270000C94B7F20C949BAF0C942DB10C9451E8F4
:100280000C9430AA0C94C8A00C9432AF0D94B71DF6
:100290000C9416A20C947AE80C9420BC0C94F932BD
:1002A0000C94901B0C94EC9E0C94CA150C94A7CC47
:1002B0000C9479130C94F0E80C9491B30C9462E7CD
:1002C0000C945DA00C945EB10C9471E80C94193FF1
:1002D0000C94DFB40C94F4270C9486CD0C9481E735
:1002E0000C94A2A50C948E1D0C9432610C94F7E72B
:1002F0000C9480C10C9421A60C947CC10C94AF602A
:100300000C9416700C9459590C94E55B0C944AC5E6
:100310000C94C8AE0C945AB60C94A2290C9449368D
:100320000C94BDA00C94FB1A0C94F4C10C944DE7F2
:100330000C9471630C947A800C94059F0C9465B6B0
:100340000C9452120C949CA80C944AC00C94B724A0
:100350000C945AE80C9417260C949BA10C9472C52B
:100360000C94DF710C9412E80C943CE80C94FB257F
:100370000C94A4BD0C94CBE80C946AA00C945FB0D0
:100380000C949CCD0C949A8D0C940E230C94DDB19E
:100390000C9412240C942DE80C949ECC0D94511DB9
:1003A0000C94DDE80C94DCE70C949FA70C94F45DAE
:1003B0000C947DB60C94D8880C94E0E80C94FCCB9B
:1003C0000C94EFBD0C941B220C94D6530C94EC3679
:1003D0000C94E0BF0C9490B60C94BC610C94E7E8CC
:1003E0000C94A3E70C94FA110C940A240C94C92CD5
:1003F0000C94E2A10C9494B10C94D19F0C9469E7F5
:100400000C943FCC0C942AB00C94FAE70C940B1388
:100410000C944EC50C9475B60C9448C50C94F8C158
:100420000C9400E80C948CCD0C9449A60C946C169A
:100430000C9495CC0C94B9E80C944F520C94A75C96
:100440000C94C5110C94F8BF0C949ACD0C94D8CC94
:100450000C9416240C94269D0C9432A20C9416A98C
:100460000C948FE80C9439E80C9442E80C94D81959
:100470000C9486760C94BCC10C944FAA0C94A0BD2D
:100480000C949D9F0C945CA70C9415BD0C94F3E800
:100490000C94A0290C94695A0C9476BD0C9436B136
:1004A0000C943E620C947C700C9439E70C94F460CC
:1004B0000C9487A70C9433BD0C947AC50C94AEE9C8
:1004C0000C9411BD0C94F8110C947EBD0C94E6E7CD
:1004D0000C94962B0C94F6BF0C94CFCC0C948BA858
:1004E0000C949EBC0C943FC00C9429A60C947525CA
:1004F0000C9421E80C94A7E80C94F9AF0C9479B60D
:100500000C9419780C948AA10C94CA2A0C9499B66C
:100510000C942BA20C9412C30C94BA120C949B57FB
:100520000C94C8E80C944BE80C945EA90C94BF1191
:100530000C94EAE80C94E0B10C94EA9C0C9489E8E1
:100540000C9469E80C946D2A0C9482CD0C9498CD8F
:100550000C94F9E80C9483B60C9496A00C9413B206
:100560000C9494AF0C9419BD0C941DA20C94AE6223
:100570000C9457E80C9485A10C946CBC0C94E9E79E
:100580000C949D250C94FDE70C947FBF0C9496CDA4
:100590000C9466E80C941EE80C94AEC00D94D51C27
:1005A0000C94CDE70C9486270C946DE90C9461585B
:1005B0000C9468B00C9484CD0C947BE70C9474E894
:1005C0000C949DB90C9437BD0C949AE90C946C1161
:1005D0000C943B6F0C946BB60C9477A00C943BA6D8
:1005E0000C943C380C94F6E80C9443530C947DE83E
:1005F0000C9450E70C94907E0C949CBD0C9422A912
:100600000C9472E70C9495B60C9409E80C94B8100D
:100610000C9483E80C94E3B50C9414240C948CE8AB
:100620000C946CE80C942AE80C9486C50D94991AE5
:100630000C94535B0C94BAB00C948ACD0C9415E8CE
:100640000C9400A60C941D200C941BE80C9418E844
:100650000C948C150C94F9110C9438A80C94A39E4E
:100660000D9485180C940A130C944EE80C94B480E5
:100670000C9495E80C943A190C9457570C945CE739
:100680000C9406BC0C9436E70C943F9D0C9486E8C1
:100690000D94AD1D0C94BF590C9472770C9436E8F0
:1006A0000C9403400C9470A70C94C0B50C94DF5CC0
:1006B0000C94982B0C94ADE80C947E3D0C9495BF53
:1006C0000C94419F0C94C0A50C9418710C941FB00D
:1006D0000C948ABF0C9405BE0C946B730C9478E751
:1006E0000C94D5BF0C9480CD0C94C4110C9450B6CE
:1006F0000C94FDB50C9477E80C9495AE0C944A39A3
:100700000C949EE80C942A9F0C9430E70D948F195A
:100710000C9401A00C947ABD0C943CE70C9463E813
:100720000C94D0A50C94EBBD0C94302B0C94BE1102
:100730000C94B8BC0C9430E80D946B1D0C94B3244D
:100740000C94B9A50C94B0CC0C9434C00C941AA0A1
:100750000C948BA00C9412270C9488CD0C943FE839
:100760000C946FE70C9408C10C942CB40C94057392
:100770000C94BFE80C949AB60C94B1B00C94DBA71F
:100780000C940E240C94E9A80C945CBD0C94A27CEF
:100790000C9454E80C9453E70C946FB60C948ECDE3
:1007A0000C9492E80C949B360C9433E80C94E3E898
:1007B0000C94DAA10D94F01C0C947EE70C94541266
:1007C0000C94AD130C9424E80C9406E80C94B8C176
:1007D0000C94A1E80C94A1A00C9443BF0C9448B1D4
:1007E0000C94E3BD0C949BE80C944AE70C94C1C5AF
:1007F0000C945C280C9442290C94EDE80C94DBC01A
:100800000D94721D0C9423180C94B2A50C94D7E887
:100810000C9436A00C9411B10C940EA00C94B6E874
:100820000C94A8C50C9448E80C946EBB0C94AB13C4
:100830000C945DE80C94F4890C94A4E80C9452BCDC
:100840000C9458540C94589F0C94B4C50C94AE7DE1
:100850000C943FE70C941A240C94E2AB0C9494CDC6
:100860000C94EDAF0C94B3E80C9482BD0C9493C53A
:100870000C94FB110C94D2BC0C9427E80C941CB281
:100880000C94F1CB0C948BB60C948FA70C9442A6CD
:100890000C94B2A10C9424A20C94FF9C0C94B6115D
:1008A0000C9499BF0C94A8A50C9480E80C9424B1E6
:1008B0000C94B0E80C94D71C0C94D5E70C9492CD12
:1008C0000C94A2A10C9409130C94CCA70C94B8B569
:1008D0000C940F2A0C94D4E80C9460550C94F8AE48
:1008E0000C9452C50C9442E70C9468B40C94F056E6
:1008F0000C9471AE0C9433250C940ECC0C9446E7FA
:100900000C94F7BC0C9456B60C94579D0C947E3501
:100910000C94FBE90C9410240C942FBD0C949216AB
:100920000C94A3B50C94BCBC0C9420CC0C94CDB806
:100930000C9492AE0C945FE70C943CC10C9440C1B3
:100940000C9494A10C94075B0C94CFB50C9456E7CF
:100950000C94D0780C94F11E0C946EE80C943BA986
:100960000A5061676520686173206E6F742062654C
:10097000656E20696D706C656D656E746564207957
:100980006574000A326E642049676E6974696F6E1F
:10099000204D6170000A326E64204675656C204DF2
:1009A0006170000A50616765203920436667000A5C
:1009B0005472696D2031205461626C65000A56568C
:1009C00054204D6170000A426F6F7374204D617046
:1009D000000A5067203620436F6E666967000A413F
:1009E0004652204D6170000A5067203420436667EC
:1009F000000A49676E6974696F6E204D6170000A64
:100A00005067203220436667000A5645204D6170CA
:100A1000004572723A20556E6B6E6F776E20636D73
:100A200064000A3D3D3D436F6D6D616E6420486515
:100A30006C703D3D3D0A0A416C6C20636F6D6D61C9
:100A40006E6473206172652073696E676C652063E4
:100A5000686172616374657220616E6420617265A1
:100A600020636F6E636174656E617465642077697D
:100A7000746820746865697220706172616D657454
:100A8000657273200A776974686F7574207370617A
:100A90006365732E53796E7461783A20203C636FDE
:100AA0006D6D616E643E2B3C706172616D65746545
:100AB00072313E2B3C706172616D65746572323EBD
:100AC0002B3C706172616D657465724E3E0A0A3D21
:100AD0003D3D4C697374206F6620436F6D6D616E90
:100AE00064733D3D3D0A0A41202D20446973706CBA
:100AF000617973203331206279746573206F6620C9
:100B000063757272656E7453746174757320766167
:100B10006C75657320696E2062696E617279202838
:100B20006C6976652064617461290A42202D204237
:100B300075726E2063757272656E74206D617020BF
:100B4000616E6420636F6E666967506167652076C9
:100B5000616C75657320746F20656570726F6D0AC6
:100B600043202D205465737420434F4D20706F72C5
:100B7000742E2020557365642062792054756E654B
:100B80007273747564696F20746F20736565207764
:100B900068657468657220616E20454355206973ED
:100BA000206F6E206120676976656E2073657269BB
:100BB000616C200A20202020706F72742E205265F4
:100BC0007475726E7320612062696E617279206E35
:100BD000756D6265722E0A4E202D205072696E74FA
:100BE000206E6577206C696E652E0A50202D20538B
:100BF00065742063757272656E7420706167652E0E
:100C0000202053796E7461783A2020502B3C70611B
:100C100067654E756D6265723E0A52202D205361E4
:100C20006D65206173204120636F6D6D616E640A94
:100C300053202D20446973706C6179207369676E4D
:100C40006174757265206E756D6265720A51202D32
:100C50002053616D65206173205320636F6D6D615A
:100C60006E640A56202D20446973706C6179206D82
:100C70006170206F7220636F6E666967506167658F
:100C80002076616C75657320696E2062696E617291
:100C9000790A57202D20536574206F6E6520627984
:100CA000746520696E206D6170206F7220636F6EB5
:100CB000666967506167652E2020457870656374AA
:100CC000732062696E61727920706172616D657402
:100CD0006572732E200A2020202053796E7461786B
:100CE0003A2020572B3C6F66667365743E2B3C6E32
:100CF0006577627974653E0A74202D2053657420EF
:100D000063616C6962726174696F6E2076616C7583
:100D100065732E2020457870656374732062696E58
:100D200061727920706172616D65746572732E20D5
:100D3000205461626C6520696E6465782069732057
:100D400065697468657220302C200A2020202031CB
:100D50002C206F7220322E202053796E7461783AE5
:100D60002020742B3C74626C655F6964783E2B3C78
:100D70006E657756616C7565313E2B3C6E657756B6
:100D8000616C7565323E2B3C6E657756616C75659E
:100D90004E3E0A5A202D20446973706C617920639D
:100DA000616C6962726174696F6E2076616C7565E1
:100DB000730A54202D20446973706C61797320325A
:100DC000353620746F6F7468206C6F6720656E74A1
:100DD0007269657320696E2062696E6172790A7248
:100DE000202D20446973706C617973203235362070
:100DF000746F6F7468206C6F6720656E74726965BC
:100E0000730A55202D205072657061726520666FDF
:100E100072206669726D77617265207570646174A5
:100E2000652E20546865206E65787420627974653B
:100E30002072656365697665642077696C6C2063F0
:100E400061757365207468652041726475696E6FA1
:100E500020746F2072657365742E0A3F202D204424
:100E60006973706C61797320746869732068656C4C
:100E7000702070616765002C2000575545004F3287
:100E800000496E6C65742074656D7000436F6F6C03
:100E9000616E7400526573657420636F6E74726F57
:100EA0006C2069732063757272656E746C7920644E
:100EB000697361626C65642E00436F6D6D732068A9
:100EC000616C7465642E204E657874206279746557
:100ED0002077696C6C207265736574207468652076
:100EE00041726475696E6F2E005370656564756933
:100EF0006E6F20323032322E30320073706565648E
:100F000075696E6F2032303232303200303031004D
:100F100020002000200020002020202000526573A7
:100F2000657420636F6E74726F6C206973206375D3
:100F30007272656E746C792064697361626C656449
:100F40002E00436F6D6D732068616C7465642E2094
:100F50004E65787420627974652077696C6C2072B4
:100F600065736574207468652041726475696E6F7D
:100F70002E00000080002001200180002001800060
:100F8000F0008001C000C0002001C00080002001EE
:100F9000040E11191B20292B2D2F31333537393BE6
:100FA0003D3F414345474B4D4F515557595D616654
:100FB0006D7700000000963007772C610EEEBA5175
:100FC000099919C46D078FF46A7035A563E9A39573
:100FD000649E3288DB0EA4B8DC791EE9D5E088D99E
:100FE000D2972B4CB609BD7CB17E072DB8E7911D79
:100FF000BF906410B71DF220B06A4871B9F3DE41AA
:10100000BE847DD4DA1AEBE4DD6D51B5D4F4C78526
:10101000D38356986C13C0A86B647AF962FDECC94F
:10102000658A4F5C0114D96C0663633D0FFAF50DB8
:10103000088DC8206E3B5E10694CE44160D572712A
:1010400067A2D1E4033C47D4044BFD850DD26BB5B8
:101050000AA5FAA8B5356C98B242D6C9BBDB40F9EF
:10106000BCACE36CD832755CDF45CF0DD6DC593DA6
:10107000D1ABAC30D9263A00DE518051D7C81661C9
:10108000D0BFB5F4B42123C4B3569995BACF0FA5F8
:10109000BDB89EB802280888055FB2D90CC624E9FD
:1010A0000BB1877C6F2F114C6858AB1D61C13D2D72
:1010B00066B69041DC760671DB01BC20D2982A101E
:1010C000D5EF8985B1711FB5B606A5E4BF9F33D4AE
:1010D000B8E8A2C9077834F9000F8EA809961898C5
:1010E0000EE1BB0D6A7F2D3D6D08976C6491015C2C
:1010F00063E6F4516B6B62616C1CD83065854E0001
:1011000062F2ED95066C7BA5011BC1F4088257C401
:101110000FF5C6D9B06550E9B712EAB8BE8B7C8826
:10112000B9FCDF1DDD62492DDA15F37CD38C654CEB
:10113000D4FB5861B24DCE51B53A7400BCA3E23035
:10114000BBD441A5DF4AD795D83D6DC4D1A4FBF4EB
:10115000D6D36AE96943FCD96E34468867ADD0B806
:1011600060DA732D0444E51D03335F4C0AAAC97C81
:101170000DDD3C710550AA41022710100BBE8620E0
:101180000CC925B56857B3856F2009D466B99FE4AB
:1011900061CE0EF9DE5E98C9D9292298D0B0B4A8E4
:1011A000D7C7173DB359810DB42E3B5CBDB7AD6CAD
:1011B000BAC02083B8EDB6B3BF9A0CE2B6039AD298
:1011C000B1743947D5EAAF77D29D1526DB04831673
:1011D000DC73120B63E3843B64943E6A6D0DA85A82
:1011E0006A7A0BCF0EE49DFF099327AE000AB19EE9
:1011F000077D44930FF0D2A3088768F2011EFEC258
:1012000006695D5762F7CB67658071366C19E70632
:101210006B6E761BD4FEE02BD3895A7ADA10CC4A57
:10122000DD676FDFB9F9F9EFBE8E43BEB717D58E14
:10123000B060E8A3D6D67E93D1A1C4C2D83852F20A
:10124000DF4FF167BBD16757BCA6DD06B53F4B3614
:10125000B248DA2B0DD84C1B0AAFF64A0336607A37
:101260000441C3EF60DF55DF67A8EF8E6E3179BEB2
:1012700069468CB361CB1A8366BCA0D26F2536E277
:10128000685295770CCC03470BBBB91602222F2668
:101290000555BE3BBAC5280BBDB2925AB42B046AA1
:1012A000B35CA7FFD7C231CFD0B58B9ED92C1DAE72
:1012B000DE5BB0C2649B26F263EC9CA36A750A9362
:1012C0006D02A906099C3F360EEB8567077213571E
:1012D0000005824ABF95147AB8E2AE2BB17B381B69
:1012E000B60C9B8ED2920DBED5E5B7EFDC7C21DF2C
:1012F000DB0BD4D2D38642E2D4F1F8B3DD686E833F
:10130000DA1FCD16BE815B26B9F6E177B06F77475D
:10131000B718E65A0888706A0FFFCA3B06665C0B6E
:101320000111FF9E658F69AE62F8D3FF6B6145CFF7
:101330006C1678E20AA0EED20DD75483044EC2B3E5
:101340000339612667A7F71660D04D476949DB77F7
:101350006E3E4A6AD1AEDC5AD6D9660BDF40F03B0E
:10136000D83753AEBCA9C59EBBDE7FCFB247E9FFDD
:10137000B5301CF2BDBD8AC2BACA3093B353A6A31E
:10138000B4240536D0BA9306D7CD2957DE54BF67AB
:10139000D9232E7A66B3B84A61C4021B685D942BC8
:1013A0006F2A37BE0BB4A18E0CC31BDF055A8DEF1D
:1013B000022D0000000041311B1982623632C353F6
:1013C0002D2B04C56C6445F4777D86A75A56C796C5
:1013D000414F088AD9C849BBC2D18AE8EFFACBD9B4
:1013E000F4E30C4FB5AC4D7EAEB58E2D839ECF1C75
:1013F00098875112C24A1023D953D370F47892417E
:10140000EF6155D7AE2E14E6B537D7B5981C968444
:10141000830559981B8218A9009BDBFA2DB09ACB43
:1014200036A95D5D77E61C6C6CFFDF3F41D49E0EF4
:101430005ACDA2248495E3159F8C2046B2A76177EC
:10144000A9BEA6E1E8F1E7D0F3E82483DEC365B2E4
:10145000C5DAAAAE5D5DEB9F464428CC6B6F69FD93
:101460007076AE6B3139EF5A2A202C09070B6D3894
:101470001C12F33646DFB2075DC6715470ED30655D
:101480006BF4F7F32ABBB6C231A275911C8934A064
:101490000790FBBC9F17BA8D840E79DEA92538EF23
:1014A000B23CFF79F373BE48E86A7D1BC5413C2A14
:1014B000DE58054F79F0447E62E9872D4FC2C61C85
:1014C00054DB018A159440BB0E8D83E823A6C2D954
:1014D00038BF0DC5A0384CF4BB218FA7960ACE9615
:1014E0008D130900CC5C4831D7458B62FA6ECA5324
:1014F000E177545DBBBA156CA0A3D63F8D88970EDB
:1015000096915098D7DE11A9CCC7D2FAE1EC93CBD3
:10151000FAF55CD762721DE6796BDEB554409F84A4
:101520004F5958120E161923150FDA7038249B41A3
:10153000233DA76BFD65E65AE67C2509CB57643849
:10154000D04EA3AE9101E29F8A1821CCA73360FD53
:10155000BC2AAFE124ADEED03FB42D83129F6CB214
:101560000986AB2448C9EA1553D029467EFB687723
:1015700065E2F6793F2FB7482436741B091D352ADA
:101580001204F2BC534BB38D485270DE657931EFD3
:101590007E60FEF3E6E7BFC2FDFE7C91D0D53DA0A4
:1015A000CBCCFA368A83BB07919A7854BCB13965A3
:1015B000A7A84B98833B0AA99822C9FAB50988CBFA
:1015C000AE104F5DEF5F0E6CF446CD3FD96D8C0EC3
:1015D000C27443125AF3022341EAC1706CC18041C4
:1015E00077D847D7369706E62D8EC5B500A58484F3
:1015F0001BBC1A8A41715BBB5A6898E87743D9D9FA
:101600006C5A1E4F2D155F7E360C9C2D1B27DD1C42
:10161000003E120098B9533183A09062AE8BD15333
:10162000B59216C5F4DD57F4EFC494A7C2EFD59672
:10163000D9F6E9BC07AEA88D1CB76BDE319C2AEF4A
:101640002A85ED796BCAAC4870D36F1B5DF82E2AE2
:1016500046E1E136DE66A007C57F6354E8542265A3
:10166000F34DE5F3B202A4C2A91B6791843026A012
:101670009F29B8AEC5E4F99FDEFD3ACCF3D67BFDD9
:10168000E8CFBC6BA980FD5AB2993E099FB27F3862
:1016900084ABB0241C2CF115073532462A1E737713
:1016A0003107B4E17048F5D06B513683467A77B292
:1016B0005D634ED7FACB0FE6E1D2CCB5CCF98D8481
:1016C000D7E04A1296AF0B238DB6C870A09D894112
:1016D000BB84465D2303076C381AC43F1531850E61
:1016E0000E2842984F6703A9547EC0FA795581CBE2
:1016F000624C1FC538815EF423989DA70EB3DC961B
:1017000015AA1B0054E55A314FFC996262D7D85391
:1017100079CE174FE149567EFA50952DD77BD41CD0
:10172000CC62138A8D2D52BB963491E8BB1FD0D961
:10173000A006ECF37E5EADC265476E91486C2FA0AB
:101740005375E836123AA90709236A5424082B6511
:101750003F11E479A796A548BC8F661B91A4272A60
:101760008ABDE0BCCBF2A18DD0EB62DEFDC023EFE1
:10177000E6D9BDE1BC14FCD0A70D3F838A267EB21A
:10178000913FB924D070F815CB693B46E6427A7791
:10179000FD5BB56B65DCF45A7EC5370953EE7638D0
:1017A00048F7B1AE09B8F09F12A133CC3F8A72FD61
:1017B000249300000000376AC2016ED4840359BE2E
:1017C0004602DCA80907EBC2CB06B27C8D04851665
:1017D0004F05B851130E8F3BD10FD685970DE1EF12
:1017E000550C64F91A095393D8080A2D9E0A3D47EF
:1017F0005C0B70A3261C47C9E41D1E77A21F291D80
:10180000601EAC0B2F1B9B61ED1AC2DFAB18F5B548
:101810006919C8F23512FF98F713A626B111914C39
:101820007310145A3C152330FE147A8EB8164DE40A
:101830007A17E0464D38D72C8F398E92C93BB9F8CC
:101840000B3A3CEE443F0B84863E523AC03C655016
:10185000023D58175E366F7D9C3736C3DA3501A9D5
:10186000183484BF5731B3D59530EA6BD332DD01DC
:10187000113390E56B24A78FA925FE31EF27C95BB3
:101880002D264C4D62237B27A0222299E62015F3BA
:10189000242128B4782A1FDEBA2B4660FC29710A5D
:1018A0003E28F41C712DC376B32C9AC8F52EADA238
:1018B000372FC08D9A70F7E75871AE591E73993360
:1018C000DC721C2593772B4F517672F11774459B70
:1018D000D57578DC897E4FB64B7F16080D7D216269
:1018E000CF7CA4748079931E4278CAA0047AFDCA82
:1018F000C67BB02EBC6C87447E6DDEFA386FE990F3
:10190000FA6E6C86B56B5BEC776A025231683538DB
:10191000F369087FAF623F156D6366AB2B6151C100
:10192000E960D4D7A665E3BD6464BA0322668D6915
:10193000E06720CBD74817A115494E1F534B797547
:10194000914AFC63DE4FCB091C4E92B75A4CA5DD81
:10195000984D989AC446AFF00647F64E4045C124CC
:1019600082444432CD4173580F402AE649421D8CCF
:101970008B435068F154670233553EBC755709D606
:10198000B7568CC0F853BBAA3A52E2147C50D57EAD
:10199000BE51E839E25ADF53205B86ED6659B187C4
:1019A000A4583491EB5D03FB295C5A456F5E6D2FA3
:1019B000AD5F801B35E1B771F7E0EECFB1E2D9A59D
:1019C00073E35CB33CE66BD9FEE73267B8E5050D1F
:1019D0007AE4384A26EF0F20E4EE569EA2EC61F43A
:1019E00060EDE4E22FE8D388EDE98A36ABEBBD5C2D
:1019F00069EAF0B813FDC7D2D1FC9E6C97FEA90628
:101A000055FF2C101AFA1B7AD8FB42C49EF975AE0A
:101A10005CF848E900F37F83C2F2263D84F0115759
:101A200046F1944109F4A32BCBF5FA958DF7CDFF40
:101A30004FF6605D78D95737BAD80E89FCDA39E3AA
:101A40003EDBBCF571DE8B9FB3DFD221F5DDE54BCC
:101A500037DCD80C6BD7EF66A9D6B6D8EFD481B2F5
:101A60002DD504A462D033CEA0D16A70E6D35D1A1E
:101A700024D210FE5EC527949CC47E2ADAC6494053
:101A800018C7CC5657C2FB3C95C3A282D3C195E878
:101A900011C0A8AF4DCB9FC58FCAC67BC9C8F11175
:101AA0000BC9740744CC436D86CD1AD3C0CF2DB972
:101AB00002CE4096AF9177FC6D902E422B92192862
:101AC000E9939C3EA696AB546497F2EA2295C580B2
:101AD000E094F8C7BC9FCFAD7E9E9613389CA17949
:101AE000FA9D246FB598130577994ABB319B7DD138
:101AF000F39A3035898D075F4B8C5EE10D8E698BD3
:101B0000CF8FEC9D808ADBF7428B82490489B52315
:101B1000C68888649A83BF0E5882E6B01E80D1DAE8
:101B2000DC8154CC938463A651853A1817870D72D3
:101B3000D586A0D0E2A997BA20A8CE0466AAF96EED
:101B4000A4AB7C78EBAE4B1229AF12AC6FAD25C6BF
:101B5000ADAC1881F1A72FEB33A6765575A4413FA4
:101B6000B7A5C429F8A0F3433AA1AAFD7CA39D9789
:101B7000BEA2D073C4B5E71906B4BEA740B689CDDE
:101B800082B70CDBCDB23BB10FB3620F49B15565E3
:101B90008BB06822D7BB5F4815BA06F653B8319CA4
:101BA00091B9B48ADEBC83E01CBDDA5E5ABFED3465
:101BB00098BE000000006567BCB88BC809AAEEAFEC
:101BC000B5125797628F32F0DE37DC5F6B25B9387C
:101BD000D79DEF28B4C58A4F087D64E0BD6F0187AB
:101BE00001D7B8BFD64ADDD86AF23377DFE05610A6
:101BF00063589F571950FA30A5E8149F10FA71F8EE
:101C0000AC42C8C07BDFADA7C76743087275266FBB
:101C1000CECD707FAD951518112DFBB7A43F9ED08A
:101C2000188727E8CF1A428F73A2AC20C6B0C947E5
:101C30007A083EAF32A05BC88E18B5673B0AD00069
:101C400087B26938502F0C5FEC97E2F0598587977F
:101C5000E53DD1878665B4E03ADD5A4F8FCF3F2806
:101C600033778610E4EAE37758520DD8ED4068BF29
:101C700051F8A1F82BF0C49F97482A30225A4F57A9
:101C80009EE2F66F497F9308F5C77DA740D518C03F
:101C9000FC6D4ED09F352BB7238DC518969FA07F26
:101CA0002A271947FDBA7C204102928FF410F7E8E9
:101CB00048A83D58149B583FA823B6901D31D3F730
:101CC000A1896ACF76140FA8CAACE1077FBE8460F1
:101CD000C306D270A05EB7171CE659B8A9F43CDF62
:101CE000154C85E7C2D1E0807E690E2FCB7B6B4817
:101CF00077C3A20F0DCBC768B17329C704614CA08D
:101D0000B8D9F5986F4490FFD3FC7E5066EE1B3730
:101D1000DA564D27B90E284005B6C6EFB0A4A38801
:101D20000C1C1AB0DB817FD767399178D22BF41F56
:101D30006E9303F7263B66909A83883F2F91ED5868
:101D40009329546044B43107F80CDFA84D1EBACF74
:101D5000F1A6ECDF92FE89B82E4667179B540270FD
:101D600027ECBB48F071DE2F4CC93080F9DB55E71A
:101D700045639CA03F6BF9C783D3176836C1720FC8
:101D80008A79CB375DE4AE50E15C40FF544E259834
:101D9000E8F673888BAE16EF3716F84082049D275D
:101DA0003EBC241FE92141785599AFD7E08BCAB0DA
:101DB0005C333BB659ED5ED1E555B07E5047D51941
:101DC000ECFF6C213B62094687DAE7E932C8828E74
:101DD0008E70D49EED28B1F951905F56E4823A316D
:101DE000583A83098FA7E66E331F08C1860D6DA68A
:101DF0003AB5A4E140BDC186FC052F2949174A4EDA
:101E0000F5AFF376223296119E8A78BE2B981DD9B3
:101E100097204BC9F4782EAE48C0C001FDD2A5660C
:101E2000416A1C5E96F779392A4F97969F5DF2F1C9
:101E300023E505196B4D607ED7F58ED162E7EBB6D1
:101E4000DE5F528E09C237E9B57AD9460068BC21F7
:101E5000BCD0EA31DF888F56633061F9D622049E08
:101E60006A9ABDA6BD07D8C101BF366EB4AD53098D
:101E700008159A4E721DFF29CEA511867BB774E115
:101E8000C70FCDD91092A8BEAC2A461119382376B7
:101E9000A5807566C6D810017A60FEAECF729BC968
:101EA00073CA22F1A457479618EFA939ADFDCC5E4D
:101EB000114506EE4D766389F1CE8D2644DCE8416E
:101EC000F86451792FF9341E9341DAB12653BFD605
:101ED0009AEBE9C6F9B38CA1450B620EF0190769BC
:101EE0004CA1BE519B3CDB3627843599929650FE1F
:101EF0002E2E99B95426FCDEE89E12715D8C771661
:101F0000E134CE2E36A9AB498A1145E63F03208144
:101F100083BB7691E0E313F65C5BFD59E949983E9B
:101F200055F12106826C44613ED4AACE8BC6CFA95E
:101F3000377E38417FD65D26C36EB389767CD6EE78
:101F4000CAC46FD61D590AB1A1E1E41E14F3817908
:101F5000A84BD769CB13B20E77AB5CA1C2B939C617
:101F60007E0180FEA99CE59915240B36A0366E51A2
:101F70001C8EA7166686C271DA3E2CDE6F2C49B91C
:101F8000D394F081040995E6B8B17B490DA31E2EC8
:101F9000B11B483ED2432D596EFBC3F6DBE9A69137
:101FA00067511FA9B0CC7ACE0C749461B966F10662
:101FB00005DE00002100240027002A002D0030004B
:101FC000330001010000040107010A0100002200A2
:101FD000250028002B002E003100340002010000F3
:101FE000050108010B010000200023002600290044
:101FF0002C002F003200000100000301060109013E
:1020000005050505070508080808020202020A0A74
:102010000808040404040101010101010101030392
:10202000030303030303040707070C0C0C0C0C0C3D
:102030000C0C0202020206060606060606060B0B3A
:102040000B0B0B0B0B0B010210202008081020407B
:10205000102040800201020108040201010204086C
:1020600010204080804020100804020180040201FA
:102070008040201008040201080402010102040843
:1020800010204080010204081020408000000A0B4C
:1020900002090C0D0E0807030401000000000000F7
:1020A0000000000000000000000000000000000030
:1020B00000000000000000001211100000000000ED
:1020C0000000000000000000000000000000000010
:1020D0000000537065656475696E6F0053706565C7
:1020E0006475696E6F20323031392E30382D73654A
:1020F0007200537065656475696E6F206373783024
:10210000323031392E380000B7F211241FBECFEF24
:10211000D1E2DEBFCDBF00E00CBF12E0A0E0B2E034
:10212000EAEBFBE402E00BBF02C007900D92AE3970
:10213000B107D9F72FE1AEE9B2E001C01D92AC338F
:10214000B207E1F710E1C5E8D0E100E006C0219751
:102150000109802FFE010F945825C438D10780E073
:102160000807A9F70E947DF50D94DB250C9400006B
:102170008091250A9091260A2091021C3091031C1F
:10218000821B930B2091190230911A028217930738
:102190009CF0821B930B0197843B910590F082E0A9
:1021A00090E09093C9028093C80281E090E0909300
:1021B000C7028093C602089597FFEDCF820F931F49
:1021C000EACF81E090E09093C9028093C80282E058
:1021D00090E0EDCF2091111C80910E1C8C718C3001
:1021E00021F48091071C322F81FD30E0E091021C28
:1021F000F091031C6091EA0B7091EB0B8091250A22
:102200009091260A8E1B9F0B0F948B24230F33274C
:10221000331F261737070CF046C0621B730B7093F1
:10222000C9026093C8026091EA0B7091EB0B809138
:10223000D0029091D1028E1B9F0B0F948B242617F6
:102240003707C4F5621B730B7093C7026093C60215
:102250006091EA0B7091EB0B8091CE029091CF02CE
:102260008E1B9F0B0F948B24261737074CF5621B90
:10227000730B7093C5026093C4026091EA0B709176
:10228000EB0B8091CC029091CD028E1B9F0B0F9493
:102290008B2426173707D4F4621B730B7093C30289
:1022A0006093C2020895161617060CF4B8CF620F99
:1022B000731FB5CF161617063CF2620F731FC4CFFB
:1022C00016161706B4F2620F731FD3CF1616170631
:1022D0002CF3620F731FE2CF8091A10A807F8034BC
:1022E00079F580910E1C8C718C30C9F488E090E0F7
:1022F0009093C9028093C80282E090E09093C70255
:102300008093C60284E090E09093C5028093C4025B
:1023100086E090E09093C3028093C202089524E087
:1023200030E03093C9022093C80282E090E090939D
:10233000C7028093C6023093C5022093C402EACF3D
:10234000803661F780910E1C8C718C3079F286E0BA
:1023500090E09093C9028093C80282E090E090934D
:10236000C7028093C60224E030E0E5CF1092E9096D
:102370001092E80981E08093AE02089508951092CA
:10238000E9091092E809089508958091731D81115B
:102390000EC01092E9091092E80981E08093731D44
:1023A00083E08093160B81E08093AE0208958091C4
:1023B000081C87FF05C01092E9091092E809F0CFC8
:1023C0008091E11D9091E21DA091E31DB091E41D6B
:1023D00084369105A105B10530F78091E809909107
:1023E000E9098D9701F31092E9091092E809DBCF12
:1023F0000895089508958091A51D90910E1C9C71DB
:102400009C3091F58A30CCF088E090E09093C9023E
:102410008093C80282E090E09093C7028093C60246
:1024200084E090E09093C5028093C40286E090E03F
:102430009093C3028093C20208951816ECF781E0CE
:1024400090E09093C9028093C80283E090E090935B
:10245000C7028093C60285E090E09093C502809306
:10246000C40287E090E0E4CF8A308CF024E030E0D2
:102470003093C9022093C80282E090E09093C70293
:102480008093C6023093C5022093C402D1CF1816A0
:102490009CF621E030E03093C9022093C80283E02B
:1024A00090E0ECCF089508958091250A9091260A36
:1024B0002091021C3091031CAC0144505109241797
:1024C00035070CF04BC0821B930B97FD0196959539
:1024D000879504979093C9028093C8028091D00297
:1024E0009091D102AC014450510924173507CCF525
:1024F000821B930B97FD0196959587950497909372
:10250000C7028093C6028091CE029091CF02AC01A7
:1025100044505109241735073CF5821B930B97FD56
:1025200001969595879504979093C5028093C40270
:102530008091CC029091CD02AC01445051092417F6
:102540003507ACF4821B930B97FD01969595879503
:1025500004979093C3028093C202089580539D4FC5
:10256000B2CF80539D4FC4CF80539D4FD6CF805361
:102570009D4FE8CF9091A51D80910E1C8C718C30E1
:1025800081F59A30CCF08CE090E09093C902809372
:10259000C80283E090E09093C7028093C60286E071
:1025A00090E09093C5028093C40289E090E09093FC
:1025B000C3028093C202089581E090E09093C90223
:1025C0008093C80284E090E09093C7028093C60293
:1025D00087E090E09093C5028093C4028AE090E087
:1025E000E6CF9A306CF086E090E09093C902809339
:1025F000C80283E090E09093C7028093C6020895DA
:1026000081E090E09093C9028093C80284E090E05A
:10261000F2CF089508958091A10A807F803421F53A
:102620008091A51D8A306CF484E290E09093C902F9
:102630008093C80280E190E09093C7028093C60225
:10264000089584311CF483E290E0F0CF8E311CF4C5
:1026500082E290E0EBCF8FE190E09093C90280930B
:10266000C8028DE090E0E8CF803609F041C080914B
:10267000A51D24E230E08A3024F08431ACF423E25A
:1026800030E03093C9022093C80229E030E0309353
:10269000C7022093C6028A3004F587E190E0909348
:1026A000C5028093C402089522E230E08E3134F0F6
:1026B0002FE130E0883214F421E230E03093C90297
:1026C0002093C80226E030E03093C7022093C60270
:1026D0008E3134F485E190E0E2CF86E190E0DFCF07
:1026E00088321CF484E190E0DACF83E190E0D7CF28
:1026F00008958091A51D8930CCF481E090E09093FD
:10270000C9028093C80285E090E09093C70280934D
:10271000C60289E090E09093C5028093C4028DE0E8
:1027200090E09093C3028093C202089580E190E00C
:102730009093C9028093C80284E090E09093C7020E
:102740008093C60288E090E09093C5028093C40213
:102750008CE090E0E6CF0C949A8DCF93DF9380913C
:102760000E1C8C718C3021F48091071C24E281FDB9
:1027700020E0C091021CD091031C6091EA0B709183
:10278000EB0B8091250A9091260A8C1B9D0B0F94D0
:102790008B246150710930E0F901B496E617F70710
:1027A0000CF08CC06E1B7F0B809108049091090483
:1027B000820F931F8617970730F460910804709179
:1027C0000904620F731F7093C9026093C80260917D
:1027D000EA0B7091EB0B8091D0029091D1028C1B8F
:1027E0009D0B0F948B2461507109E617F7070CF0CD
:1027F0006CC06E1B7F0B8091080490910904820FBE
:10280000931F8617970730F46091080470910904AC
:10281000620F731F7093C7026093C6026091EA0B48
:102820007091EB0B8091CE029091CF028C1B9D0B8F
:102830000F948B2461507109E617F7070CF04CC018
:102840006E1B7F0B8091080490910904820F931FE7
:102850008617970730F46091080470910904620F9D
:10286000731F7093C5026093C4026091EA0B70916C
:10287000EB0B8091CC029091CD028C1B9D0B0F94A1
:102880008B2461507109E617F7076CF56E1B7F0BFF
:102890008091080490910904820F931F861797076F
:1028A00030F46091080470910904620F731F7093F3
:1028B000C3026093C202DF91CF91089516161706E6
:1028C0000CF472CF6E0F7F1F6FCF161617060CF425
:1028D00092CF6E0F7F1F8FCF161617060CF4B2CF54
:1028E0006E0F7F1FAFCF1616170694F26E0F7F1F65
:1028F000CFCF2091111C80910E1C8C718C3021F453
:102900008091071C322F81FD30E0E091021CF09194
:10291000031C6091EA0B7091EB0B8091250A90915A
:10292000260A8E1B9F0B0F948B2461507109230F75
:102930003327331F161617060CF49FC0620F731F40
:10294000CB0141978230910508F49EC042978230B6
:10295000910508F49CC04297029708F49BC0673425
:10296000710514F066E470E07093C9026093C802C8
:102970006091EA0B7091EB0B8091D0029091D102A3
:102980008E1B9F0B0F948B2461507109161617062E
:102990000CF483C0620F731FCB0141978230910505
:1029A00008F482C042978230910508F480C04297B3
:1029B000029708F47FC06734710514F066E470E094
:1029C0007093C7026093C6026091EA0B7091EB0BA3
:1029D0008091CE029091CF028E1B9F0B0F948B247F
:1029E00061507109161617060CF467C0620F731F49
:1029F000CB0141978230910508F466C0429782303E
:102A0000910508F464C04297029708F463C06734E4
:102A1000710514F066E470E07093C5026093C4021F
:102A20006091EA0B7091EB0B8091CC029091CD02FA
:102A30008E1B9F0B0F948B2461507109161617067D
:102A40000CF44BC0620F731FCB014197823091058C
:102A500008F44AC042978230910508F448C0429772
:102A6000029708F447C06734710514F066E470E01B
:102A70007093C3026093C2020895261737070CF0C3
:102A80005FCF621B730B5CCF60E170E06DCF62E2E1
:102A900070E06ACF64E370E067CF261737070CF069
:102AA0007BCF621B730B78CF60E170E089CF62E26D
:102AB00070E086CF64E370E083CF261737070CF011
:102AC00097CF621B730B94CF60E170E0A5CF62E2F9
:102AD00070E0A2CF64E370E09FCF261737070CF0B9
:102AE000B3CF621B730BB0CF60E170E0C1CF62E285
:102AF00070E0BECF64E370E0BBCF8091E11E8770D1
:102B00009EEF980F923010F0863029F480916F007C
:102B1000886080936F000895E0910604F0910704A7
:102B2000808190910504892371F08091731D81113A
:102B300011C08DE090E09093E9098093E80981E06D
:102B40008093731D08958091731D811115C085E0D8
:102B500090E0F1CF8091E8099091E9090D9759F043
:102B600080911E1E8F5F80931E1E8DE090E09093DB
:102B7000E9098093E80908958091E8099091E909AD
:102B80000597C9F380911E1E8F5F80931E1E85E0FE
:102B900090E0EDCF0895CF92DF92EF92FF92809177
:102BA000731D882309F495C08091F00B9091F10B6F
:102BB000A091F20BB091F30B892B8A2B8B2B09F48C
:102BC00088C08091EC0B9091ED0BA091EE0BB09131
:102BD000EF0B892B8A2B8B2B09F47BC08091E11D95
:102BE0009091E21DA091E31DB091E41D0297A10513
:102BF000B10508F04CC0F8942091F00B3091F10B26
:102C00004091F20B5091F30B8091EC0B9091ED0BF6
:102C1000A091EE0BB091EF0B281B390B4A0B5B0B0D
:102C2000A4EBB0E00F941A256093F50B7093F60BAC
:102C30008093F70B9093F80B7894C090F50BD0909D
:102C4000F60BE090F70BF090F80B60E077E883E983
:102C500093E0A70196010F94D224C901803526E4A0
:102C6000920720F08091741D9091751DCC0CDD1C95
:102C7000EE1CFF1CC0921E02D0921F02E0922002A6
:102C8000F0922102FF90EF90DF90CF900895F8949A
:102C90008091160490911704A0911804B091190422
:102CA0004091120450911304609114047091150422
:102CB000841B950BA60BB70BB695A7959795879593
:102CC0008093F50B9093F60BA093F70BB093F80B52
:102CD000B3CF90E080E0D6CF8091A51D82319CF4E7
:102CE00087E090E09093C9028093C80282E090E070
:102CF0009093C7028093C60285E090E09093C5024E
:102D00008093C402089586E090E09093C902809376
:102D1000C80281E090E09093C7028093C60284E0ED
:102D200090E0ECCF8091B0029091B102A091B202FC
:102D3000B091B30280932F0490933004A093310498
:102D4000B09332040E94CEC26093B4027093B50275
:102D50008093B6029093B7028091B4029091B5022D
:102D6000A091B602B091B7024091F00B5091F10BD7
:102D70006091F20B7091F30B841B950BA60BB70BB4
:102D80008093B0029093B102A093B202B093B302C9
:102D90008091E8099091E90901969093E90980935F
:102DA000E80981E08093AF028091E8099091E909F8
:102DB0000D9749F48091731D882329F01092E90939
:102DC0001092E80908958091E8099091E909019726
:102DD00021F48091731D811131C080912F04909155
:102DE0003004A0913104B0913204B695A79597951F
:102DF00087958093A6029093A702A093A802B09310
:102E0000A9024091B0025091B1026091B20270915A
:102E1000B3028091A6029091A702A091A802B0915E
:102E2000A902481759076A077B07D8F51092E909E4
:102E30001092E80981E08093731D08958091160433
:102E400090911704A0911804B09119048093120472
:102E500090931304A0931404B09315048091B402CA
:102E60009091B502A091B602B091B702809316047A
:102E700090931704A0931804B09319048091E11D56
:102E80009091E21DA091E31DB091E41D0196A11D5A
:102E9000B11D8093E11D9093E21DA093E31DB093BB
:102EA000E41D8091F00B9091F10BA091F20BB09189
:102EB000F30B8093EC0B9093ED0BA093EE0BB09380
:102EC000EF0B8091B4029091B502A091B602B0913F
:102ED000B7028093F00B9093F10BA093F20BB09399
:102EE000F30B08950E94CEC26093BC027093BD02A2
:102EF0008093BE029093BF028091BC029091BD026C
:102F0000A091BE02B091BF024091170B5091180BD7
:102F10006091190B70911A0B841B950BA60BB70BC4
:102F20008093B8029093B902A093BA02B093BB0207
:102F30008091C31D81FD04C08091731D81110CC05F
:102F40008CED95E0A0E0B0E080931A0490931B0410
:102F5000A0931C04B0931D044091B8025091B90293
:102F60006091BA027091BB0280910E0490910F049F
:102F7000A0911004B0911104481759076A077B0704
:102F800008F460C08091BC029091BD02A091BE0285
:102F9000B091BF028093170B9093180BA093190B5D
:102FA000B0931A0B8091B8029091B902A091BA0225
:102FB000B091BB0280932F0490933004A09331040E
:102FC000B09332048091140B9091150B019690935D
:102FD000150B8093140B8091E8099091E9090197F2
:102FE00089F54091BC025091BD026091BE02709182
:102FF000BF028091F00B9091F10BA091F20BB09178
:10300000F30B84179507A607B707E0F48091BC027D
:103010009091BD02A091BE02B091BF024091F00B11
:103020005091F10B6091F20B7091F30B841B950B97
:10303000A60BB70B80939A0990939B09A0939C09C8
:10304000B0939D0908950E94CEC26093B40270931C
:10305000B5028093B6029093B7028091B40290912A
:10306000B502A091B602B091B7024091F00B509119
:10307000F10B6091F20B7091F30B841B950BA60B77
:10308000B70B8093B0029093B102A093B202B093B9
:10309000B3024091B0025091B1026091B2027091BE
:1030A000B30280911A0490911B04A0911C04B0916A
:1030B0001D04481759076A077B0708F4B9C081E067
:1030C0008093AF028091E8099091E909019690936D
:1030D000E9098093E8098091E8099091E90901974D
:1030E00031F08091E8099091E9090597E1F581E0D7
:1030F00090E09093E9098093E809809116049091FB
:103100001704A0911804B0911904809312049093AD
:103110001304A0931404B09315048091B402909109
:10312000B502A091B602B091B702809316049093B5
:103130001704A0931804B093190481E08093731DC1
:103140008091E11D9091E21DA091E31DB091E41DDD
:103150000196A11DB11D8093E11D9093E21DA093E6
:10316000E31DB093E41D8091731D882309F460C0B2
:103170008091C31D81FF0DC080910E1C87FF09C087
:103180008091E8099091E909019709F052C00E94E5
:10319000C9BD8091E8099091E909019709F453C0EC
:1031A0008091E8099091E909039709F44CC08CE6F5
:1031B00090E09093EB0B8093EA0B2091B00230915A
:1031C000B1024091B2025091B302A3E0B0E00F947B
:1031D0001A2523E096958795779567952A95D1F7D7
:1031E00060931A0470931B0480931C0490931D0435
:1031F0008091F00B9091F10BA091F20BB091F30B39
:103200008093EC0B9093ED0BA093EE0BB093EF0B30
:103210008091B4029091B502A091B602B091B7022C
:103220008093F00B9093F10BA093F20BB093F30B00
:1032300008958091E8099091E909039709F0A9CFD1
:103240000E945CBDA6CF88E490E09093EB0B809346
:10325000EA0B8091B0029091B102A091B202B091BC
:10326000B30280931A0490931B04A0931C04B093A0
:103270001D04BECF0E94CEC26093BC027093BD02FB
:103280008093BE029093BF028091B8029091B902E0
:10329000A091BA02B091BB0280932F0490933004A6
:1032A000A0933104B09332048091BC029091BD028E
:1032B000A091BE02B091BF024091170B5091180B24
:1032C0006091190B70911A0B841B950BA60BB70B11
:1032D0008093B8029093B902A093BA02B093BB0254
:1032E0008091BC029091BD02A091BE02B091BF023C
:1032F0008093170B9093180BA093190BB0931A0B94
:103300008091731D811117C08091140B9091150B42
:10331000029791F481E090E09093E9098093E809A5
:103320008093731D8091140B9091150B01969093CF
:10333000150B8093140B08958CED95E0A0E0B0E0A0
:1033400080931A0490931B04A0931C04B0931D0453
:1033500080912F0490913004A0913104B0913204F7
:10336000B695A795979587958093A6029093A70207
:10337000A093A802B093A9024091B8025091B9025B
:103380006091BA027091BB028091A6029091A7024F
:10339000A091A802B091A902481759076A077B07B4
:1033A00008F682E090E09093150B8093140BBACF4F
:1033B0000E94CEC26093BC027093BD028093BE0295
:1033C0009093BF028091BC029091BD02A091BE0279
:1033D000B091BF024091170B5091180B6091190BDF
:1033E00070911A0B841B950BA60BB70B8093B80238
:1033F0009093B902A093BA02B093BB028091BC0231
:103400009091BD02A091BE02B091BF028093170BB4
:103410009093180BA093190BB0931A0B2091081CD2
:10342000322F31708091140B9091150B892B69F11B
:10343000E0910304F09104048081909102048923B7
:1034400091E009F490E0931701F18091E8099091DF
:10345000E9094091140B5091150B841B9091731D39
:1034600091114BC09091A10A907F903499F591EF02
:10347000980F933098F480E190E09093E90980935D
:10348000E80981E08093731D08958091E809909187
:10349000E9099093150B8093140B089595EF980FFD
:1034A000933018F486E690E0E8CF99EF980F9330C8
:1034B00018F48CEB90E0E1CF8350833018F482E174
:1034C00091E0DBCF1092731D80911E1E8F5F809361
:1034D0001E1E0895903631F483508330F0F48CE74B
:1034E00090E0CBCF903831F486508330B0F488E34D
:1034F00090E0C3CF1092731D089527FF0EC09091E6
:10350000A10A907F903449F48F50833030F480E1E9
:1035100090E09093E9098093E80908958F929F9233
:10352000AF92BF92CF92DF92EF92FF92CF93DF9351
:10353000F894C090F00BD090F10BE090F20BF0906B
:10354000F30B8090EC0B9090ED0BA090EE0BB090F5
:10355000EF0BC091E809D091E9090E94CEC26093B7
:10356000A2027093A3028093A4029093A502789480
:10357000CE010197880F991F2091021C3091031CE6
:10358000820F931FA6014819590957FF02C04F5FC8
:103590005F4F55954795052E000C660B770BC09035
:1035A0009E02D0909F02E090A002F090A1024C15E4
:1035B0005D056E057F0508F40196803D22E09207C7
:1035C00014F0805D9240209102023091030228178E
:1035D000390714F4821B930B97FF02C088599E4F42
:1035E000DF91CF91FF90EF90DF90CF90BF90AF90A1
:1035F0009F908F9008958091160B882351F08091B1
:10360000160B833031F08091160B843008F07FC0A8
:1036100008950E94CEC26093BC027093BD02809355
:10362000BE029093BF028091BC029091BD02A09116
:10363000BE02B091BF024091170B5091180B6091E0
:10364000190B70911A0B841B950BA60BB70B80936B
:10365000B8029093B902A093BA02B093BB02409112
:10366000B8025091B9026091BA027091BB02809188
:103670000E0490910F04A0911004B09111048417CE
:103680009507A607B70708F04AC08091BC02909141
:10369000BD02A091BE02B091BF028093170B909320
:1036A000180BA093190BB0931A0B8091140B9091E7
:1036B000150B01969093150B8093140B1092160B1B
:1036C0008091140B9091150B0297C0F08091B80275
:1036D0009091B902A091BA02B091BB0222E0B695D6
:1036E000A795979587952A95D1F780930E04909387
:1036F0000F04A0931004B0931104089510920E04C7
:1037000010920F0410921004109211040895109258
:10371000160B81E090E09093150B8093140B0895A5
:10372000CF92DF92EF92FF920E94CEC26093BC02D2
:103730007093BD028093BE029093BF028091BC0241
:103740009091BD02A091BE02B091BF024091170BB3
:103750005091180B6091190B70911A0B841B950BEB
:10376000A60BB70B8093B8029093B902A093BA024C
:10377000B093BB028091170B9091180BA091190B7D
:10378000B0911A0B892B8A2B8B2BC1F41092B802A3
:103790001092B9021092BA021092BB028091BC0240
:1037A0009091BD02A091BE02B091BF028093170B11
:1037B0009093180BA093190BB0931A0B4091B80279
:1037C0005091B9026091BA027091BB0280910E04CF
:1037D00090910F04A0911004B0911104481759075B
:1037E0006A077B0708F4DEC02091170B3091180B95
:1037F0004091190B50911A0B80910A0490910B047F
:10380000A0910C04B0910D04281B390B4A0B5B0BE3
:10381000A3E0B0E00F941A25969587957795679564
:103820006093AA027093AB028093AC029093AD02B6
:103830008091170B9091180BA091190BB0911A0B56
:1038400080930A0490930B04A0930C04B0930D048E
:103850004091B8025091B9026091BA027091BB02D6
:103860008091AA029091AB02A091AC02B091AD02FE
:10387000481759076A077B0708F054C08091140B5A
:103880009091150B059709F44DC08091B802909165
:10389000B902A091BA02B091BB0222E0B695A795F9
:1038A000979587952A95D1F780930E0490930F04EE
:1038B000A0931004B09311048091140B9091150BF8
:1038C00001969093150B8093140B8091BC029091FC
:1038D000BD02A091BE02B091BF028093170B9093DE
:1038E000180BA093190BB0931A0B80916D1E85FFD6
:1038F00059C08091AE02882309F454C08091140B02
:103900009091150B019709F04DC0E0913B0AF091A1
:103910003C0A1995AC01493681E05807A4F0485695
:103920005140F9CF81E090E09093150B8093140BF8
:103930008093AE0210920E0410920F0410921004A5
:1039400010921104C2CF8091731E8370823051F5A2
:10395000E0917E1C9A01220F331FF0E0A0E0B1E05D
:10396000AE1BBF0B0F9460256B017C019F01DA0138
:103970000F946825C60ED71EE81EF91ECD2CDE2C2E
:10398000EF2CFF24E7FCFA9488E691E08C199D095E
:103990002091351D3091361D821B930B9093241E70
:1039A0008093231EFF90EF90DF90CF900895CF92E9
:1039B000DF92EF92FF92CF93DF930E94CEC260938B
:1039C000BC027093BD028093BE029093BF028091AF
:1039D000BC029091BD02A091BE02B091BF02409185
:1039E000170B5091180B6091190B70911A0B841BD7
:1039F000950BA60BB70B8093B8029093B902A093D6
:103A0000BA02B093BB024091B8025091B9026091E2
:103A1000BA027091BB0280910E0490910F04A091A4
:103A20001004B0911104481759076A077B0708F47E
:103A300047C08091BC029091BD02A091BE02B0919E
:103A4000BF028093170B9093180BA093190BB093A0
:103A50001A0B8091731D81115AC00E94CEC26093CF
:103A6000F00B7093F10B8093F20B9093F30B0E9489
:103A7000CEC26B017C01C091111C2C2F30E050E0B4
:103A800040E060E87DE88BE590E00F949F24C21A47
:103A9000D30AE40AF50AC092EC0BD092ED0BE09247
:103AA000EE0BF092EF0BD0E0D093E909C093E80958
:103AB00080911E1E8F5F80931E1E81E08093731D78
:103AC0008091160490911704A0911804B0911904E4
:103AD00040911204509113046091140470911504E4
:103AE000841B950BA60BB70BB695A7959795879555
:103AF00080930E0490930F04A0931004B0931104CC
:103B0000DF91CF91FF90EF90DF90CF90089586E006
:103B100090E09093E9098093E809D2CFCF92DF92A9
:103B2000EF92FF920F931F9380910E1C8C718C303B
:103B300029F08091A30A8073803319F50E94CEC2C8
:103B40006093BC027093BD028093BE029093BF024B
:103B5000E0910304F0910404808190910204892390
:103B6000B9F08091BC029091BD02A091BE02B091CB
:103B7000BF028093090590930A05A0930B05B093AB
:103B80000C051F910F91FF90EF90DF90CF9008955B
:103B90008091BC029091BD02A091BE02B091BF0283
:103BA0004091170B5091180B6091190B70911A0BE3
:103BB000841B950BA60BB70B8093B8029093B902A8
:103BC000A093BA02B093BB024091B8025091B902DF
:103BD0006091BA027091BB0280910E0490910F0423
:103BE000A0911004B091110484179507A607B70798
:103BF00040F68091170B9091180BA091190BB09182
:103C00001A0B892B8A2B8B2B09F48FC080910A0405
:103C100090910B04A0910C04B0910D04892B8A2B78
:103C20008B2B09F482C08091140B9091150B892B7A
:103C300049F08091140B9091150B01969093150B00
:103C40008093140B2091170B3091180B4091190B96
:103C500050911A0B80910A0490910B04A0910C04CE
:103C6000B0910D04C090B802D090B902E090BA02B1
:103C7000F090BB02281B390B4A0B5B0BA3E0B0E0B2
:103C80000F941A259695879577956795C616D7064A
:103C9000E806F90608F486C04091090550910A0526
:103CA00060910B0570910C050091170B1091180B8A
:103CB0002091190B30911A0B8091BC029091BD029A
:103CC000A091BE02B091BF02C0900905D0900A0534
:103CD000E0900B05F0900C05401B510B620B730B31
:103CE0008C199D09AE09BF09481759076A077B0758
:103CF00008F043C08091140B9091150B892BB1F102
:103D00008091140B9091150B089781F18091140B01
:103D10009091150B892B09F040C010920E0410925F
:103D20000F0410921004109211048091170B9091BF
:103D3000180BA091190BB0911A0B80930A04909361
:103D40000B04A0930C04B0930D048091BC029091DD
:103D5000BD02A091BE02B091BF028093170B909359
:103D6000180BA093190BB0931A0B0BCF81E090E0C6
:103D70009093150B8093140BD0CF8091140B9091DE
:103D8000150B892B39F08091140B9091150B059729
:103D900009F0BCCF85E090E0EBCF1092150B1092AC
:103DA000140BBBCF8091140B9091150B892B09F448
:103DB000BCCF8091B8029091B902A091BA02B091A3
:103DC000BB0222E0B695A795979587952A95D1F7DE
:103DD00080930E0490930F04A0931004B0931104E9
:103DE000A4CFCF92DF92EF92FF9280910E1C8C7144
:103DF0008C3031F08091A30A8073803309F0F1C0D8
:103E00000E94CEC26093BC027093BD028093BE023A
:103E10009093BF028091BC029091BD02A091BE021E
:103E2000B091BF024091170B5091180B6091190B84
:103E300070911A0B841B950BA60BB70B8093B802DD
:103E40009093B902A093BA02B093BB024091B8021A
:103E50005091B9026091BA027091BB0280910E0438
:103E600090910F04A0911004B0911104841795074C
:103E7000A607B70708F0B5C08091170B9091180BF3
:103E8000A091190BB0911A0B892B8A2B8B2B09F45B
:103E900098C08091F00B9091F10BA091F20BB09132
:103EA000F30B892B8A2B8B2B09F48BC08091EC0BA5
:103EB0009091ED0BA091EE0BB091EF0B892B8A2B1B
:103EC0008B2B09F47EC02091F00B3091F10B4091C7
:103ED000F20B5091F30B8091EC0B9091ED0BA091B4
:103EE000EE0BB091EF0BC090B802D090B902E09009
:103EF000BA02F090BB02281B390B4A0B5B0BA3E004
:103F0000B0E00F941A25C616D706E806F90608F49D
:103F10006DC08091140B9091150B892BF1F12091BC
:103F2000D8042223D1F18091160B9091A10A929589
:103F30009F70882381F0E091160B4091140B5091F3
:103F4000150BF0E0EE0FFF1FE552FB4F6081718112
:103F500064177507B1F01092160BE9EDF4E081E0FB
:103F60009817D8F04091140B5091150B6281738112
:103F70006417750719F43081231769F08F5F329643
:103F8000EFCF8091160B8F5F8093160B8091160BED
:103F9000981718F481E08093160B8091140B909180
:103FA000150B8093D80481E090E09093150B8093DB
:103FB000140B10920E0410920F0410921004109221
:103FC00011048091BC029091BD02A091BE02B091FB
:103FD000BF028093170B9093180BA093190BB0930B
:103FE0001A0BFF90EF90DF90CF9008958091140B03
:103FF0009091150B892B29F38091140B9091150B3F
:1040000001969093150B8093140B8091B8029091B8
:10401000B902A091BA02B091BB0222E0B695A79571
:10402000979587952A95D1F780930E0490930F0466
:10403000A0931004B0931104C4CF0E94CEC2609329
:10404000BC027093BD028093BE029093BF02809128
:10405000BC029091BD02A091BE02B091BF024091FE
:10406000170B5091180B6091190B70911A0B841B50
:10407000950BA60BB70B8093B8029093B902A0934F
:10408000BA02B093BB024091B8025091B90260915C
:10409000BA027091BB0280910E0490910F04A0911E
:1040A0001004B0911104481759076A077B0708F4F8
:1040B000F0C08091BC029091BD02A091BE02B0916F
:1040C000BF028093170B9093180BA093190BB0931A
:1040D0001A0B8091140B9091150B029709F04DC0AB
:1040E0008091D804833009F048C08091731D8111FC
:1040F00076C00E94CEC26093F00B7093F10B809358
:10410000F20B9093F30B0E94CEC26056734E864121
:1041100091096093EC0B7093ED0B8093EE0B9093F1
:10412000EF0B8091111C8150990B9093E9098093BA
:10413000E80981E08093731D81E08093AE02809155
:10414000B0029091B102A091B202B091B30242E0EC
:10415000880F991FAA1FBB1F4A95D1F780930E04A1
:1041600090930F04A0931004B093110481E090E0A9
:104170009093150B8093140B08958091731D8823E1
:1041800009F456C08091B0029091B102A091B202A0
:10419000B091B3024091B0025091B1026091B2026D
:1041A0007091B302B695A79597958795840F951F43
:1041B000A61FB71F80930E0490930F04A0931004C2
:1041C000B09311048091140B9091150B019690936C
:1041D000150B8093140B81E08093D804089580918F
:1041E000111C2091E8093091E90990E0AC0141509F
:1041F00051094217530791F04091E11D5091E21D82
:104200006091E31D7091E41D433051056105710516
:1042100028F020911E1E2F5F20931E1E2091081C47
:1042200027FF8ACF01979093E9098093E80984CF0B
:104230008091E8099091E909039708F4A3CF809150
:10424000140B9091150B892B09F09CCF0E94CEC2C4
:104250006093F00B7093F10B8093F20B9093F30B40
:104260000E94CEC26056734E864191096093EC0B5A
:104270007093ED0B8093EE0B9093EF0B81E090E049
:104280009093E9098093E8098093AE028093731DAF
:1042900008958091B0029091B102A091B202B091C4
:1042A000B3024091B0025091B1026091B20270919C
:1042B000B302B695A79597958795840F951FA61F6E
:1042C000B71F80930E0490930F04A0931004B09333
:1042D000110481CF8091E8099091E909499719F477
:1042E0001092731D08950E94CEC26093B402709321
:1042F000B5028093B6029093B7028091B402909178
:10430000B502A091B602B091B7024091F00B509166
:10431000F10B6091F20B7091F30B841B950BA60BC4
:10432000B70B8093B0029093B102A093B202B09306
:10433000B3028091E8099091E909892B09F05BC0EB
:1043400081E090E09093E9098093E8098091160458
:1043500090911704A0911804B0911904809312044D
:1043600090931304A0931404B09315048091B402A5
:104370009091B502A091B602B091B7028093160455
:1043800090931704A0931804B09319048091AE027F
:1043900091E089278093AE029093731D8091E11D77
:1043A0009091E21DA091E31DB091E41D0196A11D25
:1043B000B11D8093E11D9093E21DA093E31DB09386
:1043C000E41D8FE090E09093EB0B8093EA0B81E08B
:1043D0008093AF028091B4029091B502A091B60291
:1043E000B091B7028093F00B9093F10BA093F20B76
:1043F000B093F30B08958091E8099091E909019633
:104400009093E9098093E809A091E809B091E9093E
:10441000E091E809F091E909AA0FBB1FA952BB4F2F
:10442000EE0FFF1FEB52FB4F8D919C91208131814C
:10443000821B930BC8CF8091731D0E94CEC26093E4
:10444000BC027093BD028093BE029093BF02809124
:10445000BC029091BD02A091BE02B091BF024091FA
:10446000170B5091180B6091190B70911A0B841B4C
:10447000950BA60BB70B8093B8029093B902A0934B
:10448000BA02B093BB024091B8025091B902609158
:10449000BA027091BB0280910E0490910F04A0911A
:1044A0001004B0911104481759076A077B0708F4F4
:1044B000B4C08091BC029091BD02A091BE02B091A7
:1044C000BF028093170B9093180BA093190BB09316
:1044D0001A0B91E09093AF024091B8025091B9024B
:1044E0006091BA027091BB02769567955795479592
:1044F00040930E0450930F046093100470931104C2
:104500008091731D81114BC04CED55E060E070E06F
:1045100040931A0450931B0460931C0470931D0471
:1045200040910E0450910F04609110047091110499
:10453000769567955795479540930E0450930F04D1
:104540006093100470931104E0910604F091070445
:104550002081309105048091A10A807F232361F09E
:104560008034A1F42091E8093091E909283031051F
:10457000B1F49093731D13C0803489F42091E8093D
:104580003091E9092530310551F4F3CF803639F403
:104590002091E8093091E9092730310551F3209144
:1045A000741D3091751D80910D1E90910E1E28175F
:1045B000390720F08091081C87FF2FC08091731D60
:1045C000882359F18091A10A807F803431F50E94BF
:1045D000CEC28091270490912804A0912904B09123
:1045E0002A04E0910604F09107048081909105046B
:1045F000892399F08091E8099091E9098830910523
:1046000041F01092731D80911E1E8F5F80931E1EBD
:1046100008959093E9098093E8090895CF92DF9275
:10462000EF92FF92CF93DF930E94CEC26093BC02C1
:104630007093BD028093BE029093BF028091BC0232
:104640009091BD02A091BE02B091BF024091170BA4
:104650005091180B6091190B70911A0B841B950BDC
:10466000A60BB70B8093B8029093B902A093BA023D
:10467000B093BB024091B8025091B9026091BA0266
:104680007091BB0280910E0490910F04A0911004D0
:10469000B0911104481759076A077B0708F4A5C0B1
:1046A0008091BC029091BD02A091BE02B091BF0268
:1046B0008093170B9093180BA093190BB0931A0BC0
:1046C0008091B8029091B902A091BA02B091BB0258
:1046D00032E0B695A795979587953A95D1F780934F
:1046E0000E0490930F04A0931004B09311048091D2
:1046F000731D882331F14091E11D5091E21D6091BD
:10470000E31D7091E41D80910D1C90E0B0E0A0E0ED
:1047100084179507A607B707A0F48091111C90E0B5
:104720002091E8093091E9098217930709F049C0FF
:104730002091081C27FF3BC09093E9098093E8096A
:1047400036C00E94CEC26093F00B7093F10B809341
:10475000F20B9093F30B0E94CEC26B017C01C091CF
:10476000111C2C2F30E050E040E060E87DE88BE544
:1047700090E00F949F24C21AD30AE40AF50AC0926B
:10478000EC0BD092ED0BE092EE0BF092EF0BD0E041
:10479000D093E909C093E80910921A0410921B04FF
:1047A00010921C0410921D0481E08093731D81E01F
:1047B0008093AE02DF91CF91FF90EF90DF90CF908A
:1047C00008954091E11D5091E21D6091E31D7091AB
:1047D000E41D433051056105710508F4A9CF20910E
:1047E0001E1E2F5F20931E1EA3CF8091F50B90916C
:1047F000F60BA091F70BB091F80BB695A79597958E
:10480000879580930E0490930F04A0931004B093A7
:104810001104D0CF88E691E00C94978C0C940A2474
:104820000C940A240C940A240C940A2480ED92E03F
:104830000C94978C8F929F92AF92BF92CF92DF92FF
:10484000EF92FF928091731D882309F489C08091B3
:10485000131C24E6829FC00111242091741D309105
:10486000751D2817390708F06FC08091F00B9091E3
:10487000F10BA091F20BB091F30B892B8A2B8B2BB0
:1048800009F46EC08091EC0B9091ED0BA091EE0BB2
:10489000B091EF0B892B8A2B8B2B09F461C0F89414
:1048A0002091EA0B3091EB0B809116049091170444
:1048B000A0911804B091190440911204509113046E
:1048C0006091140470911504841B950BA60BB70B13
:1048D0008093F50B9093F60BA093F70BB093F80B26
:1048E000C090F00BD090F10BE090F20BF090F30B36
:1048F0008091EC0B9091ED0BA091EE0BB091EF0B32
:10490000C81AD90AEA0AFB0A7894D90120E83DE8D6
:104910004BE550E00F9425254B015C01A4E2B0E08B
:10492000A70196010F941A259B01AC01C501B401A2
:104930000F94D224C901FF90EF90DF90CF90BF90E9
:10494000AF909F908F90089588E691E0FF90EF9050
:10495000DF90CF90BF90AF909F908F900C94978CEA
:1049600090E080E0E8CF80ED92E00C94978C80910D
:10497000E11D9091E21DA091E31DB091E41D892BF2
:104980008A2B8B2B21F080ED92E00C94978C90E099
:1049900080E00895CF92DF92EF92FF928091731D95
:1049A000882309F45DC02091741D3091751D80919C
:1049B0000D1E90910E1E2817390708F049C0F89473
:1049C000E091EA0BF091EB0B8091F00B9091F10BE1
:1049D000A091F20BB091F30B4091EC0B5091ED0BC9
:1049E0006091EE0B7091EF0B841B950BA60BB70B30
:1049F0008093F50B9093F60BA093F70BB093F80B05
:104A000078942091F50B3091F60B4091F70B509173
:104A1000F80BA4E2B0E00F941A256B017C01C09260
:104A2000F50BD092F60BE092F70BF092F80BDF014A
:104A300020E037E843E953E00F942525A7019601CC
:104A40000F94D224C901FF90EF90DF90CF9008958A
:104A500088E691E0FF90EF90DF90CF900C94978CD8
:104A600090E080E0F0CF2091741D3091751D809111
:104A70000D1E90910E1E2817390790F5809108049D
:104A80009091090460ED72E00E94F5874091F50B6A
:104A90005091F60B6091F70B7091F80B440F551F76
:104AA000661F771F40931E0250931F0260932002DF
:104AB0007093210220910804309109044B34584925
:104AC0006540710560F44BE458E965E070E040939F
:104AD0001E0250931F0260932002709321020895DA
:104AE00080ED92E00E94978CD1CF8091731D882336
:104AF00009F19091071C92704091741D5091751DA1
:104B000020910D1E30910E1E4217530750F48091D4
:104B1000111C60ED72E0911102C068E671E00C9426
:104B2000F587992321F080ED92E00C94978C88E62C
:104B300091E0FBCF90E080E008952091741D3091CA
:104B4000751D80910D1E90910E1E28173907B0F526
:104B50009091A10A907F9034D9F48091E8099091C6
:104B6000E909439749F18091E8099091E909409753
:104B700019F18091E8099091E9098297E9F0809113
:104B8000F40B8823C9F068E671E084E20C94F587A1
:104B9000903691F48091E8099091E909099761F0C4
:104BA0008091E8099091E9090C9731F08091E8092A
:104BB0009091E909819719F7C901089588E691E074
:104BC0000C94978C8091741D9091751D20910D1EF1
:104BD00030910E1E8217930748F42091F40B222384
:104BE00049F068E671E084E20C94F58788E691E08C
:104BF0000C94978C08958091741D9091751D20914F
:104C00000D1E30910E1E8217930760F42091E80963
:104C10003091E9092130310549F068E671E084E21C
:104C20000C94F58788E691E00C94978C0895809118
:104C3000731D8823D9F08091E8099091E909892BA7
:104C4000A9F02091741D3091751D80910D1E9091D9
:104C50000E1E2817390730F468E671E08091111CA8
:104C60000C94F58788E691E00C94978C90E080E0B6
:104C70000895CF92DF92EF92FF92CF93DF93F89453
:104C8000C091E809D091E909C090F00BD090F10BE8
:104C9000E090F20BF090F30B0E94CEC26093A20260
:104CA0007093A3028093A4029093A50278948091BC
:104CB000EA0B9091EB0B9E0121503109289FE001F6
:104CC000299FD00D389FD00D11248091021C909106
:104CD000031CC80FD91F6091A2027091A30280919A
:104CE000A4029091A5026C197D098E099F09609319
:104CF0009E0270939F028093A0029093A10242E0D3
:104D00000E944C8D8C0F9D1F803D22E0920714F075
:104D1000805D9240209102023091030228173907EA
:104D200014F4821B930B97FF02C0820F931FDF9135
:104D3000CF91FF90EF90DF90CF9008958F929F9248
:104D4000AF92BF92FF920F931F93CF93DF93F8948C
:104D5000C091E809D091E9098090F00B9090F10B97
:104D6000A090F20BB090F30BF090AE020E94CEC276
:104D70006093A2027093A3028093A4029093A50271
:104D80007894209719F4C091111CD0E08091EA0B1F
:104D90009091EB0B2197C89F8001C99F100DD89F60
:104DA000100D1124C091021CD091031C6091A2022D
:104DB0007091A3028091A4029091A50268197909CB
:104DC0008A099B0960939E0270939F028093A002C0
:104DD0009093A10241E00E944C8D8C0F9D1F800F8B
:104DE000911FFF2011F088599E4F803D22E09207CD
:104DF00014F0805D92402091020230910302281746
:104E0000390714F4821B930B97FF02C0820F931F84
:104E1000DF91CF911F910F91FF90BF90AF909F9026
:104E20008F900895CF92DF92EF92FF92CF93DF930E
:104E3000F894C091E809D091E909C090F00BD090A6
:104E4000F10BE090F20BF090F30B0E94CEC2609356
:104E5000A2027093A3028093A4029093A502789477
:104E6000C330D1050CF046C02091EA0B3091EB0B1A
:104E70002197C29FC001C39F900DD29F900D112416
:104E8000C091021CD091031CAA96C80FD91F609133
:104E9000A2027091A3028091A4029091A5026C19C4
:104EA0007D098E099F0960939E0270939F028093F3
:104EB000A0029093A10241E00E944C8D8C0F9D1F97
:104EC000803D22E0920714F0805D92402091020222
:104ED000309103022817390714F4821B930B97FFB4
:104EE00002C088599E4FDF91CF91FF90EF90DF90E5
:104EF000CF900895C330D10531F02091EA0B309165
:104F0000EB0B2297B6CFC0E7D0E0C1CF8F929F9234
:104F1000AF92BF92FF920F931F93CF93DF93F894BA
:104F20000091E8091091E9098090F00B9090F10B45
:104F3000A090F20BB090F30BF090AE020E94CEC2A4
:104F40006093A2027093A3028093A4029093A5029F
:104F500078948091021C9091031CEC0101151105BD
:104F600049F0000F111FF801E952FB4FC081D181B8
:104F7000C80FD91F6091A2027091A3028091A40270
:104F80009091A502681979098A099B0960939E028C
:104F900070939F028093A0029093A10241E00E942F
:104FA0004C8D8C0F9D1FFF2011F088599E4F803D26
:104FB00022E0920714F0805D92402091020230912D
:104FC00003022817390714F4821B930B97FF02C0C2
:104FD00088599E4FDF91CF911F910F91FF90BF9005
:104FE000AF909F908F900895CF92DF92EF92FF92B3
:104FF000CF93DF93F894C091E809D091E909C0906C
:10500000F00BD090F10BE090F20BF090F30B0E94BC
:10501000CEC26093A2027093A3028093A4029093E5
:10502000A50278942091E8093091E9098091021C49
:105030009091031C232BB1F5EC01CE56DF4F60910C
:10504000A2027091A3028091A4029091A5026C1912
:105050007D098E099F0960939E0270939F02809341
:10506000A0029093A10241E00E944C8D8C0F9D1FE5
:10507000803D22E0920714F0805D92402091020270
:10508000309103022817390714F4821B930B97FF02
:1050900002C088599E4FDF91CF91FF90EF90DF9033
:1050A000CF900895CC0FDD1FC952DB4F0990D881F6
:1050B000C02DC80FD91FC3CF8F929F92AF92BF92BE
:1050C000FF920F931F93CF93DF93F894C091E80959
:1050D000D091E9098090F00B9090F10BA090F20B29
:1050E000B090F30BF090AE020E94CEC26093A20289
:1050F0007093A3028093A4029093A50278942097C2
:1051000011F4CDE2D0E08091EA0B9091EB0B219766
:10511000C89F8001C99F100DD89F100D1124C09108
:10512000021CD091031C6091A2027091A302809195
:10513000A4029091A502681979098A099B096093D4
:105140009E0270939F028093A0029093A10241E07F
:105150000E944C8D8C0F9D1F800F911FFF2011F01E
:1051600088599E4F803D22E0920764F0805D924016
:10517000DF91CF911F910F91FF90BF90AF909F90C3
:105180008F90089520910202309103022817390769
:1051900014F4821B930B97FFEBCF820F931FE8CF82
:1051A000CF92DF92EF92FF92CF93DF93F894C0916A
:1051B000E809D091E909C090F00BD090F10BE09094
:1051C000F20BF090F30B0E94CEC26093A202709398
:1051D000A3028093A4029093A50278948091021C6C
:1051E0009091031C209709F03FC02091EA0B309169
:1051F000EB0B4BE0429FE001439FD00D1124C80F01
:10520000D91F6091A2027091A3028091A402909193
:10521000A5026C197D098E099F0960939E02709307
:105220009F028093A0029093A10241E00E944C8DC6
:105230008C0F9D1F803D22E0920714F0805D92400C
:1052400020910202309103022817390714F4821BBF
:10525000930B97FF02C088599E4FDF91CF91FF902B
:10526000EF90DF90CF9008954091EA0B5091EB0BB7
:105270002197C49F9001C59F300DD49F300D1124FC
:10528000E901BDCFCF92DF92EF92FF92CF93DF93F0
:10529000F894C091E809D091E909C090F00BD09042
:1052A000F10BE090F20BF090F30B0E94CEC26093F2
:1052B000A2027093A3028093A4029093A502789413
:1052C000CC0FDD1FC952DB4F0990D881C02D8091D2
:1052D000021C9091031CC80FD91F6091A20270910B
:1052E000A3028091A4029091A5026C197D098E09F8
:1052F0009F0960939E0270939F028093A0029093F7
:10530000A10241E00E944C8D8C0F9D1F803D22E048
:10531000920714F0805D92402091020230910302C6
:105320002817390714F4821B930B97FF02C0885982
:105330009E4FDF91CF91FF90EF90DF90CF90089537
:105340000C944229CF92DF92EF92FF92CF93DF939A
:10535000F894C091E809D091E909C090F00BD09081
:10536000F10BE090F20BF090F30B0E94CEC2609331
:10537000A2027093A3028093A4029093A502789452
:10538000209719F4C091111CD0E02091EA0B3091C4
:10539000EB0B2197C29FC001C39F900DD29F900D30
:1053A00011246091061C70E00F948B24C091021CA4
:1053B000D091031CC60FD71F6091A2027091A30267
:1053C0008091A4029091A5026C197D098E099F0914
:1053D00060939E0270939F028093A0029093A1021B
:1053E00041E00E944C8D8C0F9D1F803D22E0920772
:1053F00014F0805D92402091020230910302281740
:10540000390714F4821B930B97FF02C088599E4FF3
:10541000DF91CF91FF90EF90DF90CF900895CF92E2
:10542000DF92EF92FF92CF93DF93F894C091E80957
:10543000D091E909C090F00BD090F10BE090F20B05
:10544000F090F30B0E94CEC26093A2027093A3026D
:105450008093A4029093A5027894CC0FDD1FC952CB
:10546000DB4F0990D881C02D8091021C9091031CC4
:10547000C80FD91F6091A2027091A3028091A4026B
:105480009091A5026C197D098E099F0960939E0277
:1054900070939F028093A0029093A10241E00E942A
:1054A0004C8D8C0F9D1F803D22E0920714F0805D93
:1054B000924020910202309103022817390714F418
:1054C000821B930B97FF02C0820F931FDF91CF9136
:1054D000FF90EF90DF90CF900895CF92DF92EF9200
:1054E000FF92CF93DF93F894C091E809D091E90936
:1054F000C090F00BD090F10BE090F20BF090F30B1A
:105500000E94CEC26093A2027093A3028093A40271
:105510009093A5027894CD7F8091021C9091031CFA
:105520002197A1F5EC016091A2027091A3028091F4
:10553000A4029091A5026C197D098E099F096093C0
:105540009E0270939F028093A0029093A10241E07B
:105550000E944C8D8C0F9D1F803D22E0920714F01D
:10556000805D924020910202309103022817390792
:1055700014F4821B930B97FF02C088599E4FDF9152
:10558000CF91FF90EF90DF90CF900895EC01C3563C
:10559000DF4FC9CFCF92DF92EF92FF92CF93DF938D
:1055A0008091731D882309F458C0F894C091E809CC
:1055B000D091E909C090F00BD090F10BE090F20B84
:1055C000F090F30B0E94CEC26093A2027093A302EC
:1055D0008093A4029093A5027894CC0FDD1FC9524A
:1055E000DB4F0990D881C02D8091021C9091031C43
:1055F000C80FD91F6091A2027091A3028091A402EA
:105600009091A5026C197D098E099F0960939E02F5
:1056100070939F028093A0029093A10241E00E94A8
:105620004C8D8C0F9D1F803D22E0920714F0805D11
:10563000924020910202309103022817390714F496
:10564000821B930B97FF02C088599E4FDF91CF9129
:10565000FF90EF90DF90CF90089590E080E0F6CF3C
:10566000CF92DF92EF92FF92CF93DF938091731DE1
:10567000882309F458C0F894C091E809D091E90949
:10568000C090F00BD090F10BE090F20BF090F30B88
:105690000E94CEC26093A2027093A3028093A402E0
:1056A0009093A5027894CC0FDD1FC952DB4F09906F
:1056B000D881C02D8091021C9091031CC80FD91F66
:1056C0006091A2027091A3028091A4029091A50220
:1056D0006C197D098E099F0960939E0270939F0249
:1056E0008093A0029093A10242E00E944C8D8C0F07
:1056F0009D1F803D22E0920714F0805D9240209132
:105700000202309103022817390714F4821B930B0D
:1057100097FF02C088599E4FDF91CF91FF90EF9085
:10572000DF90CF90089590E080E0F6CF0C94302B7E
:105730000F931F938091B0029091B102A091B20299
:10574000B091B30280932F0490933004A09331045E
:10575000B09332040E94CEC26093B4027093B5023B
:105760008093B6029093B7028091B4029091B502F3
:10577000A091B602B091B7024091F00B5091F10B9D
:105780006091F20B7091F30B841B950BA60BB70B7A
:105790008093B0029093B102A093B202B093B3028F
:1057A0008091E8099091E90901969093E909809325
:1057B000E80981E08093AF024091F00B5091F10B2A
:1057C0006091F20B7091F30B452B462B472B09F49C
:1057D00083C04091EC0B5091ED0B6091EE0B7091FA
:1057E000EF0B452B462B472B09F476C02091E80997
:1057F0003091E9092830310548F121E030E030935B
:10580000E9092093E809409116045091170460912A
:105810001804709119044093120450931304609378
:105820001404709315044091B4025091B502609134
:10583000B6027091B7024093160450931704609318
:105840001804709319048093F40B46C040912F0400
:1058500050913004609131047091320476956795CF
:10586000579547954093A6025093A7026093A802CC
:105870007093A9020091B0021091B1022091B2027E
:105880003091B3024091A6025091A7026091A80204
:105890007091A9020417150726073707A0F623E021
:1058A00030E03093E9092093E8098093731D10924A
:1058B000F40B8091E11D9091E21DA091E31DB09148
:1058C000E41D0196A11DB11D8093E11D9093E21D81
:1058D000A093E31DB093E41D8091A30A86FF2BC023
:1058E0008091E8099091E909039729F12091E8094D
:1058F0003091E9098091021C9091031C8A96233013
:105900003105E0F52091E8093091E9096091EA0B51
:105910007091EB0B21503109269FA001279F500D5C
:10592000369F500D1124840F951F6091E8097091E6
:10593000E9090E9408868091F00B9091F10BA091EB
:10594000F20BB091F30B8093EC0B9093ED0BA093C3
:10595000EE0BB093EF0B8091B4029091B502A09141
:10596000B602B091B7028093F00B9093F10BA09325
:10597000F20BB093F30B1F910F9108952091E8095A
:105980003091E9096091EA0B7091EB0B22503109DB
:10599000C3CFCF930E94CEC26093B4027093B5027E
:1059A0008093B6029093B7028091B4029091B502B1
:1059B000A091B602B091B7024091F00B5091F10B5B
:1059C0006091F20B7091F30B841B950BA60BB70B38
:1059D0008093B0029093B102A093B202B093B3024D
:1059E0004091B0025091B1026091B2027091B30245
:1059F00080911A0490911B04A0911C04B0911D0485
:105A0000481759076A077B0768F48091E11D909158
:105A1000E21DA091E31DB091E41D892B8A2B8B2BF5
:105A200009F02FC381E08093AF028091B002909182
:105A3000B102A091B202B091B30262E0B695A7950F
:105A4000979587956A95D1F780931A0490931B04D4
:105A5000A0931C04B0931D048091F00B9091F10B66
:105A6000A091F20BB091F30B8093EC0B9093ED0BA4
:105A7000A093EE0BB093EF0B8091B4029091B5021E
:105A8000A091B602B091B7028093F00B9093F10B06
:105A9000A093F20BB093F30B8091E8099091E90980
:105AA00001969093E9098093E8098091E809909123
:105AB000E909019759F02091E8093091E9098091AD
:105AC00008049091090482179307C8F581E090E0DB
:105AD0009093E9098093E809809116049091170446
