:020000040000FA
:100000000C9449120C94F5E50C94CAE50C949FE508
:100010000C9474E50C9449E50C941EE50C94F3E4FF
:100020000C94C8E40C947A120C947A120C947A1200
:100030000C947A120C947A120C947A120C94E1ECCF
:100040000C947A120C94978A0C94AD880C94C6CCBC
:100050000C947A120C947A120C947A120C947EE41A
:100060000C947A120C94EEE10C94C4E10C947A1284
:100070000C947A120C947A120C947A120C947A12D0
:100080000D949A130D940B130D947C120C947A1208
:100090000C947A120C947A120C947A120C947A12B0
:1000A0000C947A120C947A120D94CF100D94ED11D9
:1000B0000D945E110C947A120C947A120D94F30F35
:1000C0000D94170F0D943B0E0C947A120C947A1227
:1000D0000C947A120C947A120C948EE10C9464E1D4
:1000E0000C947A120C94A3E60C94BE7D0C94E57FDC
:1000F0000C9439B00D94E0480C9408930C94079636
:100100000C941E420C94A1940C9425EA0C94BB9977
:100110000C942B970C94A9900C941BA80C94A039C8
:100120000C94BCE60C94C0A10D94FF030C94529760
:100130000C94A8960D9472240C94CBDD0C9400784A
:100140000C94A1DD0C944C980C94EB980C94C6A7DD
:100150000C94ED960C94C7A00C9426410C944A99EB
:100160000C94D9980C941F970C9453990C94309933
:100170000C9440A00C94B9980D9462030C94AE6357
:100180000C940BB80C94C5620C94F7980C946B9972
:100190000C941A610C944F970C948EA70C94B3DDB9
:1001A0000C94EE7F0C94B9300C9415990C94327821
:1001B0000C94A8990C9487990C9451A10C945762B3
:1001C0000C94A0240C9460910C94EF950C9438B985
:1001D0000C94E0CE0C9402520C945E970C94F47F35
:1001E0000C9439FF0D94FB2A0C94C1A50C94218327
:1001F0000C948CDD0C94D8960C94C9960C942BEA34
:100200000C949BDD0C94C5950D943B360C94801694
:100210000C9425BC0C9498C00D9440060C94EB7E75
:100220000C94B9950C94C7920C94E9570D948402E0
:100230000C94FB960C94C6DD0C949EA70C94D916D6
:100240000C9424410C94B03F0C945F2F0C9477389D
:100250000C9452980C94BC140C94A5DD0C94259726
:100260000C94E7CF0C9435EA0C94B5800C94D040F4
:100270000D9416280C94001E0C945AFF0C940D97A4
:100280000C944C930C9445E60C940F480C947C12FF
:100290000C94807E0C94E5950C948F160D94862713
:1002A0000C9470980C9422970C948F980C94EB7F7C
:1002B0000C944DE60C94D0980C94B3950D94DB05FA
:1002C0000C94FA980D946C020C9494DD0C947C7848
:1002D0000C940BA20C9487960C9401970C9459994A
:1002E0000D947D040C94D6950C942A990C94F2A745
:1002F0000D94B1440C9487A70C946D960C94BF7721
:100300000C9485770C9485FF0C943F360C942799B8
:100310000C9484960C9408780C942EDC0C94A644CF
:100320000C946D970C94D2960C94FD980C9486972F
:100330000C94A2960C9465630C94C72C0C94B899F9
:100340000C94CD980C9421800C9490DD0C946797BC
:100350000C94AFDD0C94844D0C9439B20C94E5945C
:100360000C94F1980C94FE960C9445620C947E9932
:100370000C9495930C9443970C94683E0C941B99A1
:100380000C9437150C94F77F0C9449160C9474A7B1
:100390000C9451180C9477620C942DFF0C94967D5C
:1003A0000C9416DE0C94FB950C9499260C9493A255
:1003B0000C94CFDD0C94A7A10C945F990C94F5A13B
:1003C0000C94F07D0C9449370C94CA990C943A978C
:1003D0000C94B1A50D943F2A0C9422DE0C94D8788D
:1003E0000C943ABA0C9475E60C9447610C9492B252
:1003F0000C945B970C942E980D949E020C94759A15
:100400000C949C990C94C34D0C94FAA70C94F5A0F1
:100410000C9403990C94D6980D94A5050C94E0B90E
:100420000C94BE780D947B260C947F780C940496E3
:100430000C946D790C9477970C94E7960C94AE9687
:100440000C9462FF0C94B33B0C94767E0C9412993E
:100450000C94EA960C949E1B0C9464970C94C7DD44
:100460000C9407A60C9454930C942F9E0C9474999E
:100470000C9419EA0C942D990C94B9DD0C9446FF58
:100480000C9483FF0C9416970C942E970C949696CC
:100490000C94609E0C949E1E0C94CFA50C943197E6
:1004A0000D945F480C94EE980D9488020C94B199C9
:1004B0000C94BE990C94CEDC0C9476A20C9460A2A1
:1004C0000C9483970C947C3D0C94A9780C946DE665
:1004D0000C9466610C9424990D9420060C94F2956A
:1004E0000D9493050C94BA960C94D2770C944D9974
:1004F0000C94F0960C9447990C944BE60C945699F6
:100500000C9491930C94454D0C945EBC0C9443E672
:100510000C946D770C946D800C94D0950C94E991AB
:100520000C94331E0C945B960C9444930C94B07F03
:100530000C94A35E0C9406990C94581D0C9453963D
:100540000C945CA60C94D6990C9428350C9476786F
:100550000C9439990C944DFF0C94E2950C94909660
:100560000C94BB370C94A43A0C94AD7E0C94A882E6
:100570000C94F9B60C94BF800C94A27E0D941F2BA2
:100580000C94837E0C9480A70C94C3920C940093DB
:100590000C9473800C9477A60C9493990C94CC963D
:1005A0000C948CDC0C94AFE60C9421B60C943E9821
:1005B0000C9433990C942DA80C9412A80C940A97BF
:1005C0000C948F790C9453A60C9471490C9421EAE5
:1005D0000C9404970C9499960C9438150C94194F1C
:1005E0000D94AA020C94CF340C94B2770C9431EA97
:1005F0000D94F4290C9407970C9434980C94A17DD5
:100600000D94B5470C940B780C941E990C941563BB
:100610000C9498DD0C9433FF0C9440970C9454FF89
:100620000C94F5950C9489970C94EC950C94361DCC
:100630000C943FA20C9424A80C94B7960C941BEA3B
:100640000C9458980C94A2A00C94FA770C94E89807
:100650000C942FEA0C94CD930C9486220C9427A032
:100660000C944B160C9480970C94FE950C9448981F
:100670000C944C970C9431980C9421900C943699CE
:100680000C94BF950C9446970C94A2990C94869860
:100690000C94C6BA0C946D980C944A140C94F5966C
:1006A0000C94C9950C94BA830D9430060C9470FF89
:1006B0000C949F990C9410930C94AE990C943497CD
:1006C0000C9428290C94565F0C9493960C94C9149E
:1006D0000C94A5960C943DBF0C9432A20C94C79830
:1006E0000C945C990C9402BD0C9461980C946296E5
:1006F0000C9429960C946E630C94A4CE0C94343311
:100700000C94C27F0C941FDE0D949C020C94F11586
:100710000D9480020C9458970C9450930C94ED9087
:100720000C94809A0C94E9A10C9476980C94019600
:100730000C94AAFF0C94B0310C948EFF0C9427EA11
:100740000C949CFF0C947CFF0C945CFF0C941BDDC0
:100750000C9487920C94789A0C941ADE0C94C1DD58
:100760000C9419940C944A160C94B1960C94AF986E
:100770000C948D960C94CEA70C949E770C94EF77E6
:100780000C943FFF0C9429EA0C9497170C94C146E3
:100790000C946FA70C94F0150C9405780C9481962A
:1007A0000C94C8630D9494020C94A9A20D94E503D3
:1007B0000C948D930C9417EA0C9487160C94064DA8
:1007C0000C9436170C94C0960C9468630C94DD8FCF
:1007D0000C948D990C94F3960C945B980C946AFF8E
:1007E0000C94E9780D94512C0C949F960C945B9F7B
:1007F0000D944B250C9452920C94CC9D0C9436A8DD
:100800000C94E1960C9465A60C94A8980C94741919
:100810000C94F57D0C9439150C94DB960C947C1497
:100820000C94DC9E0C9470630C9455970C94D193AB
:100830000C94D0990D9470020C9462990C94849944
:100840000C9409A80C9422D50C9481160C9436476C
:100850000C94023B0C946BA20C9477190C94B5BECB
:100860000C9499980C9448160C946C630C94B49660
:100870000C94CD950C9481E60D94C42C0C940F9996
:100880000C94DCA10C94C1980C9450990C947D7E2E
:100890000D94B6020C9441E60C941A7E0D94902BA4
:1008A0000D94B1030C94D3990C94D77F0C944C966F
:1008B0000C9400990C94E4960C94E27E0D94422BD7
:1008C0000C948F920C9471970C9489150C947D97CD
:1008D0000C94879E0C9418990C9448EA0C94BC953F
:1008E0000C945E980C94747E0C94A5990D947402EB
:1008F0000C943D970C943F990C9448930C942DEADA
:100900000C94D3980D948C020C946A970C941097C5
:100910000C9444240C9474970C945DB10C94B7A57A
:100920000C9480980C94ABDD0C946E990C94CB9243
:100930000C940E2C0C94DFA50C9461970C94C69625
:100940000C9481990C94D0B50C9431910C94A0988E
:100950000D947C020C9490990D94AE020C94D4D911
:100960000C942F610C9441990C94F21C0C944AA69F
:100970000C947EB80D94A6020C9489930C94C295A5
:100980000C9434470C9403B20C948A990C948CFF09
:100990000C9489A00C94867E0C949C9E0D94924598
:1009A0000C94137E0C94F49E0C94347F0C94D59389
:1009B0000C9433390C9449140C9464FF0C94827891
:1009C0000C947EDC0C94033A0C943AA10C94679836
:1009D0000C94A9610D94B2020C947B960C943D7F0B
:1009E0000C9442620C9440620C94B6950C947E96E2
:1009F0000C94CD3E0C9437970C946A980C94C527B0
:100A00000C94D47F0C94D3950D94042C0C94DD603D
:100A10000C94DD770D9498020C94FD770C94A73616
:100A20000C948DBD0C9449970D9419040C94BC91B1
:100A30000C944F980C9473540C941DEA0C94A44598
:100A40000C9423A10C9469CF0C94CF1D0C9425A277
:100A50000C9452BB0C9421990D94A2020D94CB03DB
:100A60000C940FA60C94C3960C9419970C9421DE49
:100A70000C94ED810C9441980D9490010C94DB99A9
:100A80000C9433EA0C948E7D0C9483980C941E92F3
:100A90000C94F4980C943A7E0C9486DD0C94ACB3D0
:100AA0000C945BDC0D9478020C9455980C94CDD08A
:100AB0000C9476FF0C9404930C944B9A0C94F89538
:100AC0000C948E970C9436E60C943C990C94CF962B
:100AD0000C94D5960C941C970C94C8A50C9437983C
:100AE0000C946ADC0C94C9780C9496990C947A97BF
:100AF0000C941E3C0C940C990C9479780C94EF8215
:100B00000C94CF830C944A610C94C4990C940E2ECF
:100B10000C94D9950C94F81F0C9465900C94A77FB5
:100B20000C9465990C94DEA00C94DC980C94C199FB
:100B30000C946EA60C9496970C94C39E0C94AAB435
:100B40000C94EF150C9444990D94BA020C94CCBFFC
:100B50000C944CA20C9427440C94B4990C9495FFDB
:100B60000C9489B70C949EA20C94003B0C94999918
:100B70000C946A630C9471990C9448810C94FC9DBC
:100B80000C9433A60C94E8500D9483050C94739840
:100B90000C94637D0C94DE960C949C960C940C93B0
:100BA0000C94E2980C9406180D9471010C94BD9667
:100BB0000C94023D0C9417400C9449E60C94677712
:100BC0000C9409990C948A960C94F17F0C94C99317
:100BD0000C9444980C9486160C94EDD30C94BDDDC3
:100BE0000C9475960C943ED00C9490420D948D0309
:100BF0000C948B920C947F7A0C943A150C94AB96CF
:100C00000C945D940C94DF950C94729A0C946498F7
:100C10000C94B6830C94FA7F0C94CB7F0C940D82C9
:100C20000C943BA60C945AB50D943C490C94CA986C
:100C30000C94BC980C94A6180C9455CE0D94FA45BF
:100C40000C94FF990C94ECD20C94947F0C94DC954A
:100C50000C94E5980C9470960C9468990D949002FD
:100C60000C94C7430C9429950C94CD990C9423EAC9
:100C70000C94171A0D94A3240C944DD20C9420D6E6
:100C80000C94AB990C94D0DD0C9413970C94B97F11
:100C90000C9428970D94EA460C948EE60C94C79910
:100CA0000C94DF980C94A3FF0C94CFD10C94F8967D
:100CB0000C941FEA0C948D91526573657420636FD8
:100CC0006E74726F6C2069732063757272656E74D6
:100CD0006C792064697361626C65642E00436F6D8A
:100CE0006D732068616C7465642E204E6578742085
:100CF000627974652077696C6C2072657365742005
:100D00007468652041726475696E6F2E00005370BF
:100D100065656475696E6F20323032342E30322E44
:100D20003200737065656475696E6F2032303234DD
:100D3000303200000030303200FF0A506167652019
:100D4000686173206E6F74206265656E20696D70D6
:100D50006C656D656E74656420796574000A426F18
:100D60006F7374206C6F6F6B7570207461626C654B
:100D7000000A326E642049676E6974696F6E204D97
:100D80006170000A326E64204675656C204D61709A
:100D9000000A50616765203920436667000A547273
:100DA000696D2031205461626C65000A56565420EA
:100DB0004D6170000A426F6F7374204D6170000ABC
:100DC0005067203620436F6E666967000A414652BD
:100DD000204D6170000A5067203420436667000A86
:100DE00049676E6974696F6E204D6170000A5067C3
:100DF000203220436667000A5645204D6170000A84
:100E00003D3D3D436F6D6D616E642048656C703D86
:100E10003D3D0A0A416C6C20636F6D6D616E6473B9
:100E2000206172652073696E676C6520636861720A
:100E3000616374657220616E642061726520636F06
:100E40006E636174656E617465642077697468208F
:100E5000746865697220706172616D657465727322
:100E6000200A776974686F757420737061636573A5
:100E70002E53796E7461783A20203C636F6D6D61FA
:100E80006E643E2B3C706172616D65746572313EBB
:100E90002B3C706172616D65746572323E2B3C70E3
:100EA0006172616D657465724E3E0A0A3D3D3D4C4E
:100EB000697374206F6620436F6D6D616E64733D5E
:100EC0003D3D0A0A41202D20446973706C6179739D
:100ED000203331206279746573206F6620637572E8
:100EE00072656E745374617475732076616C756588
:100EF0007320696E2062696E61727920286C697650
:100F0000652064617461290A42202D204275726E49
:100F10002063757272656E74206D617020616E64FD
:100F200020636F6E666967506167652076616C75D6
:100F3000657320746F20656570726F6D0A43202D94
:100F4000205465737420434F4D20706F72742E20AF
:100F500020557365642062792054756E65727374D0
:100F60007564696F20746F20736565207768657498
:100F700068657220616E20454355206973206F6E4D
:100F8000206120676976656E2073657269616C20E7
:100F90000A20202020706F72742E205265747572A2
:100FA0006E7320612062696E617279206E756D6268
:100FB00065722E0A4E202D205072696E74206E6567
:100FC00077206C696E652E0A50202D2053657420A1
:100FD00063757272656E7420706167652E20205390
:100FE000796E7461783A2020502B3C706167654EB1
:100FF000756D6265723E0A52202D2053616D652029
:101000006173204120636F6D6D616E640A53202D02
:1010100020446973706C6179207369676E617475BF
:101020007265206E756D6265720A51202D205361C4
:101030006D65206173205320636F6D6D616E640A6E
:1010400056202D20446973706C6179206D61702089
:101050006F7220636F6E66696750616765207661A5
:101060006C75657320696E2062696E6172790A57CA
:10107000202D20536574206F6E6520627974652081
:10108000696E206D6170206F7220636F6E66696794
:10109000506167652E202045787065637473206207
:1010A000696E61727920706172616D6574657273C9
:1010B0002E200A2020202053796E7461783A202057
:1010C000572B3C6F66667365743E2B3C6E6577628A
:1010D0007974653E0A74202D205365742063616C19
:1010E0006962726174696F6E2076616C7565732ECA
:1010F0002020457870656374732062696E6172792F
:1011000020706172616D65746572732E2020546168
:10111000626C6520696E6465782069732065697406
:1011200068657220302C200A20202020312C206F6E
:101130007220322E202053796E7461783A20207408
:101140002B3C74626C655F6964783E2B3C6E6577FE
:1011500056616C7565313E2B3C6E657756616C75DA
:1011600065323E2B3C6E657756616C75654E3E0A66
:101170005A202D20446973706C61792063616C6919
:1011800062726174696F6E2076616C7565730A5462
:10119000202D20446973706C6179732032353620BC
:1011A000746F6F7468206C6F6720656E7472696508
:1011B0007320696E2062696E6172790A72202D2037
:1011C000446973706C6179732032353620746F6FA7
:1011D0007468206C6F6720656E74726965730A5558
:1011E000202D205072657061726520666F722066D6
:1011F00069726D77617265207570646174652E2007
:10120000546865206E657874206279746520726513
:101210006365697665642077696C6C2063617573BA
:1012200065207468652041726475696E6F20746F03
:101230002072657365742E0A3F202D2044697370F7
:101240006C61797320746869732068656C702070B4
:10125000616765002C2000575545004F3200496EEC
:101260006C65742074656D7000436F6F6C616E7493
:1012700000526573657420636F6E74726F6C2069C1
:10128000732063757272656E746C79206469736122
:10129000626C65642E00436F6D6D732068616C74C1
:1012A00065642E204E6578742062797465207769B4
:1012B0006C6C20726573657420746865204172647B
:1012C00075696E6F2E004552523B20496E636F72F6
:1012D0007265637420454550524F4D2073697A659D
:1012E000003030320020002000200020002020208C
:1012F0002000537065656475696E6F20323032343A
:1013000030322E3200737065656475696E6F2032FD
:10131000303234303200537065656475696E6F2009
:1013200063737830323031392E380000008000206D
:10133000012001800020018000F0008001C000C079
:10134000002001C000800020010001040E11161AC7
:101350001C212A2C2E30323436383A3C3E4042444E
:1013600046484C4E505256585A5D5F63686F797DBF
:1013700000000000963007772C610EEEBA510999F3
:1013800019C46D078FF46A7035A563E9A395649E4F
:101390003288DB0EA4B8DC791EE9D5E088D9D29773
:1013A0002B4CB609BD7CB17E072DB8E7911DBF90CF
:1013B0006410B71DF220B06A4871B9F3DE41BE84F3
:1013C0007DD4DA1AEBE4DD6D51B5D4F4C785D3834F
:1013D00056986C13C0A86B647AF962FDECC9658AF3
:1013E0004F5C0114D96C0663633D0FFAF50D088D4F
:1013F000C8206E3B5E10694CE44160D5727167A2F3
:10140000D1E4033C47D4044BFD850DD26BB50AA54E
:10141000FAA8B5356C98B242D6C9BBDB40F9BCAC72
:10142000E36CD832755CDF45CF0DD6DC593DD1ABCE
:10143000AC30D9263A00DE518051D7C81661D0BFF2
:10144000B5F4B42123C4B3569995BACF0FA5BDB84E
:101450009EB802280888055FB2D90CC624E90BB1F2
:10146000877C6F2F114C6858AB1D61C13D2D66B64E
:101470009041DC760671DB01BC20D2982A10D5EFB2
:101480008985B1711FB5B606A5E4BF9F33D4B8E80E
:10149000A2C9077834F9000F8EA8099618980EE1B2
:1014A000BB0D6A7F2D3D6D08976C6491015C63E60E
:1014B000F4516B6B62616C1CD83065854E0062F232
:1014C000ED95066C7BA5011BC1F4088257C40FF58E
:1014D000C6D9B06550E9B712EAB8BE8B7C88B9FCB2
:1014E000DF1DDD62492DDA15F37CD38C654CD4FB0E
:1014F0005861B24DCE51B53A7400BCA3E230BBD4B2
:1015000041A5DF4AD795D83D6DC4D1A4FBF4D6D30D
:101510006AE96943FCD96E34468867ADD0B860DAB1
:10152000732D0444E51D03335F4C0AAAC97C0DDD0D
:101530003C710550AA41022710100BBE86200CC931
:1015400025B56857B3856F2009D466B99FE461CE8D
:101550000EF9DE5E98C9D9292298D0B0B4A8D7C7B1
:10156000173DB359810DB42E3B5CBDB7AD6CBAC00D
:101570002083B8EDB6B3BF9A0CE2B6039AD2B17429
:101580003947D5EAAF77D29D1526DB048316DC7385
:10159000120B63E3843B64943E6A6D0DA85A6A7A29
:1015A0000BCF0EE49DFF099327AE000AB19E077D85
:1015B00044930FF0D2A3088768F2011EFEC20669A9
:1015C0005D5762F7CB67658071366C19E7066B6E05
:1015D000761BD4FEE02BD3895A7ADA10CC4ADD6729
:1015E0006FDFB9F9F9EFBE8E43BEB717D58EB06085
:1015F000E8A3D6D67E93D1A1C4C2D83852F2DF4F29
:10160000F167BBD16757BCA6DD06B53F4B36B24884
:10161000DA2B0DD84C1B0AAFF64A0336607A044128
:10162000C3EF60DF55DF67A8EF8E6E3179BE694684
:101630008CB361CB1A8366BCA0D26F2536E26852A8
:1016400095770CCC03470BBBB91602222F26055504
:10165000BE3BBAC5280BBDB2925AB42B046AB35C28
:10166000A7FFD7C231CFD0B58B9ED92C1DAEDE5B84
:10167000B0C2649B26F263EC9CA36A750A936D0268
:10168000A906099C3F360EEB8567077213570005C4
:10169000824ABF95147AB8E2AE2BB17B381BB60CE8
:1016A0009B8ED2920DBED5E5B7EFDC7C21DFDB0B44
:1016B000D4D2D38642E2D4F1F8B3DD686E83DA1F68
:1016C000CD16BE815B26B9F6E177B06F7747B718C4
:1016D000E65A0888706A0FFFCA3B06665C0B011168
:1016E000FF9E658F69AE62F8D3FF6B6145CF6C16C4
:1016F00078E20AA0EED20DD75483044EC2B3033968
:10170000612667A7F71660D04D476949DB776E3EC3
:101710004A6AD1AEDC5AD6D9660BDF40F03BD837E7
:1017200053AEBCA9C59EBBDE7FCFB247E9FFB53043
:101730001CF2BDBD8AC2BACA3093B353A6A3B42467
:101740000536D0BA9306D7CD2957DE54BF67D923C3
:101750002E7A66B3B84A61C4021B685D942B6F2A67
:1017600037BE0BB4A18E0CC31BDF055A8DEF022DC3
:101770000000000041311B1982623632C3532D2B09
:1017800004C56C6445F4777D86A75A56C796414FC9
:10179000088AD9C849BBC2D18AE8EFFACBD9F4E3A9
:1017A0000C4FB5AC4D7EAEB58E2D839ECF1C988769
:1017B0005112C24A1023D953D370F4789241EF6189
:1017C00055D7AE2E14E6B537D7B5981C9684830549
:1017D00059981B8218A9009BDBFA2DB09ACB36A929
:1017E0005D5D77E61C6C6CFFDF3F41D49E0E5ACDE9
:1017F000A2248495E3159F8C2046B2A76177A9BEE9
:10180000A6E1E8F1E7D0F3E82483DEC365B2C5DAE8
:10181000AAAE5D5DEB9F464428CC6B6F69FD707688
:10182000AE6B3139EF5A2A202C09070B6D381C1288
:10183000F33646DFB2075DC6715470ED30656BF468
:10184000F7F32ABBB6C231A275911C8934A0079068
:10185000FBBC9F17BA8D840E79DEA92538EFB23C08
:10186000FF79F373BE48E86A7D1BC5413C2ADE5808
:10187000054F79F0447E62E9872D4FC2C61C54DBC8
:10188000018A159440BB0E8D83E823A6C2D938BFC8
:101890000DC5A0384CF4BB218FA7960ACE968D13A8
:1018A0000900CC5C4831D7458B62FA6ECA53E177A8
:1018B000545DBBBA156CA0A3D63F8D88970E969148
:1018C0005098D7DE11A9CCC7D2FAE1EC93CBFAF548
:1018D0005CD762721DE6796BDEB554409F844F5928
:1018E00058120E161923150FDA7038249B41233D28
:1018F000A76BFD65E65AE67C2509CB576438D04EC8
:10190000A3AE9101E29F8A1821CCA73360FDBC2AC7
:10191000AFE124ADEED03FB42D83129F6CB20986A7
:10192000AB2448C9EA1553D029467EFB687765E2A7
:10193000F6793F2FB7482436741B091D352A120447
:10194000F2BC534BB38D485270DE657931EF7E6047
:10195000FEF3E6E7BFC2FDFE7C91D0D53DA0CBCC27
:10196000FA368A83BB07919A7854BCB13965A7A827
:101970004B98833B0AA99822C9FAB50988CBAE10C7
:101980004F5DEF5F0E6CF446CD3FD96D8C0EC27487
:1019900043125AF3022341EAC1706CC1804177D8E7
:1019A00047D7369706E62D8EC5B500A584841BBCA7
:1019B0001A8A41715BBB5A6898E87743D9D96C5A47
:1019C0001E4F2D155F7E360C9C2D1B27DD1C003E07
:1019D000120098B9533183A09062AE8BD153B59267
:1019E00016C5F4DD57F4EFC494A7C2EFD596D9F627
:1019F000E9BC07AEA88D1CB76BDE319C2AEF2A85A7
:101A0000ED796BCAAC4870D36F1B5DF82E2A46E1A6
:101A1000E136DE66A007C57F6354E8542265F34DC6
:101A2000E5F3B202A4C2A91B6791843026A09F29C6
:101A3000B8AEC5E4F99FDEFD3ACCF3D67BFDE8CF26
:101A4000BC6BA980FD5AB2993E099FB27F3884AB26
:101A5000B0241C2CF115073532462A1E7377310746
:101A6000B4E17048F5D06B513683467A77B25D6346
:101A70004ED7FACB0FE6E1D2CCB5CCF98D84D7E0C6
:101A80004A1296AF0B238DB6C870A09D8941BB84C6
:101A9000465D2303076C381AC43F1531850E0E28A6
:101AA00042984F6703A9547EC0FA795581CB624CA6
:101AB0001FC538815EF423989DA70EB3DC9615AA46
:101AC0001B0054E55A314FFC996262D7D85379CE46
:101AD000174FE149567EFA50952DD77BD41CCC6226
:101AE000138A8D2D52BB963491E8BB1FD0D9A00626
:101AF000ECF37E5EADC265476E91486C2FA05375C6
:101B0000E836123AA90709236A5424082B653F11C5
:101B1000E479A796A548BC8F661B91A4272A8ABDA5
:101B2000E0BCCBF2A18DD0EB62DEFDC023EFE6D9A5
:101B3000BDE1BC14FCD0A70D3F838A267EB2913F45
:101B4000B924D070F815CB693B46E6427A77FD5B45
:101B5000B56B65DCF45A7EC5370953EE763848F725
:101B6000B1AE09B8F09F12A133CC3F8A72FD249325
:101B700000000000376AC2016ED4840359BE4602D9
:101B8000DCA80907EBC2CB06B27C8D0485164F0595
:101B9000B851130E8F3BD10FD685970DE1EF550C41
:101BA00064F91A095393D8080A2D9E0A3D475C0B25
:101BB00070A3261C47C9E41D1E77A21F291D601EA5
:101BC000AC0B2F1B9B61ED1AC2DFAB18F5B5691981
:101BD000C8F23512FF98F713A626B111914C731075
:101BE000145A3C152330FE147A8EB8164DE47A1739
:101BF000E0464D38D72C8F398E92C93BB9F80B3A55
:101C00003CEE443F0B84863E523AC03C6550023D58
:101C100058175E366F7D9C3736C3DA3501A9183404
:101C200084BF5731B3D59530EA6BD332DD01113320
:101C300090E56B24A78FA925FE31EF27C95B2D26E0
:101C40004C4D62237B27A0222299E62015F3242104
:101C500028B4782A1FDEBA2B4660FC29710A3E2878
:101C6000F41C712DC376B32C9AC8F52EADA2372F74
:101C7000C08D9A70F7E75871AE591E739933DC72B4
:101C80001C2593772B4F517672F11774459BD575B0
:101C900078DC897E4FB64B7F16080D7D2162CF7CA4
:101CA000A4748079931E4278CAA0047AFDCAC67BC8
:101CB000B02EBC6C87447E6DDEFA386FE990FA6E08
:101CC0006C86B56B5BEC776A025231683538F36924
:101CD000087FAF623F156D6366AB2B6151C1E96050
:101CE000D4D7A665E3BD6464BA0322668D69E06754
:101CF00020CBD74817A115494E1F534B7975914AF0
:101D0000FC63DE4FCB091C4E92B75A4CA5DD984DB3
:101D1000989AC446AFF00647F64E4045C124824427
:101D20004432CD4173580F402AE649421D8C8B4303
:101D30005068F154670233553EBC755709D6B75603
:101D40008CC0F853BBAA3A52E2147C50D57EBE51E7
:101D5000E839E25ADF53205B86ED6659B187A45813
:101D60003491EB5D03FB295C5A456F5E6D2FAD5FCF
:101D7000801B35E1B771F7E0EECFB1E2D9A573E38F
:101D80005CB33CE66BD9FEE73267B8E5050D7AE453
:101D9000384A26EF0F20E4EE569EA2EC61F460ED87
:101DA000E4E22FE8D388EDE98A36ABEBBD5C69EA63
:101DB000F0B813FDC7D2D1FC9E6C97FEA90655FF63
:101DC0002C101AFA1B7AD8FB42C49EF975AE5CF847
:101DD00048E900F37F83C2F2263D84F0115746F1B3
:101DE000944109F4A32BCBF5FA958DF7CDFF4FF66F
:101DF000605D78D95737BAD80E89FCDA39E33EDB13
:101E0000BCF571DE8B9FB3DFD221F5DDE54B37DC0E
:101E1000D80C6BD7EF66A9D6B6D8EFD481B22DD542
:101E200004A462D033CEA0D16A70E6D35D1A24D266
:101E300010FE5EC527949CC47E2ADAC6494018C7A6
:101E4000CC5657C2FB3C95C3A282D3C195E811C0C2
:101E5000A8AF4DCB9FC58FCAC67BC9C8F1110BC9AE
:101E6000740744CC436D86CD1AD3C0CF2DB902CEB2
:101E70004096AF9177FC6D902E422B921928E993F2
:101E80009C3EA696AB546497F2EA2295C580E094F6
:101E9000F8C7BC9FCFAD7E9E9613389CA179FA9D62
:101EA000246FB598130577994ABB319B7DD1F39A7E
:101EB0003035898D075F4B8C5EE10D8E698BCF8F3E
:101EC000EC9D808ADBF7428B82490489B523C68862
:101ED00088649A83BF0E5882E6B01E80D1DADC8116
:101EE00054CC938463A651853A1817870D72D58612
:101EF000A0D0E2A997BA20A8CE0466AAF96EA4AB36
:101F00007C78EBAE4B1229AF12AC6FAD25C6ADACF1
:101F10001881F1A72FEB33A6765575A4413FB7A5DD
:101F2000C429F8A0F3433AA1AAFD7CA39D97BEA2C1
:101F3000D073C4B5E71906B4BEA740B689CD82B741
:101F40000CDBCDB23BB10FB3620F49B155658BB01D
:101F50006822D7BB5F4815BA06F653B8319C91B9D1
:101F6000B48ADEBC83E01CBDDA5E5ABFED3498BE95
:101F7000000000006567BCB88BC809AAEEAFB512B7
:101F80005797628F32F0DE37DC5F6B25B938D79D0B
:101F9000EF28B4C58A4F087D64E0BD6F018701D783
:101FA000B8BFD64ADDD86AF23377DFE056106358FF
:101FB0009F571950FA30A5E8149F10FA71F8AC42F7
:101FC000C8C07BDFADA7C76743087275266FCECD4B
:101FD000707FAD951518112DFBB7A43F9ED01887C3
:101FE00027E8CF1A428F73A2AC20C6B0C9477A083F
:101FF0003EAF32A05BC88E18B5673B0AD00087B2EF
:102000006938502F0C5FEC97E2F059858797E53DD2
:10201000D1878665B4E03ADD5A4F8FCF3F283377BA
:102020008610E4EAE37758520DD8ED4068BF51F8C6
:10203000A1F82BF0C49F97482A30225A4F579EE2AE
:10204000F66F497F9308F5C77DA740D518C0FC6D92
:102050004ED09F352BB7238DC518969FA07F2A277A
:102060001947FDBA7C204102928FF410F7E848A886
:102070003D58149B583FA823B6901D31D3F7A18932
:102080006ACF76140FA8CAACE1077FBE8460C3068E
:10209000D270A05EB7171CE659B8A9F43CDF154C06
:1020A00085E7C2D1E0807E690E2FCB7B6B4877C37A
:1020B000A20F0DCBC768B17329C704614CA0B8D972
:1020C000F5986F4490FFD3FC7E5066EE1B37DA56CE
:1020D0004D27B90E284005B6C6EFB0A4A3880C1C46
:1020E0001AB0DB817FD767399178D22BF41F6E93BA
:1020F00003F7263B66909A83883F2F91ED589329EA
:10210000546044B43107F80CDFA84D1EBACFF1A6D5
:10211000ECDF92FE89B82E4667179B54027027ECBD
:10212000BB48F071DE2F4CC93080F9DB55E74563C1
:102130009CA03F6BF9C783D3176836C1720F8A79A9
:10214000CB375DE4AE50E15C40FF544E2598E8F695
:1021500073888BAE16EF3716F84082049D273EBC7D
:10216000241FE92141785599AFD7E08BCAB05C3381
:102170003BB659ED5ED1E555B07E5047D519ECFF21
:102180006C213B62094687DAE7E932C8828E8E709D
:10219000D49EED28B1F951905F56E4823A31583A15
:1021A00083098FA7E66E331F08C1860D6DA63AB569
:1021B000A4E140BDC186FC052F2949174A4EF5AF61
:1021C000F376223296119E8A78BE2B981DD99720DD
:1021D0004BC9F4782EAE48C0C001FDD2A566416A55
:1021E0001C5E96F779392A4F97969F5DF2F123E5A9
:1021F00005196B4D607ED7F58ED162E7EBB6DE5FD9
:10220000528E09C237E9B57AD9460068BC21BCD0E4
:10221000EA31DF888F56633061F9D622049E6A9ACC
:10222000BDA6BD07D8C101BF366EB4AD53090815B0
:102230009A4E721DFF29CEA511867BB774E1C70F98
:10224000CDD91092A8BEAC2A461119382376A580A4
:102250007566C6D810017A60FEAECF729BC973CA8C
:1022600022F1A457479618EFA939ADFDCC5E114570
:1022700006EE4D766389F1CE8D2644DCE841F864A4
:1022800051792FF9341E9341DAB12653BFD69AEB18
:10229000E9C6F9B38CA1450B620EF01907694CA190
:1022A000BE519B3CDB3627843599929650FE2E2EEC
:1022B00099B95426FCDEE89E12715D8C7716E134E4
:1022C000CE2E36A9AB498A1145E63F03208183BB58
:1022D0007691E0E313F65C5BFD59E949983E55F1D0
:1022E0002106826C44613ED4AACE8BC6CFA9377E2C
:1022F00038417FD65D26C36EB389767CD6EECAC4DC
:102300006FD61D590AB1A1E1E41E14F38179A84BDF
:10231000D769CB13B20E77AB5CA1C2B939C67E01C7
:1023200080FEA99CE59915240B36A0366E511C8EB3
:10233000A7166686C271DA3E2CDE6F2C49B9D3949B
:10234000F081040995E6B8B17B490DA31E2EB11B9F
:10235000483ED2432D596EFBC3F6DBE9A691675187
:102360001FA9B0CC7ACE0C749461B966F10605DE73
:1023700000002100240027002A002D003000330037
:1023800001010000040107010A0100000A0B020913
:102390000C0D0E08070304010000000000000000FF
:1023A000000000000000000000000000000000002D
:1023B00000000000000012111000000000000000EA
:1023C000000000000000000000000000000000000D
:1023D000000020002300260029002C002F003200DE
:1023E000000100000301060109010102102020087C
:1023F0000810204010204080020102010804020160
:1024000001020408102040808040201008040201CE
:102410008004020180402010080402010804020127
:1024200001020408102040800102040810204080AE
:1024300000002200250028002B002E00310034006F
:1024400002010000050108010B010505050507054E
:1024500008080808020202020A0A08080404040420
:10246000010101010101010103030303030303034C
:10247000040707070C0C0C0C0C0C0C0C02020202DB
:1024800006060606060606060B0B0B0B0B0B0B0BC4
:10249000040111241FBECFEFD1E2DEBFCDBF00E0AB
:1024A0000CBF12E0A0E0B2E0E2E1FAE902E00BBF0B
:1024B00002C007900D92A638B107D9F720E2A6E82E
:1024C000B2E001C01D92A630B207E1F712E1C9E403
:1024D000D2E100E006C021970109802FFE010F9490
:1024E000DD4CC834D10780E00807A9F70F94EE3916
:1024F0000D94074D0C9400008F929F92AF92BF9263
:10250000CF92DF92EF92FF920F931F93CF93DF93BF
:1025100000D000D000D01F92CDB7DEB7E091AD1B48
:10252000EC71EC3031F48091A61B24E230E081FFA5
:1025300002C030E020E00091A11B1091A21B80910D
:10254000BF079091C007801B910B6AE070E00F9469
:10255000074C615071092C5D3F4F261737070CF46B
:10256000ECC07C836B838B819C811816190624F048
:10257000820F931F9C838B838B819C812817390743
:1025800014F43C832B838091BD079091BE07801B80
:10259000910B6AE070E00F94074C615071092617A7
:1025A00037070CF4CDC07E836D838D819E81181614
:1025B000190624F0820F931F9E838D838D819E8147
:1025C0002817390714F43E832D838091BB0790911F
:1025D000BC07801B910B6AE070E00F94074C6150C0
:1025E0007109261737070CF4AEC078876F838F8187
:1025F00098851816190624F0820F931F98878F83E9
:102600008F8198852817390714F438872F83809194
:10261000B9079091BA07801B910B6AE070E00F94A4
:10262000074C61507109261737070CF48FC07A8761
:10263000698789859A851816190624F0820F931FD9
:102640009A87898789859A852817390714F43A87E4
:1026500029872091A7053091A8054091A90550919F
:10266000AA05BE01675F7F4FEC3009F072C0A091F0
:10267000AB05B091AC050091AD051091AE054901D7
:1026800084E2880E911C5A0184E2A80EB11C7D01DF
:1026900084E2E80EF11C680184E2C80ED11CFE0140
:1026A00031968281938182179307A9F08417950749
:1026B00091F08A179B0779F08017910761F08815D0
:1026C000990549F08A159B0531F08E159F0519F083
:1026D0008C159D0519F401979383828332966E17AA
:1026E0007F07F9F68B819C8190937D0580937C0513
:1026F0008D819E8190937B0580937A058F8198854B
:10270000909379058093780589859A8590936B05D8
:1027100080936A052A960FB6F894DEBF0FBECDBF30
:10272000DF91CF911F910F91FF90EF90DF90CF90AD
:10273000BF90AF909F908F900895621B730B11CF45
:10274000621B730B30CF621B730B4FCF621B730B7B
:102750006ECFFE013196828193818217930719F023
:102760008417950719F401979383828332966E1725
:102770007F0789F7B7CF8091E7059091E8054397E8
:1027800060F181E090E09093E8058093E705809107
:102790009D0590919E05A0919F05B091A005809305
:1027A000990590939A05A0939B05B0939C05809101
:1027B0006C0590916D05A0916E05B0916F058093A9
:1027C0009D0590939E05A0939F05B093A0058091D1
:1027D000980591E08927809398058091AD1B8C71B5
:1027E0008C3031F08091490C8073803309F03FC008
:1027F0008091CF1F9091D01F892B01F58091A61B4E
:1028000081FD1CC080911A1D80FF2BC080911A1D74
:1028100080FF36C080918C1D90918D1DA0918E1DE2
:10282000B0918F1D0196A11DB11D80938C1D9093B9
:102830008D1DA0938E1DB0938F1D089580911A1D3C
:10284000816080931A1D8091BA1D8F7E8093BA1D7E
:102850008091A91B8F77D1F61092D01F1092CF1FB5
:10286000D5CF8091BA1D80618093BA1DCFCF809162
:102870001A1D816080931A1D8091BA1D8F7EF4CF3E
:1028800010928C1D10928D1D10928E1D10928F1D16
:10289000089508958091511D8930CCF481E090E035
:1028A00090937D0580937C0585E090E090937B0577
:1028B00080937A0589E090E090937905809378057C
:1028C0008DE090E090936B0580936A05089580E118
:1028D00090E090937D0580937C0584E090E0909358
:1028E0007B0580937A0588E090E09093790580934A
:1028F00078058CE090E0E6CFE0918505F0918605C3
:10290000808190918405892381F080911A1D80FD3A
:1029100013C08DE090E09093E8058093E7058091E7
:102920001A1D816080931A1D089580911A1D80FDE3
:1029300015C085E090E0EFCF8091E7059091E80524
:102940000D9759F08091C91D8F5F8093C91D8DE04F
:1029500090E09093E8058093E70508958091E7055E
:102960009091E8050597C9F38091C91D8F5F809309
:10297000C91D85E090E0EDCF8AE090E090937D0561
:1029800080937C058CE190E090937B0580937A05A1
:1029900008958091470C807F803421F58091511DEE
:1029A0008A306CF484E290E090937D0580937C05FE
:1029B00080E190E090937B0580937A0508958431BF
:1029C0001CF483E290E0F0CF8E311CF482E290E0C0
:1029D000EBCF8FE190E090937D0580937C058DE0B7
:1029E00090E0E8CF803609F041C08091511D24E28B
:1029F00030E08A3024F08431ACF423E230E03093CC
:102A00007D0520937C0529E030E030937B05209301
:102A10007A058A3004F587E190E0909379058093F8
:102A20007805089522E230E08E3134F02FE130E075
:102A3000883214F421E230E030937D0520937C0548
:102A400026E030E030937B0520937A058E3134F414
:102A500085E190E0E2CF86E190E0DFCF88321CF4A0
:102A600084E190E0DACF83E190E0D7CF0895089534
:102A7000089508959091511D8091AD1B8C718C30FB
:102A800081F59A30CCF08CE090E090937D058093B6
:102A90007C0583E090E090937B0580937A0586E047
:102AA00090E0909379058093780589E090E0909389
:102AB0006B0580936A05089581E090E090937D0511
:102AC00080937C0584E090E090937B0580937A0569
:102AD00087E090E090937905809378058AE090E014
:102AE000E6CF9A306CF086E090E090937D0580937D
:102AF0007C0583E090E090937B0580937A050895B0
:102B000081E090E090937D0580937C0584E090E0E7
:102B1000F2CF8091BF079091C0072091A11B309107
:102B2000A21BAC0144505109241735070CF04BC0CF
:102B3000821B930B97FD019695958795049790932B
:102B40007D0580937C058091BD079091BE07AC0107
:102B50004450510924173507CCF5821B930B97FD80
:102B6000019695958795049790937B0580937A05B8
:102B70008091BB079091BC07AC01445051092417C8
:102B800035073CF5821B930B97FD0196959587952C
:102B9000049790937905809378058091B907909177
:102BA000BA07AC014450510924173507ACF4821B15
:102BB000930B97FD019695958795049790936B05D8
:102BC00080936A05089580539D4FB2CF80539D4FE7
:102BD000C4CF80539D4FD6CF80539D4FE8CF0895EB
:102BE00008958091511D9091AD1B9C719C3091F581
:102BF0008A30CCF088E090E090937D0580937C054E
:102C000082E090E090937B0580937A0584E090E0E9
:102C1000909379058093780586E090E090936B051A
:102C200080936A0508951816ECF781E090E0909380
:102C30007D0580937C0583E090E090937B058093F5
:102C40007A0585E090E0909379058093780587E098
:102C500090E0E4CF8A308CF024E030E030937D05C2
:102C600020937C0582E090E090937B0580937A0529
:102C70003093790520937805D1CF18169CF621E082
:102C800030E030937D0520937C0583E090E0ECCF2D
:102C900008950895089580911A1D80FD10C0109226
:102CA000E8051092E70580911A1D816080931A1D36
:102CB00083E08093D11F81E08093980508958091EF
:102CC000A71B87FF05C01092E8051092E705F0CF1B
:102CD00080918C1D90918D1DA0918E1DB0918F1DA6
:102CE00084369105A105B10530F78091E7059091F3
:102CF000E8058D9701F31092E8051092E705DBCF08
:102D000008951092E8051092E7050895089510922D
:102D1000E8051092E70581E0809398050895809179
:102D2000470C807F803479F58091AD1B8C718C309D
:102D3000C9F488E090E090937D0580937C0582E063
:102D400090E090937B0580937A0584E090E09093E7
:102D500079058093780586E090E090936B058093E9
:102D60006A05089524E030E030937D0520937C05CA
:102D700082E090E090937B0580937A05309379050B
:102D800020937805EACF803661F78091AD1B8C7176
:102D90008C3079F286E090E090937D0580937C05FD
:102DA00082E090E090937B0580937A0524E030E008
:102DB000E5CF8091511D82319CF487E090E09093A3
:102DC0007D0580937C0582E090E090937B05809365
:102DD0007A0585E090E090937905809378050895D1
:102DE00086E090E090937D0580937C0581E090E003
:102DF00090937B0580937A0584E090E0ECCF20915E
:102E0000E5053091E6052817390730F44091B01BED
:102E10004817190608F0C901620F732F711D861734
:102E2000970708F4BC01CB010895462F2091A11B00
:102E30003091A21B821B930B6091E9057091EA050A
:102E4000242F30E02C5D3F4F0F94074CCB010197AE
:102E5000181619062CF0820F931F642F0C94FF167E
:102E600028173907D4F7821B930BF7CFCF938091A4
:102E7000AD1B8C718C3021F48091A61BC4E281FDC6
:102E8000C0E06C2F8091BF079091C0070E9415177A
:102E900090937D0580937C056C2F8091BD07909168
:102EA000BE070E94151790937B0580937A056C2FBF
:102EB0008091BB079091BC070E94151790937905EC
:102EC000809378056C2F8091B9079091BA070E9482
:102ED000151790936B0580936A05CF910895209103
:102EE000B01B260F3327331F181619061CF0820F4C
:102EF000931F08952817390714F4821B930B089524
:102F0000CF93C62F2091A11B3091A21B821B930B44
:102F10006091E9057091EA050F94074CCB016C2F85
:102F200001970E946F176C2FCF910C94FF16CF93CF
:102F30008091AD1B8C718C3029F48091A61BC091BF
:102F4000B01B81FDC0E06C2F8091BF079091C0073E
:102F50000E94801790937D0580937C056C2F809153
:102F6000BD079091BE070E94801790937B058093C8
:102F70007A0590939A1D8093991D6C2F8091BB07C1
:102F80009091BC070E9480179093790580937805F3
:102F90006C2F8091B9079091BA070E948017909387
:102FA0006B0580936A05CF910895262F4091A11B50
:102FB0005091A21B841B950B6091E9057091EA0565
:102FC0000F94074CCB01622F01970E946F179C0151
:102FD000215131092230310580F02251310922304E
:102FE000310570F0225131092230310560F087340B
:102FF000910558F086E490E0089580E190E008950E
:1030000082E290E0089584E390E00895CF93809168
:10301000AD1B8C718C3029F48091A61BC091B01B24
:1030200081FDC0E06C2F8091BF079091C0070E9486
:10303000D51790937D0580937C056C2F8091BD07FB
:103040009091BE070E94D51790937B0580937A05D7
:103050006C2F8091BB079091BC070E94D51790936D
:103060007905809378056C2F8091B9079091BA0704
:103070000E94D51790936B0580936A05CF910895B0
:10308000262F6091E9057091EA054091A11B5091AE
:10309000A21B841B950B0F94074CCB01622F0C9441
:1030A0006F17CF938091AD1B8C718C3029F4809178
:1030B000A61BC091B01B81FDC0E06C2F8091BF07A3
:1030C0009091C0070E94401890937D0580937C05E5
:1030D0006C2F8091BD079091BE070E94401890937D
:1030E0007B0580937A056C2F8091BB079091BC077C
:1030F0000E94401890937905809378056C2F8091F9
:10310000B9079091BA070E94401890936B0580937D
:103110006A05CF910895CF93C62F6091E90570910C
:10312000EA052091A11B3091A21B821B930B0F94E7
:10313000074CCB012091B01B2D3008F001976C2F6C
:103140000E946F176C2FCF910C94FF16CF93809134
:10315000AD1B8471843049F48091A61B81FD05C0AC
:103160008091470CC091B01B82FDC0E06C2F809114
:10317000BF079091C0070E948B1890937D058093A4
:103180007C056C2F8091BD079091BE070E948B1823
:1031900090937B0580937A056C2F8091BB0790916B
:1031A000BC070E948B1890937905809378056C2F4B
:1031B0008091B9079091BA070E948B1890936B0584
:1031C00080936A05CF910895CF92DF92EF92FF929C
:1031D0008091191E85FF45C080919805882309F4C8
:1031E00040C0E0912002F09121021995893621E03A
:1031F00092071CF088569140F9CF2091A11B309185
:10320000A21B821B930B20911F1E2370223031F4CE
:103210002091DC1C3091DD1C821B930B40911D1C06
:103220009C01220F331F50E0A0E0B1E0A41BB50BBE
:103230000F94EC4C6B017C01A091CE1DB091CF1D81
:103240009A010F94F44CC60ED71EE81EF91ECD2C21
:10325000DE2CEF2CFF24E7FCFA94D092CF1DC09215
:10326000CE1DFF90EF90DF90CF9008959B01AC01B1
:103270008091AD1B807649F41092D2071092D3074B
:103280001092D4071092D5070895803281F472E02D
:1032900056954795379527957A95D1F72093D2077C
:1032A0003093D3074093D4075093D50708958034C3
:1032B00029F45695479537952795F0CF8036E1F656
:1032C000A3E0B0E00F947D4C22E09695879577952A
:1032D00067952A95D1F76093D2077093D3078093AF
:1032E000D4079093D507089590E080E0089590E08A
:1032F00080E008958F929F92AF92BF92CF92DF921B
:10330000EF92FF929B01AC01F8948091C70786FF72
:1033100029C0C090C907D090CA07E090CB07F090B1
:10332000CC078090D5059090D605A090D705B09099
:10333000D805A091E905B091EA0578940F947D4CE9
:10334000A7019601281939094A095B090F94904C85
:10335000C901FF90EF90DF90CF90BF90AF909F900A
:103360008F9008957894A091C01FB091C11F0F94C1
:103370007D4CDC01CB01905CAF4FBF4F2FE0B69589
:10338000A795979587952A95D1F7E3CFDC01ED9125
:10339000FC910190F081E02D1994DC01ED91FC91FC
:1033A0000190F081E02D1994DF92EF92FF920F933C
:1033B0001F93CF93DF93EC018B0180910002882350
:1033C00021F0109200021092801D40911A1D9091E0
:1033D0006C1D80916C1D242F217030E0319521955A
:1033E0003109292720783327282720936C1D109234
:1033F000D30CD12CED2CF12CE016F10658F4C701BA
:103400008C0F9D1F0E942995F701ED52F34F818388
:10341000D394F0CF8091BA1D877F8093BA1DDF913E
:10342000CF911F910F91FF90EF90DF9008958091C1
:10343000BF079091C0072091A11B3091A21B821B56
:10344000930B0F949C062091470C22952F702430EB
:1034500051F018F4233009F108952630F1F02830A6
:1034600009F456C008950197843B910568F082E005
:1034700090E090937D0580937C0581E090E09093AF
:103480007B0580937A05089581E090E090937D0517
:1034900080937C0582E090E0F2CF9C0129573109AE
:1034A0002837310598F482E090E090937D05809371
:1034B0007C0583E090E090937B0580937A0581E022
:1034C00090E0909379058093780508950197803F67
:1034D000910578F083E090E090937D0580937C05E2
:1034E00081E090E090937B0580937A0582E090E004
:1034F000E8CF81E090E090937D0580937C0582E0A9
:1035000090E090937B0580937A0583E090E0D9CF9B
:103510009C012B5531092A353105C8F482E090E031
:1035200090937D0580937C0583E090E090937B05EC
:1035300080937A0584E090E09093790580937805F4
:1035400081E090E090936B0580936A0508959C015B
:10355000255B31092A353105A8F483E090E090938A
:103560007D0580937C0584E090E090937B058093BB
:103570007A0581E090E0909379058093780582E068
:1035800090E0E0CF01978E309140A8F084E090E089
:1035900090937D0580937C0581E090E090937B057E
:1035A00080937A0582E090E0909379058093780586
:1035B00083E090E0C7CF81E090E090937D05809319
:1035C0007C0582E090E090937B0580937A0583E010
:1035D00090E0909379058093780584E090E0B2CFF5
:1035E0000F931F93CF93DF93EC01CB012C813D818F
:1035F0002330310549F5E88DF98D00811181841B57
:10360000950B0F949C06EA8DFB8D2091C31F309182
:10361000C41F4091C51F5091C61FDC010F947D4C03
:1036200060587F4F8F4F9F4F3AE0969587957795DB
:1036300067953A95D1F7600F711F71836083DF91B1
:10364000CF911F910F91089500918C1D10918D1DA8
:1036500020918E1D30918F1D0730110521053105F8
:1036600070F3E88DF98D00811181841B950B0F9407
:103670009C062091C31F3091C41F4091C51F5091DB
:10368000C61FDC010F947D4C60587F4F8F4F9F4FBA
:103690002AE096958795779567952A95D1F7600FDB
:1036A000711F798B688B81E08F8BC9CFAC018091C2
:1036B000CF079091D007892B09F03FC080911B1D47
:1036C00090911C1D892BC9F180917C0590917D05FD
:1036D0008617970741F46091BF077091C00788E192
:1036E0009FE00C94F01A80917A0590917B058617E3
:1036F000970739F46091BD077091BE0788EF9EE08F
:10370000F0CF80917805909179058617970739F465
:103710006091BB077091BC0788ED9EE0E2CF80917D
:103720006A0590916B058617970739F46091B90780
:103730007091BA0788EB9EE0D4CF08950F931F9342
:103740000E94D4E260936C0570936D0580936E05C2
:1037500090936F0580916C0590916D05A0916E0519
:10376000B0916F054091C9075091CA076091CB078E
:103770007091CC07841B950BA60BB70B8093D905D2
:103780009093DA05A093DB05B093DC054091D90551
:103790005091DA056091DB057091DC058091D207CC
:1037A0009091D307A091D407B091D5074817590736
:1037B0006A077B0768F480918C1D90918D1DA09104
:1037C0008E1DB0918F1D892B8A2B8B2B09F0B3C2D4
:1037D0008091E7059091E80501969093E805809324
:1037E000E7058091C70780628093C7078091C9076A
:1037F0009091CA07A091CB07B091CC078093D505D3
:103800009093D605A093D705B093D80580916C0509
:1038100090916D05A0916E05B0916F058093C907D9
:103820009093CA07A093CB07B093CC074091D905DA
:103830005091DA056091DB057091DC058091DD0522
:103840009091DE05A091DF05B091E0058417950702
:10385000A607B70700F14091DD055091DE056091A4
:10386000DF057091E0058091E1059091E205A0915E
:10387000E305B091E40584179507A607B70758F04C
:1038800086E090E09093E8058093E70580911A1D0B
:10389000816080931A1D8091DD059091DE05A091D5
:1038A000DF05B091E0058093E1059093E205A093D8
:1038B000E305B093E4058091D9059091DA05A091D4
:1038C000DB05B091DC058093DD059093DE05A093C8
:1038D000DF05B093E0058091E5059091E60501963E
:1038E0002091E7053091E8058217930721F4209194
:1038F0001A1D20FD26C02091E7053091E8058217AA
:10390000930708F458C0E091E705F091E805319776
:10391000E730F10508F08BC04091D9055091DA05E8
:103920006091DB057091DC058827E656F34E8F4FDA
:103930000D94DD4CF21C361DF21C361DF21CF21CDF
:10394000361D81E090E09093E8058093E705809133
:103950009D0590919E05A0919F05B091A005809333
:10396000990590939A05A0939B05B0939C0580912F
:103970006C0590916D05A0916E05B0916F058093D7
:103980009D0590939E05A0939F05B093A0058091FF
:103990008C1D90918D1DA0918E1DB0918F1D029652
:1039A000A11DB11D80938C1D90938D1DA0938E1D24
:1039B000B0938F1DA8CF80911A1D8E7F80931A1D02
:1039C0008091C91D8F5F8093C91D1092D2071092FC
:1039D000D3071092D4071092D5071092E8051092E1
:1039E000E70591CF8091DD059091DE05A091DF057F
:1039F000B091E00584179507A607B707C0F480913A
:103A00001A1D8E7F80931A1D8091C91D8F5F809330
:103A1000C91D1092D2071092D3071092D4071092AA
:103A2000D50782E090E09093E8058093E7058091C8
:103A30001A1D80FF80C1E091E705F091E8053197FC
:103A4000E730F10508F075C09091AD1B9295969501
:103A500093708827E15DF24E8F4F0D94DD4C331E3D
:103A6000581D331E581D001ECF1D001E8091DD0500
:103A70009091DE05A091DF05B091E0054817590748
:103A80006A077B07A0F680911A1D8E7F80931A1D0E
:103A90008091C91D8F5F8093C91D1092D20710922B
:103AA000D3071092D4071092D50781E090E0BBCFE6
:103AB0009230A9F008F05BC0913009F033C18091D9
:103AC000D9059091DA05A091DB05B091DC0553E0B2
:103AD000B695A795979587955A95D1F722C080916D
:103AE000D9059091DA05A091DB05B091DC054091F4
:103AF000D9055091DA056091DB057091DC0513E082
:103B0000B695A795979587951A95D1F7F4E0769590
:103B1000679557954795FA95D1F7840F951FA61F7E
:103B2000B71F8093D2079093D307A093D407B09385
:103B3000D5078091490C86FFFEC0E091E705F09122
:103B4000E805EE0FFF1FEB55FA4F20813181809180
:103B5000A11B9091A21B820F931F0F949C06609152
:103B6000E7057091E8051F910F910C94561B809109
:103B7000D9059091DA05A091DB05B091DC05409163
:103B8000D9055091DA056091DB057091DC05E2E022
:103B9000B695A79597958795EA95D1F7B7CF9230C7
:103BA00069F0C8F4913009F0BDC08091D9059091B9
:103BB000DA05A091DB05B091DC05B3CF8091D90582
:103BC0009091DA05A091DB05B091DC05880F991F73
:103BD000AA1FBB1FA6CF2091D9053091DA054091CD
:103BE000DB055091DC05A3E0B0E00F947D4C6093C1
:103BF000D2077093D3078093D4079093D50799CFBA
:103C0000923009F108F458CF8091D9059091DA05E6
:103C1000A091DB05B091DC054091D9055091DA0502
:103C20006091DB057091DC0532E0B695A79597951C
:103C300087953A95D1F703E076956795579547951F
:103C40000A95D1F76ACF8091D9059091DA05A091B4
:103C5000DB05B091DC0542E0B695A7959795879571
:103C60004A95D1F75ECF9230C9F080F5913009F0D6
:103C700059C08091D9059091DA05A091DB05B091EA
:103C8000DC054091D9055091DA056091DB05709112
:103C9000DC05B695A79597958795CDCF8091D905E9
:103CA0009091DA05A091DB05B091DC054091D90532
:103CB0005091DA056091DB057091DC0512E0B69554
:103CC000A795979587951A95D1F727CF8091D90514
:103CD0009091DA05A091DB05B091DC050091D90542
:103CE0001091DA052091DB053091DC054091D90572
:103CF0005091DA056091DB057091DC05B695A795CA
:103D000097958795F2E07695679557954795FA953B
:103D1000D1F7840F951FA61FB71F800F911FA21FF9
:103D2000B31FFFCE1092D2071092D3071092D40780
:103D30001092D507FECE1F910F9108950E94D4E2F4
:103D40006093660570936705809368059093690595
:103D50008091660590916705A0916805B09169050D
:103D60004091D21F5091D31F6091D41F7091D51FE5
:103D7000841B950BA60BB70B8093DD059093DE0596
:103D8000A093DF05B093E0058091D21F9091D31FDF
:103D9000A091D41FB091D51F892B8A2B8B2B61F555
:103DA0008091D9059091DA05A091DB05B091DC05F1
:103DB000880F991FAA1FBB1F80936205909363050C
:103DC000A0936405B09365051092DD051092DE05A1
:103DD0001092DF051092E0058091660590916705CD
:103DE000A0916805B09169058093D21F9093D31F6D
:103DF000A093D41FB093D51F4091DD055091DE05EF
:103E00006091DF057091E0058091A1059091A20578
:103E1000A091A305B091A405481759076A077B072D
:103E200008F4DBC08091CF1F9091D01F0196909332
:103E3000D01F8093CF1F8091660590916705A09158
:103E40006805B09169058093D21F9093D31FA0930A
:103E5000D41FB093D51F8091191E85FF2BC0809170
:103E6000A91B8F7741F0833029F58091CF1F909166
:103E7000D01F0697F9F4E0912002F09121021995E4
:103E8000893621E092071CF088569140F9CF2091A5
:103E9000A11B3091A21B821B930B20911F1E23702C
:103EA000223021F42091DE1C821B91099093CF1DBA
:103EB0008093CE1D8091A91B8F77C1F481E0809300
:103EC00098058091DD059091DE05A091DF05B09108
:103ED000E005B695A795979587958093A105909352
:103EE000A205A093A305B093A4050895833009F01B
:103EF00074C04091DD055091DE056091DF05709141
:103F0000E0058091620590916305A0916405B091F0
:103F10006505481759076A077B0768F58091DD0535
:103F20009091DE05A091DF05B091E005B695A795CB
:103F3000979587958093A1059093A205A093A305DB
:103F4000B093A4052091DD053091DE054091DF0599
:103F50005091E005A3E0B0E00F947D4C96958795D5
:103F60007795679560936205709363058093640508
:103F70009093650508958091CF1F9091D01F06976B
:103F800071F4109298058091E7059091E8054397A8
:103F9000F0F48091E7059091E805429614C0809175
:103FA000CF1F9091D01F0497C9F481E080939805AA
:103FB0008091E7059091E805429748F08091E705E8
:103FC0009091E80542979093E8058093E70581E09A
:103FD00090E09093D01F8093CF1F08958091CF1FC2
:103FE0009091D01F039799F781E080939805CBCFEC
:103FF0000E94D4E260936C0570936D0580936E050A
:1040000090936F0580916C0590916D05A0916E0560
:10401000B0916F054091C9075091CA076091CB07D5
:104020007091CC07841B950BA60BB70B8093D90519
:104030009093DA05A093DB05B093DC054091D90598
:104040005091DA056091DB057091DC058091D20713
:104050009091D307A091D407B091D507481759077D
:104060006A077B0708F451C28091C9079091CA077B
:10407000A091CB07B091CC07892B8A2B8B2B09F40D
:10408000D0C08091D5059091D605A091D705B0916B
:10409000D805892B8A2B8B2B09F4C3C02091C90723
:1040A0003091CA074091CB075091CC078091D5053C
:1040B0009091D605A091D705B091D805281B390B52
:1040C0004A0B5B0BA3E0B0E00F947D4C969587956F
:1040D0007795679560935E0570935F0580936005A3
:1040E0009093610580911A1D816080931A1D409103
:1040F000D9055091DA056091DB057091DC0580915E
:104100005E0590915F05A0916005B09161058417EF
:104110009507A607B70708F0D6C080915A05909179
:104120005B05A0915C05B0915D0532E0880F991F99
:10413000AA1FBB1F3A95D1F780935A0590935B0550
:10414000A0935C05B0935D0580915A0590915B0545
:10415000A0915C05B0915D050196A11DB11D8093F4
:104160005A0590935B05A0935C05B0935D05809123
:10417000E7059091E80501969093E8058093E7059F
:104180008091E7059091E80501969093E80580936A
:10419000E7052091E7053091E8058091E5059091CC
:1041A000E60528173907E8F140915A0550915B055B
:1041B00060915C0570915D054F3B5F4F6D4F7D4F8A
:1041C00009F0BCC08091A5059091A605059739F12D
:1041D00081E090E09093A8058093A7058BE090E0A4
:1041E0009093AA058093A90583E190E09093AC0594
:1041F0008093AB058EE190E09093AE058093AD0582
:1042000085E090E09093A6058093A50584E08093D7
:10421000B11B84E290E09093E6058093E5050E944F
:10422000BB138091C9079091CA07A091CB07B091A9
:10423000CC078093D5059093D605A093D705B0936E
:10424000D80580916C0590916D05A0916E05B09197
:104250006F058093C9079093CA07A093CB07B093CB
:10426000CC078091490C86FF50C180916E1D81FD65
:104270004CC12091E7053091E8058091E9059091C6
:10428000EA0521503109289FA001299F500D389F30
:10429000500D11248091A11B9091A21B840F951F9A
:1042A0000F949C069C019091AD1B9C719C3021F455
:1042B0008091980581111CC16091E7057091E80516
:1042C000C9010C94561B80915A0590915B05A091F1
:1042D0005C05B0915D05880F991FAA1FBB1F8093D5
:1042E0005A0590935B05A0935C05B0935D058091A2
:1042F0005A0590915B05A0915C05B0915D05019612
:10430000A11DB11D80935A0590935B05A0935C0598
:10431000B0935D058091E7059091E8050196909333
:10432000E8058093E7056091D9057091DA058091E1
:10433000DB059091DC050E9436192BCF40915A0580
:1043400050915B0560915C0570915D054F375B4F47
:104350006F4F7D4D31F58091A5059091A60504978D
:1043600009F45DCF88E090E09093A8058093A705BD
:104370008BE090E09093AA058093A90589E190E0F5
:104380009093AC058093AB058BE190E09093AE05E4
:104390008093AD0584E090E09093A6058093A505F9
:1043A00036CF40915A0550915B0560915C05709144
:1043B0005D054F37574F6F4F7B4D11F58091A50528
:1043C0009091A605039709F42ACF88E090E0909396
:1043D000A8058093A7058AE090E09093AA058093B2
:1043E000A90588E190E09093AC058093AB058BE143
:1043F00090E09093AE058093AD0583E090E002CF0E
:1044000040915A0550915B0560915C0570915D0586
:104410004D3B5F4F674F7D4F11F58091A505909102
:10442000A605029709F4FBCE81E090E09093A805E1
:104430008093A7058CE090E09093AA058093A9054E
:1044400081E190E09093AC058093AB058DE190E025
:104450009093AE058093AD0582E090E0D3CE40917D
:104460005A0550915B0560915C0570915D054D3F6B
:104470005F4F674F7F4FC9F48091A5059091A605C6
:10448000019709F4CCCE81E090E09093A805809349
:10449000A70522E130E03093AA052093A905909367
:1044A000A6058093A50582E0B2CE2091E705309164
:1044B000E80501968217930708F0B3CE80911A1D84
:1044C0008E7F80931A1D8091CF1F9091D01F892BD2
:1044D00059F08091BA1D80618093BA1D8091C91DE9
:1044E0008F5F8093C91D9DCE8091BA1D8F7EF4CFC2
:1044F0008091E7059091E8056091B01B680F792FD6
:10450000711DC90188599E4FDCCE08950E94D4E2E6
:1045100060936C0570936D0580936E0590936F05A5
:1045200080916C0590916D05A0916E05B0916F051D
:10453000409194055091950560919605709197056D
:10454000841B950BA60BB70B8093D9059093DA05C6
:10455000A093DB05B093DC054091D9055091DA05B5
:104560006091DB057091DC058091D2079091D307B3
:10457000A091D407B091D507481759076A077B0760
:1045800008F481C18091D11F8F5F8093D11F8091EA
:10459000940590919505A0919605B0919705892B6A
:1045A0008A2B8B2B09F4F0C0809190059091910596
:1045B000A0919205B0919305892B8A2B8B2B09F43E
:1045C000E3C08091940590919505A0919605B091D6
:1045D00097054091900550919105609192057091D9
:1045E0009305841B950BA60BB70B880F991FAA1F69
:1045F000BB1F80935E0590935F05A0936005B09309
:1046000061054091D9055091DA056091DB05709103
:10461000DC0580915E0590915F05A0916005B091E9
:104620006105481759076A077B0708F4B2C08091F3
:10463000D11F8F5F8093D11F8091D11F8F5F809397
:10464000D11F8091D11F8C3099F080911A1D8E7FDF
:1046500080931A1D8091C91D8F5F8093C91D81E0D1
:104660008093D11F81E090E09093E8058093E70567
:104670008091940590919505A0919605B09197052C
:104680008093900590939105A0939205B093930524
:1046900080916C0590916D05A0916E05B0916F05AC
:1046A0008093940590939505A0939605B0939705F4
:1046B0008091D11F8C3069F08091C9079091CA0711
:1046C000A091CB07B091CC07892B8A2B8B2B09F0BB
:1046D000DAC08091E7059091E80501969093E8058E
:1046E0008093E7058091470C807F803609F05CC09D
:1046F0008091E7059091E805079709F05EC08091E9
:104700009D0590919E05A0919F05B091A005809375
:10471000990590939A05A0939B05B0939C05809171
:104720006C0590916D05A0916E05B0916F05809319
:104730009D0590939E05A0939F05B093A005809141
:104740001A1D816080931A1D80918C1D90918D1D82
:10475000A0918E1DB0918F1D0196A11DB11D80935A
:104760008C1D90938D1DA0938E1DB0938F1D8091F5
:10477000980591E089278093980581E090E09093D7
:10478000E8058093E70519C080E091EEA5EFB5E05C
:1047900030CF6091D9057091DA058091DB05909159
:1047A000DC050E94361964CF803439F48091E70526
:1047B0009091E805059709F4A2CF81E08093D11F7D
:1047C0008091C9079091CA07A091CB07B091CC07FF
:1047D0008093D5059093D605A093D705B093D805BF
:1047E00080916C0590916D05A0916E05B0916F055B
:1047F0008093C9079093CA07A093CB07B093CC07C7
:104800008091490C86FF3FC080916E1D81FD3BC0A9
:104810002091E7053091E8058091E9059091EA053E
:1048200021503109289FA001299F500D389F500D1C
:1048300011248091A11B9091A21B840F951F0F94AE
:104840009C069C019091AD1B9C719C3041F4809121
:104850009805882321F08091A61B81FF07C06091F5
:10486000E7057091E805C9010C94561B8091E70596
:104870009091E8056091B01B680F792F711DC901F7
:1048800088599E4FF1CF0895CF92DF92EF92FF9219
:10489000CF93DF93F894C091CF1FD091D01FC090D9
:1048A000C907D090CA07E090CB07F090CC070E94D0
:1048B000D4E26093740570937505809376059093A8
:1048C00077057894209174053091750540917605AF
:1048D000509177052C193D094E095F09A091C01F21
:1048E000B091C11F0F947D4CDC01CB01905CAF4FA8
:1048F000BF4F2FE0B695A795979587952A95D1F745
:10490000CC0FDD1FCB55DA4F488159812091A11B77
:104910003091A21B240F351F820F931F803D22E090
:1049200092074CF0805D9240DF91CF91FF90EF9025
:10493000DF90CF90089597FFF7CF88599E4FF4CF1F
:104940000E94D4E260936C0570936D0580936E05B0
:1049500090936F05E0918505F09186058081909197
:104960008405892321E030E011F430E020E08091DB
:10497000EB058217130609F06EC180916C059091CA
:104980006D05A0916E05B0916F058093DD05909344
:10499000DE05A093DF05B093E00580916C05909152
:1049A0006D05A0916E05B0916F054091C9075091BA
:1049B000CA076091CB077091CC07841B950BA60B9F
:1049C000B70B8093D9059093DA05A093DB05B093DC
:1049D000DC054091D9055091DA056091DB057091B5
:1049E000DC058091D2079091D307A091D407B091B4
:1049F000D507481759076A077B0708F426C1809135
:104A0000C70780628093C7078091E7059091E8050A
:104A1000892B09F496C08091C70780628093C707ED
:104A20008091E7059091E8058130910509F092C0E9
:104A30009093D01F8093CF1F86E490E09093EA0577
:104A40008093E90580919D0590919E05A0919F0519
:104A5000B091A0058093990590939A05A0939B052A
:104A6000B0939C0580916C0590916D05A0916E05A9
:104A7000B0916F0580939D0590939E05A0939F052F
:104A8000B093A00580911A1D816080931A1D6091DA
:104A9000D9057091DA058091DB059091DC0552E033
:104AA000660F771F881F991F5A95D1F727E030E0CE
:104AB00040E050E00F94904CCA01B9010E943619B1
:104AC00080918C1D90918D1DA0918E1DB0918F1D98
:104AD0000196A11DB11D80938C1D90938D1DA093F7
:104AE0008E1DB0938F1D8091C9079091CA07A09128
:104AF000CB07B091CC078093D5059093D605A093B2
:104B0000D705B093D80580916C0590916D05A09163
:104B10006E05B0916F058093C9079093CA07A09363
:104B2000CB07B093CC078091D2079091D307A09187
:104B3000D407B091D5078135934CA105B10508F490
:104B400089C01092D2071092D3071092D407109206
:104B5000D50708958091E7059091E8058230910589
:104B6000F1F49093D01F8093CF1F88E290E0909350
:104B7000EA058093E9052091D9053091DA05409145
:104B8000DB055091DC05A7E0B0E00F947D4C32E0EE
:104B900096958795779567953A95D1F742C080911C
:104BA000E7059091E8058330910599F49093D01F23
:104BB0008093CF1F86E490E09093EA058093E90507
:104BC0006091D9057091DA058091DB059091DC0543
:104BD00028C08091E7059091E8058430910521F582
:104BE0009093D01F8093CF1F86E490E09093EA05C6
:104BF0008093E9056091D9057091DA058091DB0514
:104C00009091DC0542E0660F771F881F991F4A9537
:104C1000D1F727E030E040E050E00F94904CCA011B
:104C2000B9010E9436195FCF8091E7059091E805A0
:104C30008530910509F495CF8091E7059091E805BD
:104C40008630910509F04FCFB1CF8091C7078F7D96
:104C50008093C70708958091C70785FF62C0809140
:104C60006C0590916D05A0916E05B0916F05409116
:104C7000DD055091DE056091DF057091E005841B34
:104C8000950BA60BB70B40915605509157056091B7
:104C9000580570915905440F551F661F771F2091C5
:104CA000E7053091E805481759076A077B07D8F4EC
:104CB000232B99F02091E7053091E8052630310546
:104CC00061F02091C91D2F5F2093C91D21E030E0C4
:104CD0003093E8052093E70514C020911A1D216048
:104CE00020931A1DF3CF26303105A1F421E030E0E6
:104CF0003093E8052093E7052091C91D2F5F20938D
:104D0000C91D8093560590935705A0935805B093FD
:104D1000590508952091E7053091E8052F5F3F4F31
:104D2000D7CF8091C70785FD95CF8091C707806257
:104D30008FCFCF92DF92EF92FF928091AD1B8C715B
:104D40008C3031F08091490C8073803309F0F1C0D0
:104D50000E94D4E2609366057093670580936805AE
:104D6000909369058091660590916705A09168050B
:104D7000B09169054091D21F5091D31F6091D41F0B
:104D80007091D51F841B950BA60BB70B8093DD0587
:104D90009093DE05A093DF05B093E0054091DD051B
:104DA0005091DE056091DF057091E0058091A105CD
:104DB0009091A205A091A305B091A4058417950731
:104DC000A607B70708F0B5C08091D21F9091D31FF6
:104DD000A091D41FB091D51F892B8A2B8B2B09F45E
:104DE00098C08091C9079091CA07A091CB07B09154
:104DF000CC07892B8A2B8B2B09F48BC08091D5058E
:104E00009091D605A091D705B091D805892B8A2B12
:104E10008B2B09F47EC02091C9073091CA074091BD
:104E2000CB075091CC078091D5059091D605A091E4
:104E3000D705B091D805C090DD05D090DE05E09093
:104E4000DF05F090E005281B390B4A0B5B0BA3E054
:104E5000B0E00F947D4CC616D706E806F90608F4B4
:104E60006DC08091CF1F9091D01F892BF1F12091BF
:104E70008B052223D1F18091D11F9091470C9295FF
:104E80009F70882381F0E091D11F4091CF1F5091F6
:104E9000D01FF0E0EE0FFF1FE955FA4F60817181DE
:104EA00064177507B1F01092D11FE5EAF5E081E0D3
:104EB0009817D8F04091CF1F5091D01F6281738115
:104EC0006417750719F43081231769F08F5F3296E4
:104ED000EFCF8091D11F8F5F8093D11F8091D11F21
:104EE000981718F481E08093D11F8091CF1F909183
:104EF000D01F80938B0581E090E09093D01F80932A
:104F0000CF1F1092A1051092A2051092A305109236
:104F1000A4058091660590916705A0916805B09100
:104F200069058093D21F9093D31FA093D41FB09391
:104F3000D51FFF90EF90DF90CF9008958091CF1F05
:104F40009091D01F892B29F38091CF1F9091D01F72
:104F500001969093D01F8093CF1F8091DD05909193
:104F6000DE05A091DF05B091E00522E0B695A7959A
:104F7000979587952A95D1F78093A1059093A205DF
:104F8000A093A305B093A405C4CFCF92DF92EF9274
:104F9000FF920F931F938091AD1B8C718C3029F081
:104FA0008091490C8073803319F50E94D4E260939C
:104FB0006605709367058093680590936905E09195
:104FC0008205F09183058081909181058923B9F054
:104FD0008091660590916705A0916805B09169057B
:104FE0008093900590939105A0939205B0939305BB
:104FF0001F910F91FF90EF90DF90CF9008958091D7
:10500000660590916705A0916805B091690540918A
:10501000D21F5091D31F6091D41F7091D51F841B54
:10502000950BA60BB70B8093DD059093DE05A0933F
:10503000DF05B093E0054091DD055091DE056091FC
:10504000DF057091E0058091A1059091A205A091E6
:10505000A305B091A40584179507A607B70740F6E6
:105060008091D21F9091D31FA091D41FB091D51FD2
:10507000892B8A2B8B2B09F48FC080918C05909102
:105080008D05A0918E05B0918F05892B8A2B8B2BD6
:1050900009F482C08091CF1F9091D01F892B49F0D5
:1050A0008091CF1F9091D01F01969093D01F809335
:1050B000CF1F2091D21F3091D31F4091D41F509108
:1050C000D51F80918C0590918D05A0918E05B09192
:1050D0008F05C090DD05D090DE05E090DF05F090F3
:1050E000E005281B390B4A0B5B0BA3E0B0E00F94E3
:1050F0007D4C9695879577956795C616D706E806F1
:10510000F90608F486C04091900550919105609190
:105110009205709193050091D21F1091D31F209199
:10512000D41F3091D51F8091660590916705A0919D
:105130006805B0916905C0909005D0909105E09008
:105140009205F0909305401B510B620B730B8C1969
:105150009D09AE09BF09481759076A077B0708F080
:1051600043C08091CF1F9091D01F892BB1F18091C6
:10517000CF1F9091D01F089781F18091CF1F909100
:10518000D01F892B09F040C01092A1051092A205F2
:105190001092A3051092A4058091D21F9091D31F65
:1051A000A091D41FB091D51F80938C0590938D054D
:1051B000A0938E05B0938F05809166059091670549
:1051C000A0916805B09169058093D21F9093D31F79
:1051D000A093D41FB093D51F0BCF81E090E09093A4
:1051E000D01F8093CF1FD0CF8091CF1F9091D01F21
:1051F000892B39F08091CF1F9091D01F059709F02E
:10520000BCCF85E090E0EBCF1092D01F1092CF1F63
:10521000BBCF8091CF1F9091D01F892B09F4BCCFB9
:105220008091DD059091DE05A091DF05B091E0054C
:1052300022E0B695A795979587952A95D1F7809303
:10524000A1059093A205A093A305B093A405A4CFB4
:10525000CF92DF92EF92FF920F931F930E94D4E2BE
:1052600060936C0570936D0580936E0590936F0548
:10527000E0918505F09186058081909184058923D0
:10528000B9F080916C0590916D05A0916E05B0917B
:105290006F058093940590939505A0939605B09320
:1052A00097051F910F91FF90EF90DF90CF90089599
:1052B00080916C0590916D05A0916E05B0916F0580
:1052C0004091C9075091CA076091CB077091CC07F4
:1052D000841B950BA60BB70B8093D9059093DA0529
:1052E000A093DB05B093DC054091D9055091DA0518
:1052F0006091DB057091DC058091D2079091D30716
:10530000A091D407B091D507481759076A077B07C2
:1053100040F28091E7059091E80501969093E805A9
:105320008093E7058091C70780628093C7078091CB
:10533000C9079091CA07A091CB07B091CC07892BE0
:105340008A2B8B2B09F40FC28091D5059091D6053D
:10535000A091D705B091D805892B8A2B8B2B09F406
:1053600002C28091E7059091E805419771F0809124
:10537000E7059091E805839741F080911A1D80FD23
:10538000E3C18091BA1D84FDDFC18091C90790916E
:10539000CA07A091CB07B091CC070091D505109119
:1053A000D6052091D7053091D8054091D905509167
:1053B000DA056091DB057091DC05801B910BA20B77
:1053C000B30B880F991FAA1FBB1F84179507A60749
:1053D000B70708F0A6C11092D2071092D307109217
:1053E000D4071092D5078091C7078F7B8093C7079A
:1053F000409194055091950560919605709197059F
:10540000C090C907D090CA07E090CB07F090CC07B6
:1054100080916C0590916D05A0916E05B0916F051E
:10542000009194051091950520919605309197056E
:105430004C195D096E097F09801B910BA20BB30B00
:10544000481759076A077B0708F0F6C081E090E02B
:105450009093E8058093E70580919D0590919E05C6
:10546000A0919F05B091A0058093990590939A050E
:10547000A0939B05B0939C0580916C0590916D0560
:10548000A0916E05B0916F0580939D0590939E0548
:10549000A0939F05B093A00580911A1D80FFC3C003
:1054A00080918C1D90918D1DA0918E1DB0918F1DAE
:1054B0000196A11DB11D80938C1D90938D1DA0930D
:1054C0008E1DB0938F1D8091AD1B8C718C3029F097
:1054D0008091490C8073803341F58091470C807F27
:1054E000803409F0B0C08091E7059091E8050197FC
:1054F00061F48091CF1F9091D01F0197A1F080910E
:10550000CF1F9091D01F029771F08091E705909185
:10551000E805439709F0E3C08091CF1F9091D01F19
:10552000049709F0DCC01092980580911A1D8160E3
:1055300080931A1D8091BA1D8F7E8093BA1D809131
:10554000D5059091D605A091D705B091D805409189
:10555000C9075091CA076091CB077091CC070091A1
:105560006C0510916D0520916E0530916F05800FCF
:10557000911FA21FB31F841B950BA60BB70B809323
:10558000D5059093D605A093D705B093D805809103
:105590006C0590916D05A0916E05B0916F0580939B
:1055A000C9079093CA07A093CB07B093CC0780910B
:1055B000490C86FF76CE80916E1D81FD72CE2091C2
:1055C000E7053091E8058091E9059091EA052150C1
:1055D0003109289FA001299F500D389F500D11249B
:1055E0008091A11B9091A21B840F951F0F949C0684
:1055F0009C019091AD1B9C719C3041F48091980569
:10560000882321F08091A61B81FFB6C06091E70539
:105610007091E805C9011F910F91FF90EF90DF9005
:10562000CF900C94561B10928C1D10928D1D1092D1
:105630008E1D10928F1D47CF83E190E09093E80577
:105640008093E70540CF803609F0A3C08091E7053D
:105650009091E805019751F48091D11F813009F4B0
:1056600062CF8091D11F823009F45DCF8091E70530
:105670009091E805439751F48091D11F823009F44D
:1056800052CF8091D11F833009F44DCF8091E7052F
:105690009091E805019741F48091D11F8430B9F1D0
:1056A0008091D11F853099F18091E7059091E805AF
:1056B000439741F48091D11F853049F18091D11FEA
:1056C000863029F180911A1D80FD25C080911A1D18
:1056D0008E7F80931A1D8091BA1D80612ECF80919C
:1056E000E7059091E805019731F48091CF1F9091E3
:1056F000D01F059761F08091E7059091E8054397E9
:1057000009F78091CF1F9091D01F0797D9F681E0BC
:10571000809398050ACF8091C91D8F5F8093C91D22
:10572000D5CF80911A1D80FF05C08091C91D8F5F64
:105730008093C91D80911A1D8E7F80931A1D8091C0
:10574000BA1D8F7E8093BA1D6091D9057091DA05DC
:105750008091DB059091DC050E9436198091C70786
:1057600080648093C7078091C9079091CA07A09170
:10577000CB07B091CC0703CF8091E7059091E80566
:105780006091B01B680F792F711DC90188599E4F18
:1057900042CF803809F096CF8091E7059091E805D7
:1057A000019751F48091D11F813009F4BCCE8091D2
:1057B000D11F823009F4B7CE8091E7059091E805BA
:1057C000439751F48091D11F833009F4ACCE80917E
:1057D000D11F843009F4A7CE8091E7059091E805A8
:1057E000019751F48091D11F853009F490CF8091B9
:1057F000D11F863009F48BCF8091E7059091E805A1
:10580000439709F05FCF8091D11F873009F47FCF94
:105810008091D11F883009F055CF79CFCF92DF9298
:10582000EF92FF92CF93DF930E94D4E260936605DC
:10583000709367058093680590936905809166056C
:1058400090916705A0916805B09169054091D21FBC
:105850005091D31F6091D41F7091D51F841B950B5D
:10586000A60BB70B8093DD059093DE05A093DF05B3
:10587000B093E0054091DD055091DE056091DF05B4
:105880007091E0058091A1059091A205A091A305DA
:10589000B091A405481759076A077B0708F449C067
:1058A0008091660590916705A0916805B0916905A2
:1058B0008093D21F9093D31FA093D41FB093D51F72
:1058C00080911A1D80FD5CC00E94D4E26093C907DC
:1058D0007093CA078093CB079093CC070E94D4E2C1
:1058E0006B017C01C091B01B2C2F30E050E040E0F8
:1058F00060E87DE88BE590E00F94904CC21AD30AE3
:10590000E40AF50AC092D505D092D605E092D705F3
:10591000F092D805D0E0D093E805C093E7058091D8
:10592000C91D8F5F8093C91D80911A1D816080936E
:105930001A1D80919D0590919E05A0919F05B091A3
:10594000A0054091990550919A0560919B05709131
:105950009C05841B950BA60BB70BB695A795979541
:1059600087958093A1059093A205A093A305B0937A
:10597000A405DF91CF91FF90EF90DF90CF90089535
:1059800086E090E09093E8058093E705D2CFCF9230
:10599000DF92EF92FF920E94D4E2609366057093CB
:1059A00067058093680590936905809166059091DD
:1059B0006705A0916805B09169054091D21F50918B
:1059C000D31F6091D41F7091D51F841B950BA60B1C
:1059D000B70B8093DD059093DE05A093DF05B093B0
:1059E000E0058091D21F9091D31FA091D41FB09158
:1059F000D51F892B8A2B8B2BC1F41092DD051092B9
:105A0000DE051092DF051092E00580916605909109
:105A10006705A0916805B09169058093D21F9093A6
:105A2000D31FA093D41FB093D51F4091DD05509193
:105A3000DE056091DF057091E0058091A1059091F0
:105A4000A205A091A305B091A405481759076A07BC
:105A50007B0708F4DEC02091D21F3091D31F409104
:105A6000D41F5091D51F80918C0590918D05A091E8
:105A70008E05B0918F05281B390B4A0B5B0BA3E0F9
:105A8000B0E00F947D4C96958795779567956093D8
:105A9000620570936305809364059093650580911A
:105AA000D21F9091D31FA091D41FB091D51F809386
:105AB0008C0590938D05A0938E05B0938F05409132
:105AC000DD055091DE056091DF057091E005809164
:105AD000620590916305A0916405B0916505481732
