:020000040000FA
:100000000C943F120D941C260D94F1250D94C625D9
:100010000D949B250D9470250D9445250D941A255E
:100020000D94EF240C9470120C9470120C947012B6
:100030000C9470120C9470120C9470120C94ADFC11
:100040000C9470120C94277F0C943D7D0C944ABE46
:100050000C9470120C9470120C9470120D94A524D0
:100060000C9470120D94EC1F0D94C21F0C9470121E
:100070000C9470120C9470120C9470120C947012F8
:100080000C94C1F80C9432F80C94A3F70C947012F1
:100090000C9470120C9470120C9470120C947012D8
:1000A0000C9470120C9470120C9415F30C9414F7B9
:1000B0000C9485F60C9470120C9470120C94A9F5A3
:1000C0000C94CDF40C94F1F30C9470120C94701207
:1000D0000C9470120C9470120D948C1F0D94621F6E
:1000E0000C9470120C94A0890C94F03F0C945F1344
:1000F0000D946A260C9472120C9426720C9440870C
:100100000C94DE8A0C94F0870C9464740C949D8893
:100110000C9431870C9497880C943D730C94A3AE87
:100120000C94F3710C94A9880C94DE870C946BC129
:100130000C94ABB40C94D78F0C9455570D945B1B57
:100140000D944D1B0C9429880C94788A0C94688724
:100150000C9461880C94D2560C94578A0C94E48ABF
:100160000C9493D60C943B560C94F5570C940FA218
:100170000C941E2C0C94A5E90C941E8A0C9446CE6B
:100180000C94B38A0C9467860D94C73F0C946788CF
:100190000C948FA10C9470B20C94E7890C94164EB9
:1001A0000C945B740C94C0870C9418140C947E37D8
:1001B0000C942A8A0C94156C0C94DDE10C9456DC9A
:1001C0000C94FD6D0C94F2B70C9417140C941D88CC
:1001D0000C9497890C9475D40D94ED0D0C94D11D4D
:1001E0000C940D730C94E7870C9408880C94D5DC60
:1001F0000C947E8A0C94C2880C9494880C94548A33
:100200000D9494260C9454830C942D8A0C94D8B598
:100210000C9432880C947A3C0C94C7E20C9452DC17
:100220000C947BFB0C94F7A10C9432AF0D947A06DE
:100230000C943F510C945F780D94531B0D947C3FAC
:100240000C94FA8A0C9461130C9473140C94A925E1
:100250000C94FE1F0C94D5870D9487170C9484740E
:100260000C9432A40C94E1FB0C9426880C94B58970
:100270000C94C26C0C946C8A0C944AE20C942FFB84
:100280000D94600D0C9428C00C943D880C941E872E
:100290000D943D050C9493A20C94F78A0C9416735C
:1002A0000C941B260C94986C0C94A3890C942088B5
:1002B0000D949F3C0C942C9D0C94B9E70C94626CAB
:1002C0000D94CA260C94CC8A0C9404870C9433FBAE
:1002D0000C94CF8A0C94498D0C94FC570C9492DCAE
:1002E0000C94686D0C942B870C944CE30C9446870B
:1002F0000C9400580C9416E20C94D7DC0C94817486
:100300000C9447E10C94BD1C0C9480890C9404E37C
:100310000C94098B0C9480DC0C945D2C0C94608AFA
:100320000D943B1B0C94E6340C949A880C945B88D7
:100330000C944CB00D94B20B0C945EDC0C940EA497
:100340000C9410E10C940F6D0C94838A0D940D0E97
:100350000C94668A0C949D760C9462130C9410E3B2
:100360000C946EE00C9483890C9476DB0C94898A4F
:100370000C94AD8A0C94ED8A0C940ADF0D94271B23
:100380000C949A870C9458880C94808A0D940F05CD
:100390000C9408E30C940D8F0C94A9140C943787DB
:1003A0000C9448170C9474E10D9429280C948A74C9
:1003B0000C94308A0C9485720C94F38A0C9448CD7A
:1003C0000C948F8A0C94F3D40C945C200C94BCE0B5
:1003D0000C9402880C94AF240C94DAB60C949C2DE7
:1003E0000D9474260D945A0B0C944EE20C94CFE2AB
:1003F0000C94A68F0C94C3870D9482050C94FE5721
:100400000C9446880C945F1D0C94B08A0C94B174C3
:100410000C94F1A10D944A020D942D280C94178888
:100420000C9457FA0C94FAB10C9470890C94BF890F
:100430000C943AA40C94FA570C9445FC0C94C9877C
:100440000D94241B0D9431060C94B1FB0C94C0A3A5
:100450000C9452A40C94A4120D943D060C94128793
:100460000C94A1870C94E2CD0C9408A20C94AEA23B
:100470000C945B240C94A0DC0C94C5880D94491B4F
:100480000C94F8270C9429B40C94E18A0C94DB8723
:100490000D9453060C94F1CF0C941A8B0C94AC353C
:1004A0000C94DDBB0C943A870C94ECDC0C941A8809
:1004B0000C9452830C94A7DC0C9488880D949905B5
:1004C0000C94B7A20C9437740C944AB10C945D8AC6
:1004D0000C9476A40C94438D0C94D6DF0D942128B3
:1004E0000C94F5860C940D210C94C08A0C94DC5568
:1004F0000C9475740C94DF890C9444460C94BC885D
:100500000C948B880C94A3720D94571B0C9492D569
:100510000C9461350C944E8A0C94368A0D94F33EFB
:100520000C9407570C943A880D942F0B0C942DBA09
:100530000C94728A0C94E7560C941C8D0C943F8A90
:100540000C94158A0C9419140C94DB8A0C948B87E8
:100550000C9452740C9473880C945E430D9423286D
:100560000C9414E10C9473A20C9416E80C94F2868B
:100570000C94D9550C949CA20D944A0C0C947D8932
:100580000C9411880C94A2230C94AA720D941C1B39
:100590000D94FD0D0C941F6E0C949B8A0D94181BEA
:1005A0000D945A1A0C942A4D0C945BDC0C94218700
:1005B0000C9444E30C94B4870C9451C20D94CF0274
:1005C0000C947B8A0C9486DC0C946D280C94CBE202
:1005D0000C94D8890C9446290C947C880C9449A4DA
:1005E0000C94CC870C94AC880C9499DC0C94093A4C
:1005F0000C945C220C94D6220D9424030C940CE3EE
:100600000C94D5560C94B2890C94D44B0C948588D8
:100610000C9460130D9417280C9440880C94438715
:100620000C946B280C94FC870C9482DE0C94338A17
:100630000D942F280C94518D0C94396D0C943EDE42
:100640000C941B8A0C94128A0C94B6880C946886BD
:100650000C94A48A0C941FA20D940A1A0C94A5A2BF
:100660000C94F8550D94EA040D94E60B0C94F94E95
:100670000C94FE860D9415280C94C4E00C94B4DC04
:100680000C94EDC00C94796D0C941C160C949B6C1E
:100690000C94CEDC0C94AB180C949E470C94E41292
:1006A0000D946B050D9408060C946A880C94A98926
:1006B0000C942DE90D9426050C948D6C0C945A8A9B
:1006C0000C942E6C0C94EA870C94928A0C94798882
:1006D0000D945C1B0C9408870C9414880C94C6D859
:1006E0000C94C1550C944FA20C94278A0C94E78A61
:1006F0000D945D260C947FFB0C94CD880D941D28E1
:100700000C94FA1E0D94EF050C9424870C94DF2BA7
:100710000D94311B0C9467740C94C8DC0C9412E299
:100720000C942F880C940F6F0C9480720C94B71457
:100730000C94596D0C94DEA30D942B280C94791510
:100740000C94098A0C94CE890C94F6870C94638AD5
:100750000C9466B70C94126D0C94158B0C943D8719
:100760000C94B9880C94CA720D94F1060C940C8BFD
:100770000D94A8060C9404730D94E6060D94521B78
:100780000C94B1240C94D5880C9418870C94B088E0
:100790000D94E83D0D943C030C94A3880C9478E0F0
:1007A0000D9425280C94AFA30C946D6C0C94828846
:1007B0000C94F08A0C9413730C944B8A0D940B03D5
:1007C0000C941B870D9470260C9487E20C9401A264
:1007D0000D9494060D941B280C945DDC0D94E32677
:1007E0000C9445340C9464880C943E580C946D8899
:1007F0000C94958A0C94C8E00C94BD4A0C946F8AB2
:100800000C94C8D70C947B260C94FF870C948774A7
:100810000D94D1040C94E4870C94096D0C94066D2E
:100820000C9476880C94C3E20C943C8A0C948C8AC9
:100830000D9431280C94468D0C9499B30C949E8A97
:100840000C94A6890C94C38A0C94FD6B0C9432739F
:100850000C9406730C947ADC0D942D1B0C94F76B9E
:100860000C94BA9F0C94906C0C94698A0D946D064C
:100870000C9434870C9476E00C940C8A0D94A82682
:100880000C94FEB80C940B880D9472260C944E6D4B
:100890000C945D1F0D946F040C948A6C0D94BA191E
:1008A0000D94A80D0C94AF890C94F8570C941E72FB
:1008B0000C94BD870C945BE30C947B740C9418E14E
:1008C0000C9473890C94AE140C9464A40C948E89CB
:1008D0000C9478FC0C942C880C94C98A0C94058890
:1008E0000C947CFC0C94D2870C94A9E10C94528853
:1008F0000D94DB060C9483E20C940E880C943488DF
:100900000D94720D0C94758A0C9424740C94378891
:100910000C94C0E00C94B4A30C94C2DC0C942AE0B8
:100920000C947BA20C948BE20C941EB50C9448E3BF
:100930000C9403750C9487890C947F770C94A18A8E
:100940000C940F8B0C94FB890C9475900C94BCDC6C
:100950000D94BE060C94AC890C94038B0C94C58941
:100960000C94CF870C949A890D946E3C0C94551C72
:100970000C94956C0C9480B60C94B1770C948FE227
:100980000D943F1B0D94201B0C9495E70C94497417
:100990000D947E0B0D94413D0D94121B0C9464C07C
:1009A0000C946DA40C9472E00C949FFA0C94C8887B
:1009B0000C940F870C94D88A0C94008B0D94F61924
:1009C0000C9455880C9487360C9401360C94F88955
:1009D0000C9471140C94426C0D9488040D946C2644
:1009E0000C9492DF0C94AC870D947E280C944D39B6
:1009F0000C94248A0C9470880C944C880C943B239F
:100A00000C94D58A0C9401870C947E740D94500D2F
:100A10000C9455BB0C94A2B90D94B5260C94F3DC40
:100A20000C94F8860C94D9BF0C94A5570C948D1E89
:100A30000C940A900D9468260D94CC0B0C9401151F
:100A40000C94BA870D9419280C94AEDC0C944A7857
:100A50000C94C68A0C9446780C944F880C94398A6E
:100A60000C940C6D0C94FD8A0D94980B0C948E884C
:100A70000D94A71A0C9415870C94F3870C947F6C33
:100A80000C946D890D94533F0D94B3060C94E1873B
:100A90000C94D8750C94D6D00C94008A0C94EA8AE5
:100AA0000D944E020C9491890C944E720C94BD8A54
:100AB0000C94E7FA0C94A02B0C94AC550C941CFAF3
:100AC0000C94EE890C94F1120C947B730C947C15AD
:100AD0000C94C4730C941EE00C949D890D94E7193A
:100AE0000C94C4E70C94FC1B0C94ED870D94371BFD
:100AF0000C940F8A0C948CDC0C94068A0C94FB8664
:100B00000C940C870C94B1130D9433280C945E88CC
:100B10000C94F9870C94428A0C94D28A0C94E5DCEC
:100B20000C94218A0C942F8F0C94AA8A0C94868A98
:100B30000C9422500C9437DD0C94FDAD0D949C2642
:100B40000C945A200C9438770C94188A0C944074A6
:100B50000C944F750C9465410C94128B0D94870680
:100B60000C9418DD0C9476890C94C98E0C94B3887F
:100B70000C94488A0C9431720C940CE10C94458AC4
:100B80000C94A8140C948AA20C948B890C9406A43F
:100B90000C94C2C10C945BA40C9423880C94D9AC23
:100BA0000C9491880C9422E00C9443880C949489C2
:100BB0000C9472730C94768B0C9470140C942554D2
:100BC0000C94518A0C9414FC0D94E4020C94C1B260
:100BD0000C94FA260C9478210C94C2890C945858E1
:100BE0000C94AF870C94A0880D94D6260C9491D0C9
:100BF0000C9445750C94C6870C9449880C946CBC75
:100C00000C9422490C9426E00C94D08C0C9426CFA2
:100C10000C947D760C94DEDC0D9424060C94B6DCEA
:100C20000C941AE00C9492870C94CD730C94758DEF
:100C30000C94AF140D9427280D94451B0C94AB1AFB
:100C40000D941F280D94A3030C947F880C94A78AFD
:100C50000C94988A0C94C7A30C94BF880C94FD74D0
:100C60000C94068B0C94C6DE0C9432D10C9464194F
:100C70000C9410730C944EDF0C94D9AE0C942E8708
:100C80000C9447A20C94CEA30C9438BD0C94C5B818
:100C90000C94D8870D94181A0C9472140C944F6C01
:100CA0000C94A688526573657420636F6E74726FBE
:100CB0006C2069732063757272656E746C79206440
:100CC000697361626C65642E00436F6D6D7320689B
:100CD000616C7465642E204E657874206279746549
:100CE0002077696C6C207265736574207468652068
:100CF00041726475696E6F2E00005370656564758E
:100D0000696E6F20323032342E30322E32007370E2
:100D100065656475696E6F203230323430320000A0
:100D20000030303200FF0A5061676520686173202F
:100D30006E6F74206265656E20696D706C656D659F
:100D40006E74656420796574000A426F6F73742055
:100D50006C6F6F6B7570207461626C65000A326E27
:100D6000642049676E6974696F6E204D6170000A76
:100D7000326E64204675656C204D6170000A5061CA
:100D80006765203920436667000A5472696D203117
:100D9000205461626C65000A565654204D61700003
:100DA0000A426F6F7374204D6170000A50672036DD
:100DB00020436F6E666967000A414652204D61709C
:100DC000000A5067203420436667000A49676E694D
:100DD00074696F6E204D6170000A506720322043A5
:100DE0006667000A5645204D6170000A3D3D3D434F
:100DF0006F6D6D616E642048656C703D3D3D0A0A03
:100E0000416C6C20636F6D6D616E647320617265FF
:100E10002073696E676C65206368617261637465D5
:100E20007220616E642061726520636F6E6361740D
:100E3000656E61746564207769746820746865699B
:100E40007220706172616D6574657273200A7769D2
:100E500074686F7574207370616365732E53796E57
:100E60007461783A20203C636F6D6D616E643E2B37
:100E70003C706172616D65746572313E2B3C7061CE
:100E800072616D65746572323E2B3C706172616D8A
:100E9000657465724E3E0A0A3D3D3D4C697374208F
:100EA0006F6620436F6D6D616E64733D3D3D0A0A50
:100EB00041202D20446973706C6179732033312097
:100EC0006279746573206F662063757272656E74E3
:100ED0005374617475732076616C75657320696EE7
:100EE0002062696E61727920286C69766520646180
:100EF0007461290A42202D204275726E206375723A
:100F000072656E74206D617020616E6420636F6E17
:100F1000666967506167652076616C7565732074DA
:100F20006F20656570726F6D0A43202D20546573C4
:100F30007420434F4D20706F72742E2020557365BE
:100F4000642062792054756E657273747564696F7C
:100F500020746F20736565207768657468657220FA
:100F6000616E20454355206973206F6E20612067B4
:100F70006976656E2073657269616C200A20202095
:100F800020706F72742E2052657475726E732061BA
:100F90002062696E617279206E756D6265722E0ACB
:100FA0004E202D205072696E74206E6577206C691A
:100FB0006E652E0A50202D20536574206375727261
:100FC000656E7420706167652E202053796E7461A0
:100FD000783A2020502B3C706167654E756D6265D4
:100FE000723E0A52202D2053616D652061732041AD
:100FF00020636F6D6D616E640A53202D2044697308
:10100000706C6179207369676E6174757265206EAA
:10101000756D6265720A51202D2053616D652061E6
:1010200073205320636F6D6D616E640A56202D200E
:10103000446973706C6179206D6170206F722063F8
:101040006F6E666967506167652076616C75657360
:1010500020696E2062696E6172790A57202D2053D3
:101060006574206F6E65206279746520696E206DED
:101070006170206F7220636F6E666967506167658B
:101080002E2020457870656374732062696E6172EA
:101090007920706172616D65746572732E200A200B
:1010A00020202053796E7461783A2020572B3C6FB2
:1010B00066667365743E2B3C6E6577627974653E37
:1010C0000A74202D205365742063616C696272611B
:1010D00074696F6E2076616C7565732E202045787B
:1010E00070656374732062696E61727920706172D9
:1010F000616D65746572732E20205461626C652089
:10110000696E64657820697320656974686572200A
:10111000302C200A20202020312C206F7220322EEB
:10112000202053796E7461783A2020742B3C7462CD
:101130006C655F6964783E2B3C6E657756616C75B3
:1011400065313E2B3C6E657756616C7565323E2B82
:101150003C6E657756616C75654E3E0A5A202D20AF
:10116000446973706C61792063616C696272617447
:10117000696F6E2076616C7565730A54202D20446A
:101180006973706C6179732032353620746F6F74B7
:1011900068206C6F6720656E747269657320696E74
:1011A0002062696E6172790A72202D204469737021
:1011B0006C6179732032353620746F6F7468206CDF
:1011C0006F6720656E74726965730A55202D205013
:1011D00072657061726520666F72206669726D77E4
:1011E000617265207570646174652E205468652095
:1011F0006E657874206279746520726563656976BE
:1012000065642077696C6C20636175736520746810
:10121000652041726475696E6F20746F207265730A
:1012200065742E0A3F202D20446973706C617973B8
:1012300020746869732068656C7020706167650050
:101240002C2000575545004F3200496E6C657420C4
:1012500074656D7000436F6F6C616E7400526573DE
:10126000657420636F6E74726F6C20697320637590
:101270007272656E746C792064697361626C656406
:101280002E00436F6D6D732068616C7465642E2051
:101290004E65787420627974652077696C6C207271
:1012A00065736574207468652041726475696E6F3A
:1012B0002E004552523B20496E636F727265637413
:1012C00020454550524F4D2073697A6500303032C9
:1012D000002000200020002000202020200053704B
:1012E00065656475696E6F203230323430322E326B
:1012F00000737065656475696E6F2032303234300A
:101300003200537065656475696E6F206373783061
:10131000323031392E380000008000200120018059
:101320000020018000F0008001C000C0002001C04A
:1013300000800020010001040E11161A1C212A2C25
:101340002E30323436383A3C3E40424446484C4EC9
:10135000505256585A5D5F63686F797D00000000F7
:10136000963007772C610EEEBA51099919C46D07B2
:101370008FF46A7035A563E9A395649E3288DB0E0D
:10138000A4B8DC791EE9D5E088D9D2972B4CB609F0
:10139000BD7CB17E072DB8E7911DBF906410B71DCD
:1013A000F220B06A4871B9F3DE41BE847DD4DA1A06
:1013B000EBE4DD6D51B5D4F4C785D38356986C1337
:1013C000C0A86B647AF962FDECC9658A4F5C0114B0
:1013D000D96C0663633D0FFAF50D088DC8206E3B8E
:1013E0005E10694CE44160D5727167A2D1E4033CA0
:1013F00047D4044BFD850DD26BB50AA5FAA8B535C7
:101400006C98B242D6C9BBDB40F9BCACE36CD832B5
:10141000755CDF45CF0DD6DC593DD1ABAC30D9265C
:101420003A00DE518051D7C81661D0BFB5F4B4215F
:1014300023C4B3569995BACF0FA5BDB89EB802285C
:101440000888055FB2D90CC624E90BB1877C6F2FE1
:10145000114C6858AB1D61C13D2D66B69041DC76DC
:101460000671DB01BC20D2982A10D5EF8985B171B5
:101470001FB5B606A5E4BF9F33D4B8E8A2C9077864
:1014800034F9000F8EA8099618980EE1BB0D6A7FFB
:101490002D3D6D08976C6491015C63E6F4516B6BB4
:1014A00062616C1CD83065854E0062F2ED95066C69
:1014B0007BA5011BC1F4088257C40FF5C6D9B065DE
:1014C00050E9B712EAB8BE8B7C88B9FCDF1DDD623B
:1014D000492DDA15F37CD38C654CD4FB5861B24DA1
:1014E000CE51B53A7400BCA3E230BBD441A5DF4A6B
:1014F000D795D83D6DC4D1A4FBF4D6D36AE969432E
:10150000FCD96E34468867ADD0B860DA732D0444D8
:10151000E51D03335F4C0AAAC97C0DDD3C71055003
:10152000AA41022710100BBE86200CC925B56857AA
:10153000B3856F2009D466B99FE461CE0EF9DE5EF3
:1015400098C9D9292298D0B0B4A8D7C7173DB359A4
:10155000810DB42E3B5CBDB7AD6CBAC02083B8ED35
:10156000B6B3BF9A0CE2B6039AD2B1743947D5EA42
:10157000AF77D29D1526DB048316DC73120B63E371
:10158000843B64943E6A6D0DA85A6A7A0BCF0EE4D0
:101590009DFF099327AE000AB19E077D44930FF08B
:1015A000D2A3088768F2011EFEC206695D5762F782
:1015B000CB67658071366C19E7066B6E761BD4FEBF
:1015C000E02BD3895A7ADA10CC4ADD676FDFB9F99C
:1015D000F9EFBE8E43BEB717D58EB060E8A3D6D65E
:1015E0007E93D1A1C4C2D83852F2DF4FF167BBD18C
:1015F0006757BCA6DD06B53F4B36B248DA2B0DD88F
:101600004C1B0AAFF64A0336607A0441C3EF60DF31
:1016100055DF67A8EF8E6E3179BE69468CB361CB1A
:101620001A8366BCA0D26F2536E2685295770CCC3F
:1016300003470BBBB91602222F260555BE3BBAC580
:10164000280BBDB2925AB42B046AB35CA7FFD7C271
:1016500031CFD0B58B9ED92C1DAEDE5BB0C2649B62
:1016600026F263EC9CA36A750A936D02A906099C95
:101670003F360EEB8567077213570005824ABF9508
:10168000147AB8E2AE2BB17B381BB60C9B8ED2928B
:101690000DBED5E5B7EFDC7C21DFDB0BD4D2D386E2
:1016A00042E2D4F1F8B3DD686E83DA1FCD16BE8155
:1016B0005B26B9F6E177B06F7747B718E65A088826
:1016C000706A0FFFCA3B06665C0B0111FF9E658FB7
:1016D00069AE62F8D3FF6B6145CF6C1678E20AA061
:1016E000EED20DD75483044EC2B30339612667A7E7
:1016F000F71660D04D476949DB776E3E4A6AD1AE36
:10170000DC5AD6D9660BDF40F03BD83753AEBCA9C4
:10171000C59EBBDE7FCFB247E9FFB5301CF2BDBD31
:101720008AC2BACA3093B353A6A3B4240536D0BA3A
:101730009306D7CD2957DE54BF67D9232E7A66B3D7
:10174000B84A61C4021B685D942B6F2A37BE0BB484
:10175000A18E0CC31BDF055A8DEF022D0000000087
:1017600041311B1982623632C3532D2B04C56C6480
:1017700045F4777D86A75A56C796414F088AD9C83F
:1017800049BBC2D18AE8EFFACBD9F4E30C4FB5AC30
:101790004D7EAEB58E2D839ECF1C98875112C24AC6
:1017A0001023D953D370F4789241EF6155D7AE2E00
:1017B00014E6B537D7B5981C9684830559981B82D3
:1017C00018A9009BDBFA2DB09ACB36A95D5D77E6B0
:1017D0001C6C6CFFDF3F41D49E0E5ACDA224849531
:1017E000E3159F8C2046B2A76177A9BEA6E1E8F178
:1017F000E7D0F3E82483DEC365B2C5DAAAAE5D5D47
:10180000EB9F464428CC6B6F69FD7076AE6B313927
:10181000EF5A2A202C09070B6D381C12F33646DFCD
:10182000B2075DC6715470ED30656BF4F7F32ABBF7
:10183000B6C231A275911C8934A00790FBBC9F17DA
:10184000BA8D840E79DEA92538EFB23CFF79F373A7
:10185000BE48E86A7D1BC5413C2ADE58054F79F039
:10186000447E62E9872D4FC2C61C54DB018A159461
:1018700040BB0E8D83E823A6C2D938BF0DC5A03862
:101880004CF4BB218FA7960ACE968D130900CC5C31
:101890004831D7458B62FA6ECA53E177545DBBBAC3
:1018A000156CA0A3D63F8D88970E96915098D7DEE1
:1018B00011A9CCC7D2FAE1EC93CBFAF55CD76272EE
:1018C0001DE6796BDEB554409F844F5958120E16B1
:1018D0001923150FDA7038249B41233DA76BFD6552
:1018E000E65AE67C2509CB576438D04EA3AE910169
:1018F000E29F8A1821CCA73360FDBC2AAFE124AD5A
:10190000EED03FB42D83129F6CB20986AB2448C938
:10191000EA1553D029467EFB687765E2F6793F2FBA
:10192000B7482436741B091D352A1204F2BC534BE8
:10193000B38D485270DE657931EF7E60FEF3E6E7E5
:10194000BFC2FDFE7C91D0D53DA0CBCCFA368A83B8
:10195000BB07919A7854BCB13965A7A84B98833BD3
:101960000AA99822C9FAB50988CBAE104F5DEF5F7E
:101970000E6CF446CD3FD96D8C0EC27443125AF3EF
:10198000022341EAC1706CC1804177D847D73697AE
:1019900006E62D8EC5B500A584841BBC1A8A41714C
:1019A0005BBB5A6898E87743D9D96C5A1E4F2D15FE
:1019B0005F7E360C9C2D1B27DD1C003E120098B963
:1019C000533183A09062AE8BD153B59216C5F4DD2E
:1019D00057F4EFC494A7C2EFD596D9F6E9BC07AE89
:1019E000A88D1CB76BDE319C2AEF2A85ED796BCA76
:1019F000AC4870D36F1B5DF82E2A46E1E136DE66F7
:101A0000A007C57F6354E8542265F34DE5F3B202A5
:101A1000A4C2A91B6791843026A09F29B8AEC5E453
:101A2000F99FDEFD3ACCF3D67BFDE8CFBC6BA980F5
:101A3000FD5AB2993E099FB27F3884ABB0241C2C6A
:101A4000F115073532462A1E73773107B4E1704825
:101A5000F5D06B513683467A77B25D634ED7FACBB9
:101A60000FE6E1D2CCB5CCF98D84D7E04A1296AF1F
:101A70000B238DB6C870A09D8941BB84465D2303AE
:101A8000076C381AC43F1531850E0E2842984F67EF
:101A900003A9547EC0FA795581CB624C1FC53881A9
:101AA0005EF423989DA70EB3DC9615AA1B0054E59F
:101AB0005A314FFC996262D7D85379CE174FE1491A
:101AC000567EFA50952DD77BD41CCC62138A8D2D6F
:101AD00052BB963491E8BB1FD0D9A006ECF37E5ED2
:101AE000ADC265476E91486C2FA05375E836123A27
:101AF000A90709236A5424082B653F11E479A796A6
:101B0000A548BC8F661B91A4272A8ABDE0BCCBF2F6
:101B1000A18DD0EB62DEFDC023EFE6D9BDE1BC14A0
:101B2000FCD0A70D3F838A267EB2913FB924D070A6
:101B3000F815CB693B46E6427A77FD5BB56B65DC11
:101B4000F45A7EC5370953EE763848F7B1AE09B876
:101B5000F09F12A133CC3F8A72FD24930000000055
:101B6000376AC2016ED4840359BE4602DCA8090755
:101B7000EBC2CB06B27C8D0485164F05B851130E0F
:101B80008F3BD10FD685970DE1EF550C64F91A09FB
:101B90005393D8080A2D9E0A3D475C0B70A3261C60
:101BA00047C9E41D1E77A21F291D601EAC0B2F1B09
:101BB0009B61ED1AC2DFAB18F5B56919C8F2351291
:101BC000FF98F713A626B111914C7310145A3C15C7
:101BD0002330FE147A8EB8164DE47A17E0464D385D
:101BE000D72C8F398E92C93BB9F80B3A3CEE443F63
:101BF0000B84863E523AC03C6550023D58175E3613
:101C00006F7D9C3736C3DA3501A9183484BF57314C
:101C1000B3D59530EA6BD332DD01113390E56B24F7
:101C2000A78FA925FE31EF27C95B2D264C4D6223D6
:101C30007B27A0222299E62015F3242128B4782AB4
:101C40001FDEBA2B4660FC29710A3E28F41C712D58
:101C5000C376B32C9AC8F52EADA2372FC08D9A70DB
:101C6000F7E75871AE591E739933DC721C259377D0
:101C70002B4F517672F11774459BD57578DC897EB0
:101C80004FB64B7F16080D7D2162CF7CA4748079FE
:101C9000931E4278CAA0047AFDCAC67BB02EBC6CE3
:101CA00087447E6DDEFA386FE990FA6E6C86B56B0C
:101CB0005BEC776A025231683538F369087FAF62AE
:101CC0003F156D6366AB2B6151C1E960D4D7A66542
:101CD000E3BD6464BA0322668D69E06720CBD74810
:101CE00017A115494E1F534B7975914AFC63DE4F7E
:101CF000CB091C4E92B75A4CA5DD984D989AC44614
:101D0000AFF00647F64E4045C12482444432CD41EF
:101D100073580F402AE649421D8C8B435068F1549A
:101D2000670233553EBC755709D6B7568CC0F85379
:101D3000BBAA3A52E2147C50D57EBE51E839E25A31
:101D4000DF53205B86ED6659B187A4583491EB5D73
:101D500003FB295C5A456F5E6D2FAD5F801B35E13B
:101D6000B771F7E0EECFB1E2D9A573E35CB33CE61F
:101D70006BD9FEE73267B8E5050D7AE4384A26EFFD
:101D80000F20E4EE569EA2EC61F460EDE4E22FE851
:101D9000D388EDE98A36ABEBBD5C69EAF0B813FD98
:101DA000C7D2D1FC9E6C97FEA90655FF2C101AFADB
:101DB0001B7AD8FB42C49EF975AE5CF848E900F383
:101DC0007F83C2F2263D84F0115746F1944109F415
:101DD000A32BCBF5FA958DF7CDFF4FF6605D78D943
:101DE0005737BAD80E89FCDA39E33EDBBCF571DE31
:101DF0008B9FB3DFD221F5DDE54B37DCD80C6BD7F9
:101E0000EF66A9D6B6D8EFD481B22DD504A462D09E
:101E100033CEA0D16A70E6D35D1A24D210FE5EC51F
:101E200027949CC47E2ADAC6494018C7CC5657C2AC
:101E3000FB3C95C3A282D3C195E811C0A8AF4DCB9E
:101E40009FC58FCAC67BC9C8F1110BC9740744CCA2
:101E5000436D86CD1AD3C0CF2DB902CE4096AF9137
:101E600077FC6D902E422B921928E9939C3EA69602
:101E7000AB546497F2EA2295C580E094F8C7BC9F02
:101E8000CFAD7E9E9613389CA179FA9D246FB598AC
:101E9000130577994ABB319B7DD1F39A3035898DF3
:101EA000075F4B8C5EE10D8E698BCF8FEC9D808A36
:101EB000DBF7428B82490489B523C68888649A83FC
:101EC000BF0E5882E6B01E80D1DADC8154CC9384F8
:101ED00063A651853A1817870D72D586A0D0E2A95E
:101EE00097BA20A8CE0466AAF96EA4AB7C78EBAEB4
:101EF0004B1229AF12AC6FAD25C6ADAC1881F1A75E
:101F00002FEB33A6765575A4413FB7A5C429F8A099
:101F1000F3433AA1AAFD7CA39D97BEA2D073C4B59A
:101F2000E71906B4BEA740B689CD82B70CDBCDB2A7
:101F30003BB10FB3620F49B155658BB06822D7BB77
:101F40005F4815BA06F653B8319C91B9B48ADEBC25
:101F500083E01CBDDA5E5ABFED3498BE000000007D
:101F60006567BCB88BC809AAEEAFB5125797628FE8
:101F700032F0DE37DC5F6B25B938D79DEF28B4C56A
:101F80008A4F087D64E0BD6F018701D7B8BFD64A8C
:101F9000DDD86AF23377DFE0561063589F57195047
:101FA000FA30A5E8149F10FA71F8AC42C8C07BDF84
:101FB000ADA7C76743087275266FCECD707FAD950C
:101FC0001518112DFBB7A43F9ED0188727E8CF1A0C
:101FD000428F73A2AC20C6B0C9477A083EAF32A088
:101FE0005BC88E18B5673B0AD00087B26938502F9E
:101FF0000C5FEC97E2F059858797E53DD1878665C0
:10200000B4E03ADD5A4F8FCF3F2833778610E4EAA9
:10201000E37758520DD8ED4068BF51F8A1F82BF086
:10202000C49F97482A30225A4F579EE2F66F497F45
:102030009308F5C77DA740D518C0FC6D4ED09F35DD
:102040002BB7238DC518969FA07F2A271947FDBA65
:102050007C204102928FF410F7E848A83D58149B69
:10206000583FA823B6901D31D3F7A1896ACF7614C3
:102070000FA8CAACE1077FBE8460C306D270A05E21
:10208000B7171CE659B8A9F43CDF154C85E7C2D157
:10209000E0807E690E2FCB7B6B4877C3A20F0DCB00
:1020A000C768B17329C704614CA0B8D9F5986F44CB
:1020B00090FFD3FC7E5066EE1B37DA564D27B90EE3
:1020C000284005B6C6EFB0A4A3880C1C1AB0DB816B
:1020D0007FD767399178D22BF41F6E9303F7263B95
:1020E00066909A83883F2F91ED589329546044B4A9
:1020F0003107F80CDFA84D1EBACFF1A6ECDF92FE37
:1021000089B82E4667179B54027027ECBB48F071C4
:10211000DE2F4CC93080F9DB55E745639CA03F6B4F
:10212000F9C783D3176836C1720F8A79CB375DE45C
:10213000AE50E15C40FF544E2598E8F673888BAEB4
:1021400016EF3716F84082049D273EBC241FE92174
:1021500041785599AFD7E08BCAB05C333BB659EDA7
:102160005ED1E555B07E5047D519ECFF6C213B623E
:10217000094687DAE7E932C8828E8E70D49EED2850
:10218000B1F951905F56E4823A31583A83098FA7EA
:10219000E66E331F08C1860D6DA63AB5A4E140BDB9
:1021A000C186FC052F2949174A4EF5AFF376223236
:1021B00096119E8A78BE2B981DD997204BC9F4782A
:1021C0002EAE48C0C001FDD2A566416A1C5E96F7DE
:1021D00079392A4F97969F5DF2F123E505196B4DEA
:1021E000607ED7F58ED162E7EBB6DE5F528E09C214
:1021F00037E9B57AD9460068BC21BCD0EA31DF881E
:102200008F56633061F9D622049E6A9ABDA6BD0737
:10221000D8C101BF366EB4AD530908159A4E721D70
:10222000FF29CEA511867BB774E1C70FCDD91092D7
:10223000A8BEAC2A461119382376A5807566C6D883
:1022400010017A60FEAECF729BC973CA22F1A45707
:10225000479618EFA939ADFDCC5E114506EE4D76D7
:102260006389F1CE8D2644DCE841F86451792FF979
:10227000341E9341DAB12653BFD69AEBE9C6F9B3BF
:102280008CA1450B620EF01907694CA1BE519B3C15
:10229000DB3627843599929650FE2E2E99B9542616
:1022A000FCDEE89E12715D8C7716E134CE2E36A9E5
:1022B000AB498A1145E63F03208183BB7691E0E379
:1022C00013F65C5BFD59E949983E55F12106826C95
:1022D00044613ED4AACE8BC6CFA9377E38417FD683
:1022E0005D26C36EB389767CD6EECAC46FD61D59FF
:1022F0000AB1A1E1E41E14F38179A84BD769CB138D
:10230000B20E77AB5CA1C2B939C67E0180FEA99C32
:10231000E59915240B36A0366E511C8EA7166686DD
:10232000C271DA3E2CDE6F2C49B9D394F0810409D6
:1023300095E6B8B17B490DA31E2EB11B483ED24392
:102340002D596EFBC3F6DBE9A69167511FA9B0CCEE
:102350007ACE0C749461B966F10605DE00002100A6
:10236000240027002A002D00300033000101000066
:10237000040107010A0100002200250028002B00AB
:102380002E003100340002010000050108010B019C
:10239000000020002300260029002C002F0032001E
:1023A00000010000030106010901050505050705F7
:1023B00008080808020202020A0A080804040404C1
:1023C00001010101010101010303030303030303ED
:1023D000040707070C0C0C0C0C0C0C0C020202027C
:1023E00006060606060606060B0B0B0B0B0B0B0B65
:1023F0000102102020080810204010204080020117
:1024000002010804020101020408102040808040FB
:1024100020100804020180040201804020100804FA
:102420000201080402010102040810204080010298
:1024300004081020408000000A0B02090C0D0E0851
:10244000070304010000000000000000000000007D
:10245000000000000000000000000000000000007C
:102460000000121110000000000000000000000039
:10247000000000000000000000000000F40411242F
:102480001FBECFEFD1E2DEBFCDBF00E00CBF12E038
:10249000A0E0B2E0E6EDF4E902E00BBF02C0079075
:1024A0000D92A638B107D9F72FE1A6E8B2E001C036
:1024B0001D92A93FB207E1F712E1CFE3D2E100E0BC
:1024C00006C021970109802FFE010F943F4ACE33A9
:1024D000D10780E00807A9F70F941B2C0D94694AD7
:1024E0000C9400008091911E8930CCF481E090E042
:1024F000909379058093780585E090E09093770537
:102500008093760589E090E090937505809374053B
:102510008DE090E09093670580936605089580E1D3
:1025200090E0909379058093780584E090E0909313
:1025300077058093760588E090E090937505809309
:1025400074058CE090E0E6CFE091C806F091C906F2
:1025500080819091C706892381F080915A1E80FD69
:1025600013C08DE090E090932F0780932E07809109
:102570005A1E816080935A1E089580915A1E80FDD4
:1025800015C085E090E0EFCF80912E0790912F0746
:102590000D9759F08091091F8F5F8093091F8DE07F
:1025A00090E090932F0780932E07089580912E0737
:1025B00090912F070597C9F38091091F8F5F809332
:1025C000091F85E090E0EDCF8AE090E090937905D7
:1025D000809378058CE190E0909377058093760561
:1025E00008958091460C807F803421F58091911E62
:1025F0008A306CF484E290E09093790580937805BA
:1026000080E190E09093770580937605089584317A
:102610001CF483E290E0F0CF8E311CF482E290E073
:10262000EBCF8FE190E090937905809378058DE072
:1026300090E0E8CF803609F041C08091911E24E2FD
:1026400030E08A3024F08431ACF423E230E030937F
:1026500079052093780529E030E0309377052093C1
:1026600076058A3004F587E190E0909375058093B4
:102670007405089522E230E08E3134F02FE130E02D
:10268000883214F421E230E0309379052093780504
:1026900026E030E030937705209376058E3134F4D0
:1026A00085E190E0E2CF86E190E0DFCF88321CF454
:1026B00084E190E0DACF83E190E0D7CF08950895E8
:1026C000089508959091911E8091ED1C8C718C302D
:1026D00081F59A30CCF08CE090E09093790580936E
:1026E000780583E090E0909377058093760586E007
:1026F00090E0909375058093740589E090E0909345
:10270000670580936605089581E090E090937905D0
:102710008093780584E090E0909377058093760528
:1027200087E090E090937505809374058AE090E0CF
:10273000E6CF9A306CF086E090E090937905809334
:10274000780583E090E0909377058093760508956F
:1027500081E090E0909379058093780584E090E0A3
:10276000F2CF80911E0B90911F0B2091E11C3091B4
:10277000E21CAC0144505109241735070CF04BC042
:10278000821B930B97FD01969595879504979093DF
:102790007905809378058091500890915108AC019B
:1027A0004450510924173507CCF5821B930B97FD34
:1027B0000196959587950497909377058093760574
:1027C00080914E0890914F08AC0144505109241754
:1027D00035073CF5821B930B97FD019695958795E0
:1027E0000497909375058093740580914C0890919F
:1027F0004D08AC014450510924173507ACF4821B35
:10280000930B97FD0196959587950497909367058F
:1028100080936605089580539D4FB2CF80539D4F9E
:10282000C4CF80539D4FD6CF80539D4FE8CF08959E
:1028300008958091911E9091ED1C9C719C3091F5B2
:102840008A30CCF088E090E0909379058093780509
:1028500082E090E0909377058093760584E090E0A5
:10286000909375058093740586E090E090936705DA
:102870008093660508951816ECF781E090E0909338
:1028800079058093780583E090E0909377058093B5
:10289000760585E090E0909375058093740587E058
:1028A00090E0E4CF8A308CF024E030E0309379057A
:1028B0002093780582E090E09093770580937605E9
:1028C0003093750520937405D1CF18169CF621E03E
:1028D00030E0309379052093780583E090E0ECCFE9
:1028E00008950895089580915A1E80FD10C0109299
:1028F0002F0710922E0780915A1E816080935A1ED6
:1029000083E08093BA0C81E08093DB060895809188
:10291000E71C87FF05C010922F0710922E07F0CFFB
:102920008091CC1E9091CD1EA091CE1EB091CF1E55
:1029300084369105A105B10530F780912E0790915D
:102940002F078D9701F310922F0710922E07DBCFE0
:10295000089510922F0710922E070895089510924F
:102960002F0710922E0781E08093DB060895809157
:10297000460C807F803479F58091ED1C8C718C3011
:10298000C9F488E090E0909379058093780582E01F
:1029900090E0909377058093760584E090E09093A3
:1029A00075058093740586E090E0909367058093A9
:1029B0006605089524E030E030937905209378058A
:1029C00082E090E0909377058093760530937505CB
:1029D00020937405EACF803661F78091ED1C8C71ED
:1029E0008C3079F286E090E09093790580937805B9
:1029F00082E090E0909377058093760524E030E0C4
:102A0000E5CF8091911E82319CF487E090E0909315
:102A100079058093780582E090E090937705809324
:102A2000760585E090E09093750580937405089590
:102A300086E090E0909379058093780581E090E0BE
:102A4000909377058093760584E090E0ECCFCF9269
:102A5000DF92EF92FF928091591F85FF45C08091D0
:102A6000DB06882309F440C0E0911E02F0911F02AA
:102A70001995893621E092071CF088569140F9CFCC
:102A80002091E11C3091E21C821B930B20915F1F6F
:102A90002370223031F420911C1E30911D1E821BA8
:102AA000930B40915D1D9C01220F331F50E0A0E06D
:102AB000B1E0A41BB50B0F944E4A6B017C01A091B1
:102AC0000E1FB0910F1F9A010F94564AC60ED71EC3
:102AD000E81EF91ECD2CDE2CEF2CFF24E7FCFA9427
:102AE000D0920F1FC0920E1FFF90EF90DF90CF90FB
:102AF000089590E080E0089590E080E008958F923E
:102B00009F92AF92BF92CF92DF92EF92FF929B0182
:102B1000AC01F89480912C0B86FF29C0C090BF0CAB
:102B2000D090C00CE090C10CF090C20C80901C07BB
:102B300090901D07A0901E07B0901F07A09130072E
:102B4000B091310778940F94DF49A70196012819B5
:102B500039094A095B090F94F249C901FF90EF90C6
:102B6000DF90CF90BF90AF909F908F900895789412
:102B7000A091EF0AB091F00A0F94DF49DC01CB017C
:102B8000905CAF4FBF4F2FE0B695A795979587956F
:102B90002A95D1F7E3CFDC01ED91FC910190F08112
:102BA000E02D1994DC01ED91FC910190F081E02D74
:102BB0001994DF92EF92FF920F931F93CF93DF93BD
:102BC000EC018B0180910002882321F01092000219
:102BD0001092C01E40915A1E9091AC1E8091AC1E66
:102BE000242F217030E03195219531092927207853
:102BF000332728272093AC1E1092910DD12CED2C59
:102C0000F12CE016F10658F4C7018C0F9D1F0E94AD
:102C10006886F701EF56F24F8183D394F0CF80910D
:102C2000FA1E877F8093FA1EDF91CF911F910F913B
:102C3000FF90EF90DF900895CF92DF92EF92FF9296
:102C40008091ED1C8C718C3031F08091480C807338
:102C5000803309F0F1C00F94FB22609362057093FA
:102C6000630580936405909365058091620590915A
:102C70006305A0916405B09165054091BB0C50912E
:102C8000BC0C6091BD0C7091BE0C841B950BA60B07
:102C9000B70B8093240790932507A0932607B09342
:102CA00027074091240750912507609126077091CE
:102CB00027078091E4069091E506A091E606B09181
:102CC000E70684179507A607B70708F0B5C08091F7
:102CD000BB0C9091BC0CA091BD0CB091BE0C892B8B
:102CE0008A2B8B2B09F498C08091BF0C9091C00C5B
:102CF000A091C10CB091C20C892B8A2B8B2B09F4AB
:102D00008BC080911C0790911D07A0911E07B09168
:102D10001F07892B8A2B8B2B09F47EC02091BF0CB7
:102D20003091C00C4091C10C5091C20C80911C0795
:102D300090911D07A0911E07B0911F07C090240716
:102D4000D0902507E0902607F0902707281B390B25
:102D50004A0B5B0BA3E0B0E00F94DF49C616D70621
:102D6000E806F90608F46DC08091B80C9091B90C92
:102D7000892BF1F12091CE062223D1F18091BA0C5A
:102D80009091460C92959F70882381F0E091BA0C47
:102D90004091B80C5091B90CF0E0EE0FFF1FE251DA
:102DA000F94F6081718164177507B1F01092BA0C08
:102DB000ECEEF6E081E09817D8F04091B80C509115
:102DC000B90C628173816417750719F43081231778
:102DD00069F08F5F3296EFCF8091BA0C8F5F80934E
:102DE000BA0C8091BA0C981718F481E08093BA0C51
:102DF0008091B80C9091B90C8093CE0681E090E060
:102E00009093B90C8093B80C1092E4061092E506EA
:102E10001092E6061092E706809162059091630594
:102E2000A0916405B09165058093BB0C9093BC0C98
:102E3000A093BD0CB093BE0CFF90EF90DF90CF90AD
:102E400008958091B80C9091B90C892B29F3809149
:102E5000B80C9091B90C01969093B90C8093B80C72
:102E60008091240790912507A0912607B09127070C
:102E700022E0B695A795979587952A95D1F78093E7
:102E8000E4069093E506A093E606B093E706C4CF68
:102E9000CF92DF92EF92FF920F931F938091ED1CE0
:102EA0008C718C3029F08091480C8073803319F537
:102EB0000F94FB2260936205709363058093640511
:102EC00090936505E091C506F091C60680819091CA
:102ED000C4068923B9F08091620590916305A091A1
:102EE0006405B09165058093D3069093D406A093B2
:102EF000D506B093D6061F910F91FF90EF90DF900B
:102F0000CF9008958091620590916305A09164052A
:102F1000B09165054091BB0C5091BC0C6091BD0C0B
:102F20007091BE0C841B950BA60BB70B80932407E6
:102F300090932507A0932607B09327074091240775
:102F40005091250760912607709127078091E4062C
:102F50009091E506A091E606B091E70684179507E3
:102F6000A607B70740F68091BB0C9091BC0CA091CE
:102F7000BD0CB091BE0C892B8A2B8B2B09F48FC012
:102F80008091CF069091D006A091D106B091D20643
:102F9000892B8A2B8B2B09F482C08091B80C9091DD
:102FA000B90C892B49F08091B80C9091B90C01961D
:102FB0009093B90C8093B80C2091BB0C3091BC0C51
:102FC0004091BD0C5091BE0C8091CF069091D006DF
:102FD000A091D106B091D206C0902407D0902507C9
:102FE000E0902607F0902707281B390B4A0B5B0B54
:102FF000A3E0B0E00F94DF499695879577956795A4
:10300000C616D706E806F90608F486C04091D3062E
:103010005091D4066091D5067091D6060091BB0CF4
:103020001091BC0C2091BD0C3091BE0C80916205BA
:1030300090916305A0916405B0916505C090D30699
:10304000D090D406E090D506F090D606401B510BE8
:10305000620B730B8C199D09AE09BF0948175907FC
:103060006A077B0708F043C08091B80C9091B90CB7
:10307000892BB1F18091B80C9091B90C089781F12E
:103080008091B80C9091B90C892B09F040C0109236
:10309000E4061092E5061092E6061092E70680918B
:1030A000BB0C9091BC0CA091BD0CB091BE0C809358
:1030B000CF069093D006A093D106B093D20680910C
:1030C000620590916305A0916405B09165058093B8
:1030D000BB0C9093BC0CA093BD0CB093BE0C0BCF5B
:1030E00081E090E09093B90C8093B80CD0CF8091A0
:1030F000B80C9091B90C892B39F08091B80C909153
:10310000B90C059709F0BCCF85E090E0EBCF1092A9
:10311000B90C1092B80CBBCF8091B80C9091B90C3F
:10312000892B09F4BCCF8091240790912507A091A9
:103130002607B091270722E0B695A7959795879522
:103140002A95D1F78093E4069093E506A093E606CE
:10315000B093E706A4CFCF92DF92EF92FF92CF9386
:10316000DF930F94FB226093620570936305809355
:103170006405909365058091620590916305A09127
:103180006405B09165054091BB0C5091BC0C6091F9
:10319000BD0C7091BE0C841B950BA60BB70B8093D6
:1031A000240790932507A0932607B0932707409103
:1031B0002407509125076091260770912707809179
:1031C000E4069091E506A091E606B091E70648175F
:1031D00059076A077B0708F449C0809162059091FE
:1031E0006305A0916405B09165058093BB0C909335
:1031F000BC0CA093BD0CB093BE0C80915A1E80FDF8
:103200005CC00F94FB226093BF0C7093C00C809342
:10321000C10C9093C20C0F94FB226B017C01C091F6
:10322000F01C2C2F30E050E040E060E87DE88BE5BA
:1032300090E00F94F249C21AD30AE40AF50AC09248
:103240001C07D0921D07E0921E07F0921F07D0E0E6
:10325000D0932F07C0932E078091091F8F5F809313
:10326000091F80915A1E816080935A1E8091E0064A
:103270009091E106A091E206B091E3064091DC0650
:103280005091DD066091DE067091DF06841B950B80
:10329000A60BB70BB695A795979587958093E406EF
:1032A0009093E506A093E606B093E706DF91CF91F1
:1032B000FF90EF90DF90CF90089586E090E090939C
:1032C0002F0780932E07D2CFCF92DF92EF92FF92FB
:1032D0000F94FB22609362057093630580936405ED
:1032E000909365058091620590916305A0916405B6
:1032F000B09165054091BB0C5091BC0C6091BD0C28
:103300007091BE0C841B950BA60BB70B8093240702
:1033100090932507A0932607B09327078091BB0CB5
:103320009091BC0CA091BD0CB091BE0C892B8A2B46
:103330008B2BC1F4109224071092250710922607B8
:10334000109227078091620590916305A091640512
:10335000B09165058093BB0C9093BC0CA093BD0C01
:10336000B093BE0C40912407509125076091260729
:10337000709127078091E4069091E506A091E606FA
:10338000B091E706481759076A077B0708F4DEC0C3
:103390002091BB0C3091BC0C4091BD0C5091BE0CE7
:1033A0008091CF069091D006A091D106B091D2061F
:1033B000281B390B4A0B5B0BA3E0B0E00F94DF49ED
:1033C000969587957795679560935E0570935F05F1
:1033D00080936005909361058091BB0C9091BC0C2B
:1033E000A091BD0CB091BE0C8093CF069093D006F7
:1033F000A093D106B093D20640912407509125079F
:10340000609126077091270780915E0590915F0576
:10341000A0916005B0916105481759076A077B07BD
:1034200008F054C08091B80C9091B90C059709F43C
:103430004DC08091240790912507A0912607B09157
:10344000270722E0B695A795979587952A95D1F7F6
:103450008093E4069093E506A093E606B093E70612
:103460008091B80C9091B90C01969093B90C80930F
:10347000B80C8091620590916305A0916405B091AC
:1034800065058093BB0C9093BC0CA093BD0CB093CE
:10349000BE0C8091591F85FF59C08091DB0688239F
:1034A00009F454C08091B80C9091B90C019709F0BF
:1034B0004DC0E0911E02F0911F021995AC014936F2
:1034C00081E05807A4F048565140F9CF81E090E0E0
:1034D0009093B90C8093B80C8093DB061092E406AD
:1034E0001092E5061092E6061092E706C2CF809190
:1034F0005F1F8370823051F5E0915D1D9A01220FAC
:10350000331FF0E0A0E0B1E0AE1BBF0B0F944E4ABA
:103510006B017C019F01DA010F94564AC60ED71E3B
:10352000E81EF91ECD2CDE2CEF2CFF24E7FCFA94CC
:1035300088E691E08C199D0920911C1E30911D1E7A
:10354000821B930B90930F1F80930E1FFF90EF90A1
:10355000DF90CF9008950F94FB22609362057093E3
:103560006305809364059093650580916205909151
:103570006305A0916405B09165054091BB0C509125
:10358000BC0C6091BD0C7091BE0C841B950BA60BFE
:10359000B70B8093240790932507A0932607B09339
:1035A00027074091240750912507609126077091C5
:1035B00027078091E4069091E506A091E606B09178
:1035C000E706481759076A077B0708F4F4C080919B
:1035D000620590916305A0916405B09165058093A3
:1035E000BB0C9093BC0CA093BD0CB093BE0C80910F
:1035F000B80C9091B90C029709F04FC08091CE069B
:10360000833009F04AC080915A1E80FD77C00F9424
:10361000FB226093BF0C7093C00C8093C10C9093FD
:10362000C20C0F94FB226056734E86419109609341
:103630001C0770931D0780931E0790931F078091AE
:10364000F01C8150990B90932F0780932E07809147
:103650005A1E816080935A1E81E08093DB06809120
:10366000200790912107A0912207B091230742E003
:10367000880F991FAA1FBB1F4A95D1F78093E406B4
:103680009093E506A093E606B093E70681E090E00C
:103690009093B90C8093B80C089580915A1E80FFC6
:1036A00056C08091200790912107A0912207B091E8
:1036B00023074091200750912107609122077091C4
:1036C0002307B695A79597958795840F951FA61FF5
:1036D000B71F8093E4069093E506A093E606B093A7
:1036E000E7068091B80C9091B90C01969093B90CB3
:1036F0008093B80C81E08093CE0608958091F01CF1
:1037000020912E0730912F0790E0AC0141505109D4
:103710004217530791F04091CC1E5091CD1E6091FD
:10372000CE1E7091CF1E433051056105710528F002
:103730002091091F2F5F2093091F2091E71C27FF6D
:103740008BCF019790932F0780932E0785CF809181
:103750002E0790912F07039708F4A3CF8091B80C00
:103760009091B90C892B09F09CCF0F94FB226093A8
:10377000BF0C7093C00C8093C10C9093C20C0F943B
:10378000FB226056734E8641910960931C0770932B
:103790001D0780931E0790931F0781E090E0909390
:1037A0002F0780932E078093DB0680915A1E81603D
:1037B00080935A1E08958091200790912107A0912F
:1037C0002207B09123074091200750912107609173
:1037D000220770912307B695A79597958795840F33
:1037E000951FA61FB71F8093E4069093E506A0934C
:1037F000E606B093E7067ECFCF92DF92EF92FF927C
:10380000CF93DF93F894C0912E07D0912F07C090EB
:10381000BF0CD090C00CE090C10CF090C20C0F9483
:10382000FB226093700570937105809372059093ED
:1038300073057894CD7FE091E11CF091E21C219713
:1038400011F0E356FF4F20917005309171054091C2
:103850007205509173052C193D094E095F09A0911D
:10386000EF0AB091F00A0F94DF49DC01CB01905CC4
:10387000AF4FBF4F2FE0B695A795979587952A959F
:10388000D1F78E0F9F1F803D22E092074CF0805DA4
:103890009240DF91CF91FF90EF90DF90CF9008950D
:1038A00097FFF7CF88599E4FF4CFCF92DF92EF92D8
:1038B000FF92CF93DF93F894C0912E07D0912F07FA
:1038C000C090BF0CD090C00CE090C10CF090C20C26
:1038D0000F94FB22609370057093710580937205BD
:1038E0009093730578942091700530917105409103
:1038F0007205509173052C193D094E095F09A0917D
:10390000EF0AB091F00A0F94DF49DC01CB01905C23
:10391000AF4FBF4F2FE0B695A795979587952A95FE
:10392000D1F7CC0FDD1FC651D94F48815981209165
:10393000E11C3091E21C240F351F820F931F803D44
:1039400022E092074CF0805D9240DF91CF91FF9092
:10395000EF90DF90CF90089597FFF7CF409122022C
:103960005091230220911A0230911B02241735072F
:103970000CF49A01820F931FE8CF8091BA0C882330
:1039800071F08091BA0C833051F08091BA0C843080
:1039900008F082C01092B90C1092B80C08950F94E0
:1039A000FB22609362057093630580936405909396
:1039B00065058091620590916305A0916405B091C1
:1039C00065054091BB0C5091BC0C6091BD0C709191
:1039D000BE0C841B950BA60BB70B8093240790930A
:1039E0002507A0932607B0932707409124075091FD
:1039F000250760912607709127078091E406909132
:103A0000E506A091E606B091E70684179507A6079C
:103A1000B70720F68091620590916305A091640537
:103A2000B09165058093BB0C9093BC0CA093BD0C2A
:103A3000B093BE0C8091B80C9091B90C0196909304
:103A4000B90C8093B80C1092BA0C8091B80C90917C
:103A5000B90C0297C0F08091240790912507A0919E
:103A60002607B091270722E0B695A79597958795E9
:103A70002A95D1F78093E4069093E506A093E60695
:103A8000B093E70608951092E4061092E5061092AE
:103A9000E6061092E70608951092BA0C81E090E0D5
:103AA0009093B90C8093B80C80915A1E8E7F8093AE
:103AB0005A1E8091091F8F5F8093091F6BCF8F92D1
:103AC0009F92AF92BF92CF92DF92EF92FF920F93AD
:103AD0001F93CF93DF93F894C090BF0CD090C00C8D
:103AE000E090C10CF090C20C80901C0790901D07D4
:103AF000A0901E07B0901F07C0912E07D0912F07EE
:103B00000F94FB226093700570937105809372058A
:103B1000909373057894CE010197880F991F209197
:103B2000E11C3091E21C820F931FA6010D2C000CAA
:103B3000660B770B0091700510917105209172054D
:103B400030917305041B150B260B370BA601481982
:103B5000590957FF02C04F5F5F4F55954795052E96
:103B6000000C660B770B401751076207730708F4C8
:103B70000196803D22E092077CF0805D9240DF91CB
:103B8000CF911F910F91FF90EF90DF90CF90BF905A
:103B9000AF909F908F90089597FFF1CF88599E4FD7
:103BA000EECF0F94FB2260936205709363058093C0
:103BB0006405909365058091620590916305A091DD
:103BC0006405B09165054091BB0C5091BC0C6091AF
:103BD000BD0C7091BE0C841B950BA60BB70B80938C
:103BE000240790932507A0932607B0932707809179
:103BF000620590916305A0916405B091650580937D
:103C0000BB0C9093BC0CA093BD0CB093BE0C209148
:103C1000E71C322F31708091B80C9091B90C892B30
:103C200079F1E091C506F091C60680819091C406B5
:103C3000892391E009F490E0931711F180912E0708
:103C400090912F074091B80C5091B90C841B909122
:103C50005A1E90FD51C09091460C907F9034C1F552
:103C600091EF980F9330A8F480E190E090932F07A4
:103C700080932E0780915A1E816080935A1E08956A
:103C800080912E0790912F079093B90C8093B80CD8
:103C9000089595EF980F933018F486E690E0E6CFFC
:103CA00099EF980F933018F48CEB90E0DFCF8350AE
:103CB000833018F482E191E0D9CF80915A1E8E7F33
:103CC00080935A1E8091091F8F5F8093091F08956A
:103CD000903631F483508330F8F48CE790E0C6CF0F
:103CE000903831F486508330B8F488E390E0BECF4A
:103CF00080915A1E8E7FC1CF27FF0EC09091460C37
:103D0000907F903449F48F50833030F480E190E01C
:103D100090932F0780932E070895CF92DF92EF9212
:103D2000FF92CF93DF93F894C0912E07D0912F0785
:103D3000C090BF0CD090C00CE090C10CF090C20CB1
:103D40000F94FB2260937005709371058093720548
:103D5000909373057894209719F4C091F01CD0E0EB
:103D600020913007309131072197C29FC001C39F36
:103D7000900DD29F900D11246091E51C70E00F947E
:103D80006949FB01209170053091710540917205E0
:103D9000509173052C193D094E095F09A091EF0A56
:103DA000B091F00A0F94DF49DC01CB01905CAF4F7A
:103DB000BF4F2FE0B695A795979587952A95D1F790
:103DC0006091E11C7091E21CE60FF71F8E0F9F1FA0
:103DD000803D22E092074CF0805D9240DF91CF91D0
:103DE000FF90EF90DF90CF90089597FFF7CF88591D
:103DF0009E4FF4CFCF92DF92EF92FF92CF93DF935B
:103E000080915A1E80FF56C0F894C0912E07D09121
:103E10002F07C090BF0CD090C00CE090C10CF09068
:103E2000C20C0F94FB226093700570937105809310
:103E30007205909373057894209170053091710507
:103E400040917205509173052C193D094E095F0987
:103E5000A091EF0AB091F00A0F94DF49DC01CB0189
:103E6000905CAF4FBF4F2FE0B695A795979587957C
:103E70002A95D1F7CC0FDD1FC651D94F4881598102
:103E80002091E11C3091E21C240F351F820F931FFB
:103E9000803D22E092074CF0805D9240DF91CF910F
:103EA000FF90EF90DF90CF90089597FFF7CF88595C
:103EB0009E4FF4CF90E080E0F1CF0F94FB2260930F
:103EC0006205709363058093640590936505809106
:103ED000240790912507A0912607B091270780938A
:103EE000560590935705A0935805B09359058091B6
:103EF000620590916305A0916405B09165054091BC
:103F0000BB0C5091BC0C6091BD0C7091BE0C841B1D
:103F1000950BA60BB70B8093240790932507A093CE
:103F20002607B09327078091620590916305A091C1
:103F30006405B09165058093BB0C9093BC0CA09375
:103F4000BD0CB093BE0C80915A1E80FD1AC08091AA
:103F5000B80C9091B90C0297A9F481E090E090938D
:103F60002F0780932E0780915A1E816080935A1EDE
:103F70008091B80C9091B90C01969093B90C8093F4
:103F8000B80C08958CED95E0A0E0B0E08093E806D1
:103F90009093E906A093EA06B093EB06809156054C
:103FA00090915705A0915805B0915905B695A795E0
:103FB0009795879580935A0590935B05A0935C0530
:103FC000B0935D0540912407509125076091260725
:103FD0007091270780915A0590915B05A0915C052F
:103FE000B0915D05481759076A077B0708F682E01C
:103FF00090E09093B90C8093B80CBACFCF92DF9237
:10400000EF92FF92CF93DF93F894C0912E07D09157
:104010002F07C090BF0CD090C00CE090C10CF09066
:10402000C20C0F94FB22609370057093710580930E
:104030007205909373057894209170053091710505
:1040400040917205509173052C193D094E095F0985
:10405000A091EF0AB091F00A0F94DF49DC01CB0187
:10406000905CAF4FBF4F2FE0B695A795979587957A
:104070002A95D1F7CC0FDD1FC651D94F4881598100
:104080002091E11C3091E21C240F351F820F931FF9
:10409000803D22E092074CF0805D9240DF91CF910D
:1040A000FF90EF90DF90CF90089597FFF7CF88595A
:1040B0009E4FF4CF0C94FE1F0F94FB226093620579
:1040C0007093630580936405909365058091620504
:1040D00090916305A0916405B09165054091BB0C7A
:1040E0005091BC0C6091BD0C7091BE0C841B950B63
:1040F000A60BB70B8093240790932507A093260760
:10410000B09327078091AE1E81FD04C080915A1E96
:1041100080FD0CC08CED95E0A0E0B0E08093E80657
:104120009093E906A093EA06B093EB06409124072A
:104130005091250760912607709127078091E4062A
:104140009091E506A091E606B091E7064817590759
:104150006A077B0708F460C080916205909163054F
:10416000A0916405B09165058093BB0C9093BC0C45
:10417000A093BD0CB093BE0C8091240790912507AD
:10418000A0912607B0912707809356059093570575
:10419000A0935805B09359058091B80C9091B90C33
:1041A00001969093B90C8093B80C80912E07909152
:1041B0002F07019789F54091620550916305609141
:1041C0006405709165058091BF0C9091C00CA09121
:1041D000C10CB091C20C84179507A607B707E0F48D
:1041E0008091620590916305A0916405B091650589
:1041F0004091BF0C5091C00C6091C10C7091C20CE9
:10420000841B950BA60BB70B809352059093530517
:10421000A0935405B09355050895CF92DF92EF9285
:10422000FF92CF93DF93F894C0912E07D0912F0780
:10423000C090BF0CD090C00CE090C10CF090C20CAC
:104240000F94FB2260937005709371058093720543
:104250009093730578948091E11C9091E21C2091D9
:104260003007309131072097A9F54BE0429FF001CC
:10427000439FF00D1124E80FF91F20917005309134
:10428000710540917205509173052C193D094E0935
:104290005F09A091EF0AB091F00A0F94DF49DC01A9
:1042A000CB01905CAF4FBF4F2FE0B695A795979588
:1042B00087952A95D1F78E0F9F1F803D22E09207A8
:1042C00094F0805D9240DF91CF91FF90EF90DF906E
:1042D000CF9008952197C29FF001C39FF00DD29F08
:1042E000F00D1124C8CF97FFEECF88599E4FEBCF2A
:1042F0008091200790912107A0912207B091230778
:104300008093560590935705A0935805B09359058F
:104310000F94FB22609368057093690580936A058A
:1043200090936B058091680590916905A0916A054D
:10433000B0916B054091BF0C5091C00C6091C10CC5
:104340007091C20C841B950BA60BB70B80932007B2
:1043500090932107A0932207B093230780912E0703
:1043600090912F07019690932F0780932E078091AD
:104370002C0B806280932C0B80912E0790912F073D
:104380000D9749F480915A1E80FF05C010922F07A7
:1043900010922E07089580912E0790912F07019774
:1043A00021F480915A1E80FD33C080915605909172
:1043B0005705A0915805B0915905B695A7959795C1
:1043C000879580935A0590935B05A0935C05B09305
:1043D0005D0540912007509121076091220770915F
:1043E000230780915A0590915B05A0915C05B091DF
:1043F0005D05481759076A077B07E8F510922F07F4
:1044000010922E0780915A1E816080935A1E089543
:104410008091E0069091E106A091E206B091E3065A
:104420008093DC069093DD06A093DE06B093DF0652
:104430008091680590916905A0916A05B0916B051E
:104440008093E0069093E106A093E206B093E30622
:104450008091CC1E9091CD1EA091CE1EB091CF1E0A
:104460000196A11DB11D8093CC1E9093CD1EA093EB
:10447000CE1EB093CF1E8091BF0C9091C00CA09126
:10448000C10CB091C20C80931C0790931D07A093A0
:104490001E07B0931F078091680590916905A09150
:1044A0006A05B0916B058093BF0C9093C00CA093EC
:1044B000C10CB093C20C0895CF92DF92EF92FF929D
:1044C0001F93CF93DF93F894C0912E07D0912F07BD
:1044D000C090BF0CD090C00CE090C10CF090C20C0A
:1044E0001091DB060F94FB226093700570937105A9
:1044F00080937205909373057894209711F4CDE220
:10450000D0E0E0913007F0913107209170053091B3
:10451000710540917205509173052C193D094E09A2
:104520005F09A091EF0AB091F00A0F94DF49DC0116
:10453000CB01905CAF4FBF4F2FE0B695A7959795F5
:1045400087952A95D1F72091E11C3091E21C820FCA
:10455000931F2197CE9FB001CF9F700DDE9F700DEE
:104560001124860F971F112311F088599E4F803D0B
:1045700022E0920754F0805D9240DF91CF911F912D
:10458000FF90EF90DF90CF90089597FFF6CF409186
:1045900022025091230220911A0230911B0224170B
:1045A00035070CF49A01820F931FE7CFCF92DF9269
:1045B000EF92FF92CF93DF93F894C0912E07D091A2
:1045C0002F07C090BF0CD090C00CE090C10CF090B1
:1045D000C20C0F94FB226093700570937105809359
:1045E000720590937305789420912E0730912F07D0
:1045F0008091E11C9091E21CFC01EE58FF4F232BAF
:1046000041F0CC0FDD1FC651D94FE881F981E80F89
:10461000F91F2091700530917105409172055091FC
:1046200073052C193D094E095F09A091EF0AB0915D
:10463000F00A0F94DF49DC01CB01905CAF4FBF4F14
:104640002FE0B695A795979587952A95D1F78E0F68
:104650009F1F803D22E092074CF0805D9240DF91E9
:10466000CF91FF90EF90DF90CF90089597FFF7CF15
:1046700088599E4FF4CFCF92DF92EF92FF921F9313
:10468000CF93DF93F894C0912E07D0912F07C0905D
:10469000BF0CD090C00CE090C10CF090C20C1091F7
:1046A000DB060F94FB226093700570937105809375
:1046B00072059093730578948091E11C9091E21CAF
:1046C000FC01209741F0CC0FDD1FC651D94FE88186
:1046D000F981E80FF91F2091700530917105409123
:1046E0007205509173052C193D094E095F09A0917F
:1046F000EF0AB091F00A0F94DF49DC01CB01905C26
:10470000AF4FBF4F2FE0B695A795979587952A9500
:10471000D1F78E0F9F1F112311F088599E4F803DB6
:1047200022E0920754F0805D9240DF91CF911F917B
:10473000FF90EF90DF90CF90089597FFF6CF8859C4
:104740009E4FF3CF80912E0790912F07499731F418
:1047500080915A1E8E7F80935A1E08950F94FB22DB
:10476000609368057093690580936A0590936B0563
:104770008091680590916905A0916A05B0916B05DB
:104780004091BF0C5091C00C6091C10C7091C20C53
:10479000841B950BA60BB70B8093200790932107E2
:1047A000A0932207B093230780912E0790912F07A3
:1047B000892B09F060C081E090E090932F078093EF
:1047C0002E078091E0069091E106A091E206B0915B
:1047D000E3068093DC069093DD06A093DE06B0939B
:1047E000DF068091680590916905A0916A05B091F6
:1047F0006B058093E0069093E106A093E206B093E8
:10480000E3068091DB0691E089278093DB068091A7
:104810005A1E816080935A1E8091CC1E9091CD1EAD
:10482000A091CE1EB091CF1E0196A11DB11D809307
:10483000CC1E9093CD1EA093CE1EB093CF1E8FE0C2
:1048400090E0909331078093300780912C0B806229
:1048500080932C0B8091680590916905A0916A0561
:10486000B0916B058093BF0C9093C00CA093C10CCA
:10487000B093C20C089580912E0790912F07019656
:1048800090932F0780932E07A0912E07B0912F07AA
:10489000E0912E07F0912F07AA0FBB1FA651B94F29
:1048A000EE0FFF1FE851F94F8D919C9120813181CE
:1048B000821B930BC6CFCF92DF92EF92FF92CF93E2
:1048C000DF9380915A1E80FF47C0F894C0912E0755
:1048D000D0912F07C090BF0CD090C00CE090C10CBD
:1048E000F090C20C0F94FB226093700570937105D9
:1048F00080937205909373057894CC0FDD1FC65199
:10490000D94F0990D881C02D8091E11C9091E21C73
:10491000C80FD91F60917005709171058091720563
:10492000909173056C197D098E099F090E947F156E
:104930008C0F9D1F803D22E092074CF0805D9240DD
:10494000DF91CF91FF90EF90DF90CF90089597FF88
:10495000F7CF88599E4FF4CF90E080E0F1CF0C94D0
:104960005B2480915A1E0F94FB2260936205709322
:10497000630580936405909365058091620590912D
:104980006305A0916405B09165054091BB0C509101
:10499000BC0C6091BD0C7091BE0C841B950BA60BDA
:1049A000B70B8093240790932507A0932607B09315
:1049B00027074091240750912507609126077091A1
:1049C00027078091E4069091E506A091E606B09154
:1049D000E706481759076A077B0708F4B9C08091B2
:1049E000620590916305A0916405B091650580937F
:1049F000BB0C9093BC0CA093BD0CB093BE0C8091EB
:104A00002C0B806280932C0B8091240790912507BA
:104A1000A0912607B0912707B695A79597958795FA
:104A20008093E4069093E506A093E606B093E7062C
:104A300080915A1E80FD4BC08CED95E0A0E0B0E067
:104A40008093E8069093E906A093EA06B093EB06FC
:104A50008091E4069091E506A091E606B091E70604
:104A6000B695A795979587958093E4069093E5066C
:104A7000A093E606B093E706E091C806F091C90658
:104A800090812091C7068091460C807F922371F01F
:104A90008034A9F480912E0790912F070897B9F4DC
:104AA00080915A1E816080935A1E11C0803479F41F
:104AB00080912E0790912F07059749F4F1CF80360A
:104AC00031F480912E0790912F07079749F3209199
:104AD0005B1E30915C1E8091F81E9091F91E281784
:104AE000390720F08091E71C87FF32C080915A1E61
:104AF00080FF2EC08091460C807F803449F50F9452
:104B0000FB2280914A0590914B05A0914C05B091F4
:104B10004D05E091C806F091C90680819091C706C5
:104B20008923B1F080912E0790912F07883091054D
:104B300059F080915A1E8E7F80935A1E8091091FD2
:104B40008F5F8093091F089590932F0780932E07FE
:104B50000895CF92DF92EF92FF92CF93DF93F89474
:104B6000C0912E07D0912F07C090BF0CD090C00CE1
:104B7000E090C10CF090C20C0F94FB226093700582
:104B80007093710580937205909373057894C33088
:104B9000D1050CF040C080913007909131072197EA
:104BA000C89FB001C99F700DD89F700D1124E0916E
:104BB000E11CF091E21CBA96E60FF71F20917005F8
:104BC0003091710540917205509173052C193D0982
:104BD0004E095F09A091EF0AB091F00A0F94DF49E6
:104BE000DC01CB01905CAF4FBF4F2FE0B695A7958E
:104BF000979587952A95D1F78E0F9F1F803D22E0CC
:104C00009207A4F0805D9240DF91CF91FF90EF90EA
:104C1000DF90CF900895E0E7F0E0C330D10571F266
:104C200080913007909131072297BACF97FFECCF50
:104C300088599E4FE9CFCF92DF92EF92FF92CF93A8
:104C4000DF93F894C0912E07D0912F07C090BF0C2E
:104C5000D090C00CE090C10CF090C20C0F94FB22DD
:104C6000609370057093710580937205909373053E
:104C7000789480913007909131079E01215031093D
:104C8000289FE001299FD00D389FD00D11248091DD
:104C9000E11C9091E21CC80FD91F609170057091C2
:104CA000710580917205909173056C197D098E09CB
:104CB0009F090E947F158C0F9D1F803D22E0920767
:104CC0004CF0805D9240DF91CF91FF90EF90DF90AC
:104CD000CF90089597FFF7CF409122025091230281
:104CE00020911A0230911B02241735070CF49A0107
:104CF000820F931FE8CFCF92DF92EF92FF921F9324
:104D0000CF93DF93F894C0912E07D0912F07C090D6
:104D1000BF0CD090C00CE090C10CF090C20C109170
:104D2000DB060F94FB2260937005709371058093EE
:104D30007205909373057894209719F4C091F01C34
:104D4000D0E0E0913007F09131072091700530916B
:104D5000710540917205509173052C193D094E095A
:104D60005F09A091EF0AB091F00A0F94DF49DC01CE
:104D7000CB01905CAF4FBF4F2FE0B695A7959795AD
:104D800087952A95D1F72091E11C3091E21C820F82
:104D9000931F2197CE9FB001CF9F700DDE9F700DA6
:104DA0001124860F971F112331F02091E61C21FD5D
:104DB00002C088599E4F803D22E0920754F0805DEA
:104DC0009240DF91CF911F91FF90EF90DF90CF90B5
:104DD000089597FFF6CF409122025091230220912F
:104DE0001A0230911B02241735070CF49A01820F26
:104DF000931FE7CFCF92DF92EF92FF92CF93DF9393
:104E00000F94FB22609362057093630580936405A1
:104E1000909365058091620590916305A09164056A
:104E2000B09165054091BB0C5091BC0C6091BD0CDC
:104E30007091BE0C841B950BA60BB70B80932407B7
:104E400090932507A0932607B09327074091240746
:104E50005091250760912607709127078091E406FD
:104E60009091E506A091E606B091E706481759072C
:104E70006A077B0708F4A7C08091620590916305DB
:104E8000A0916405B09165058093BB0C9093BC0C18
:104E9000A093BD0CB093BE0C809124079091250780
:104EA000A0912607B091270732E0B695A795979570
:104EB00087953A95D1F78093E4069093E506A09301
:104EC000E606B093E70680915A1E80FF26C0409107
:104ED000CC1E5091CD1E6091CE1E7091CF1E809140
:104EE000EC1C90E0B0E0A0E084179507A607B70798
:104EF000A0F48091F01C90E020912E0730912F07B4
:104F00008217930709F04BC02091E71C27FF3DC093
:104F100090932F0780932E0738C00F94FB22609345
:104F2000BF0C7093C00C8093C10C9093C20C0F9473
:104F3000FB226B017C01C091F01C2C2F30E050E073
:104F400040E060E87DE88BE590E00F94F249C21AFA
:104F5000D30AE40AF50AC0921C07D0921D07E0921A
:104F60001E07F0921F07D0E0D0932F07C0932E07A3
:104F70001092E8061092E9061092EA061092EB06EB
:104F800080915A1E816080935A1E81E08093DB06D7
:104F9000DF91CF91FF90EF90DF90CF9008954091F7
:104FA000CC1E5091CD1E6091CE1E7091CF1E43300D
:104FB00051056105710508F4A7CF2091091F2F5FE6
:104FC0002093091FA1CF8091DB0A9091DC0AA09168
:104FD000DD0AB091DE0AB695A795979587958093DF
:104FE000E4069093E506A093E606B093E706D0CFDB
:104FF000CF92DF92EF92FF92CF93DF93F8942091BC
:105000002E0730912F079091DB06C090BF0CD090F7
:10501000C00CE090C10CF090C20C78944091300725
:105020005091310721503109249FE001259FD00D77
:10503000349FD00D11246091E11C7091E21CC60FC9
:10504000D71F992331F08091E61C81FD02C0C85919
:10505000DE4F0F94FB22609370057093710580936F
:105060007205909373059B01AC012C193D094E0903
:105070005F09A091EF0AB091F00A0F94DF49DC01BB
:10508000CB01905CAF4FBF4F2FE0B695A79597959A
:1050900087952A95D1F78C0F9D1F803D22E09207BE
:1050A0004CF0805D9240DF91CF91FF90EF90DF90C8
:1050B000CF90089597FFF7CF40912202509123029D
:1050C00020911A0230911B02241735070CF49A0123
:1050D000820F931FE8CF0C94F827CF92DF92EF92C4
:1050E000FF920F94FB2260934605709347058093CF
:1050F0004805909349058091460590914705A091F8
:105100004805B09149054091420550914305609191
:10511000440570914505841B950BA60BB70B809336
:10512000280790932907A0932A07B0932B07809113
:10513000420590914305A0914405B0914505892B06
:105140008A2B8B2BC1F410922807109229071092FA
:105150002A0710922B078091460590914705A09150
:105160004805B09149058093420590934305A0936B
:105170004405B09345054091280750912907609157
:105180002A0770912B0780913E0590913F05A091D1
:105190004005B0914105481759076A077B0708F495
:1051A00070C08091CA069091CB0601969093CB0671
:1051B0008093CA068091280790912907A0912A0719
:1051C000B0912B0722E0B695A795979587952A95DC
:1051D000D1F780933E0590933F05A0934005B0938F
:1051E0004105E0911E02F0911F021995893621E0D8
:1051F00092071CF088569140F9CF2091E11C309124
:10520000E21C821B930B20915F1F2370223031F42C
:1052100020915A1D30915B1D821B930B40915D1DA7
:105220009C01220F331F50E0A0E0B1E0A41BB50B9E
:105230000F944E4A6B017C01A091221FB091231F55
:105240009A010F94564AC60ED71EE81EF91ECD2CA1
:10525000DE2CEF2CFF24E7FCFA94D092231FC0929F
:10526000221F8091460590914705A0914805B09175
:1052700049058093420590934305A0934405B0935C
:105280004505FF90EF90DF90CF9008950F94FB229B
:105290006093620570936305809364059093650540
:1052A0008091620590916305A0916405B0916505B8
:1052B0004091BB0C5091BC0C6091BD0C7091BE0C28
:1052C000841B950BA60BB70B80932407909325079F
:1052D000A0932607B09327078091BB0C9091BC0C3C
:1052E000A091BD0CB091BE0C892B8A2B8B2BC1F4E5
:1052F0001092240710922507109226071092270774
:105300008091620590916305A0916405B091650557
:105310008093BB0C9093BC0CA093BD0CB093BE0CBF
:105320004091240750912507609126077091270727
:105330008091E4069091E506A091E606B091E7061B
:10534000481759076A077B07E8F08091E91C8F77B7
:105350008130C9F008F4AFC0823009F497C08430BE
:1053600009F4CAC08091620590916305A09164051B
:10537000B09165058093BB0C9093BC0CA093BD0CC1
:10538000B093BE0C08952091BB0C3091BC0C4091A1
:10539000BD0C5091BE0C8091CF069091D006A0918B
:1053A000D106B091D206281B390B4A0B5B0BA3E048
:1053B000B0E00F94DF499695879577956795609350
:1053C0005E0570935F058093600590936105809101
:1053D000BB0C9091BC0CA091BD0CB091BE0C809305
:1053E000CF069093D006A093D106B093D2064091F9
:1053F0002407509125076091260770912707809117
:105400005E0590915F05A0916005B0916105481718
:1054100059076A077B0738F58091B80C9091B90C51
:10542000049708F58091240790912507A0912607FD
:10543000B091270752E0B695A795979587955A950D
:10544000D1F78093E4069093E506A093E606B09327
:10545000E7068091B80C9091B90C01969093B90C25
:105460008093B80C7FCF81E090E09093B90C80934B
:10547000B80C8093DB061092E4061092E5061092B9
:10548000E6061092E7060E9427156CCF809124074C
:1054900090912507A0912607B0912707B695A7956B
:1054A000979587958093E4069093E506A093E6068A
:1054B000B093E706E8CF81E08093DB068091240774
:1054C00090912507A0912607B0912707B695A7953B
:1054D000979587958093E4069093E506A093E6065A
:1054E000B093E7068091B80C9091B90C0196909317
:1054F000B90C8093B80CC7CF8091B80C9091B90CBF
:1055000001969093B90C8093B80C8091B80C90914F
:10551000B90C029729F481E08093DB060E942715DD
:105520008091240790912507A0912607B091270725
:1055300022E0B695A795979587952A95D1F7809300
:10554000E4069093E506A093E606B093E7060ACF3B
:10555000CF93DF932091AB1E26FD08C020910C1F36
:10556000211107C080910D1F81112AC0DF91CF91B9
:1055700008954111FBCFE091A20CF091A30CEE0F26
:10558000FF1FEE0FFF1FEE5BFC4F60837183828372
:1055900093838091A20C9091A30C8E37910508F013
:1055A000CBC08091A20C9091A30C01969093A30C78
:1055B0008093A20C8091AB1E8F7B8093AB1ED6CFC5
:1055C000E091A20CF091A30CED53FD4F10822091BD
:1055D000C8063091C906C091C506D091C606A091F3
:1055E000C206B091C3068430B9F588819091C40693
:1055F000892349F0E091A20CF091A30CED53FD4FEB
:105600008081816080838C919091C106892349F0CB
:10561000E091A20CF091A30CED53FD4F80818260CC
:105620008083F90180819091C706892349F0E09138
:10563000A20CF091A30CED53FD4F80818460808318
:105640004230D1F5E091A20CF091A30CED53FD4F47
:1056500080818860808330C0F90190812091C706E5
:10566000922349F0E091A20CF091A30CED53FD4F71
:10567000908191609083833009F049C08C91909122
:10568000C106892349F0E091A20CF091A30CED53DF
:10569000FD4F80818260808388819091C406892338
:1056A00049F0E091A20CF091A30CED53FD4F8081E5
:1056B000846080834111C6CF80915A1E80FF09C04B
:1056C000E091A20CF091A30CED53FD4F808180611D
:1056D00080838091DB06E091A20CF091A30CED5346
:1056E000FD4F882331F1808180628083C091A20CBC
:1056F000D091A30C0F94FB22CC0FDD1FCC0FDD1F2C
:10570000CE5BDC4F688379838A839B8342CF888119
:105710009091C406892349F0E091A20CF091A30C6A
:10572000ED53FD4F8081826080838C919091C10602
:10573000B6CF80818F7DD9CF8091AB1E80643DCF65
:1057400080912C0B8F7D80932C0B80912C0B806291
:1057500080932C0B809133078330E1F4E091C206F3
:10576000F091C30680819091C1068923F1F4809164
:105770000D1F882319F180912C0B85FF1FC06091AC
:1057800028077091290780912A0790912B0742E002
:105790000C94A82A823079F4E091C206F091C306F5
:1057A00080819091C106892311F7E0910602F09162
:1057B00007021995DCCF8130C1F3D9CF08958091CC
:1057C0002C0B8F7D80932C0B80912C0B806280930F
:1057D0002C0B809134078330E1F4E091C506F09101
:1057E000C60680819091C4068923F1F480910D1F33
:1057F000882319F180912C0B85FF1FC0609124072D
:1058000070912507809126079091270741E00C941D
:10581000A82A823079F4E091C506F091C60680810D
:105820009091C406892311F7E0910802F0910902D2
:105830001995DCCF8130C1F3D9CF089580912C0B1D
:105840008F7D80932C0B809132078330F9F4E091A7
:10585000C806F091C90680819091C706892329F571
:1058600090910C1F992319F090912C0B95FF80912A
:105870000D1F882309F16091200770912107809105
:1058800022079091230740E00C94A82A823059F413
:10589000E091C806F091C90680819091C7068923DE
:1058A00021F080E0DDCF8130E1F7E0910402F0915A
:1058B0000502199581E0D4CF089580911E0B909137
:1058C0001F0B2091E11C3091E21C821B930B0E9464
:1058D000D0EA2091460C22952F70243051F018F414
:1058E000233009F108952630F1F0283009F456C02C
:1058F00008950197843B910568F082E090E09093D1
:1059000079058093780581E090E090937705809306
:105910007605089581E090E090937905809378056D
:1059200082E090E0F2CF9C012957310928373105F8
:1059300098F482E090E0909379058093780583E075
:1059400090E0909377058093760581E090E09093C6
:1059500075058093740508950197803F910578F04F
:1059600083E090E0909379058093780581E090E062
:10597000909377058093760582E090E0E8CF81E010
:1059800090E0909379058093780582E090E0909381
:1059900077058093760583E090E0D9CF9C012B5565
:1059A00031092A353105C8F482E090E090937905F9
:1059B0008093780583E090E0909377058093760557
:1059C00084E090E0909375058093740581E090E009
:1059D000909367058093660508959C01255B3109C6
:1059E0002A353105A8F483E090E0909379058093FF
:1059F000780584E090E0909377058093760581E0C8
:105A000090E0909375058093740582E090E0E0CF7C
:105A100001978E309140A8F084E090E09093790552
:105A20008093780581E090E09093770580937605E8
:105A300082E090E0909375058093740583E090E098
:105A4000C7CF81E090E0909379058093780582E05C
:105A500090E0909377058093760583E090E09093B3
:105A600075058093740584E090E0B2CF0F931F9387
:105A7000CF93DF93EC01CB012C813D8123303105A5
:105A800049F5E88DF98D00811181841B950B0E94E9
:105A9000D0EAEA8DFB8D2091120B3091130B4091CF
:105AA000140B5091150BDC010F94DF4960587F4FA8
:105AB0008F4F9F4F3AE096958795779567953A95E2
:105AC000D1F7600F711F71836083DF91CF911F91B8
:105AD0000F9108950091CC1E1091CD1E2091CE1EE5
